:10000000CE310400000000000000000000000000ED
:1000100000000000000000000000000000000000E0
:1000200000000000000000000000000000000000D0
:1000300000000000000000000000000000000000C0
:1000400000000000000000000000000000000000B0
:1000500000000000000000000000000000000000A0
:100060000000000000000000000000000000000090
:100070000000000000000000000000000000000080
:100080000000000000000000000000000000000070
:100090000000000000000000000000000000000060
:1000A0000000000000000000000000000000000050
:1000B0000000000000000000000000000000000040
:1000C0000000000000000000000000000000000030
:1000D0000000000000000000000000000000000020
:1000E0000000000000000000000000000000000010
:1000F0000000000000000000000000000000000000
:1001000000000000000000000000000000000000EF
:1001100000000000000000000000000000000000DF
:1001200000000000000000000000000000000000CF
:1001300000000000000000000000000000000000BF
:1001400000000000000000000000000000000000AF
:10015000000000000000000000000000000000009F
:10016000000000000000000000000000000000008F
:10017000000000000000000000000000000000007F
:10018000000000000000000000000000000000006F
:10019000000000000000000000000000000000005F
:1001A000000000000000000000000000000000004F
:1001B000000000000000000000000000000000003F
:1001C000000000000000000000000000000000002F
:1001D000000000000000000000000000000000001F
:1001E000000000000000000000000000000000000F
:1001F00000000000000000000000000000000000FF
:10639C008FCC2000F0FF200020A0B70000002000D0
:1063AC0034A0B700400020004420B700424A02004D
:1063BC00000000004C4A020000000000C3F8070077
:1063CC0094F80700E222A900E202A9007FF9070075
:1063DC00E202A800C7F80700E202A9007BF9070057
:1063EC00E202A800C3F80700E202A90077F907004F
:1063FC00E202A800BFF80700E202A90073F9070047
:10640C00E202A800BBF80700E222A800E202A90001
:10641C006EF90700E202A800B6F80700E202A90034
:10642C006AF90700E202A800B2F80700E202A9002C
:10643C0066F90700E202A800AEF80700E202A90024
:10644C0062F90700E202A800AAF80700E202A9001C
:10645C005EF90700E202A800A6F80700E202A90014
:10646C005AF90700E202A800A2F80700E202A9000C
:10647C0056F90700E202A8009EF80700E202A90004
:10648C0052F90700E202A8009AF80700E202A900FC
:10649C004EF90700E202A80096F80700E202A900F4
:1064AC004AF90700E202A80092F80700E202A900EC
:1064BC0046F90700E202A8008EF80700E202A900E4
:1064CC0042F90700E202A8008AF80700E202A900DC
:1064DC003EF90700E202A80086F80700E202A900D4
:1064EC003AF90700E202A80082F80700E202A900CC
:1064FC0036F90700E202A8007EF80700E202A900C4
:10650C0032F90700E202A8007AF80700E202A900BB
:10651C002EF90700E202A80076F80700E202A900B3
:10652C002AF90700E202A80072F80700E202A900AB
:10653C0026F90700E202A8006EF80700E202A900A3
:10654C0022F90700E202A8006AF80700E202A9009B
:10655C001EF90700E202A80066F80700E202A90093
:10656C001AF90700E202A80062F80700E202A9008B
:10657C0016F90700E202A8005EF80700E202A90083
:10658C0012F90700E202A8006DF70700E202A90069
:10659C000EF90700E202A80069F70700E202A90061
:1065AC000AF90700E202A80065F70700E202A90059
:1065BC0006F90700E202A80061F70700E202A90051
:1065CC0002F90700E202A8005DF70700E202A90049
:1065DC00FEF80700E202A80059F70700E202A90042
:1065EC00FAF80700E202A80055F70700E202A9003A
:1065FC00F6F80700E202A80051F70700E202A90032
:10660C00F2F80700E202A8004DF70700E202A90029
:10661C00EEF80700E202A80049F70700E202A90021
:10662C00EAF80700E202A80045F70700E202A90019
:10663C00E6F80700E202A80041F70700E202A90011
:10664C00E2F80700E202A8003DF70700E202A90009
:10665C00DEF80700E202A80039F70700E202A90001
:10666C00DAF80700E202A80035F70700E202A900F9
:10667C00D6F80700E202A80031F70700E202A900F1
:10668C00D2F80700E202A8002DF70700E202A900E9
:10669C00CEF80700E202A80029F70700E202A900E1
:1066AC00CAF80700E202A80025F70700E202A900D9
:1066BC00C6F80700E202A80021F70700E202A900D1
:1066CC00C2F80700E202A800FEF40700E202A900EB
:1066DC00BEF80700E202A800FAF40700E202A900E3
:1066EC00BAF80700E202A800F6F40700E202A900DB
:1066FC00B6F80700E202A800F2F40700E202A900D3
:10670C00B2F80700E202A800EEF40700E202A900CA
:10671C00AEF80700E202A800EAF40700E202A900C2
:10672C00AAF80700E202A800E6F40700E202A900BA
:10673C00A6F80700E202A800E2F40700E202A900B2
:10674C00A2F80700E202A800DEF40700E202A900AA
:10675C009EF80700E202A800DAF40700E202A900A2
:10676C009AF80700E202A800D6F40700E202A9009A
:10677C0096F80700E202A800D2F40700E202A90092
:10678C0092F80700E202A800CEF40700E202A9008A
:10679C008EF80700E202A800CAF40700E202A90082
:1067AC008AF80700E202A800C6F40700E202A9007A
:1067BC0086F80700E202A800C2F40700E202A90072
:1067CC0082F80700E202A800BEF40700E202A9006A
:1067DC007EF80700E202A800BAF40700E202A90062
:1067EC007AF80700E202A800B6F40700E202A9005A
:1067FC0076F80700E202A800B2F40700E202A90052
:10680C0072F80700E202A800F9F30700E202A900FF
:10681C006EF80700E202A800F5F30700E202A900F7
:10682C006AF80700E202A800F1F30700E202A900EF
:10683C0066F80700E202A800EDF30700E202A900E7
:10684C0062F80700E202A800E9F30700E202A900DF
:10685C005EF80700E202A800E5F30700E202A900D7
:10686C005AF80700E202A800E1F30700E202A900CF
:10687C0056F80700E202A800DDF30700E202A900C7
:10688C0052F80700E202A800D9F30700E202A900BF
:10689C004EF80700E202A800D5F30700E202A900B7
:1068AC004AF80700E202A800D1F30700E202A900AF
:1068BC0046F80700E202A800CDF30700E202A900A7
:1068CC0042F80700E202A800C9F30700E202A9009F
:1068DC003EF80700E202A800C5F30700E202A90097
:1068EC003AF80700E202A800C1F30700E202A9008F
:1068FC0036F80700E202A800BDF30700E202A90087
:10690C0032F80700E202A800B9F30700E202A9007E
:10691C002EF80700E202A800B5F30700E202A90076
:10692C002AF80700E202A800B1F30700E202A9006E
:10693C0026F80700E202A800ADF30700E202A90066
:10694C0022F80700E202A800C8F50700E202A9003D
:10695C001EF80700E202A800C4F50700E202A90035
:10696C001AF80700E202A800C0F50700E202A9002D
:10697C0016F80700E202A800BCF50700E202A90025
:10698C0012F80700E202A800B8F50700E202A9001D
:10699C000EF80700E202A800B4F50700E202A90015
:1069AC000AF80700E202A800B0F50700E202A9000D
:1069BC0006F80700E202A800ACF50700E202A90005
:1069CC0002F80700E202A800A8F50700E202A900FD
:1069DC00FEF70700E202A800A4F50700E202A900F6
:1069EC00FAF70700E202A800A0F50700E202A900EE
:1069FC00F6F70700E202A8009CF50700E202A900E6
:106A0C00F2F70700E202A80098F50700E202A900DD
:106A1C00EEF70700E202A80094F50700E202A900D5
:106A2C00EAF70700E202A80090F50700E202A900CD
:106A3C00E6F70700E202A8008CF50700E202A900C5
:106A4C00E2F70700E202A80088F50700E202A900BD
:106A5C00DEF70700E202A80084F50700E202A900B5
:106A6C00DAF70700E202A80080F50700E202A900AD
:106A7C00D6F70700E202A8007CF50700E202A900A5
:106A8C00D2F70700E202A800C3F40700E202A90053
:106A9C00CEF70700E202A800BFF40700E202A9004B
:106AAC00CAF70700E202A800BBF40700E202A90043
:106ABC00C6F70700E202A800B7F40700E202A9003B
:106ACC00C2F70700E202A800B3F40700E202A90033
:106ADC00BEF70700E202A800AFF40700E202A9002B
:106AEC00BAF70700E202A800ABF40700E202A90023
:106AFC00B6F70700E202A800A7F40700E202A9001B
:106B0C00B2F70700E202A800A3F40700E202A90012
:106B1C00AEF70700E202A8009FF40700E202A9000A
:106B2C00AAF70700E202A8009BF40700E202A90002
:106B3C00A6F70700E202A80097F40700E202A900FA
:106B4C00A2F70700E202A80093F40700E202A900F2
:106B5C009EF70700E202A8008FF40700E202A900EA
:106B6C009AF70700E202A8008BF40700E202A900E2
:106B7C0096F70700E202A80087F40700E202A900DA
:106B8C0092F70700E202A80083F40700E202A900D2
:106B9C008EF70700E202A8007FF40700E202A900CA
:106BAC008AF70700E202A8007BF40700E202A900C2
:106BBC0086F70700E202A80077F40700E202A900BA
:106BCC0082F70700E202A800D2FB0700E202A9004C
:106BDC007EF70700E202A800CEFB0700E202A90044
:106BEC007AF70700E202A800CAFB0700E202A9003C
:106BFC0076F70700E202A800C6FB0700E202A90034
:106C0C0072F70700E202A800C2FB0700E202A9002B
:106C1C006EF70700E202A800BEFB0700E202A90023
:106C2C006AF70700E202A800BAFB0700E202A9001B
:106C3C0066F70700E202A800B6FB0700E202A90013
:106C4C0062F70700E202A800B2FB0700E202A9000B
:106C5C005EF70700E202A800AEFB0700E202A90003
:106C6C005AF70700E202A800AAFB0700E202A900FB
:106C7C0056F70700E202A800A6FB0700E202A900F3
:106C8C0052F70700E202A800A2FB0700E202A900EB
:106C9C004EF70700E202A8009EFB0700E202A900E3
:106CAC004AF70700E202A8009AFB0700E202A900DB
:106CBC0046F70700E202A80096FB0700E202A900D3
:106CCC0042F70700E202A80092FB0700E202A900CB
:106CDC003EF70700E202A8008EFB0700E202A900C3
:106CEC003AF70700E202A8008AFB0700E202A900BB
:106CFC0036F70700E202A80086FB0700E202A900B3
:106D0C0032F70700E202A800CDFA0700E202A90060
:106D1C002EF70700E202A800C9FA0700E202A90058
:106D2C002AF70700E202A800C5FA0700E202A90050
:106D3C0026F70700E202A800C1FA0700E202A90048
:106D4C0022F70700E202A800BDFA0700E202A90040
:106D5C001EF70700E202A800B9FA0700E202A90038
:106D6C001AF70700E202A800B5FA0700E202A90030
:106D7C0016F70700E202A800B1FA0700E202A90028
:106D8C0012F70700E202A800ADFA0700E202A90020
:106D9C000EF70700E202A800A9FA0700E202A90018
:106DAC000AF70700E202A800A5FA0700E202A90010
:106DBC0006F70700E202A800A1FA0700E202A90008
:106DCC0002F70700E202A8009DFA0700E202A90000
:106DDC00FEF60700E202A80099FA0700E202A900F9
:106DEC00FAF60700E202A80095FA0700E202A900F1
:106DFC00F6F60700E202A80091FA0700E202A900E9
:106E0C00F2F60700E202A8008DFA0700E202A900E0
:106E1C00EEF60700E202A80089FA0700E202A900D8
:106E2C00EAF60700E202A80085FA0700E202A900D0
:106E3C00E6F60700E202A80081FA0700E202A900C8
:106E4C00E2F60700E202A8009CFC0700E202A9009F
:106E5C00DEF60700E202A80098FC0700E202A90097
:106E6C00DAF60700E202A80094FC0700E202A9008F
:106E7C00D6F60700E202A80090FC0700E202A90087
:106E8C00D2F60700E202A8008CFC0700E202A9007F
:106E9C00CEF60700E202A80088FC0700E202A90077
:106EAC00CAF60700E202A80084FC0700E202A9006F
:106EBC00C6F60700E202A80080FC0700E202A90067
:106ECC00C2F60700E202A8007CFC0700E202A9005F
:106EDC00BEF60700E202A80078FC0700E202A90057
:106EEC00BAF60700E202A80074FC0700E202A9004F
:106EFC00B6F60700E202A80070FC0700E202A90047
:106F0C00B2F60700E202A8006CFC0700E202A9003E
:106F1C00AEF60700E202A80068FC0700E202A90036
:106F2C00AAF60700E202A80064FC0700E202A9002E
:106F3C00A6F60700E202A80060FC0700E202A90026
:106F4C00A2F60700E202A8005CFC0700E202A9001E
:106F5C009EF60700E202A80058FC0700E202A90016
:106F6C009AF60700E202A80054FC0700E202A9000E
:106F7C0096F60700E202A80050FC0700E202A90006
:106F8C0092F60700E202A80097FB0700E202A900B4
:106F9C008EF60700E202A80093FB0700E202A900AC
:106FAC008AF60700E202A8008FFB0700E202A900A4
:106FBC0086F60700E202A8008BFB0700E202A9009C
:106FCC0082F60700E202A80087FB0700E202A90094
:106FDC007EF60700E202A80083FB0700E202A9008C
:106FEC007AF60700E202A8007FFB0700E202A90084
:106FFC0076F60700E202A8007BFB0700E202A9007C
:10700C0072F60700E202A80077FB0700E202A90073
:10701C006EF60700E202A80073FB0700E202A9006B
:10702C006AF60700E202A8006FFB0700E202A90063
:10703C0066F60700E202A8006BFB0700E202A9005B
:10704C0062F60700E202A80067FB0700E202A90053
:10705C005EF60700E202A80063FB0700E202A9004B
:10706C005AF60700E202A8005FFB0700E202A90043
:10707C0056F60700E202A8005BFB0700E202A9003B
:10708C0052F60700E202A80057FB0700E202A90033
:10709C004EF60700E202A80053FB0700E202A9002B
:1070AC004AF60700E202A8004FFB0700E202A90023
:1070BC0046F60700E202A8004BFB0700E202A9001B
:1070CC0042F60700E202A80028F90700E202A90034
:1070DC003EF60700E202A80024F90700E202A9002C
:1070EC003AF60700E202A80020F90700E202A90024
:1070FC0036F60700E202A8001CF90700E202A9001C
:10710C0032F60700E202A80018F90700E202A90013
:10711C002EF60700E202A80014F90700E202A9000B
:10712C002AF60700E202A80010F90700E202A90003
:10713C0026F60700E202A8000CF90700E202A900FB
:10714C0022F60700E202A80008F90700E202A900F3
:10715C001EF60700E202A80004F90700E202A900EB
:10716C001AF60700E202A80000F90700E202A900E3
:10717C0016F60700E202A800FCF80700E202A900DC
:10718C0012F60700E202A800F8F80700E202A900D4
:10719C000EF60700E202A800F4F80700E202A900CC
:1071AC000AF60700E202A800F0F80700E202A900C4
:1071BC0006F60700E202A800ECF80700E202A900BC
:1071CC0002F60700E202A800E8F80700E202A900B4
:1071DC00FEF50700E202A800E4F80700E202A900AD
:1071EC00FAF50700E202A800E0F80700E202A900A5
:1071FC00F6F50700E202A800DCF80700E202A9009D
:10720C00F2F50700E202A800B9F60700E202A900B5
:10721C00EEF50700E202A800B5F60700E202A900AD
:10722C00EAF50700E202A800B1F60700E202A900A5
:10723C00E6F50700E202A800ADF60700E202A9009D
:10724C00E2F50700E202A800A9F60700E202A90095
:10725C00DEF50700E202A800A5F60700E202A9008D
:10726C00DAF50700E202A800A1F60700E202A90085
:10727C00D6F50700E202A8009DF60700E202A9007D
:10728C00D2F50700E202A80099F60700E202A90075
:10729C00CEF50700E202A80095F60700E202A9006D
:1072AC00CAF50700E202A80091F60700E202A90065
:1072BC00C6F50700E202A8008DF60700E202A9005D
:1072CC00C2F50700E202A80089F60700E202A90055
:1072DC00BEF50700E202A80085F60700E202A9004D
:1072EC00BAF50700E202A80081F60700E202A90045
:1072FC00B6F50700E202A8007DF60700E202A9003D
:10730C00B2F50700E202A80079F60700E202A90034
:10731C00AEF50700E202A80075F60700E202A9002C
:10732C00AAF50700E202A80071F60700E202A90024
:10733C00A6F50700E202A8006DF60700E202A9001C
:10734C00A2F50700E202A800B4F50700E202A900CA
:10735C009EF50700E202A800B0F50700E202A900C2
:10736C009AF50700E202A800ACF50700E202A900BA
:10737C0096F50700E202A800A8F50700E202A900B2
:10738C0092F50700E202A800A4F50700E202A900AA
:10739C008EF50700E202A800A0F50700E202A900A2
:1073AC008AF50700E202A8009CF50700E202A9009A
:1073BC0086F50700E202A80098F50700E202A90092
:1073CC0082F50700E202A80094F50700E202A9008A
:1073DC007EF50700E202A80090F50700E202A90082
:1073EC007AF50700E202A8008CF50700E202A9007A
:1073FC0076F50700E202A80088F50700E202A90072
:10740C0072F50700E202A80084F50700E202A90069
:10741C006EF50700E202A80080F50700E202A90061
:10742C006AF50700E202A8007CF50700E202A90059
:10743C0066F50700E202A80078F50700E202A90051
:10744C0062F50700E202A80074F50700E202A90049
:10745C005EF50700E202A80070F50700E202A90041
:10746C005AF50700E202A8006CF50700E202A90039
:10747C0056F50700E202A80068F50700E202A90031
:10748C0052F50700E202A80083F70700E202A90008
:10749C004EF50700E202A8007FF70700E202A90000
:1074AC004AF50700E202A8007BF70700E202A900F8
:1074BC0046F50700E202A80077F70700E202A900F0
:1074CC0042F50700E202A80073F70700E202A900E8
:1074DC003EF50700E202A8006FF70700E202A900E0
:1074EC003AF50700E202A8006BF70700E202A900D8
:1074FC0036F50700E202A80067F70700E202A900D0
:10750C0032F50700E202A80063F70700E202A900C7
:10751C002EF50700E202A8005FF70700E202A900BF
:10752C002AF50700E202A8005BF70700E202A900B7
:10753C0026F50700E202A80057F70700E202A900AF
:10754C0022F50700E202A80053F70700E202A900A7
:10755C001EF50700E202A8004FF70700E202A9009F
:10756C001AF50700E202A8004BF70700E202A90097
:10757C0016F50700E202A80047F70700E202A9008F
:10758C0012F50700E202A80043F70700E202A90087
:10759C000EF50700E202A8003FF70700E202A9007F
:1075AC000AF50700E202A8003BF70700E202A90077
:1075BC0006F50700E202A80037F70700E202A9006F
:1075CC0002F50700E202A8007EF60700E202A9001D
:1075DC00FEF40700E202A8007AF60700E202A90016
:1075EC00FAF40700E202A80076F60700E202A9000E
:1075FC00F6F40700E202A80072F60700E202A90006
:10760C00F2F40700E202A8006EF60700E202A900FD
:10761C00EEF40700E202A8006AF60700E202A900F5
:10762C00EAF40700E202A80066F60700E202A900ED
:10763C00E6F40700E202A80062F60700E202A900E5
:10764C00E2F40700E202A8005EF60700E202A900DD
:10765C00DEF40700E202A8005AF60700E202A900D5
:10766C00DAF40700E202A80056F60700E202A900CD
:10767C00D6F40700E202A80052F60700E202A900C5
:10768C00D2F40700E202A8004EF60700E202A900BD
:10769C00CEF40700E202A8004AF60700E202A900B5
:1076AC00CAF40700E202A80046F60700E202A900AD
:1076BC00C6F40700E202A80042F60700E202A900A5
:1076CC00C2F40700E202A8003EF60700E202A9009D
:1076DC00BEF40700E202A8003AF60700E202A90095
:1076EC00BAF40700E202A80036F60700E202A9008D
:1076FC00B6F40700E202A80032F60700E202A90085
:10770C00B2F40700E202A80084EF0700E202A9002D
:10771C00AEF40700E202A80080EF0700E202A90025
:10772C00AAF40700E202A8007CEF0700E202A9001D
:10773C00A6F40700E202A80078EF0700E202A90015
:10774C00A2F40700E202A80074EF0700E202A9000D
:10775C009EF40700E202A80070EF0700E202A90005
:10776C009AF40700E202A8006CEF0700E202A900FD
:10777C0096F40700E202A80068EF0700E202A900F5
:10778C0092F40700E202A80064EF0700E202A900ED
:10779C008EF40700E202A80060EF0700E202A900E5
:1077AC008AF40700E202A8005CEF0700E202A900DD
:1077BC0086F40700E202A80058EF0700E202A900D5
:1077CC0082F40700E202A80054EF0700E202A900CD
:1077DC007EF40700E202A80050EF0700E202A900C5
:1077EC007AF40700E202A8004CEF0700E202A900BD
:1077FC0076F40700E202A80048EF0700E202A900B5
:10780C0072F40700E202A80044EF0700E202A900AC
:10781C006EF40700E202A80040EF0700E202A900A4
:10782C006AF40700E202A8003CEF0700E202A9009C
:10783C0066F40700E202A80038EF0700E202A90094
:10784C0062F40700E202A80029E60700E202A900A0
:10785C005EF40700E202A80025E60700E202A90098
:10786C005AF40700E202A80021E60700E202A90090
:10787C0056F40700E202A8001DE60700E202A90088
:10788C0052F40700E202A80019E60700E202A90080
:10789C004EF40700E202A80015E60700E202A90078
:1078AC004AF40700E202A80011E60700E202A90070
:1078BC0046F40700E202A8000DE60700E202A90068
:1078CC0042F40700E202A80009E60700E202A90060
:1078DC003EF40700E202A80005E60700E202A90058
:1078EC003AF40700E202A80001E60700E202A90050
:1078FC0036F40700E202A800FDE50700E202A90049
:10790C0032F40700E202A800F9E50700E202A90040
:10791C002EF40700E202A800F5E50700E202A90038
:10792C002AF40700E202A800F1E50700E202A90030
:10793C0026F40700E202A800EDE50700E202A90028
:10794C0022F40700E202A800E9E50700E202A90020
:10795C001EF40700E202A800E5E50700E202A90018
:10796C001AF40700E202A800E1E50700E202A90010
:10797C0016F40700E202A800DDE50700E202A90008
:10798C0012F40700E202A80024E50700E202A900B5
:10799C000EF40700E202A80020E50700E202A900AD
:1079AC000AF40700E202A8001CE50700E202A900A5
:1079BC0006F40700E202A80018E50700E202A9009D
:1079CC0002F40700E202A80014E50700E202A90095
:1079DC00FEF30700E202A80010E50700E202A9008E
:1079EC00FAF30700E202A8000CE50700E202A90086
:1079FC00F6F30700E202A80008E50700E202A9007E
:107A0C00F2F30700E202A80004E50700E202A90075
:107A1C00EEF30700E202A80000E50700E202A9006D
:107A2C00EAF30700E202A800FCE40700E202A90066
:107A3C00E6F30700E202A800F8E40700E202A9005E
:107A4C00E2F30700E202A800F4E40700E202A90056
:107A5C00DEF30700E202A800F0E40700E202A9004E
:107A6C00DAF30700E202A800ECE40700E202A90046
:107A7C00D6F30700E202A800E8E40700E202A9003E
:107A8C00D2F30700E202A800E4E40700E202A90036
:107A9C00CEF30700E202A800E0E40700E202A9002E
:107AAC00CAF30700E202A800DCE40700E202A90026
:107ABC00C6F30700E202A800D8E40700E202A9001E
:107ACC00C2F30700E202A800F3E60700E202A900F5
:107ADC00BEF30700E202A800EFE60700E202A900ED
:107AEC00BAF30700E202A800EBE60700E202A900E5
:107AFC00B6F30700E202A800E7E60700E202A900DD
:107B0C00B2F30700E202A800E3E60700E202A900D4
:107B1C00AEF30700E202A800DFE60700E202A900CC
:107B2C00AAF30700E202A800DBE60700E202A900C4
:107B3C00A6F30700E202A800D7E60700E202A900BC
:107B4C00A2F30700E202A800D3E60700E202A900B4
:107B5C009EF30700E202A800CFE60700E202A900AC
:107B6C009AF30700E202A800CBE60700E202A900A4
:107B7C0096F30700E202A800C7E60700E202A9009C
:107B8C0092F30700E202A800C3E60700E202A90094
:107B9C008EF30700E202A800BFE60700E202A9008C
:107BAC008AF30700E202A800BBE60700E202A90084
:107BBC0086F30700E202A800B7E60700E202A9007C
:107BCC0082F30700E202A800B3E60700E202A90074
:107BDC007EF30700E202A800AFE60700E202A9006C
:107BEC007AF30700E202A800ABE60700E202A90064
:107BFC0076F30700E202A800A7E60700E202A9005C
:107C0C0072F30700E202A800EEE50700E202A90009
:107C1C006EF30700E202A800EAE50700E202A90001
:107C2C006AF30700E202A800E6E50700E202A900F9
:107C3C0066F30700E202A800E2E50700E202A900F1
:107C4C0062F30700E202A800DEE50700E202A900E9
:107C5C005EF30700E202A800DAE50700E202A900E1
:107C6C005AF30700E202A800D6E50700E202A900D9
:107C7C0056F30700E202A800D2E50700E202A900D1
:107C8C0052F30700E202A800CEE50700E202A900C9
:107C9C004EF30700E202A800CAE50700E202A900C1
:107CAC004AF30700E202A800C6E50700E202A900B9
:107CBC0046F30700E202A800C2E50700E202A900B1
:107CCC0042F30700E202A800BEE50700E202A900A9
:107CDC003EF30700E202A800BAE50700E202A900A1
:107CEC003AF30700E202A800B6E50700E202A90099
:107CFC0036F30700E202A800B2E50700E202A90091
:107D0C0032F30700E202A800AEE50700E202A90088
:107D1C002EF30700E202A800AAE50700E202A90080
:107D2C002AF30700E202A800A6E50700E202A90078
:107D3C0026F30700E202A800A2E50700E202A90070
:107D4C0022F30700E202A80015E20700E202A900F4
:107D5C001EF30700E202A80011E20700E202A900EC
:107D6C001AF30700E202A8000DE20700E202A900E4
:107D7C0016F30700E202A80009E20700E202A900DC
:107D8C0012F30700E202A80005E20700E202A900D4
:107D9C000EF30700E202A80001E20700E202A900CC
:107DAC000AF30700E202A800FDE10700E202A900C5
:107DBC0006F30700E202A800F9E10700E202A900BD
:107DCC0002F30700E202A800F5E10700E202A900B5
:107DDC00FEF20700E202A800F1E10700E202A900AE
:107DEC00FAF20700E202A800EDE10700E202A900A6
:107DFC00F6F20700E202A800E9E10700E202A9009E
:107E0C00F2F20700E202A800E5E10700E202A90095
:107E1C00EEF20700E202A800E1E10700E202A9008D
:107E2C00EAF20700E202A800DDE10700E202A90085
:107E3C00E6F20700E202A800D9E10700E202A9007D
:107E4C00E2F20700E202A800D5E10700E202A90075
:107E5C00DEF20700E202A800D1E10700E202A9006D
:107E6C00DAF20700E202A800CDE10700E202A90065
:107E7C00D6F20700E202A800C9E10700E202A9005D
:107E8C00D2F20700E202A80010E10700E202A9000A
:107E9C00CEF20700E202A8000CE10700E202A90002
:107EAC00CAF20700E202A80008E10700E202A900FA
:107EBC00C6F20700E202A80004E10700E202A900F2
:107ECC00C2F20700E202A80000E10700E202A900EA
:107EDC00BEF20700E202A800FCE00700E202A900E3
:107EEC00BAF20700E202A800F8E00700E202A900DB
:107EFC00B6F20700E202A800F4E00700E202A900D3
:107F0C00B2F20700E202A800F0E00700E202A900CA
:107F1C00AEF20700E202A800ECE00700E202A900C2
:107F2C00AAF20700E202A800E8E00700E202A900BA
:107F3C00A6F20700E202A800E4E00700E202A900B2
:107F4C00A2F20700E202A800E0E00700E202A900AA
:107F5C009EF20700E202A800DCE00700E202A900A2
:107F6C009AF20700E202A800D8E00700E202A9009A
:107F7C0096F20700E202A800D4E00700E202A90092
:107F8C0092F20700E202A800D0E00700E202A9008A
:107F9C008EF20700E202A800CCE00700E202A90082
:107FAC008AF20700E202A800C8E00700E202A9007A
:107FBC0086F20700E202A800C4E00700E202A90072
:107FCC0082F20700E202A800DFE20700E202A90049
:107FDC007EF20700E202A800DBE20700E202A90041
:107FEC007AF20700E202A800D7E20700E202A90039
:107FFC0076F20700E202A800D3E20700E202A90031
:10800C0072F20700E202A800CFE20700E202A90028
:10801C006EF20700E202A800CBE20700E202A90020
:10802C006AF20700E202A800C7E20700E202A90018
:10803C0066F20700E202A800C3E20700E202A90010
:10804C0062F20700E202A800BFE20700E202A90008
:10805C005EF20700E202A800BBE20700E202A90000
:10806C005AF20700E202A800B7E20700E202A900F8
:10807C0056F20700E202A800B3E20700E202A900F0
:10808C0052F20700E202A800AFE20700E202A900E8
:10809C004EF20700E202A800ABE20700E202A900E0
:1080AC004AF20700E202A800A7E20700E202A900D8
:1080BC0046F20700E202A800A3E20700E202A900D0
:1080CC0042F20700E202A8009FE20700E202A900C8
:1080DC003EF20700E202A8009BE20700E202A900C0
:1080EC003AF20700E202A80097E20700E202A900B8
:1080FC0036F20700E202A80093E20700E202A900B0
:10810C0032F20700E202A800DAE10700E202A9005D
:10811C002EF20700E202A800D6E10700E202A90055
:10812C002AF20700E202A800D2E10700E202A9004D
:10813C0026F20700E202A800CEE10700E202A90045
:10814C0022F20700E202A800CAE10700E202A9003D
:10815C001EF20700E202A800C6E10700E202A90035
:10816C001AF20700E202A800C2E10700E202A9002D
:10817C0016F20700E202A800BEE10700E202A90025
:10818C0012F20700E202A800BAE10700E202A9001D
:10819C000EF20700E202A800B6E10700E202A90015
:1081AC000AF20700E202A800B2E10700E202A9000D
:1081BC0006F20700E202A800AEE10700E202A90005
:1081CC0002F20700E202A800AAE10700E202A900FD
:1081DC00FEF10700E202A800A6E10700E202A900F6
:1081EC00FAF10700E202A800A2E10700E202A900EE
:1081FC00F6F10700E202A8009EE10700E202A900E6
:10820C00F2F10700E202A8009AE10700E202A900DD
:10821C00EEF10700E202A80096E10700E202A900D5
:10822C00EAF10700E202A80092E10700E202A900CD
:10823C00E6F10700E202A8008EE10700E202A900C5
:10824C00E2F10700E202A80095EA0700E202A900A9
:10825C00DEF10700E202A80091EA0700E202A900A1
:10826C00DAF10700E202A8008DEA0700E202A90099
:10827C00D6F10700E202A80089EA0700E202A90091
:10828C00D2F10700E202A80085EA0700E202A90089
:10829C00CEF10700E202A80081EA0700E202A90081
:1082AC00CAF10700E202A8007DEA0700E202A90079
:1082BC00C6F10700E202A80079EA0700E202A90071
:1082CC00C2F10700E202A80075EA0700E202A90069
:1082DC00BEF10700E202A80071EA0700E202A90061
:1082EC00BAF10700E202A8006DEA0700E202A90059
:1082FC00B6F10700E202A80069EA0700E202A90051
:10830C00B2F10700E202A80065EA0700E202A90048
:10831C00AEF10700E202A80061EA0700E202A90040
:10832C00AAF10700E202A8005DEA0700E202A90038
:10833C00A6F10700E202A80059EA0700E202A90030
:10834C00A2F10700E202A80055EA0700E202A90028
:10835C009EF10700E202A80051EA0700E202A90020
:10836C009AF10700E202A8004DEA0700E202A90018
:10837C0096F10700E202A80049EA0700E202A90010
:10838C0092F10700E202A80090E90700E202A900BE
:10839C008EF10700E202A8008CE90700E202A900B6
:1083AC008AF10700E202A80088E90700E202A900AE
:1083BC0086F10700E202A80084E90700E202A900A6
:1083CC0082F10700E202A80080E90700E202A9009E
:1083DC007EF10700E202A8007CE90700E202A90096
:1083EC007AF10700E202A80078E90700E202A9008E
:1083FC0076F10700E202A80074E90700E202A90086
:10840C0072F10700E202A80070E90700E202A9007D
:10841C006EF10700E202A8006CE90700E202A90075
:10842C006AF10700E202A80068E90700E202A9006D
:10843C0066F10700E202A80064E90700E202A90065
:10844C0062F10700E202A80060E90700E202A9005D
:10845C005EF10700E202A8005CE90700E202A90055
:10846C005AF10700E202A80058E90700E202A9004D
:10847C0056F10700E202A80054E90700E202A90045
:10848C0052F10700E202A80050E90700E202A9003D
:10849C004EF10700E202A8004CE90700E202A90035
:1084AC004AF10700E202A80048E90700E202A9002D
:1084BC0046F10700E202A80044E90700E202A90025
:1084CC0042F10700E202A8005FEB0700E202A900FC
:1084DC003EF10700E202A8005BEB0700E202A900F4
:1084EC003AF10700E202A80057EB0700E202A900EC
:1084FC0036F10700E202A80053EB0700E202A900E4
:10850C0032F10700E202A8004FEB0700E202A900DB
:10851C002EF10700E202A8004BEB0700E202A900D3
:10852C002AF10700E202A80047EB0700E202A900CB
:10853C0026F10700E202A80043EB0700E202A900C3
:10854C0022F10700E202A8003FEB0700E202A900BB
:10855C001EF10700E202A8003BEB0700E202A900B3
:10856C001AF10700E202A80037EB0700E202A900AB
:10857C0016F10700E202A80033EB0700E202A900A3
:10858C0012F10700E202A8002FEB0700E202A9009B
:10859C000EF10700E202A8002BEB0700E202A90093
:1085AC000AF10700E202A80027EB0700E202A9008B
:1085BC0006F10700E202A80023EB0700E202A90083
:1085CC0002F10700E202A8001FEB0700E202A9007B
:1085DC00FEF00700E202A8001BEB0700E202A90074
:1085EC00FAF00700E202A80017EB0700E202A9006C
:1085FC00F6F00700E202A80013EB0700E202A90064
:10860C00F2F00700E202A8005AEA0700E202A90011
:10861C00EEF00700E202A80056EA0700E202A90009
:10862C00EAF00700E202A80052EA0700E202A90001
:10863C00E6F00700E202A8004EEA0700E202A900F9
:10864C00E2F00700E202A8004AEA0700E202A900F1
:10865C00DEF00700E202A80046EA0700E202A900E9
:10866C00DAF00700E202A80042EA0700E202A900E1
:10867C00D6F00700E202A8003EEA0700E202A900D9
:10868C00D2F00700E202A8003AEA0700E202A900D1
:10869C00CEF00700E202A80036EA0700E202A900C9
:1086AC00CAF00700E202A80032EA0700E202A900C1
:1086BC00C6F00700E202A8002EEA0700E202A900B9
:1086CC00C2F00700E202A8002AEA0700E202A900B1
:1086DC00BEF00700E202A80026EA0700E202A900A9
:1086EC00BAF00700E202A80022EA0700E202A900A1
:1086FC00B6F00700E202A8001EEA0700E202A90099
:10870C00B2F00700E202A8001AEA0700E202A90090
:10871C00AEF00700E202A80016EA0700E202A90088
:10872C00AAF00700E202A80012EA0700E202A90080
:10873C00A6F00700E202A8000EEA0700E202A90078
:10874C00A2F00700E202A8003DE50700E202A90042
:10875C009EF00700E202A80039E50700E202A9003A
:10876C009AF00700E202A80035E50700E202A90032
:10877C0096F00700E202A80031E50700E202A9002A
:10878C0092F00700E202A8002DE50700E202A90022
:10879C008EF00700E202A80029E50700E202A9001A
:1087AC008AF00700E202A80025E50700E202A90012
:1087BC0086F00700E202A80021E50700E202A9000A
:1087CC0082F00700E202A8001DE50700E202A90002
:1087DC007EF00700E202A80019E50700E202A900FA
:1087EC007AF00700E202A80015E50700E202A900F2
:1087FC0076F00700E202A80011E50700E202A900EA
:10880C0072F00700E202A8000DE50700E202A900E1
:10881C006EF00700E202A80009E50700E202A900D9
:10882C006AF00700E202A80005E50700E202A900D1
:10883C0066F00700E202A80001E50700E202A900C9
:10884C0062F00700E202A800FDE40700E202A900C2
:10885C005EF00700E202A800F9E40700E202A900BA
:10886C005AF00700E202A800F5E40700E202A900B2
:10887C0056F00700E202A800F1E40700E202A900AA
:10888C0052F00700E202A80038E40700E202A90057
:10889C004EF00700E202A80034E40700E202A9004F
:1088AC004AF00700E202A80030E40700E202A90047
:1088BC0046F00700E202A8002CE40700E202A9003F
:1088CC0042F00700E202A80028E40700E202A90037
:1088DC003EF00700E202A80024E40700E202A9002F
:1088EC003AF00700E202A80020E40700E202A90027
:1088FC0036F00700E202A8001CE40700E202A9001F
:10890C0032F00700E202A80018E40700E202A90016
:10891C002EF00700E202A80014E40700E202A9000E
:10892C002AF00700E202A80010E40700E202A90006
:10893C0026F00700E202A8000CE40700E202A900FE
:10894C0022F00700E202A80008E40700E202A900F6
:10895C001EF00700E202A80004E40700E202A900EE
:10896C001AF00700E202A80000E40700E202A900E6
:10897C0016F00700E202A800FCE30700E202A900DF
:10898C0012F00700E202A800F8E30700E202A900D7
:10899C000EF00700E202A800F4E30700E202A900CF
:1089AC000AF00700E202A800F0E30700E202A900C7
:1089BC0006F00700E202A800ECE30700E202A900BF
:1089CC0002F00700E202A8004BE70700E202A90050
:1089DC00FEEF0700E202A80047E70700E202A90049
:1089EC00FAEF0700E202A80043E70700E202A90041
:1089FC00F6EF0700E202A8003FE70700E202A90039
:108A0C00F2EF0700E202A8003BE70700E202A90030
:108A1C00EEEF0700E202A80037E70700E202A90028
:108A2C00EAEF0700E202A80033E70700E202A90020
:108A3C00E6EF0700E202A8002FE70700E202A90018
:108A4C00E2EF0700E202A8002BE70700E202A90010
:108A5C00DEEF0700E202A80027E70700E202A90008
:108A6C00DAEF0700E202A80023E70700E202A90000
:108A7C00D6EF0700E202A8001FE70700E202A900F8
:108A8C00D2EF0700E202A8001BE70700E202A900F0
:108A9C00CEEF0700E202A80017E70700E202A900E8
:108AAC00CAEF0700E202A80013E70700E202A900E0
:108ABC00C6EF0700E202A8000FE70700E202A900D8
:108ACC00C2EF0700E202A8000BE70700E202A900D0
:108ADC00BEEF0700E202A80007E70700E202A900C8
:108AEC00BAEF0700E202A80003E70700E202A900C0
:108AFC00B6EF0700E202A800FFE60700E202A900B9
:108B0C00B2EF0700E202A80002E507002DF63700DD
:048B1C00FFFF370020
:1046D800F0FF2F00A8A2B700C822EF00D422EF00F5
:1046E800E022EF00F0002000C6A2B700D222EF00BF
:0846F800DE22EF0000000600C5
:104620008A1F78008B1F78008C1F78000C4B2000AD
:104630008B8020000A592C0003EF0700308E2000E9
:10464000206688002166800050C0B3008048780052
:104650000020EF0030668800B0B32000C0658800FD
:1046600030B62000F0658800C165800010C9B30035
:1046700080487800F165800010C9B3008048780058
:10468000A1CB200090C0B30080487800B1CB2000BF
:104690000020EF0080487800C1CB2000F0CFB300AD
:1046A0008048780001CC200090C0B300804878009A
:1046B00011CC20000020EF008048780021CC2000A1
:1046C000F0CFB300804878004F067800CF0578001F
:0846D0004F0578000000060010
:100248000420EF000C10E100050031008280450019
:1002580002004500904878000420EC00F9FF3700C0
:04026800000006008C
:1049D80000000000000000000000000000000000CF
:1049E80000000000000000000000000000000000BF
:1049F80000000000000000000000000000000000AF
:104A0800000000000000000000000000000000009E
:104A18000000000000000000000000000000060088
:1047000000000000000000000000000000000000A9
:104710000000000000000000000000000000000099
:104720000000000000000000000000000000000089
:104730000000000000000000000000000000000079
:1049B000000000000000000000000000D622EF0010
:1049C00000000000000000000000000000000000E7
:0849D0000000000000000600D9
:10434C000000000000000000000000000000000061
:10435C000000000000000000000000000000000051
:10436C000000000000000000000000000000000041
:10437C000000000040408000D6A2B7000000000002
:10438C00404080004800DE00D6A2B70000000000CC
:10439C000000000050408000D6A2B70000000000D2
:1043AC00504080004800DE00D6A2B700000000009C
:1043BC000000000060408000D6A2B70000000000A2
:1043CC00604080004800DE00D6A2B700000000006C
:1043DC000000000070408000D6A2B7000000000072
:1043EC00704080004800DE00D6A2B700000000003C
:1043FC000000000080408000D6A2B7000000000042
:10440C00804080004800DE00D6A2B700000000000B
:10441C000000000090408000D6A2B7000000000011
:10442C00904080004800DE00D6A2B70000000000DB
:10443C0000000000A0408000D6A2B70000000000E1
:10444C00A04080004800DE00D6A2B70000000000AB
:10445C0000000000B0408000D6A2B70000000000B1
:10446C00B04080004800DE00D6A2B700000000007B
:10447C0000000000C0408000D6A2B7000000000081
:10448C00C04080004800DE00D6A2B700000000004B
:10449C0000000000D0408000D6A2B7000000000051
:1044AC00D04080004800DE00D6A2B700000000001B
:1044BC0000000000E0408000D6A2B7000000000021
:1044CC00E04080004800DE00D6A2B70000000000EB
:1044DC0000000000F0408000D6A2B70000000000F1
:1044EC00F04080004800DE00D6A2B70000000000BB
:1044FC000000000000418000D6A2B70000000000C0
:10450C00004180004800DE00D6A2B7000000000089
:10451C000000000010418000D6A2B700000000008F
:10452C00104180004800DE00D6A2B7000000000059
:10453C000000000020418000D6A2B700000000005F
:10454C00204180004800DE00D6A2B7000000000029
:10455C000000000030418000D6A2B700000000002F
:10456C00304180004800DE00D6A2B70000000000F9
:10457C000000000040418000D6A2B70000000000FF
:10458C00404180004800DE00D6A2B70000000000C9
:10459C000000000050418000D6A2B70000000000CF
:1045AC00504180004800DE00D6A2B7000000000099
:1045BC000000000060418000D6A2B700000000009F
:1045CC00604180004800DE00D6A2B7000000000069
:1045DC000000000070418000D6A2B700000000006F
:1045EC00704180004800DE00D6A2B7000000000039
:1045FC00000000000000000000000000D622EF00C8
:10460C0011002000008020001088400000000000F5
:04461C000000060094
:103AD00000000000000000000000000000000000E6
:103AE00000000000000000000000000000000000D6
:103AF00000000000000000000000000000000000C6
:103B00000000000080418000D6A2B7000000000045
:103B1000804180004800DE00D6A2B700000000000F
:103B20000000000090418000D6A2B7000000000015
:103B3000904180004800DE00D6A2B70000000000DF
:103B400000000000A0418000D6A2B70000000000E5
:103B5000A04180004800DE00D6A2B70000000000AF
:103B600000000000B0418000D6A2B70000000000B5
:103B7000B04180004800DE00D6A2B700000000007F
:103B800000000000C0418000D6A2B7000000000085
:103B9000C04180004800DE00D6A2B700000000004F
:103BA00000000000D0418000D6A2B7000000000055
:103BB000D04180004800DE00D6A2B700000000001F
:103BC00000000000E0418000D6A2B7000000000025
:103BD000E04180004800DE00D6A2B70000000000EF
:103BE00000000000F0418000D6A2B70000000000F5
:103BF000F04180004800DE00D6A2B70000000000BF
:103C00000000000000428000D6A2B70000000000C3
:103C1000004280004800DE00D6A2B700000000008D
:103C20000000000010428000D6A2B7000000000093
:103C3000104280004800DE00D6A2B700000000005D
:103C40000000000020428000D6A2B7000000000063
:103C5000204280004800DE00D6A2B700000000002D
:103C60000000000030428000D6A2B7000000000033
:103C7000304280004800DE00D6A2B70000000000FD
:103C80000000000040428000D6A2B7000000000003
:103C9000404280004800DE00D6A2B70000000000CD
:103CA0000000000050428000D6A2B70000000000D3
:103CB000504280004800DE00D6A2B700000000009D
:103CC0000000000060428000D6A2B70000000000A3
:103CD000604280004800DE00D6A2B700000000006D
:103CE0000000000070428000D6A2B7000000000073
:103CF000704280004800DE00D6A2B700000000003D
:103D00000000000080428000D6A2B7000000000042
:103D1000804280004800DE00D6A2B700000000000C
:103D20000000000090428000D6A2B7000000000012
:103D3000904280004800DE00D6A2B70000000000DC
:103D400000000000A0428000D6A2B70000000000E2
:103D5000A04280004800DE00D6A2B70000000000AC
:103D600000000000B0428000D6A2B70000000000B2
:103D7000B04280004800DE00D6A2B700000000007C
:103D8000000000000000000000000000D622EF004C
:103D9000110020000080200010884000000000007A
:043DA0000000060019
:1037FC0000000000000000000000000000000000BD
:10380C0000000000000000000000000000000000AC
:10381C00000000000000000000000000000000009C
:10382C0000000000C0428000D6A2B70000000000DB
:10383C00C04280004800DE00D6A2B70000000000A5
:10384C0000000000D0428000D6A2B70000000000AB
:10385C00D04280004800DE00D6A2B7000000000075
:10386C0000000000E0428000D6A2B700000000007B
:10387C00E04280004800DE00D6A2B7000000000045
:10388C0000000000F0428000D6A2B700000000004B
:10389C00F04280004800DE00D6A2B7000000000015
:1038AC000000000000438000D6A2B700000000001A
:1038BC00004380004800DE00D6A2B70000000000E4
:1038CC000000000010438000D6A2B70000000000EA
:1038DC00104380004800DE00D6A2B70000000000B4
:1038EC000000000020438000D6A2B70000000000BA
:1038FC00204380004800DE00D6A2B7000000000084
:10390C000000000030438000D6A2B7000000000089
:10391C00304380004800DE00D6A2B7000000000053
:10392C000000000040438000D6A2B7000000000059
:10393C00404380004800DE00D6A2B7000000000023
:10394C000000000050438000D6A2B7000000000029
:10395C00504380004800DE00D6A2B70000000000F3
:10396C000000000060438000D6A2B70000000000F9
:10397C00604380004800DE00D6A2B70000000000C3
:10398C000000000070438000D6A2B70000000000C9
:10399C00704380004800DE00D6A2B7000000000093
:1039AC000000000080438000D6A2B7000000000099
:1039BC00804380004800DE00D6A2B7000000000063
:1039CC000000000090438000D6A2B7000000000069
:1039DC00904380004800DE00D6A2B7000000000033
:1039EC0000000000A0438000D6A2B7000000000039
:1039FC00A04380004800DE00D6A2B7000000000003
:103A0C0000000000B0438000D6A2B7000000000008
:103A1C00B04380004800DE00D6A2B70000000000D2
:103A2C0000000000C0438000D6A2B70000000000D8
:103A3C00C04380004800DE00D6A2B70000000000A2
:103A4C0000000000D0438000D6A2B70000000000A8
:103A5C00D04380004800DE00D6A2B7000000000072
:103A6C0000000000E0438000D6A2B7000000000078
:103A7C00E04380004800DE00D6A2B7000000000042
:103A8C0000000000F0438000D6A2B7000000000048
:103A9C00F04380004800DE00D6A2B7000000000012
:103AAC00000000000000000000000000D622EF0023
:103ABC001100200000802000108840000000000051
:043ACC0000000600F0
:104078000000000000000000000000000000000038
:104088000000000000000000000000000000000028
:104098000000000000000000000000000000000018
:1040A8000000000000448000D6A2B7000000000015
:1040B800004480004800DE00D6A2B70000000000DF
:1040C8000000000010448000D6A2B70000000000E5
:1040D800104480004800DE00D6A2B70000000000AF
:1040E8000000000020448000D6A2B70000000000B5
:1040F800204480004800DE00D6A2B700000000007F
:104108000000000030448000D6A2B7000000000084
:10411800304480004800DE00D6A2B700000000004E
:104128000000000040448000D6A2B7000000000054
:10413800404480004800DE00D6A2B700000000001E
:104148000000000050448000D6A2B7000000000024
:10415800504480004800DE00D6A2B70000000000EE
:104168000000000060448000D6A2B70000000000F4
:10417800604480004800DE00D6A2B70000000000BE
:104188000000000070448000D6A2B70000000000C4
:10419800704480004800DE00D6A2B700000000008E
:1041A8000000000080448000D6A2B7000000000094
:1041B800804480004800DE00D6A2B700000000005E
:1041C8000000000090448000D6A2B7000000000064
:1041D800904480004800DE00D6A2B700000000002E
:1041E80000000000A0448000D6A2B7000000000034
:1041F800A04480004800DE00D6A2B70000000000FE
:1042080000000000B0448000D6A2B7000000000003
:10421800B04480004800DE00D6A2B70000000000CD
:1042280000000000C0448000D6A2B70000000000D3
:10423800C04480004800DE00D6A2B700000000009D
:1042480000000000D0448000D6A2B70000000000A3
:10425800D04480004800DE00D6A2B700000000006D
:1042680000000000E0448000D6A2B7000000000073
:10427800E04480004800DE00D6A2B700000000003D
:1042880000000000F0448000D6A2B7000000000043
:10429800F04480004800DE00D6A2B700000000000D
:1042A8000000000000458000D6A2B7000000000012
:1042B800004580004800DE00D6A2B70000000000DC
:1042C8000000000010458000D6A2B70000000000E2
:1042D800104580004800DE00D6A2B70000000000AC
:1042E8000000000020458000D6A2B70000000000B2
:1042F800204580004800DE00D6A2B700000000007C
:104308000000000030458000D6A2B7000000000081
:10431800304580004800DE00D6A2B700000000004B
:10432800000000000000000000000000D622EF009E
:1043380011002000008020001088400000000000CC
:04434800000006006B
:103DA400000000000000000000000000000000000F
:103DB40000000000000000000000000000000000FF
:103DC40000000000000000000000000000000000EF
:103DD4000000000040458000D6A2B70000000000AB
:103DE400404580004800DE00D6A2B7000000000075
:103DF4000000000050458000D6A2B700000000007B
:103E0400504580004800DE00D6A2B7000000000044
:103E14000000000060458000D6A2B700000000004A
:103E2400604580004800DE00D6A2B7000000000014
:103E34000000000070458000D6A2B700000000001A
:103E4400704580004800DE00D6A2B70000000000E4
:103E54000000000080458000D6A2B70000000000EA
:103E6400804580004800DE00D6A2B70000000000B4
:103E74000000000090458000D6A2B70000000000BA
:103E8400904580004800DE00D6A2B7000000000084
:103E940000000000A0458000D6A2B700000000008A
:103EA400A04580004800DE00D6A2B7000000000054
:103EB40000000000B0458000D6A2B700000000005A
:103EC400B04580004800DE00D6A2B7000000000024
:103ED40000000000C0458000D6A2B700000000002A
:103EE400C04580004800DE00D6A2B70000000000F4
:103EF40000000000D0458000D6A2B70000000000FA
:103F0400D04580004800DE00D6A2B70000000000C3
:103F140000000000E0458000D6A2B70000000000C9
:103F2400E04580004800DE00D6A2B7000000000093
:103F340000000000F0458000D6A2B7000000000099
:103F4400F04580004800DE00D6A2B7000000000063
:103F54000000000000468000D6A2B7000000000068
:103F6400004680004800DE00D6A2B7000000000032
:103F74000000000010468000D6A2B7000000000038
:103F8400104680004800DE00D6A2B7000000000002
:103F94000000000020468000D6A2B7000000000008
:103FA400204680004800DE00D6A2B70000000000D2
:103FB4000000000030468000D6A2B70000000000D8
:103FC400304680004800DE00D6A2B70000000000A2
:103FD4000000000040468000D6A2B70000000000A8
:103FE400404680004800DE00D6A2B7000000000072
:103FF4000000000050468000D6A2B7000000000078
:10400400504680004800DE00D6A2B7000000000041
:104014000000000060468000D6A2B7000000000047
:10402400604680004800DE00D6A2B7000000000011
:104034000000000070468000D6A2B7000000000017
:10404400704680004800DE00D6A2B70000000000E1
:10405400000000000000000000000000D622EF0075
:1040640011002000008020001088400000000000A3
:044074000000060042
:105B20000000000000000000000000000000000075
:105B30000000000000000000000000000000000065
:105B40000000000000000000000000000000000055
:105B50000000000080468000D6A2B70000000000D0
:105B6000804680004800DE00D6A2B700000000009A
:105B70000000000090468000D6A2B70000000000A0
:105B8000904680004800DE00D6A2B700000000006A
:105B900000000000A0468000D6A2B7000000000070
:105BA000A04680004800DE00D6A2B700000000003A
:105BB00000000000B0468000D6A2B7000000000040
:105BC000B04680004800DE00D6A2B700000000000A
:105BD00000000000C0468000D6A2B7000000000010
:105BE000C04680004800DE00D6A2B70000000000DA
:105BF00000000000D0468000D6A2B70000000000E0
:105C0000D04680004800DE00D6A2B70000000000A9
:105C100000000000E0468000D6A2B70000000000AF
:105C2000E04680004800DE00D6A2B7000000000079
:105C300000000000F0468000D6A2B700000000007F
:105C4000F04680004800DE00D6A2B7000000000049
:105C50000000000000478000D6A2B700000000004E
:105C6000004780004800DE00D6A2B7000000000018
:105C70000000000010478000D6A2B700000000001E
:105C8000104780004800DE00D6A2B70000000000E8
:105C90000000000020478000D6A2B70000000000EE
:105CA000204780004800DE00D6A2B70000000000B8
:105CB0000000000030478000D6A2B70000000000BE
:105CC000304780004800DE00D6A2B7000000000088
:105CD0000000000040478000D6A2B700000000008E
:105CE000404780004800DE00D6A2B7000000000058
:105CF0000000000050478000D6A2B700000000005E
:105D0000504780004800DE00D6A2B7000000000027
:105D10000000000060478000D6A2B700000000002D
:105D2000604780004800DE00D6A2B70000000000F7
:105D30000000000070478000D6A2B70000000000FD
:105D4000704780004800DE00D6A2B70000000000C7
:105D50000000000080478000D6A2B70000000000CD
:105D6000804780004800DE00D6A2B7000000000097
:105D70000000000090478000D6A2B700000000009D
:105D8000904780004800DE00D6A2B7000000000067
:105D900000000000A0478000D6A2B700000000006D
:105DA000A04780004800DE00D6A2B7000000000037
:105DB00000000000B0478000D6A2B700000000003D
:105DC000B04780004800DE00D6A2B7000000000007
:105DD000000000000000000000000000D622EF00DC
:105DE000110020000080200010884000000000000A
:045DF00000000600A9
:10584C00000000000000000000000000000000004C
:10585C00000000000000000000000000000000003C
:10586C00000000000000000000000000000000002C
:10587C0000000000C0478000D6A2B7000000000066
:10588C00C04780004800DE00D6A2B7000000000030
:10589C0000000000D0478000D6A2B7000000000036
:1058AC00D04780004800DE00D6A2B7000000000000
:1058BC0000000000E0478000D6A2B7000000000006
:1058CC00E04780004800DE00D6A2B70000000000D0
:1058DC0000000000F0478000D6A2B70000000000D6
:1058EC00F04780004800DE00D6A2B70000000000A0
:1058FC000000000000488000D6A2B70000000000A5
:10590C00004880004800DE00D6A2B700000000006E
:10591C000000000010488000D6A2B7000000000074
:10592C00104880004800DE00D6A2B700000000003E
:10593C000000000020488000D6A2B7000000000044
:10594C00204880004800DE00D6A2B700000000000E
:10595C000000000030488000D6A2B7000000000014
:10596C00304880004800DE00D6A2B70000000000DE
:10597C000000000040488000D6A2B70000000000E4
:10598C00404880004800DE00D6A2B70000000000AE
:10599C000000000050488000D6A2B70000000000B4
:1059AC00504880004800DE00D6A2B700000000007E
:1059BC000000000060488000D6A2B7000000000084
:1059CC00604880004800DE00D6A2B700000000004E
:1059DC000000000070488000D6A2B7000000000054
:1059EC00704880004800DE00D6A2B700000000001E
:1059FC000000000080488000D6A2B7000000000024
:105A0C00804880004800DE00D6A2B70000000000ED
:105A1C000000000090488000D6A2B70000000000F3
:105A2C00904880004800DE00D6A2B70000000000BD
:105A3C0000000000A0488000D6A2B70000000000C3
:105A4C00A04880004800DE00D6A2B700000000008D
:105A5C0000000000B0488000D6A2B7000000000093
:105A6C00B04880004800DE00D6A2B700000000005D
:105A7C0000000000C0488000D6A2B7000000000063
:105A8C00C04880004800DE00D6A2B700000000002D
:105A9C0000000000D0488000D6A2B7000000000033
:105AAC00D04880004800DE00D6A2B70000000000FD
:105ABC0000000000E0488000D6A2B7000000000003
:105ACC00E04880004800DE00D6A2B70000000000CD
:105ADC0000000000F0488000D6A2B70000000000D3
:105AEC00F04880004800DE00D6A2B700000000009D
:105AFC00000000000000000000000000D622EF00B3
:105B0C0011002000008020001088400000000000E0
:045B1C00000006007F
:1060C80000000000000000000000000000000000C8
:1060D80000000000000000000000000000000000B8
:1060E80000000000000000000000000000000000A8
:1060F8000000000000498000D6A2B70000000000A0
:10610800004980004800DE00D6A2B7000000000069
:106118000000000010498000D6A2B700000000006F
:10612800104980004800DE00D6A2B7000000000039
:106138000000000020498000D6A2B700000000003F
:10614800204980004800DE00D6A2B7000000000009
:106158000000000030498000D6A2B700000000000F
:10616800304980004800DE00D6A2B70000000000D9
:106178000000000040498000D6A2B70000000000DF
:10618800404980004800DE00D6A2B70000000000A9
:106198000000000050498000D6A2B70000000000AF
:1061A800504980004800DE00D6A2B7000000000079
:1061B8000000000060498000D6A2B700000000007F
:1061C800604980004800DE00D6A2B7000000000049
:1061D8000000000070498000D6A2B700000000004F
:1061E800704980004800DE00D6A2B7000000000019
:1061F8000000000080498000D6A2B700000000001F
:10620800804980004800DE00D6A2B70000000000E8
:106218000000000090498000D6A2B70000000000EE
:10622800904980004800DE00D6A2B70000000000B8
:1062380000000000A0498000D6A2B70000000000BE
:10624800A04980004800DE00D6A2B7000000000088
:1062580000000000B0498000D6A2B700000000008E
:10626800B04980004800DE00D6A2B7000000000058
:1062780000000000C0498000D6A2B700000000005E
:10628800C04980004800DE00D6A2B7000000000028
:1062980000000000D0498000D6A2B700000000002E
:1062A800D04980004800DE00D6A2B70000000000F8
:1062B80000000000E0498000D6A2B70000000000FE
:1062C800E04980004800DE00D6A2B70000000000C8
:1062D80000000000F0498000D6A2B70000000000CE
:1062E800F04980004800DE00D6A2B7000000000098
:1062F80000000000004A8000D6A2B700000000009D
:10630800004A80004800DE00D6A2B7000000000066
:1063180000000000104A8000D6A2B700000000006C
:10632800104A80004800DE00D6A2B7000000000036
:1063380000000000204A8000D6A2B700000000003C
:10634800204A80004800DE00D6A2B7000000000006
:1063580000000000304A8000D6A2B700000000000C
:10636800304A80004800DE00D6A2B70000000000D6
:10637800000000000000000000000000D622EF002E
:10638800110020000080200010884000000000005C
:0463980000000600FB
:105DF400000000000000000000000000000000009F
:105E0400000000000000000000000000000000008E
:105E1400000000000000000000000000000000007E
:105E240000000000404A8000D6A2B7000000000035
:105E3400404A80004800DE00D6A2B70000000000FF
:105E440000000000504A8000D6A2B7000000000005
:105E5400504A80004800DE00D6A2B70000000000CF
:105E640000000000604A8000D6A2B70000000000D5
:105E7400604A80004800DE00D6A2B700000000009F
:105E840000000000704A8000D6A2B70000000000A5
:105E9400704A80004800DE00D6A2B700000000006F
:105EA40000000000804A8000D6A2B7000000000075
:105EB400804A80004800DE00D6A2B700000000003F
:105EC40000000000904A8000D6A2B7000000000045
:105ED400904A80004800DE00D6A2B700000000000F
:105EE40000000000A04A8000D6A2B7000000000015
:105EF400A04A80004800DE00D6A2B70000000000DF
:105F040000000000B04A8000D6A2B70000000000E4
:105F1400B04A80004800DE00D6A2B70000000000AE
:105F240000000000C04A8000D6A2B70000000000B4
:105F3400C04A80004800DE00D6A2B700000000007E
:105F440000000000D04A8000D6A2B7000000000084
:105F5400D04A80004800DE00D6A2B700000000004E
:105F640000000000E04A8000D6A2B7000000000054
:105F7400E04A80004800DE00D6A2B700000000001E
:105F840000000000F04A8000D6A2B7000000000024
:105F9400F04A80004800DE00D6A2B70000000000EE
:105FA40000000000004B8000D6A2B70000000000F3
:105FB400004B80004800DE00D6A2B70000000000BD
:105FC40000000000104B8000D6A2B70000000000C3
:105FD400104B80004800DE00D6A2B700000000008D
:105FE40000000000204B8000D6A2B7000000000093
:105FF400204B80004800DE00D6A2B700000000005D
:1060040000000000304B8000D6A2B7000000000062
:10601400304B80004800DE00D6A2B700000000002C
:1060240000000000404B8000D6A2B7000000000032
:10603400404B80004800DE00D6A2B70000000000FC
:1060440000000000504B8000D6A2B7000000000002
:10605400504B80004800DE00D6A2B70000000000CC
:1060640000000000604B8000D6A2B70000000000D2
:10607400604B80004800DE00D6A2B700000000009C
:1060840000000000704B8000D6A2B70000000000A2
:10609400704B80004800DE00D6A2B700000000006C
:1060A400000000000000000000000000D622EF0005
:1060B4001100200000802000108840000000000033
:0460C40000000600D2
:105578000000000000000000000000000000000023
:105588000000000000000000000000000000000013
:105598000000000000000000000000000000000003
:1055A80000000000804B8000D6A2B7000000000079
:1055B800804B80004800DE00D6A2B7000000000043
:1055C80000000000904B8000D6A2B7000000000049
:1055D800904B80004800DE00D6A2B7000000000013
:1055E80000000000A04B8000D6A2B7000000000019
:1055F800A04B80004800DE00D6A2B70000000000E3
:1056080000000000B04B8000D6A2B70000000000E8
:10561800B04B80004800DE00D6A2B70000000000B2
:1056280000000000C04B8000D6A2B70000000000B8
:10563800C04B80004800DE00D6A2B7000000000082
:1056480000000000D04B8000D6A2B7000000000088
:10565800D04B80004800DE00D6A2B7000000000052
:1056680000000000E04B8000D6A2B7000000000058
:10567800E04B80004800DE00D6A2B7000000000022
:1056880000000000F04B8000D6A2B7000000000028
:10569800F04B80004800DE00D6A2B70000000000F2
:1056A80000000000004C8000D6A2B70000000000F7
:1056B800004C80004800DE00D6A2B70000000000C1
:1056C80000000000104C8000D6A2B70000000000C7
:1056D800104C80004800DE00D6A2B7000000000091
:1056E80000000000204C8000D6A2B7000000000097
:1056F800204C80004800DE00D6A2B7000000000061
:1057080000000000304C8000D6A2B7000000000066
:10571800304C80004800DE00D6A2B7000000000030
:1057280000000000404C8000D6A2B7000000000036
:10573800404C80004800DE00D6A2B7000000000000
:1057480000000000504C8000D6A2B7000000000006
:10575800504C80004800DE00D6A2B70000000000D0
:1057680000000000604C8000D6A2B70000000000D6
:10577800604C80004800DE00D6A2B70000000000A0
:1057880000000000704C8000D6A2B70000000000A6
:10579800704C80004800DE00D6A2B7000000000070
:1057A80000000000804C8000D6A2B7000000000076
:1057B800804C80004800DE00D6A2B7000000000040
:1057C80000000000904C8000D6A2B7000000000046
:1057D800904C80004800DE00D6A2B7000000000010
:1057E80000000000A04C8000D6A2B7000000000016
:1057F800A04C80004800DE00D6A2B70000000000E0
:1058080000000000B04C8000D6A2B70000000000E5
:10581800B04C80004800DE00D6A2B70000000000AF
:10582800000000000000000000000000D622EF0089
:1058380011002000008020001088400000000000B7
:045848000000060056
:104CFC0000000000000000000000000000000000A8
:104D0C000000000000000000000000000000000097
:104D1C000000000000000000000000000000000087
:104D2C0000000000C04C8000D6A2B70000000000BC
:104D3C00C04C80004800DE00D6A2B7000000000086
:104D4C0000000000D04C8000D6A2B700000000008C
:104D5C00D04C80004800DE00D6A2B7000000000056
:104D6C0000000000E04C8000D6A2B700000000005C
:104D7C00E04C80004800DE00D6A2B7000000000026
:104D8C0000000000F04C8000D6A2B700000000002C
:104D9C00F04C80004800DE00D6A2B70000000000F6
:104DAC0000000000004D8000D6A2B70000000000FB
:104DBC00004D80004800DE00D6A2B70000000000C5
:104DCC0000000000104D8000D6A2B70000000000CB
:104DDC00104D80004800DE00D6A2B7000000000095
:104DEC0000000000204D8000D6A2B700000000009B
:104DFC00204D80004800DE00D6A2B7000000000065
:104E0C0000000000304D8000D6A2B700000000006A
:104E1C00304D80004800DE00D6A2B7000000000034
:104E2C0000000000404D8000D6A2B700000000003A
:104E3C00404D80004800DE00D6A2B7000000000004
:104E4C0000000000504D8000D6A2B700000000000A
:104E5C00504D80004800DE00D6A2B70000000000D4
:104E6C0000000000604D8000D6A2B70000000000DA
:104E7C00604D80004800DE00D6A2B70000000000A4
:104E8C0000000000704D8000D6A2B70000000000AA
:104E9C00704D80004800DE00D6A2B7000000000074
:104EAC0000000000804D8000D6A2B700000000007A
:104EBC00804D80004800DE00D6A2B7000000000044
:104ECC0000000000904D8000D6A2B700000000004A
:104EDC00904D80004800DE00D6A2B7000000000014
:104EEC0000000000A04D8000D6A2B700000000001A
:104EFC00A04D80004800DE00D6A2B70000000000E4
:104F0C0000000000B04D8000D6A2B70000000000E9
:104F1C00B04D80004800DE00D6A2B70000000000B3
:104F2C0000000000C04D8000D6A2B70000000000B9
:104F3C00C04D80004800DE00D6A2B7000000000083
:104F4C0000000000D04D8000D6A2B7000000000089
:104F5C00D04D80004800DE00D6A2B7000000000053
:104F6C0000000000E04D8000D6A2B7000000000059
:104F7C00E04D80004800DE00D6A2B7000000000023
:104F8C0000000000F04D8000D6A2B7000000000029
:104F9C00F04D80004800DE00D6A2B70000000000F3
:104FAC00000000000000000000000000D622EF000E
:104FBC00110020000080200010884000000000003C
:044FCC0000000600DB
:104A2800000000000000000000000000000000007E
:104A3800000000000000000000000000000000006E
:104A4800000000000000000000000000000000005E
:104A580000000000004E8000D6A2B7000000000051
:104A6800004E80004800DE00D6A2B700000000001B
:104A780000000000104E8000D6A2B7000000000021
:104A8800104E80004800DE00D6A2B70000000000EB
:104A980000000000204E8000D6A2B70000000000F1
:104AA800204E80004800DE00D6A2B70000000000BB
:104AB80000000000304E8000D6A2B70000000000C1
:104AC800304E80004800DE00D6A2B700000000008B
:104AD80000000000404E8000D6A2B7000000000091
:104AE800404E80004800DE00D6A2B700000000005B
:104AF80000000000504E8000D6A2B7000000000061
:104B0800504E80004800DE00D6A2B700000000002A
:104B180000000000604E8000D6A2B7000000000030
:104B2800604E80004800DE00D6A2B70000000000FA
:104B380000000000704E8000D6A2B7000000000000
:104B4800704E80004800DE00D6A2B70000000000CA
:104B580000000000804E8000D6A2B70000000000D0
:104B6800804E80004800DE00D6A2B700000000009A
:104B780000000000904E8000D6A2B70000000000A0
:104B8800904E80004800DE00D6A2B700000000006A
:104B980000000000A04E8000D6A2B7000000000070
:104BA800A04E80004800DE00D6A2B700000000003A
:104BB80000000000B04E8000D6A2B7000000000040
:104BC800B04E80004800DE00D6A2B700000000000A
:104BD80000000000C04E8000D6A2B7000000000010
:104BE800C04E80004800DE00D6A2B70000000000DA
:104BF80000000000D04E8000D6A2B70000000000E0
:104C0800D04E80004800DE00D6A2B70000000000A9
:104C180000000000E04E8000D6A2B70000000000AF
:104C2800E04E80004800DE00D6A2B7000000000079
:104C380000000000F04E8000D6A2B700000000007F
:104C4800F04E80004800DE00D6A2B7000000000049
:104C580000000000004F8000D6A2B700000000004E
:104C6800004F80004800DE00D6A2B7000000000018
:104C780000000000104F8000D6A2B700000000001E
:104C8800104F80004800DE00D6A2B70000000000E8
:104C980000000000204F8000D6A2B70000000000EE
:104CA800204F80004800DE00D6A2B70000000000B8
:104CB80000000000304F8000D6A2B70000000000BE
:104CC800304F80004800DE00D6A2B7000000000088
:104CD800000000000000000000000000D622EF00E5
:104CE8001100200000802000108840000000000013
:044CF80000000600B2
:1052A40000000000000000000000000000000000FA
:1052B40000000000000000000000000000000000EA
:1052C40000000000000000000000000000000000DA
:1052D40000000000404F8000D6A2B700000000008C
:1052E400404F80004800DE00D6A2B7000000000056
:1052F40000000000504F8000D6A2B700000000005C
:10530400504F80004800DE00D6A2B7000000000025
:1053140000000000604F8000D6A2B700000000002B
:10532400604F80004800DE00D6A2B70000000000F5
:1053340000000000704F8000D6A2B70000000000FB
:10534400704F80004800DE00D6A2B70000000000C5
:1053540000000000804F8000D6A2B70000000000CB
:10536400804F80004800DE00D6A2B7000000000095
:1053740000000000904F8000D6A2B700000000009B
:10538400904F80004800DE00D6A2B7000000000065
:1053940000000000A04F8000D6A2B700000000006B
:1053A400A04F80004800DE00D6A2B7000000000035
:1053B40000000000B04F8000D6A2B700000000003B
:1053C400B04F80004800DE00D6A2B7000000000005
:1053D40000000000C04F8000D6A2B700000000000B
:1053E400C04F80004800DE00D6A2B70000000000D5
:1053F40000000000D04F8000D6A2B70000000000DB
:10540400D04F80004800DE00D6A2B70000000000A4
:1054140000000000E04F8000D6A2B70000000000AA
:10542400E04F80004800DE00D6A2B7000000000074
:1054340000000000F04F8000D6A2B700000000007A
:10544400F04F80004800DE00D6A2B7000000000044
:105454000000000000508000D6A2B7000000000049
:10546400005080004800DE00D6A2B7000000000013
:105474000000000010508000D6A2B7000000000019
:10548400105080004800DE00D6A2B70000000000E3
:105494000000000020508000D6A2B70000000000E9
:1054A400205080004800DE00D6A2B70000000000B3
:1054B4000000000030508000D6A2B70000000000B9
:1054C400305080004800DE00D6A2B7000000000083
:1054D4000000000040508000D6A2B7000000000089
:1054E400405080004800DE00D6A2B7000000000053
:1054F4000000000050508000D6A2B7000000000059
:10550400505080004800DE00D6A2B7000000000022
:105514000000000060508000D6A2B7000000000028
:10552400605080004800DE00D6A2B70000000000F2
:105534000000000070508000D6A2B70000000000F8
:10554400705080004800DE00D6A2B70000000000C2
:10555400000000000000000000000000D622EF0060
:10556400110020000080200010884000000000008E
:04557400000006002D
:104FD00000000000000000000000000000000000D1
:104FE00000000000000000000000000000000000C1
:104FF00000000000000000000000000000000000B1
:105000000000000080508000D6A2B7000000000021
:10501000805080004800DE00D6A2B70000000000EB
:105020000000000090508000D6A2B70000000000F1
:10503000905080004800DE00D6A2B70000000000BB
:1050400000000000A0508000D6A2B70000000000C1
:10505000A05080004800DE00D6A2B700000000008B
:1050600000000000B0508000D6A2B7000000000091
:10507000B05080004800DE00D6A2B700000000005B
:1050800000000000C0508000D6A2B7000000000061
:10509000C05080004800DE00D6A2B700000000002B
:1050A00000000000D0508000D6A2B7000000000031
:1050B000D05080004800DE00D6A2B70000000000FB
:1050C00000000000E0508000D6A2B7000000000001
:1050D000E05080004800DE00D6A2B70000000000CB
:1050E00000000000F0508000D6A2B70000000000D1
:1050F000F05080004800DE00D6A2B700000000009B
:105100000000000000518000D6A2B700000000009F
:10511000005180004800DE00D6A2B7000000000069
:105120000000000010518000D6A2B700000000006F
:10513000105180004800DE00D6A2B7000000000039
:105140000000000020518000D6A2B700000000003F
:10515000205180004800DE00D6A2B7000000000009
:105160000000000030518000D6A2B700000000000F
:10517000305180004800DE00D6A2B70000000000D9
:105180000000000040518000D6A2B70000000000DF
:10519000405180004800DE00D6A2B70000000000A9
:1051A0000000000050518000D6A2B70000000000AF
:1051B000505180004800DE00D6A2B7000000000079
:1051C0000000000060518000D6A2B700000000007F
:1051D000605180004800DE00D6A2B7000000000049
:1051E0000000000070518000D6A2B700000000004F
:1051F000705180004800DE00D6A2B7000000000019
:105200000000000080518000D6A2B700000000001E
:10521000805180004800DE00D6A2B70000000000E8
:105220000000000090518000D6A2B70000000000EE
:10523000905180004800DE00D6A2B70000000000B8
:1052400000000000A0518000D6A2B70000000000BE
:10525000A05180004800DE00D6A2B7000000000088
:1052600000000000B0518000D6A2B700000000008E
:10527000B05180004800DE00D6A2B7000000000058
:10528000000000000000000000000000D622EF0037
:105290001100200000802000108840000000000065
:0452A0000000060004
:103528000000000000000000000000000000000093
:103538000000000000000000000000000000000083
:103548000000000000000000000000000000000073
:1035580000000000C0518000D6A2B70000000000A3
:10356800C05180004800DE00D6A2B700000000006D
:1035780000000000D0518000D6A2B7000000000073
:10358800D05180004800DE00D6A2B700000000003D
:1035980000000000E0518000D6A2B7000000000043
:1035A800E05180004800DE00D6A2B700000000000D
:1035B80000000000F0518000D6A2B7000000000013
:1035C800F05180004800DE00D6A2B70000000000DD
:1035D8000000000000528000D6A2B70000000000E2
:1035E800005280004800DE00D6A2B70000000000AC
:1035F8000000000010528000D6A2B70000000000B2
:10360800105280004800DE00D6A2B700000000007B
:103618000000000020528000D6A2B7000000000081
:10362800205280004800DE00D6A2B700000000004B
:103638000000000030528000D6A2B7000000000051
:10364800305280004800DE00D6A2B700000000001B
:103658000000000040528000D6A2B7000000000021
:10366800405280004800DE00D6A2B70000000000EB
:103678000000000050528000D6A2B70000000000F1
:10368800505280004800DE00D6A2B70000000000BB
:103698000000000060528000D6A2B70000000000C1
:1036A800605280004800DE00D6A2B700000000008B
:1036B8000000000070528000D6A2B7000000000091
:1036C800705280004800DE00D6A2B700000000005B
:1036D8000000000080528000D6A2B7000000000061
:1036E800805280004800DE00D6A2B700000000002B
:1036F8000000000090528000D6A2B7000000000031
:10370800905280004800DE00D6A2B70000000000FA
:1037180000000000A0528000D6A2B7000000000000
:10372800A05280004800DE00D6A2B70000000000CA
:1037380000000000B0528000D6A2B70000000000D0
:10374800B05280004800DE00D6A2B700000000009A
:1037580000000000C0528000D6A2B70000000000A0
:10376800C05280004800DE00D6A2B700000000006A
:1037780000000000D0528000D6A2B7000000000070
:10378800D05280004800DE00D6A2B700000000003A
:1037980000000000E0528000D6A2B7000000000040
:1037A800E05280004800DE00D6A2B700000000000A
:1037B80000000000F0528000D6A2B7000000000010
:1037C800F05280004800DE00D6A2B70000000000DA
:1037D800000000000000000000000000D622EF00FA
:1037E8001100200000802000108840000000000028
:0437F80000000600C7
:1010FC0000000000000000000000000000000000E4
:10110C0000000000000000000000000000000000D3
:10111C0000000000000000000000000000000000C3
:10112C000000000000538000D6A2B70000000000B1
:10113C00005380004800DE00D6A2B700000000007B
:10114C000000000010538000D6A2B7000000000081
:10115C00105380004800DE00D6A2B700000000004B
:10116C000000000020538000D6A2B7000000000051
:10117C00205380004800DE00D6A2B700000000001B
:10118C000000000030538000D6A2B7000000000021
:10119C00305380004800DE00D6A2B70000000000EB
:1011AC000000000040538000D6A2B70000000000F1
:1011BC00405380004800DE00D6A2B70000000000BB
:1011CC000000000050538000D6A2B70000000000C1
:1011DC00505380004800DE00D6A2B700000000008B
:1011EC000000000060538000D6A2B7000000000091
:1011FC00605380004800DE00D6A2B700000000005B
:10120C000000000070538000D6A2B7000000000060
:10121C00705380004800DE00D6A2B700000000002A
:10122C000000000080538000D6A2B7000000000030
:10123C00805380004800DE00D6A2B70000000000FA
:10124C000000000090538000D6A2B7000000000000
:10125C00905380004800DE00D6A2B70000000000CA
:10126C0000000000A0538000D6A2B70000000000D0
:10127C00A05380004800DE00D6A2B700000000009A
:10128C0000000000B0538000D6A2B70000000000A0
:10129C00B05380004800DE00D6A2B700000000006A
:1012AC0000000000C0538000D6A2B7000000000070
:1012BC00C05380004800DE00D6A2B700000000003A
:1012CC0000000000D0538000D6A2B7000000000040
:1012DC00D05380004800DE00D6A2B700000000000A
:1012EC0000000000E0538000D6A2B7000000000010
:1012FC00E05380004800DE00D6A2B70000000000DA
:10130C0000000000F0538000D6A2B70000000000DF
:10131C00F05380004800DE00D6A2B70000000000A9
:10132C000000000000548000D6A2B70000000000AE
:10133C00005480004800DE00D6A2B7000000000078
:10134C000000000010548000D6A2B700000000007E
:10135C00105480004800DE00D6A2B7000000000048
:10136C000000000020548000D6A2B700000000004E
:10137C00205480004800DE00D6A2B7000000000018
:10138C000000000030548000D6A2B700000000001E
:10139C00305480004800DE00D6A2B70000000000E8
:1013AC00000000000000000000000000D622EF004A
:1013BC001100200000802000108840000000000078
:0413CC000000060017
:100E280000000000000000000000000000000000BA
:100E380000000000000000000000000000000000AA
:100E4800000000000000000000000000000000009A
:100E58000000000040548000D6A2B7000000000047
:100E6800405480004800DE00D6A2B7000000000011
:100E78000000000050548000D6A2B7000000000017
:100E8800505480004800DE00D6A2B70000000000E1
:100E98000000000060548000D6A2B70000000000E7
:100EA800605480004800DE00D6A2B70000000000B1
:100EB8000000000070548000D6A2B70000000000B7
:100EC800705480004800DE00D6A2B7000000000081
:100ED8000000000080548000D6A2B7000000000087
:100EE800805480004800DE00D6A2B7000000000051
:100EF8000000000090548000D6A2B7000000000057
:100F0800905480004800DE00D6A2B7000000000020
:100F180000000000A0548000D6A2B7000000000026
:100F2800A05480004800DE00D6A2B70000000000F0
:100F380000000000B0548000D6A2B70000000000F6
:100F4800B05480004800DE00D6A2B70000000000C0
:100F580000000000C0548000D6A2B70000000000C6
:100F6800C05480004800DE00D6A2B7000000000090
:100F780000000000D0548000D6A2B7000000000096
:100F8800D05480004800DE00D6A2B7000000000060
:100F980000000000E0548000D6A2B7000000000066
:100FA800E05480004800DE00D6A2B7000000000030
:100FB80000000000F0548000D6A2B7000000000036
:100FC800F05480004800DE00D6A2B7000000000000
:100FD8000000000000558000D6A2B7000000000005
:100FE800005580004800DE00D6A2B70000000000CF
:100FF8000000000010558000D6A2B70000000000D5
:10100800105580004800DE00D6A2B700000000009E
:101018000000000020558000D6A2B70000000000A4
:10102800205580004800DE00D6A2B700000000006E
:101038000000000030558000D6A2B7000000000074
