:100000007A0504000000000000000000000000006D
:1000100000000000000000000000000000000000E0
:1000200000000000000000000000000000000000D0
:1000300000000000000000000000000000000000C0
:1000400000000000000000000000000000000000B0
:1000500000000000000000000000000000000000A0
:100060000000000000000000000000000000000090
:100070000000000000000000000000000000000080
:100080000000000000000000000000000000000070
:100090000000000000000000000000000000000060
:1000A0000000000000000000000000000000000050
:1000B0000000000000000000000000000000000040
:1000C0000000000000000000000000000000000030
:1000D0000000000000000000000000000000000020
:1000E0000000000000000000000000000000000010
:1000F0000000000000000000000000000000000000
:1001000000000000000000000000000000000000EF
:1001100000000000000000000000000000000000DF
:1001200000000000000000000000000000000000CF
:1001300000000000000000000000000000000000BF
:1001400000000000000000000000000000000000AF
:10015000000000000000000000000000000000009F
:10016000000000000000000000000000000000008F
:10017000000000000000000000000000000000007F
:10018000000000000000000000000000000000006F
:10019000000000000000000000000000000000005F
:1001A000000000000000000000000000000000004F
:1001B000000000000000000000000000000000003F
:1001C000000000000000000000000000000000002F
:1001D000000000000000000000000000000000001F
:1001E000000000000000000000000000000000000F
:1001F00000000000000000000000000000000000FF
:100AF4002F802000F0FF200020A0B700000020007D
:100B040034A0B700400020004420B7003C19020084
:100B1400000000004619020000000000D6FF070094
:100B2400DC42A900DC22A900DDFF0700DC22A800CA
:100B3400B2FD0700DC22A900D9FF0700DC22A800CF
:100B4400AEFD0700DC22A900D5FF0700DC22A800C7
:100B5400AAFD0700DC22A900D1FF0700DC22A800BF
:100B6400A6FD0700DC42A800DC22A900CCFF070098
:100B7400DC22A800A1FD0700DC22A900C8FF0700B1
:100B8400DC22A8009DFD0700DC22A900C4FF0700A9
:100B9400DC22A80099FD0700DC22A900C0FF0700A1
:100BA400DC22A80095FD0700DC22A900BCFF070099
:100BB400DC22A80091FD0700DC22A900B8FF070091
:100BC400DC22A8008DFD0700DC22A900B4FF070089
:100BD400DC22A80089FD0700DC22A900B0FF070081
:100BE400DC22A80085FD0700DC22A900ACFF070079
:100BF400DC22A80081FD0700DC22A900A8FF070071
:100C0400DC22A8007DFD0700DC22A900A4FF070068
:100C1400DC22A80079FD0700DC22A900A0FF070060
:100C2400DC22A80075FD0700DC22A9009CFF070058
:100C3400DC22A80071FD0700DC22A90098FF070050
:100C4400DC22A8006DFD0700DC22A90094FF070048
:100C5400DC22A80069FD0700DC22A90090FF070040
:100C6400DC22A80065FD0700DC22A9008CFF070038
:100C7400DC22A80061FD0700DC22A90088FF070030
:100C8400DC22A8005DFD0700DC22A90084FF070028
:100C9400DC22A80059FD0700DC22A90080FF070020
:100CA400DC22A80055FD0700DC22A9007CFF070018
:100CB400DC22A80051FD0700DC22A90078FF070010
:100CC400DC22A8004DFD0700DC22A90074FF070008
:100CD400DC22A80049FD0700DC22A90070FF070000
:100CE400DC22A800FBFD0700DC22A9006CFF070042
:100CF400DC22A800F7FD0700DC22A90068FF07003A
:100D0400DC22A800F3FD0700DC22A90064FF070031
:100D1400DC22A800EFFD0700DC22A90060FF070029
:100D2400DC22A800EBFD0700DC22A9005CFF070021
:100D3400DC22A800E7FD0700DC22A90058FF070019
:100D4400DC22A800E3FD0700DC22A90054FF070011
:100D5400DC22A800DFFD0700DC22A90050FF070009
:100D6400DC22A800DBFD0700DC22A9004CFF070001
:100D7400DC22A800D7FD0700DC22A90048FF0700F9
:100D8400DC22A800D3FD0700DC22A90044FF0700F1
:100D9400DC22A800CFFD0700DC22A90040FF0700E9
:100DA400DC22A800CBFD0700DC22A9003CFF0700E1
:100DB400DC22A800C7FD0700DC22A90038FF0700D9
:100DC400DC22A800C3FD0700DC22A90034FF0700D1
:100DD400DC22A800BFFD0700DC22A90030FF0700C9
:100DE400DC22A800BBFD0700DC22A9002CFF0700C1
:100DF400DC22A800B7FD0700DC22A90028FF0700B9
:100E0400DC22A800B3FD0700DC22A90024FF0700B0
:100E1400DC22A800AFFD0700DC22A90020FF0700A8
:100E2400DC22A800ABFD0700DC22A9001CFF0700A0
:100E3400DC22A800A7FD0700DC22A90018FF070098
:100E4400DC22A800A3FD0700DC22A90014FF070090
:100E5400DC22A8009FFD0700DC22A90010FF070088
:100E6400DC22A8009BFD0700DC22A9000CFF070080
:100E7400DC22A80097FD0700DC22A90008FF070078
:100E8400DC22A80093FD0700DC22A90004FF070070
:100E9400DC22A8008FFD0700DC22A90000FF070068
:100EA400DC22A8008BFD0700DC22A900FCFE070061
:100EB400DC22A80087FD0700DC22A900F8FE070059
:100EC400DC22A80083FD0700DC22A900F4FE070051
:100ED400DC22A8007FFD0700DC22A900F0FE070049
:100EE400DC22A8007BFD0700DC22A900ECFE070041
:100EF400DC22A80077FD0700DC22A900E8FE070039
:100F0400DC22A80073FD0700DC22A900E4FE070030
:100F1400DC22A8006FFD0700DC22A900E0FE070028
:100F2400DC22A8006BFD0700DC22A900DCFE070020
:100F3400DC22A80067FD0700DC22A900D8FE070018
:100F4400DC22A80063FD0700DC22A900D4FE070010
:100F5400DC22A8005FFD0700DC22A900D0FE070008
:100F6400DC22A8005BFD0700DC22A900CCFE070000
:100F7400DC22A80057FD0700DC22A900C8FE0700F8
:100F8400DC22A80053FD0700DC22A900C4FE0700F0
:100F9400DC22A8004FFD0700DC22A900C0FE0700E8
:100FA400DC22A8004BFD0700DC22A900BCFE0700E0
:100FB400DC22A80047FD0700DC22A900B8FE0700D8
:100FC400DC22A80043FD0700DC22A900B4FE0700D0
:100FD400DC22A8003FFD0700DC22A900B0FE0700C8
:100FE400DC22A8003BFD0700DC22A900ACFE0700C0
:100FF400DC22A80037FD0700DC22A900A8FE0700B8
:10100400DC22A80033FD0700DC22A900A4FE0700AF
:10101400DC22A8002FFD0700DC22A900A0FE0700A7
:10102400DC22A8002BFD0700DC22A9009CFE07009F
:10103400DC22A80027FD0700DC22A90098FE070097
:10104400DC22A80023FD0700DC22A90094FE07008F
:10105400DC22A8001FFD0700DC22A90090FE070087
:10106400DC22A8001BFD0700DC22A9008CFE07007F
:10107400DC22A80017FD0700DC22A90088FE070077
:10108400DC22A80013FD0700DC22A90084FE07006F
:10109400DC22A8000FFD0700DC22A90080FE070067
:1010A400DC22A8000BFD0700DC22A9007CFE07005F
:1010B400DC22A80007FD0700DC22A90078FE070057
:1010C400DC22A80003FD0700DC22A90074FE07004F
:1010D400DC22A800FFFC0700DC22A90070FE070048
:1010E400DC22A800FBFC0700DC22A9006CFE070040
:1010F400DC22A800F7FC0700DC22A90068FE070038
:10110400DC22A800F3FC0700DC22A90064FE07002F
:10111400DC22A800EFFC0700DC22A90060FE070027
:10112400DC22A800EBFC0700DC22A9005CFE07001F
:10113400DC22A800E7FC0700DC22A90058FE070017
:10114400DC22A800E3FC0700DC22A90054FE07000F
:10115400DC22A800DFFC0700DC22A90050FE070007
:10116400DC22A800DBFC0700DC22A9004CFE0700FF
:10117400DC22A800D7FC0700DC22A90048FE0700F7
:10118400DC22A800D3FC0700DC22A90044FE0700EF
:10119400DC22A800CFFC0700DC22A90040FE0700E7
:1011A400DC22A800CBFC0700DC22A9003CFE0700DF
:1011B400DC22A800C7FC0700DC22A90038FE0700D7
:1011C400DC22A800C3FC0700DC22A90034FE0700CF
:1011D400DC22A800BFFC0700DC22A90030FE0700C7
:1011E400DC22A800BBFC0700DC22A9002CFE0700BF
:1011F400DC22A800B7FC0700DC22A90028FE0700B7
:10120400DC22A800B3FC0700DC22A90024FE0700AE
:10121400DC22A800AFFC0700DC22A90020FE0700A6
:10122400DC22A800ABFC0700DC22A9001CFE07009E
:10123400DC22A800A7FC0700DC22A90018FE070096
:10124400DC22A800A3FC0700DC22A90014FE07008E
:10125400DC22A8009FFC0700DC22A90010FE070086
:10126400DC22A8009BFC0700DC22A9000CFE07007E
:10127400DC22A80097FC0700DC22A90008FE070076
:10128400DC22A80093FC0700DC22A90004FE07006E
:10129400DC22A8008FFC0700DC22A90000FE070066
:1012A400DC22A8008BFC0700DC22A900FCFD07005F
:1012B400DC22A80087FC0700DC22A900F8FD070057
:1012C400DC22A80083FC0700DC22A900F4FD07004F
:1012D400DC22A8007FFC0700DC22A900F0FD070047
:1012E400DC22A8007BFC0700DC22A900ECFD07003F
:1012F400DC22A80077FC0700DC22A900E8FD070037
:10130400DC22A80073FC0700DC22A900E4FD07002E
:10131400DC22A8006FFC0700DC22A900E0FD070026
:10132400DC22A8006BFC0700DC22A900DCFD07001E
:10133400DC22A80067FC0700DC22A900D8FD070016
:10134400DC22A80063FC0700DC22A900D4FD07000E
:10135400DC22A8005FFC0700DC22A900D0FD070006
:10136400DC22A8005BFC0700DC22A900CCFD0700FE
:10137400DC22A80057FC0700DC22A900C8FD0700F6
:10138400DC22A80053FC0700DC22A900C4FD0700EE
:10139400DC22A8004FFC0700DC22A900C0FD0700E6
:1013A400DC22A8004BFC0700DC22A900BCFD0700DE
:1013B400DC22A80047FC0700DC22A900B8FD0700D6
:1013C400DC22A80043FC0700DC22A900B4FD0700CE
:1013D400DC22A8003FFC0700DC22A900B0FD0700C6
:1013E400DC22A8003BFC0700DC22A900ACFD0700BE
:1013F400DC22A80037FC0700DC22A900A8FD0700B6
:10140400DC22A80033FC0700DC22A900A4FD0700AD
:10141400DC22A8002FFC0700DC22A900A0FD0700A5
:10142400DC22A8002BFC0700DC22A9009CFD07009D
:10143400DC22A80027FC0700DC22A90098FD070095
:10144400DC22A80023FC0700DC22A90094FD07008D
:10145400DC22A8001FFC0700DC22A90090FD070085
:10146400DC22A8001BFC0700DC22A9008CFD07007D
:10147400DC22A80017FC0700DC22A90088FD070075
:10148400DC22A80013FC0700DC22A90084FD07006D
:10149400DC22A8000FFC0700DC22A90080FD070065
:1014A400DC22A8000BFC0700DC22A9007CFD07005D
:1014B400DC22A80007FC0700DC22A90078FD070055
:1014C400DC22A80003FC0700DC22A90074FD07004D
:1014D400DC22A800FFFB0700DC22A90070FD070046
:1014E400DC22A800FBFB0700DC22A9006CFD07003E
:1014F400DC22A800F7FB0700DC22A90068FD070036
:10150400DC22A800F3FB0700DC22A90064FD07002D
:10151400DC22A800EFFB0700DC22A90060FD070025
:10152400DC22A800EBFB0700DC22A9005CFD07001D
:10153400DC22A800E7FB0700DC22A90058FD070015
:10154400DC22A800E3FB0700DC22A90054FD07000D
:10155400DC22A800DFFB0700DC22A90050FD070005
:10156400DC22A800DBFB0700DC22A9004CFD0700FD
:10157400DC22A800D7FB0700DC22A90048FD0700F5
:10158400DC22A800D3FB0700DC22A90044FD0700ED
:10159400DC22A800CFFB0700DC22A90040FD0700E5
:1015A400DC22A800CBFB0700DC22A9003CFD0700DD
:1015B400DC22A800C7FB0700DC22A90038FD0700D5
:1015C400DC22A800C3FB0700DC22A90034FD0700CD
:1015D400DC22A800BFFB0700DC22A90030FD0700C5
:1015E400DC22A800BBFB0700DC22A9002CFD0700BD
:1015F400DC22A800B7FB0700DC22A90028FD0700B5
:10160400DC22A800B3FB0700DC22A90024FD0700AC
:10161400DC22A800AFFB0700DC22A90020FD0700A4
:10162400DC22A800ABFB0700DC22A9001CFD07009C
:10163400DC22A800A7FB0700DC22A90018FD070094
:10164400DC22A800A3FB0700DC22A90014FD07008C
:10165400DC22A8009FFB0700DC22A90010FD070084
:10166400DC22A8009BFB0700DC22A9000CFD07007C
:10167400DC22A80097FB0700DC22A90008FD070074
:10168400DC22A80093FB0700DC22A90004FD07006C
:10169400DC22A8008FFB0700DC22A90000FD070064
:1016A400DC22A8008BFB0700DC22A900FCFC07005D
:1016B400DC22A80087FB0700DC22A900F8FC070055
:1016C400DC22A80083FB0700DC22A900F4FC07004D
:1016D400DC22A8007FFB0700DC22A900F0FC070045
:1016E400DC22A8007BFB0700DC22A900ECFC07003D
:1016F400DC22A80077FB0700DC22A900E8FC070035
:10170400DC22A80073FB0700DC22A900E4FC07002C
:10171400DC22A8006FFB0700DC22A900E0FC070024
:10172400DC22A8006BFB0700DC22A900DCFC07001C
:10173400DC22A80067FB0700DC22A900D8FC070014
:10174400DC22A80063FB0700DC22A900D4FC07000C
:10175400DC22A8005FFB0700DC22A900D0FC070004
:10176400DC22A8005BFB0700DC22A900CCFC0700FC
:10177400DC22A80057FB0700DC22A900C8FC0700F4
:10178400DC22A80053FB0700DC22A900C4FC0700EC
:10179400DC22A8004FFB0700DC22A900C0FC0700E4
:1017A400DC22A8004BFB0700DC22A900BCFC0700DC
:1017B400DC22A80047FB0700DC22A900B8FC0700D4
:1017C400DC22A80043FB0700DC22A900B4FC0700CC
:1017D400DC22A8003FFB0700DC22A900B0FC0700C4
:1017E400DC22A8003BFB0700DC22A900ACFC0700BC
:1017F400DC22A80037FB0700DC22A900A8FC0700B4
:10180400DC22A80033FB0700DC22A900A4FC0700AB
:10181400DC22A8002FFB0700DC22A900A0FC0700A3
:10182400DC22A8002BFB0700DC22A9009CFC07009B
:10183400DC22A80027FB0700DC22A90098FC070093
:10184400DC22A80023FB0700DC22A90094FC07008B
:10185400DC22A8001FFB0700DC22A90090FC070083
:10186400DC22A8001BFB0700DC22A9008CFC07007B
:10187400DC22A80017FB0700DC22A90088FC070073
:10188400DC22A80013FB0700DC22A90084FC07006B
:10189400DC22A8000FFB0700DC22A90080FC070063
:1018A400DC22A8000BFB0700DC22A9007CFC07005B
:1018B400DC22A80007FB0700DC22A90078FC070053
:1018C400DC22A80003FB0700DC22A90074FC07004B
:1018D400DC22A800FFFA0700DC22A90070FC070044
:1018E400DC22A800FBFA0700DC22A9006CFC07003C
:1018F400DC22A800F7FA0700DC22A90068FC070034
:10190400DC22A800F3FA0700DC22A90064FC07002B
:10191400DC22A800EFFA0700DC22A90060FC070023
:10192400DC22A800EBFA0700DC22A9005CFC07001B
:10193400DC22A800E7FA0700DC22A90058FC070013
:10194400DC22A800E3FA0700DC22A90054FC07000B
:10195400DC22A800DFFA0700DC22A90050FC070003
:10196400DC22A800DBFA0700DC22A9004CFC0700FB
:10197400DC22A800D7FA0700DC22A90048FC0700F3
:10198400DC22A800D3FA0700DC22A90044FC0700EB
:10199400DC22A800CFFA0700DC22A90040FC0700E3
:1019A400DC22A800CBFA0700DC22A9003CFC0700DB
:1019B400DC22A800C7FA0700DC22A90038FC0700D3
:1019C400DC22A800C3FA0700DC22A90034FC0700CB
:1019D400DC22A800BFFA0700DC22A90030FC0700C3
:1019E400DC22A800BBFA0700DC22A9002CFC0700BB
:1019F400DC22A800B7FA0700DC22A90028FC0700B3
:101A0400DC22A800B3FA0700DC22A90024FC0700AA
:101A1400DC22A800AFFA0700DC22A90020FC0700A2
:101A2400DC22A800ABFA0700DC22A9001CFC07009A
:101A3400DC22A800A7FA0700DC22A90018FC070092
:101A4400DC22A800A3FA0700DC22A90014FC07008A
:101A5400DC22A8009FFA0700DC22A90010FC070082
:101A6400DC22A8009BFA0700DC22A9000CFC07007A
:101A7400DC22A80097FA0700DC22A90008FC070072
:101A8400DC22A80093FA0700DC22A90004FC07006A
:101A9400DC22A8008FFA0700DC22A90000FC070062
:101AA400DC22A8008BFA0700DC22A900FCFB07005B
:101AB400DC22A80087FA0700DC22A900F8FB070053
:101AC400DC22A80083FA0700DC22A900F4FB07004B
:101AD400DC22A8007FFA0700DC22A900F0FB070043
:101AE400DC22A8007BFA0700DC22A900ECFB07003B
:101AF400DC22A80077FA0700DC22A900E8FB070033
:101B0400DC22A80073FA0700DC22A900E4FB07002A
:101B1400DC22A8006FFA0700DC22A900E0FB070022
:101B2400DC22A8006BFA0700DC22A900DCFB07001A
:101B3400DC22A80067FA0700DC22A900D8FB070012
:101B4400DC22A80063FA0700DC22A900D4FB07000A
:101B5400DC22A8005FFA0700DC22A900D0FB070002
:101B6400DC22A8005BFA0700DC22A900CCFB0700FA
:101B7400DC22A80057FA0700DC22A900C8FB0700F2
:101B8400DC22A80053FA0700DC22A900C4FB0700EA
:101B9400DC22A8004FFA0700DC22A900C0FB0700E2
:101BA400DC22A8004BFA0700DC22A900BCFB0700DA
:101BB400DC22A80047FA0700DC22A900B8FB0700D2
:101BC400DC22A80043FA0700DC22A900B4FB0700CA
:101BD400DC22A8003FFA0700DC22A900B0FB0700C2
:101BE400DC22A8003BFA0700DC22A900ACFB0700BA
:101BF400DC22A80037FA0700DC22A900A8FB0700B2
:101C0400DC22A80033FA0700DC22A900A4FB0700A9
:101C1400DC22A8002FFA0700DC22A900A0FB0700A1
:101C2400DC22A8002BFA0700DC22A9009CFB070099
:101C3400DC22A80027FA0700DC22A90098FB070091
:101C4400DC22A80023FA0700DC22A90094FB070089
:101C5400DC22A8001FFA0700DC22A90090FB070081
:101C6400DC22A8001BFA0700DC22A9008CFB070079
:101C7400DC22A80017FA0700DC22A90088FB070071
:101C8400DC22A80013FA0700DC22A90084FB070069
:101C9400DC22A8000FFA0700DC22A90080FB070061
:101CA400DC22A8000BFA0700DC22A9007CFB070059
:101CB400DC22A80007FA0700DC22A90078FB070051
:101CC400DC22A80003FA0700DC22A90074FB070049
:101CD400DC22A800FFF90700DC22A90070FB070042
:101CE400DC22A800FBF90700DC22A9006CFB07003A
:101CF400DC22A800F7F90700DC22A90068FB070032
:101D0400DC22A800F3F90700DC22A90064FB070029
:101D1400DC22A800EFF90700DC22A90060FB070021
:101D2400DC22A800EBF90700DC22A9005CFB070019
:101D3400DC22A800E7F90700DC22A90058FB070011
:101D4400DC22A800E3F90700DC22A90054FB070009
:101D5400DC22A800DFF90700DC22A90050FB070001
:101D6400DC22A800DBF90700DC22A9004CFB0700F9
:101D7400DC22A800D7F90700DC22A90048FB0700F1
:101D8400DC22A800D3F90700DC22A90044FB0700E9
:101D9400DC22A800CFF90700DC22A90040FB0700E1
:101DA400DC22A800CBF90700DC22A9003CFB0700D9
:101DB400DC22A800C7F90700DC22A90038FB0700D1
:101DC400DC22A800C3F90700DC22A90034FB0700C9
:101DD400DC22A800BFF90700DC22A90030FB0700C1
:101DE400DC22A800BBF90700DC22A9002CFB0700B9
:101DF400DC22A800B7F90700DC22A90028FB0700B1
:101E0400DC22A800B3F90700DC22A90024FB0700A8
:101E1400DC22A800AFF90700DC22A90020FB0700A0
:101E2400DC22A800ABF90700DC22A9001CFB070098
:101E3400DC22A800A7F90700DC22A90018FB070090
:101E4400DC22A800A3F90700DC22A90014FB070088
:101E5400DC22A8009FF90700DC22A90010FB070080
:101E6400DC22A8009BF90700DC22A9000CFB070078
:101E7400DC22A80097F90700DC22A90008FB070070
:101E8400DC22A80093F90700DC22A90004FB070068
:101E9400DC22A8008FF90700DC22A90000FB070060
:101EA400DC22A8008BF90700DC22A900FCFA070059
:101EB400DC22A80087F90700DC22A900F8FA070051
:101EC400DC22A80083F90700DC22A900F4FA070049
:101ED400DC22A8007FF90700DC22A900F0FA070041
:101EE400DC22A8007BF90700DC22A900ECFA070039
:101EF400DC22A80077F90700DC22A900E8FA070031
:101F0400DC22A80073F90700DC22A900E4FA070028
:101F1400DC22A8006FF90700DC22A900E0FA070020
:101F2400DC22A8006BF90700DC22A900DCFA070018
:101F3400DC22A80067F90700DC22A900D8FA070010
:101F4400DC22A80063F90700DC22A900D4FA070008
:101F5400DC22A8005FF90700DC22A900D0FA070000
:101F6400DC22A8005BF90700DC22A900CCFA0700F8
:101F7400DC22A80057F90700DC22A900C8FA0700F0
:101F8400DC22A80053F90700DC22A900C4FA0700E8
:101F9400DC22A8004FF90700DC22A900C0FA0700E0
:101FA400DC22A8004BF90700DC22A900BCFA0700D8
:101FB400DC22A80047F90700DC22A900B8FA0700D0
:101FC400DC22A80043F90700DC22A900B4FA0700C8
:101FD400DC22A8003FF90700DC22A900B0FA0700C0
:101FE400DC22A8003BF90700DC22A900ACFA0700B8
:101FF400DC22A80037F90700DC22A900A8FA0700B0
:10200400DC22A80033F90700DC22A900A4FA0700A7
:10201400DC22A8002FF90700DC22A900A0FA07009F
:10202400DC22A8002BF90700DC22A9009CFA070097
:10203400DC22A80027F90700DC22A90098FA07008F
:10204400DC22A80023F90700DC22A90094FA070087
:10205400DC22A8001FF90700DC22A90090FA07007F
:10206400DC22A8001BF90700DC22A9008CFA070077
:10207400DC22A80017F90700DC22A90088FA07006F
:10208400DC22A80013F90700DC22A90084FA070067
:10209400DC22A8000FF90700DC22A90080FA07005F
:1020A400DC22A8000BF90700DC22A9007CFA070057
:1020B400DC22A80007F90700DC22A90078FA07004F
:1020C400DC22A80003F90700DC22A90074FA070047
:1020D400DC22A800FFF80700DC22A90070FA070040
:1020E400DC22A800FBF80700DC22A9006CFA070038
:1020F400DC22A800F7F80700DC22A90068FA070030
:10210400DC22A800F3F80700DC22A90064FA070027
:10211400DC22A800EFF80700DC22A90060FA07001F
:10212400DC22A800EBF80700DC22A9005CFA070017
:10213400DC22A800E7F80700DC22A90058FA07000F
:10214400DC22A800E3F80700DC22A90054FA070007
:10215400DC22A800DFF80700DC22A90050FA0700FF
:10216400DC22A800DBF80700DC22A9004CFA0700F7
:10217400DC22A800D7F80700DC22A90048FA0700EF
:10218400DC22A800D3F80700DC22A90044FA0700E7
:10219400DC22A800CFF80700DC22A90040FA0700DF
:1021A400DC22A800CBF80700DC22A9003CFA0700D7
:1021B400DC22A800C7F80700DC22A90038FA0700CF
:1021C400DC22A800C3F80700DC22A90034FA0700C7
:1021D400DC22A800BFF80700DC22A90030FA0700BF
:1021E400DC22A800BBF80700DC22A9002CFA0700B7
:1021F400DC22A800B7F80700DC22A90028FA0700AF
:10220400DC22A800B3F80700DC22A90024FA0700A6
:10221400DC22A800AFF80700DC22A90020FA07009E
:10222400DC22A800ABF80700DC22A9001CFA070096
:10223400DC22A800A7F80700DC22A90018FA07008E
:10224400DC22A800A3F80700DC22A90014FA070086
:10225400DC22A8009FF80700DC22A90010FA07007E
:10226400DC22A8009BF80700DC22A9000CFA070076
:10227400DC22A80097F80700DC22A90008FA07006E
:10228400DC22A80093F80700DC22A90004FA070066
:10229400DC22A8008FF80700DC22A90000FA07005E
:1022A400DC22A8008BF80700DC22A900FCF9070057
:1022B400DC22A80087F80700DC22A900F8F907004F
:1022C400DC22A80083F80700DC22A900F4F9070047
:1022D400DC22A8007FF80700DC22A900F0F907003F
:1022E400DC22A8007BF80700DC22A900ECF9070037
:1022F400DC22A80077F80700DC22A900E8F907002F
:10230400DC22A80073F80700DC22A900E4F9070026
:10231400DC22A8006FF80700DC22A900E0F907001E
:10232400DC22A8006BF80700DC22A900DCF9070016
:10233400DC22A80067F80700DC22A900D8F907000E
:10234400DC22A80063F80700DC22A900D4F9070006
:10235400DC22A8005FF80700DC22A900D0F90700FE
:10236400DC22A8005BF80700DC22A900CCF90700F6
:10237400DC22A80057F80700DC22A900C8F90700EE
:10238400DC22A80053F80700DC22A900C4F90700E6
:10239400DC22A8004FF80700DC22A900C0F90700DE
:1023A400DC22A8004BF80700DC22A900BCF90700D6
:1023B400DC22A80047F80700DC22A900B8F90700CE
:1023C400DC22A80043F80700DC22A900B4F90700C6
:1023D400DC22A8003FF80700DC22A900B0F90700BE
:1023E400DC22A8003BF80700DC22A900ACF90700B6
:1023F400DC22A80037F80700DC22A900A8F90700AE
:10240400DC22A80033F80700DC22A900A4F90700A5
:10241400DC22A8002FF80700DC22A900A0F907009D
:10242400DC22A8002BF80700DC22A9009CF9070095
:10243400DC22A80027F80700DC22A90098F907008D
:10244400DC22A80023F80700DC22A90094F9070085
:10245400DC22A8001FF80700DC22A90090F907007D
:10246400DC22A8001BF80700DC22A9008CF9070075
:10247400DC22A80017F80700DC22A90088F907006D
:10248400DC22A80013F80700DC22A90084F9070065
:10249400DC22A8000FF80700DC22A90080F907005D
:1024A400DC22A8000BF80700DC22A9007CF9070055
:1024B400DC22A80007F80700DC22A90078F907004D
:1024C400DC22A80003F80700DC22A90074F9070045
:1024D400DC22A800FFF70700DC22A90070F907003E
:1024E400DC22A800FBF70700DC22A9006CF9070036
:1024F400DC22A800F7F70700DC22A90068F907002E
:10250400DC22A800F3F70700DC22A90064F9070025
:10251400DC22A800EFF70700DC22A90060F907001D
:10252400DC22A800EBF70700DC22A9005CF9070015
:10253400DC22A800E7F70700DC22A90058F907000D
:10254400DC22A800E3F70700DC22A90054F9070005
:10255400DC22A800DFF70700DC22A90050F90700FD
:10256400DC22A800DBF70700DC22A9004CF90700F5
:10257400DC22A800D7F70700DC22A90048F90700ED
:10258400DC22A800D3F70700DC22A90044F90700E5
:10259400DC22A800CFF70700DC22A90040F90700DD
:1025A400DC22A800CBF70700DC22A9003CF90700D5
:1025B400DC22A800C7F70700DC22A90038F90700CD
:1025C400DC22A800C3F70700DC22A90034F90700C5
:1025D400DC22A800BFF70700DC22A90030F90700BD
:1025E400DC22A800BBF70700DC22A9002CF90700B5
:1025F400DC22A800B7F70700DC22A90028F90700AD
:10260400DC22A800B3F70700DC22A90024F90700A4
:10261400DC22A800AFF70700DC22A90020F907009C
:10262400DC22A800ABF70700DC22A9001CF9070094
:10263400DC22A800A7F70700DC22A90018F907008C
:10264400DC22A800A3F70700DC22A90014F9070084
:10265400DC22A8009FF70700DC22A90010F907007C
:10266400DC22A8009BF70700DC22A9000CF9070074
:10267400DC22A80097F70700DC22A90008F907006C
:10268400DC22A80093F70700DC22A90004F9070064
:10269400DC22A8008FF70700DC22A90000F907005C
:1026A400DC22A8008BF70700DC22A900FCF8070055
:1026B400DC22A80087F70700DC22A900F8F807004D
:1026C400DC22A80083F70700DC22A900F4F8070045
:1026D400DC22A8007FF70700DC22A900F0F807003D
:1026E400DC22A8007BF70700DC22A900ECF8070035
:1026F400DC22A80077F70700DC22A900E8F807002D
:10270400DC22A80073F70700DC22A900E4F8070024
:10271400DC22A8006FF70700DC22A900E0F807001C
:10272400DC22A8006BF70700DC22A900DCF8070014
:10273400DC22A80067F70700DC22A900D8F807000C
:10274400DC22A80063F70700DC22A900D4F8070004
:10275400DC22A8005FF70700DC22A900D0F80700FC
:10276400DC22A8005BF70700DC22A900CCF80700F4
:10277400DC22A80057F70700DC22A900C8F80700EC
:10278400DC22A80053F70700DC22A900C4F80700E4
:10279400DC22A8004FF70700DC22A900C0F80700DC
:1027A400DC22A8004BF70700DC22A900BCF80700D4
:1027B400DC22A80047F70700DC22A900B8F80700CC
:1027C400DC22A80043F70700DC22A900B4F80700C4
:1027D400DC22A8003FF70700DC22A900B0F80700BC
:1027E400DC22A8003BF70700DC22A900ACF80700B4
:1027F400DC22A80037F70700DC22A900A8F80700AC
:10280400DC22A80033F70700DC22A900A4F80700A3
:10281400DC22A8002FF70700DC22A900A0F807009B
:10282400DC22A8002BF70700DC22A9009CF8070093
:10283400DC22A80027F70700DC22A90098F807008B
:10284400DC22A80023F70700DC22A90094F8070083
:10285400DC22A8001FF70700DC22A90090F807007B
:10286400DC22A8001BF70700DC22A9008CF8070073
:10287400DC22A80017F70700DC22A90088F807006B
:10288400DC22A80013F70700DC22A90084F8070063
:10289400DC22A8000FF70700DC22A90080F807005B
:1028A400DC22A8000BF70700DC22A9007CF8070053
:1028B400DC22A80007F70700DC22A90078F807004B
:1028C400DC22A80003F70700DC22A90074F8070043
:1028D400DC22A800FFF60700DC22A90070F807003C
:1028E400DC22A800FBF60700DC22A9006CF8070034
:1028F400DC22A800F7F60700DC22A90068F807002C
:10290400DC22A800F3F60700DC22A90064F8070023
:10291400DC22A800EFF60700DC22A90060F807001B
:10292400DC22A800EBF60700DC22A9005CF8070013
:10293400DC22A800E7F60700DC22A90058F807000B
:10294400DC22A800E3F60700DC22A90054F8070003
:10295400DC22A800DFF60700DC22A90050F80700FB
:10296400DC22A800DBF60700DC22A9004CF80700F3
:10297400DC22A800D7F60700DC22A90048F80700EB
:10298400DC22A800D3F60700DC22A90044F80700E3
:10299400DC22A800CFF60700DC22A90040F80700DB
:1029A400DC22A800CBF60700DC22A9003CF80700D3
:1029B400DC22A800C7F60700DC22A90038F80700CB
:1029C400DC22A800C3F60700DC22A90034F80700C3
:1029D400DC22A800BFF60700DC22A90030F80700BB
:1029E400DC22A800BBF60700DC22A9002CF80700B3
:1029F400DC22A800B7F60700DC22A90028F80700AB
:102A0400DC22A800B3F60700DC22A90024F80700A2
:102A1400DC22A800AFF60700DC22A90020F807009A
:102A2400DC22A800ABF60700DC22A9001CF8070092
:102A3400DC22A800A7F60700DC22A90018F807008A
:102A4400DC22A800A3F60700DC22A90014F8070082
:102A5400DC22A8009FF60700DC22A90010F807007A
:102A6400DC22A8009BF60700DC22A9000CF8070072
:102A7400DC22A80097F60700DC22A90008F807006A
:102A8400DC22A80093F60700DC22A90004F8070062
:102A9400DC22A8008FF60700DC22A90000F807005A
:102AA400DC22A8008BF60700DC22A900FCF7070053
:102AB400DC22A80087F60700DC22A900F8F707004B
:102AC400DC22A80083F60700DC22A900F4F7070043
:102AD400DC22A8007FF60700DC22A900F0F707003B
:102AE400DC22A8007BF60700DC22A900ECF7070033
:102AF400DC22A80077F60700DC22A900E8F707002B
:102B0400DC22A80073F60700DC22A900E4F7070022
:102B1400DC22A8006FF60700DC22A900E0F707001A
:102B2400DC22A8006BF60700DC22A900DCF7070012
:102B3400DC22A80067F60700DC22A900D8F707000A
:102B4400DC22A80063F60700DC22A900D4F7070002
:102B5400DC22A8005FF60700DC22A900D0F70700FA
:102B6400DC22A8005BF60700DC22A900CCF70700F2
:102B7400DC22A80057F60700DC22A900C8F70700EA
:102B8400DC22A80053F60700DC22A900C4F70700E2
:102B9400DC22A8004FF60700DC22A900C0F70700DA
:102BA400DC22A8004BF60700DC22A900BCF70700D2
:102BB400DC22A80047F60700DC22A900B8F70700CA
:102BC400DC22A80043F60700DC22A900B4F70700C2
:102BD400DC22A8003FF60700DC22A900B0F70700BA
:102BE400DC22A8003BF60700DC22A900ACF70700B2
:102BF400DC22A80037F60700DC22A900A8F70700AA
:102C0400DC22A80033F60700DC22A900A4F70700A1
:102C1400DC22A8002FF60700DC22A900A0F7070099
:102C2400DC22A8002BF60700DC22A9009CF7070091
:102C3400DC22A80027F60700DC22A90098F7070089
:102C4400DC22A80023F60700DC22A90094F7070081
:102C5400DC22A8001FF60700DC22A90090F7070079
:102C6400DC22A8001BF60700DC22A9008CF7070071
:102C7400DC22A80017F60700DC22A90088F7070069
:102C8400DC22A80013F60700DC22A90084F7070061
:102C9400DC22A8000FF60700DC22A90080F7070059
:102CA400DC22A8000BF60700DC22A9007CF7070051
:102CB400DC22A80007F60700DC22A90078F7070049
:102CC400DC22A80003F60700DC22A90074F7070041
:102CD400DC22A800FFF50700DC22A90070F707003A
:102CE400DC22A800FBF50700DC22A9006CF7070032
:102CF400DC22A800F7F50700DC22A90068F707002A
:102D0400DC22A800F3F50700DC22A90064F7070021
:102D1400DC22A800EFF50700DC22A90060F7070019
:102D2400DC22A800EBF50700DC22A9005CF7070011
:102D3400DC22A800E7F50700DC22A90058F7070009
:102D4400DC22A800E3F50700DC22A90054F7070001
:102D5400DC22A800DFF50700DC22A90050F70700F9
:102D6400DC22A800DBF50700DC22A9004CF70700F1
:102D7400DC22A800D7F50700DC22A90048F70700E9
:102D8400DC22A800D3F50700DC22A90044F70700E1
:102D9400DC22A800CFF50700DC22A90040F70700D9
:102DA400DC22A800CBF50700DC22A9003CF70700D1
:102DB400DC22A800C7F50700DC22A90038F70700C9
:102DC400DC22A800C3F50700DC22A90034F70700C1
:102DD400DC22A800BFF50700DC22A90030F70700B9
:102DE400DC22A800BBF50700DC22A9002CF70700B1
:102DF400DC22A800B7F50700DC22A90028F70700A9
:102E0400DC22A800B3F50700DC22A90024F70700A0
:102E1400DC22A800AFF50700DC22A90020F7070098
:102E2400DC22A800ABF50700DC22A9001CF7070090
:102E3400DC22A800A7F50700DC22A90018F7070088
:102E4400DC22A800A3F50700DC22A90014F7070080
:102E5400DC22A8009FF50700DC22A90010F7070078
:102E6400DC22A8009BF50700DC22A9000CF7070070
:102E7400DC22A80097F50700DC22A90008F7070068
:102E8400DC22A80093F50700DC22A90004F7070060
:102E9400DC22A8008FF50700DC22A90000F7070058
:102EA400DC22A8008BF50700DC22A900FCF6070051
:102EB400DC22A80087F50700DC22A900F8F6070049
:102EC400DC22A80083F50700DC22A900F4F6070041
:102ED400DC22A8007FF50700DC22A900F0F6070039
:102EE400DC22A8007BF50700DC22A900ECF6070031
:102EF400DC22A80077F50700DC22A900E8F6070029
:102F0400DC22A80073F50700DC22A900E4F6070020
:102F1400DC22A8006FF50700DC22A900E0F6070018
:102F2400DC22A8006BF50700DC22A900DCF6070010
:102F3400DC22A80067F50700DC22A900D8F6070008
:102F4400DC22A80063F50700DC22A900D4F6070000
:102F5400DC22A8005FF50700DC22A900D0F60700F8
:102F6400DC22A8005BF50700DC22A900CCF60700F0
:102F7400DC22A80057F50700DC22A900C8F60700E8
:102F8400DC22A80053F50700DC22A900C4F60700E0
:102F9400DC22A8004FF50700DC22A900C0F60700D8
:102FA400DC22A8004BF50700DC22A900BCF60700D0
:102FB400DC22A80047F50700DC22A900B8F60700C8
:102FC400DC22A80043F50700DC22A900B4F60700C0
:102FD400DC22A8003FF50700DC22A900B0F60700B8
:102FE400DC22A8003BF50700DC22A900ACF60700B0
:102FF400DC22A80037F50700DC22A900A8F60700A8
:10300400DC22A80033F50700DC22A900A4F607009F
:10301400DC22A8002FF50700DC22A900A0F6070097
:10302400DC22A8002BF50700DC22A9009CF607008F
:10303400DC22A80027F50700DC22A90098F6070087
:10304400DC22A80023F50700DC22A90094F607007F
:10305400DC22A8001FF50700DC22A90090F6070077
:10306400DC22A8001BF50700DC22A9008CF607006F
:10307400DC22A80017F50700DC22A90088F6070067
:10308400DC22A80013F50700DC22A90084F607005F
:10309400DC22A8000FF50700DC22A90080F6070057
:1030A400DC22A8000BF50700DC22A9007CF607004F
:1030B400DC22A80007F50700DC22A90078F6070047
:1030C400DC22A80003F50700DC22A90074F607003F
:1030D400DC22A800FFF40700DC22A90070F6070038
:1030E400DC22A800FBF40700DC22A9006CF6070030
:1030F400DC22A800F7F40700DC22A90068F6070028
:10310400DC22A800F3F40700DC22A90064F607001F
:10311400DC22A800EFF40700DC22A90060F6070017
:10312400DC22A800EBF40700DC22A9005CF607000F
:10313400DC22A800E7F40700DC22A90058F6070007
:10314400DC22A800E3F40700DC22A90054F60700FF
:10315400DC22A800DFF40700DC22A90050F60700F7
:10316400DC22A800DBF40700DC22A9004CF60700EF
:10317400DC22A800D7F40700DC22A90048F60700E7
:10318400DC22A800D3F40700DC22A90044F60700DF
:10319400DC22A800CFF40700DC22A90040F60700D7
:1031A400DC22A800CBF40700DC22A9003CF60700CF
:1031B400DC22A800C7F40700DC22A90038F60700C7
:1031C400DC22A800C3F40700DC22A90034F60700BF
:1031D400DC22A800BFF40700DC22A90030F60700B7
:1031E400DC22A800BBF40700DC22A9002CF60700AF
:1031F400DC22A800B7F40700DC22A90028F60700A7
:10320400DC22A800B3F40700DC22A90024F607009E
:10321400DC22A800AFF40700DC22A90020F6070096
:10322400DC22A800ABF40700DC22A9001CF607008E
:10323400DC22A800A7F40700DC22A90018F6070086
:10324400DC22A800A3F40700DC22A90014F607007E
:10325400DC22A8009FF40700DC22A90010F6070076
:10326400DC22A80050F507002DF63700FFFF3700D9
:100A7C00F0FF2F00A8A2B700C822EF00CE22EF0093
:100A8C00D422EF00DA22EF00D822EF00D222EF00BE
:080A9C00C622EF000000060075
:100AA4000000000000000000000000000000000042
:100AB4000000000000000000000000000000000032
:100AC4000000000000000000000000000000000022
:100AD4000000000000000000000000000000000012
:100AE40000000000000000000000000000000600FC
:1002000000000000000000000000000000000000EE
:1002100000000000000000000000000000000000DE
:1002200000000000000000000000000000000000CE
:1002300000000000000000000000000000000000BE
:1004B000000000000000000000000000D622EF0055
:1004C000000000000000000000000000000000002C
:0804D00000000000000006001E
:1004D8000000000000000000000000000000000014
:1004E8000000000000000000000000000000000004
:1004F80000000000000000000000000000000000F4
:100508000000000000000000000000000040800023
:10051800D6A2B70020002000D6A2B7001000200005
:10052800D6A2B70020002000D6A2B70010002000F5
:10053800D6A2B70020002000D6A2B70010002000E5
:10054800D6A2B70020002000D6A2B70010002000D5
:10055800D6A2B70020002000D6A2B70010002000C5
:10056800D6A2B70010002000D6A2B70010002000C5
:10057800D6A2B70010002000D6A2B70010002000B5
:10058800D6A2B70010002000D6A2B70010002000A5
:10059800D6A2B70010002000D6A2B7001000200095
:1005A800D6A2B70010002000D6A2B7002000200075
:1005B800D6A2B70020002000D6A2B7002000200055
:1005C800D6A2B70020002000D6A2B7002000200045
:1005D800D6A2B70020002000D6A2B7002000200035
:1005E800D6A2B70020002000D6A2B7002000200025
:1005F800D6A2B70020002000D6A2B7003000200005
:10060800D6A2B70030002000D6A2B70030002000E4
:10061800D6A2B70030002000D6A2B70030002000D4
:10062800D6A2B70030002000D6A2B70030002000C4
:10063800D6A2B70030002000D6A2B70030002000B4
:10064800D6A2B70030002000D6A2B7004000200094
:10065800D6A2B70040002000D6A2B7004000200074
:10066800D6A2B70040002000D6A2B7004000200064
:10067800D6A2B70040002000D6A2B7004000200054
:10068800D6A2B70040002000D6A2B7004000200044
:10069800D6A2B70040002000D6A2B7005000200024
:1006A800D6A2B70050002000D6A2B7005000200004
:1006B800D6A2B70050002000D6A2B70050002000F4
:1006C800D6A2B70050002000D6A2B70050002000E4
:1006D800D6A2B70050002000D6A2B70050002000D4
:1006E800D6A2B70050002000D6A2B70060002000B4
:1006F800D6A2B70060002000D6A2B7006000200094
:10070800D6A2B70060002000D6A2B7006000200083
:10071800D6A2B70060002000D6A2B7006000200073
:10072800D6A2B70060002000D6A2B7006000200063
:10073800D6A2B70060002000D6A2B7007000200043
:10074800D6A2B70070002000D6A2B7007000200023
:10075800D6A2B70070002000D6A2B7007000200013
:10076800D6A2B70070002000D6A2B7007000200003
:10077800D6A2B70070002000D6A2B70070002000F3
:10078800D6A2B70070002000D6A2B700D622EF008C
:1007980011002000008020001088400000000000A8
:0407A8000000060047
:1007AC00000000000000000000000000000000003D
:1007BC00000000000000000000000000000000002D
:1007CC00000000000000000000000000000000001D
:1007DC00000000000000000000000000000000000D
:100A5C00000000000000000000000000D622EF00A3
:100A6C000020EF000040880000000000000006009D
:103278000A8020000B002000000009000B1D7800C8
:04328800000006003C
:10328C0001802000A093290000000900B0187800EC
:04329C000000060028
:043274000000000056
:0200000401F009
:1C000000058300003F000000B38700000F3100000F3300000700000003C0000097
:00000001FF
