:100000007C0504000000000000000000000000006B
:1000100000000000000000000000000000000000E0
:1000200000000000000000000000000000000000D0
:1000300000000000000000000000000000000000C0
:1000400000000000000000000000000000000000B0
:1000500000000000000000000000000000000000A0
:100060000000000000000000000000000000000090
:100070000000000000000000000000000000000080
:100080000000000000000000000000000000000070
:100090000000000000000000000000000000000060
:1000A0000000000000000000000000000000000050
:1000B0000000000000000000000000000000000040
:1000C0000000000000000000000000000000000030
:1000D0000000000000000000000000000000000020
:1000E0000000000000000000000000000000000010
:1000F0000000000000000000000000000000000000
:1001000000000000000000000000000000000000EF
:1001100000000000000000000000000000000000DF
:1001200000000000000000000000000000000000CF
:1001300000000000000000000000000000000000BF
:1001400000000000000000000000000000000000AF
:10015000000000000000000000000000000000009F
:10016000000000000000000000000000000000008F
:10017000000000000000000000000000000000007F
:10018000000000000000000000000000000000006F
:10019000000000000000000000000000000000005F
:1001A000000000000000000000000000000000004F
:1001B000000000000000000000000000000000003F
:1001C000000000000000000000000000000000002F
:1001D000000000000000000000000000000000001F
:1001E000000000000000000000000000000000000F
:1001F00000000000000000000000000000000000FF
:100AF8000F802000F0FF200020A0B7000000200099
:100B080034A0B700400020004420B700DAFF0700F7
:100B1800DC42A900DC22A900E1FF0700DC22A800D2
:100B2800B5FD0700DC22A900DDFF0700DC22A800D4
:100B3800B1FD0700DC22A900D9FF0700DC22A800CC
:100B4800ADFD0700DC22A900D5FF0700DC22A800C4
:100B5800A9FD0700DC42A800DC22A900D0FF07009D
:100B6800DC22A800A4FD0700DC22A900CCFF0700B6
:100B7800DC22A800A0FD0700DC22A900C8FF0700AE
:100B8800DC22A8009CFD0700DC22A900C4FF0700A6
:100B9800DC22A80098FD0700DC22A900C0FF07009E
:100BA800DC22A80094FD0700DC22A900BCFF070096
:100BB800DC22A80090FD0700DC22A900B8FF07008E
:100BC800DC22A8008CFD0700DC22A900B4FF070086
:100BD800DC22A80088FD0700DC22A900B0FF07007E
:100BE800DC22A80084FD0700DC22A900ACFF070076
:100BF800DC22A80080FD0700DC22A900A8FF07006E
:100C0800DC22A8007CFD0700DC22A900A4FF070065
:100C1800DC22A80078FD0700DC22A900A0FF07005D
:100C2800DC22A80074FD0700DC22A9009CFF070055
:100C3800DC22A80070FD0700DC22A90098FF07004D
:100C4800DC22A8006CFD0700DC22A90094FF070045
:100C5800DC22A80068FD0700DC22A90090FF07003D
:100C6800DC22A80064FD0700DC22A9008CFF070035
:100C7800DC22A80060FD0700DC22A90088FF07002D
:100C8800DC22A8005CFD0700DC22A90084FF070025
:100C9800DC22A80058FD0700DC22A90080FF07001D
:100CA800DC22A80054FD0700DC22A9007CFF070015
:100CB800DC22A80050FD0700DC22A90078FF07000D
:100CC800DC22A8004CFD0700DC22A90074FF070005
:100CD800DC22A800FEFD0700DC22A90070FF070047
:100CE800DC22A800FAFD0700DC22A9006CFF07003F
:100CF800DC22A800F6FD0700DC22A90068FF070037
:100D0800DC22A800F2FD0700DC22A90064FF07002E
:100D1800DC22A800EEFD0700DC22A90060FF070026
:100D2800DC22A800EAFD0700DC22A9005CFF07001E
:100D3800DC22A800E6FD0700DC22A90058FF070016
:100D4800DC22A800E2FD0700DC22A90054FF07000E
:100D5800DC22A800DEFD0700DC22A90050FF070006
:100D6800DC22A800DAFD0700DC22A9004CFF0700FE
:100D7800DC22A800D6FD0700DC22A90048FF0700F6
:100D8800DC22A800D2FD0700DC22A90044FF0700EE
:100D9800DC22A800CEFD0700DC22A90040FF0700E6
:100DA800DC22A800CAFD0700DC22A9003CFF0700DE
:100DB800DC22A800C6FD0700DC22A90038FF0700D6
:100DC800DC22A800C2FD0700DC22A90034FF0700CE
:100DD800DC22A800BEFD0700DC22A90030FF0700C6
:100DE800DC22A800BAFD0700DC22A9002CFF0700BE
:100DF800DC22A800B6FD0700DC22A90028FF0700B6
:100E0800DC22A800B2FD0700DC22A90024FF0700AD
:100E1800DC22A800AEFD0700DC22A90020FF0700A5
:100E2800DC22A800AAFD0700DC22A9001CFF07009D
:100E3800DC22A800A6FD0700DC22A90018FF070095
:100E4800DC22A800A2FD0700DC22A90014FF07008D
:100E5800DC22A8009EFD0700DC22A90010FF070085
:100E6800DC22A8009AFD0700DC22A9000CFF07007D
:100E7800DC22A80096FD0700DC22A90008FF070075
:100E8800DC22A80092FD0700DC22A90004FF07006D
:100E9800DC22A8008EFD0700DC22A90000FF070065
:100EA800DC22A8008AFD0700DC22A900FCFE07005E
:100EB800DC22A80086FD0700DC22A900F8FE070056
:100EC800DC22A80082FD0700DC22A900F4FE07004E
:100ED800DC22A8007EFD0700DC22A900F0FE070046
:100EE800DC22A8007AFD0700DC22A900ECFE07003E
:100EF800DC22A80076FD0700DC22A900E8FE070036
:100F0800DC22A80072FD0700DC22A900E4FE07002D
:100F1800DC22A8006EFD0700DC22A900E0FE070025
:100F2800DC22A8006AFD0700DC22A900DCFE07001D
:100F3800DC22A80066FD0700DC22A900D8FE070015
:100F4800DC22A80062FD0700DC22A900D4FE07000D
:100F5800DC22A8005EFD0700DC22A900D0FE070005
:100F6800DC22A8005AFD0700DC22A900CCFE0700FD
:100F7800DC22A80056FD0700DC22A900C8FE0700F5
:100F8800DC22A80052FD0700DC22A900C4FE0700ED
:100F9800DC22A8004EFD0700DC22A900C0FE0700E5
:100FA800DC22A8004AFD0700DC22A900BCFE0700DD
:100FB800DC22A80046FD0700DC22A900B8FE0700D5
:100FC800DC22A80042FD0700DC22A900B4FE0700CD
:100FD800DC22A8003EFD0700DC22A900B0FE0700C5
:100FE800DC22A8003AFD0700DC22A900ACFE0700BD
:100FF800DC22A80036FD0700DC22A900A8FE0700B5
:10100800DC22A80032FD0700DC22A900A4FE0700AC
:10101800DC22A8002EFD0700DC22A900A0FE0700A4
:10102800DC22A8002AFD0700DC22A9009CFE07009C
:10103800DC22A80026FD0700DC22A90098FE070094
:10104800DC22A80022FD0700DC22A90094FE07008C
:10105800DC22A8001EFD0700DC22A90090FE070084
:10106800DC22A8001AFD0700DC22A9008CFE07007C
:10107800DC22A80016FD0700DC22A90088FE070074
:10108800DC22A80012FD0700DC22A90084FE07006C
:10109800DC22A8000EFD0700DC22A90080FE070064
:1010A800DC22A8000AFD0700DC22A9007CFE07005C
:1010B800DC22A80006FD0700DC22A90078FE070054
:1010C800DC22A80002FD0700DC22A90074FE07004C
:1010D800DC22A800FEFC0700DC22A90070FE070045
:1010E800DC22A800FAFC0700DC22A9006CFE07003D
:1010F800DC22A800F6FC0700DC22A90068FE070035
:10110800DC22A800F2FC0700DC22A90064FE07002C
:10111800DC22A800EEFC0700DC22A90060FE070024
:10112800DC22A800EAFC0700DC22A9005CFE07001C
:10113800DC22A800E6FC0700DC22A90058FE070014
:10114800DC22A800E2FC0700DC22A90054FE07000C
:10115800DC22A800DEFC0700DC22A90050FE070004
:10116800DC22A800DAFC0700DC22A9004CFE0700FC
:10117800DC22A800D6FC0700DC22A90048FE0700F4
:10118800DC22A800D2FC0700DC22A90044FE0700EC
:10119800DC22A800CEFC0700DC22A90040FE0700E4
:1011A800DC22A800CAFC0700DC22A9003CFE0700DC
:1011B800DC22A800C6FC0700DC22A90038FE0700D4
:1011C800DC22A800C2FC0700DC22A90034FE0700CC
:1011D800DC22A800BEFC0700DC22A90030FE0700C4
:1011E800DC22A800BAFC0700DC22A9002CFE0700BC
:1011F800DC22A800B6FC0700DC22A90028FE0700B4
:10120800DC22A800B2FC0700DC22A90024FE0700AB
:10121800DC22A800AEFC0700DC22A90020FE0700A3
:10122800DC22A800AAFC0700DC22A9001CFE07009B
:10123800DC22A800A6FC0700DC22A90018FE070093
:10124800DC22A800A2FC0700DC22A90014FE07008B
:10125800DC22A8009EFC0700DC22A90010FE070083
:10126800DC22A8009AFC0700DC22A9000CFE07007B
:10127800DC22A80096FC0700DC22A90008FE070073
:10128800DC22A80092FC0700DC22A90004FE07006B
:10129800DC22A8008EFC0700DC22A90000FE070063
:1012A800DC22A8008AFC0700DC22A900FCFD07005C
:1012B800DC22A80086FC0700DC22A900F8FD070054
:1012C800DC22A80082FC0700DC22A900F4FD07004C
:1012D800DC22A8007EFC0700DC22A900F0FD070044
:1012E800DC22A8007AFC0700DC22A900ECFD07003C
:1012F800DC22A80076FC0700DC22A900E8FD070034
:10130800DC22A80072FC0700DC22A900E4FD07002B
:10131800DC22A8006EFC0700DC22A900E0FD070023
:10132800DC22A8006AFC0700DC22A900DCFD07001B
:10133800DC22A80066FC0700DC22A900D8FD070013
:10134800DC22A80062FC0700DC22A900D4FD07000B
:10135800DC22A8005EFC0700DC22A900D0FD070003
:10136800DC22A8005AFC0700DC22A900CCFD0700FB
:10137800DC22A80056FC0700DC22A900C8FD0700F3
:10138800DC22A80052FC0700DC22A900C4FD0700EB
:10139800DC22A8004EFC0700DC22A900C0FD0700E3
:1013A800DC22A8004AFC0700DC22A900BCFD0700DB
:1013B800DC22A80046FC0700DC22A900B8FD0700D3
:1013C800DC22A80042FC0700DC22A900B4FD0700CB
:1013D800DC22A8003EFC0700DC22A900B0FD0700C3
:1013E800DC22A8003AFC0700DC22A900ACFD0700BB
:1013F800DC22A80036FC0700DC22A900A8FD0700B3
:10140800DC22A80032FC0700DC22A900A4FD0700AA
:10141800DC22A8002EFC0700DC22A900A0FD0700A2
:10142800DC22A8002AFC0700DC22A9009CFD07009A
:10143800DC22A80026FC0700DC22A90098FD070092
:10144800DC22A80022FC0700DC22A90094FD07008A
:10145800DC22A8001EFC0700DC22A90090FD070082
:10146800DC22A8001AFC0700DC22A9008CFD07007A
:10147800DC22A80016FC0700DC22A90088FD070072
:10148800DC22A80012FC0700DC22A90084FD07006A
:10149800DC22A8000EFC0700DC22A90080FD070062
:1014A800DC22A8000AFC0700DC22A9007CFD07005A
:1014B800DC22A80006FC0700DC22A90078FD070052
:1014C800DC22A80002FC0700DC22A90074FD07004A
:1014D800DC22A800FEFB0700DC22A90070FD070043
:1014E800DC22A800FAFB0700DC22A9006CFD07003B
:1014F800DC22A800F6FB0700DC22A90068FD070033
:10150800DC22A800F2FB0700DC22A90064FD07002A
:10151800DC22A800EEFB0700DC22A90060FD070022
:10152800DC22A800EAFB0700DC22A9005CFD07001A
:10153800DC22A800E6FB0700DC22A90058FD070012
:10154800DC22A800E2FB0700DC22A90054FD07000A
:10155800DC22A800DEFB0700DC22A90050FD070002
:10156800DC22A800DAFB0700DC22A9004CFD0700FA
:10157800DC22A800D6FB0700DC22A90048FD0700F2
:10158800DC22A800D2FB0700DC22A90044FD0700EA
:10159800DC22A800CEFB0700DC22A90040FD0700E2
:1015A800DC22A800CAFB0700DC22A9003CFD0700DA
:1015B800DC22A800C6FB0700DC22A90038FD0700D2
:1015C800DC22A800C2FB0700DC22A90034FD0700CA
:1015D800DC22A800BEFB0700DC22A90030FD0700C2
:1015E800DC22A800BAFB0700DC22A9002CFD0700BA
:1015F800DC22A800B6FB0700DC22A90028FD0700B2
:10160800DC22A800B2FB0700DC22A90024FD0700A9
:10161800DC22A800AEFB0700DC22A90020FD0700A1
:10162800DC22A800AAFB0700DC22A9001CFD070099
:10163800DC22A800A6FB0700DC22A90018FD070091
:10164800DC22A800A2FB0700DC22A90014FD070089
:10165800DC22A8009EFB0700DC22A90010FD070081
:10166800DC22A8009AFB0700DC22A9000CFD070079
:10167800DC22A80096FB0700DC22A90008FD070071
:10168800DC22A80092FB0700DC22A90004FD070069
:10169800DC22A8008EFB0700DC22A90000FD070061
:1016A800DC22A8008AFB0700DC22A900FCFC07005A
:1016B800DC22A80086FB0700DC22A900F8FC070052
:1016C800DC22A80082FB0700DC22A900F4FC07004A
:1016D800DC22A8007EFB0700DC22A900F0FC070042
:1016E800DC22A8007AFB0700DC22A900ECFC07003A
:1016F800DC22A80076FB0700DC22A900E8FC070032
:10170800DC22A80072FB0700DC22A900E4FC070029
:10171800DC22A8006EFB0700DC22A900E0FC070021
:10172800DC22A8006AFB0700DC22A900DCFC070019
:10173800DC22A80066FB0700DC22A900D8FC070011
:10174800DC22A80062FB0700DC22A900D4FC070009
:10175800DC22A8005EFB0700DC22A900D0FC070001
:10176800DC22A8005AFB0700DC22A900CCFC0700F9
:10177800DC22A80056FB0700DC22A900C8FC0700F1
:10178800DC22A80052FB0700DC22A900C4FC0700E9
:10179800DC22A8004EFB0700DC22A900C0FC0700E1
:1017A800DC22A8004AFB0700DC22A900BCFC0700D9
:1017B800DC22A80046FB0700DC22A900B8FC0700D1
:1017C800DC22A80042FB0700DC22A900B4FC0700C9
:1017D800DC22A8003EFB0700DC22A900B0FC0700C1
:1017E800DC22A8003AFB0700DC22A900ACFC0700B9
:1017F800DC22A80036FB0700DC22A900A8FC0700B1
:10180800DC22A80032FB0700DC22A900A4FC0700A8
:10181800DC22A8002EFB0700DC22A900A0FC0700A0
:10182800DC22A8002AFB0700DC22A9009CFC070098
:10183800DC22A80026FB0700DC22A90098FC070090
:10184800DC22A80022FB0700DC22A90094FC070088
:10185800DC22A8001EFB0700DC22A90090FC070080
:10186800DC22A8001AFB0700DC22A9008CFC070078
:10187800DC22A80016FB0700DC22A90088FC070070
:10188800DC22A80012FB0700DC22A90084FC070068
:10189800DC22A8000EFB0700DC22A90080FC070060
:1018A800DC22A8000AFB0700DC22A9007CFC070058
:1018B800DC22A80006FB0700DC22A90078FC070050
:1018C800DC22A80002FB0700DC22A90074FC070048
:1018D800DC22A800FEFA0700DC22A90070FC070041
:1018E800DC22A800FAFA0700DC22A9006CFC070039
:1018F800DC22A800F6FA0700DC22A90068FC070031
:10190800DC22A800F2FA0700DC22A90064FC070028
:10191800DC22A800EEFA0700DC22A90060FC070020
:10192800DC22A800EAFA0700DC22A9005CFC070018
:10193800DC22A800E6FA0700DC22A90058FC070010
:10194800DC22A800E2FA0700DC22A90054FC070008
:10195800DC22A800DEFA0700DC22A90050FC070000
:10196800DC22A800DAFA0700DC22A9004CFC0700F8
:10197800DC22A800D6FA0700DC22A90048FC0700F0
:10198800DC22A800D2FA0700DC22A90044FC0700E8
:10199800DC22A800CEFA0700DC22A90040FC0700E0
:1019A800DC22A800CAFA0700DC22A9003CFC0700D8
:1019B800DC22A800C6FA0700DC22A90038FC0700D0
:1019C800DC22A800C2FA0700DC22A90034FC0700C8
:1019D800DC22A800BEFA0700DC22A90030FC0700C0
:1019E800DC22A800BAFA0700DC22A9002CFC0700B8
:1019F800DC22A800B6FA0700DC22A90028FC0700B0
:101A0800DC22A800B2FA0700DC22A90024FC0700A7
:101A1800DC22A800AEFA0700DC22A90020FC07009F
:101A2800DC22A800AAFA0700DC22A9001CFC070097
:101A3800DC22A800A6FA0700DC22A90018FC07008F
:101A4800DC22A800A2FA0700DC22A90014FC070087
:101A5800DC22A8009EFA0700DC22A90010FC07007F
:101A6800DC22A8009AFA0700DC22A9000CFC070077
:101A7800DC22A80096FA0700DC22A90008FC07006F
:101A8800DC22A80092FA0700DC22A90004FC070067
:101A9800DC22A8008EFA0700DC22A90000FC07005F
:101AA800DC22A8008AFA0700DC22A900FCFB070058
:101AB800DC22A80086FA0700DC22A900F8FB070050
:101AC800DC22A80082FA0700DC22A900F4FB070048
:101AD800DC22A8007EFA0700DC22A900F0FB070040
:101AE800DC22A8007AFA0700DC22A900ECFB070038
:101AF800DC22A80076FA0700DC22A900E8FB070030
:101B0800DC22A80072FA0700DC22A900E4FB070027
:101B1800DC22A8006EFA0700DC22A900E0FB07001F
:101B2800DC22A8006AFA0700DC22A900DCFB070017
:101B3800DC22A80066FA0700DC22A900D8FB07000F
:101B4800DC22A80062FA0700DC22A900D4FB070007
:101B5800DC22A8005EFA0700DC22A900D0FB0700FF
:101B6800DC22A8005AFA0700DC22A900CCFB0700F7
:101B7800DC22A80056FA0700DC22A900C8FB0700EF
:101B8800DC22A80052FA0700DC22A900C4FB0700E7
:101B9800DC22A8004EFA0700DC22A900C0FB0700DF
:101BA800DC22A8004AFA0700DC22A900BCFB0700D7
:101BB800DC22A80046FA0700DC22A900B8FB0700CF
:101BC800DC22A80042FA0700DC22A900B4FB0700C7
:101BD800DC22A8003EFA0700DC22A900B0FB0700BF
:101BE800DC22A8003AFA0700DC22A900ACFB0700B7
:101BF800DC22A80036FA0700DC22A900A8FB0700AF
:101C0800DC22A80032FA0700DC22A900A4FB0700A6
:101C1800DC22A8002EFA0700DC22A900A0FB07009E
:101C2800DC22A8002AFA0700DC22A9009CFB070096
:101C3800DC22A80026FA0700DC22A90098FB07008E
:101C4800DC22A80022FA0700DC22A90094FB070086
:101C5800DC22A8001EFA0700DC22A90090FB07007E
:101C6800DC22A8001AFA0700DC22A9008CFB070076
:101C7800DC22A80016FA0700DC22A90088FB07006E
:101C8800DC22A80012FA0700DC22A90084FB070066
:101C9800DC22A8000EFA0700DC22A90080FB07005E
:101CA800DC22A8000AFA0700DC22A9007CFB070056
:101CB800DC22A80006FA0700DC22A90078FB07004E
:101CC800DC22A80002FA0700DC22A90074FB070046
:101CD800DC22A800FEF90700DC22A90070FB07003F
:101CE800DC22A800FAF90700DC22A9006CFB070037
:101CF800DC22A800F6F90700DC22A90068FB07002F
:101D0800DC22A800F2F90700DC22A90064FB070026
:101D1800DC22A800EEF90700DC22A90060FB07001E
:101D2800DC22A800EAF90700DC22A9005CFB070016
:101D3800DC22A800E6F90700DC22A90058FB07000E
:101D4800DC22A800E2F90700DC22A90054FB070006
:101D5800DC22A800DEF90700DC22A90050FB0700FE
:101D6800DC22A800DAF90700DC22A9004CFB0700F6
:101D7800DC22A800D6F90700DC22A90048FB0700EE
:101D8800DC22A800D2F90700DC22A90044FB0700E6
:101D9800DC22A800CEF90700DC22A90040FB0700DE
:101DA800DC22A800CAF90700DC22A9003CFB0700D6
:101DB800DC22A800C6F90700DC22A90038FB0700CE
:101DC800DC22A800C2F90700DC22A90034FB0700C6
:101DD800DC22A800BEF90700DC22A90030FB0700BE
:101DE800DC22A800BAF90700DC22A9002CFB0700B6
:101DF800DC22A800B6F90700DC22A90028FB0700AE
:101E0800DC22A800B2F90700DC22A90024FB0700A5
:101E1800DC22A800AEF90700DC22A90020FB07009D
:101E2800DC22A800AAF90700DC22A9001CFB070095
:101E3800DC22A800A6F90700DC22A90018FB07008D
:101E4800DC22A800A2F90700DC22A90014FB070085
:101E5800DC22A8009EF90700DC22A90010FB07007D
:101E6800DC22A8009AF90700DC22A9000CFB070075
:101E7800DC22A80096F90700DC22A90008FB07006D
:101E8800DC22A80092F90700DC22A90004FB070065
:101E9800DC22A8008EF90700DC22A90000FB07005D
:101EA800DC22A8008AF90700DC22A900FCFA070056
:101EB800DC22A80086F90700DC22A900F8FA07004E
:101EC800DC22A80082F90700DC22A900F4FA070046
:101ED800DC22A8007EF90700DC22A900F0FA07003E
:101EE800DC22A8007AF90700DC22A900ECFA070036
:101EF800DC22A80076F90700DC22A900E8FA07002E
:101F0800DC22A80072F90700DC22A900E4FA070025
:101F1800DC22A8006EF90700DC22A900E0FA07001D
:101F2800DC22A8006AF90700DC22A900DCFA070015
:101F3800DC22A80066F90700DC22A900D8FA07000D
:101F4800DC22A80062F90700DC22A900D4FA070005
:101F5800DC22A8005EF90700DC22A900D0FA0700FD
:101F6800DC22A8005AF90700DC22A900CCFA0700F5
:101F7800DC22A80056F90700DC22A900C8FA0700ED
:101F8800DC22A80052F90700DC22A900C4FA0700E5
:101F9800DC22A8004EF90700DC22A900C0FA0700DD
:101FA800DC22A8004AF90700DC22A900BCFA0700D5
:101FB800DC22A80046F90700DC22A900B8FA0700CD
:101FC800DC22A80042F90700DC22A900B4FA0700C5
:101FD800DC22A8003EF90700DC22A900B0FA0700BD
:101FE800DC22A8003AF90700DC22A900ACFA0700B5
:101FF800DC22A80036F90700DC22A900A8FA0700AD
:10200800DC22A80032F90700DC22A900A4FA0700A4
:10201800DC22A8002EF90700DC22A900A0FA07009C
:10202800DC22A8002AF90700DC22A9009CFA070094
:10203800DC22A80026F90700DC22A90098FA07008C
:10204800DC22A80022F90700DC22A90094FA070084
:10205800DC22A8001EF90700DC22A90090FA07007C
:10206800DC22A8001AF90700DC22A9008CFA070074
:10207800DC22A80016F90700DC22A90088FA07006C
:10208800DC22A80012F90700DC22A90084FA070064
:10209800DC22A8000EF90700DC22A90080FA07005C
:1020A800DC22A8000AF90700DC22A9007CFA070054
:1020B800DC22A80006F90700DC22A90078FA07004C
:1020C800DC22A80002F90700DC22A90074FA070044
:1020D800DC22A800FEF80700DC22A90070FA07003D
:1020E800DC22A800FAF80700DC22A9006CFA070035
:1020F800DC22A800F6F80700DC22A90068FA07002D
:10210800DC22A800F2F80700DC22A90064FA070024
:10211800DC22A800EEF80700DC22A90060FA07001C
:10212800DC22A800EAF80700DC22A9005CFA070014
:10213800DC22A800E6F80700DC22A90058FA07000C
:10214800DC22A800E2F80700DC22A90054FA070004
:10215800DC22A800DEF80700DC22A90050FA0700FC
:10216800DC22A800DAF80700DC22A9004CFA0700F4
:10217800DC22A800D6F80700DC22A90048FA0700EC
:10218800DC22A800D2F80700DC22A90044FA0700E4
:10219800DC22A800CEF80700DC22A90040FA0700DC
:1021A800DC22A800CAF80700DC22A9003CFA0700D4
:1021B800DC22A800C6F80700DC22A90038FA0700CC
:1021C800DC22A800C2F80700DC22A90034FA0700C4
:1021D800DC22A800BEF80700DC22A90030FA0700BC
:1021E800DC22A800BAF80700DC22A9002CFA0700B4
:1021F800DC22A800B6F80700DC22A90028FA0700AC
:10220800DC22A800B2F80700DC22A90024FA0700A3
:10221800DC22A800AEF80700DC22A90020FA07009B
:10222800DC22A800AAF80700DC22A9001CFA070093
:10223800DC22A800A6F80700DC22A90018FA07008B
:10224800DC22A800A2F80700DC22A90014FA070083
:10225800DC22A8009EF80700DC22A90010FA07007B
:10226800DC22A8009AF80700DC22A9000CFA070073
:10227800DC22A80096F80700DC22A90008FA07006B
:10228800DC22A80092F80700DC22A90004FA070063
:10229800DC22A8008EF80700DC22A90000FA07005B
:1022A800DC22A8008AF80700DC22A900FCF9070054
:1022B800DC22A80086F80700DC22A900F8F907004C
:1022C800DC22A80082F80700DC22A900F4F9070044
:1022D800DC22A8007EF80700DC22A900F0F907003C
:1022E800DC22A8007AF80700DC22A900ECF9070034
:1022F800DC22A80076F80700DC22A900E8F907002C
:10230800DC22A80072F80700DC22A900E4F9070023
:10231800DC22A8006EF80700DC22A900E0F907001B
:10232800DC22A8006AF80700DC22A900DCF9070013
:10233800DC22A80066F80700DC22A900D8F907000B
:10234800DC22A80062F80700DC22A900D4F9070003
:10235800DC22A8005EF80700DC22A900D0F90700FB
:10236800DC22A8005AF80700DC22A900CCF90700F3
:10237800DC22A80056F80700DC22A900C8F90700EB
:10238800DC22A80052F80700DC22A900C4F90700E3
:10239800DC22A8004EF80700DC22A900C0F90700DB
:1023A800DC22A8004AF80700DC22A900BCF90700D3
:1023B800DC22A80046F80700DC22A900B8F90700CB
:1023C800DC22A80042F80700DC22A900B4F90700C3
:1023D800DC22A8003EF80700DC22A900B0F90700BB
:1023E800DC22A8003AF80700DC22A900ACF90700B3
:1023F800DC22A80036F80700DC22A900A8F90700AB
:10240800DC22A80032F80700DC22A900A4F90700A2
:10241800DC22A8002EF80700DC22A900A0F907009A
:10242800DC22A8002AF80700DC22A9009CF9070092
:10243800DC22A80026F80700DC22A90098F907008A
:10244800DC22A80022F80700DC22A90094F9070082
:10245800DC22A8001EF80700DC22A90090F907007A
:10246800DC22A8001AF80700DC22A9008CF9070072
:10247800DC22A80016F80700DC22A90088F907006A
:10248800DC22A80012F80700DC22A90084F9070062
:10249800DC22A8000EF80700DC22A90080F907005A
:1024A800DC22A8000AF80700DC22A9007CF9070052
:1024B800DC22A80006F80700DC22A90078F907004A
:1024C800DC22A80002F80700DC22A90074F9070042
:1024D800DC22A800FEF70700DC22A90070F907003B
:1024E800DC22A800FAF70700DC22A9006CF9070033
:1024F800DC22A800F6F70700DC22A90068F907002B
:10250800DC22A800F2F70700DC22A90064F9070022
:10251800DC22A800EEF70700DC22A90060F907001A
:10252800DC22A800EAF70700DC22A9005CF9070012
:10253800DC22A800E6F70700DC22A90058F907000A
:10254800DC22A800E2F70700DC22A90054F9070002
:10255800DC22A800DEF70700DC22A90050F90700FA
:10256800DC22A800DAF70700DC22A9004CF90700F2
:10257800DC22A800D6F70700DC22A90048F90700EA
:10258800DC22A800D2F70700DC22A90044F90700E2
:10259800DC22A800CEF70700DC22A90040F90700DA
:1025A800DC22A800CAF70700DC22A9003CF90700D2
:1025B800DC22A800C6F70700DC22A90038F90700CA
:1025C800DC22A800C2F70700DC22A90034F90700C2
:1025D800DC22A800BEF70700DC22A90030F90700BA
:1025E800DC22A800BAF70700DC22A9002CF90700B2
:1025F800DC22A800B6F70700DC22A90028F90700AA
:10260800DC22A800B2F70700DC22A90024F90700A1
:10261800DC22A800AEF70700DC22A90020F9070099
:10262800DC22A800AAF70700DC22A9001CF9070091
:10263800DC22A800A6F70700DC22A90018F9070089
:10264800DC22A800A2F70700DC22A90014F9070081
:10265800DC22A8009EF70700DC22A90010F9070079
:10266800DC22A8009AF70700DC22A9000CF9070071
:10267800DC22A80096F70700DC22A90008F9070069
:10268800DC22A80092F70700DC22A90004F9070061
:10269800DC22A8008EF70700DC22A90000F9070059
:1026A800DC22A8008AF70700DC22A900FCF8070052
:1026B800DC22A80086F70700DC22A900F8F807004A
:1026C800DC22A80082F70700DC22A900F4F8070042
:1026D800DC22A8007EF70700DC22A900F0F807003A
:1026E800DC22A8007AF70700DC22A900ECF8070032
:1026F800DC22A80076F70700DC22A900E8F807002A
:10270800DC22A80072F70700DC22A900E4F8070021
:10271800DC22A8006EF70700DC22A900E0F8070019
:10272800DC22A8006AF70700DC22A900DCF8070011
:10273800DC22A80066F70700DC22A900D8F8070009
:10274800DC22A80062F70700DC22A900D4F8070001
:10275800DC22A8005EF70700DC22A900D0F80700F9
:10276800DC22A8005AF70700DC22A900CCF80700F1
:10277800DC22A80056F70700DC22A900C8F80700E9
:10278800DC22A80052F70700DC22A900C4F80700E1
:10279800DC22A8004EF70700DC22A900C0F80700D9
:1027A800DC22A8004AF70700DC22A900BCF80700D1
:1027B800DC22A80046F70700DC22A900B8F80700C9
:1027C800DC22A80042F70700DC22A900B4F80700C1
:1027D800DC22A8003EF70700DC22A900B0F80700B9
:1027E800DC22A8003AF70700DC22A900ACF80700B1
:1027F800DC22A80036F70700DC22A900A8F80700A9
:10280800DC22A80032F70700DC22A900A4F80700A0
:10281800DC22A8002EF70700DC22A900A0F8070098
:10282800DC22A8002AF70700DC22A9009CF8070090
:10283800DC22A80026F70700DC22A90098F8070088
:10284800DC22A80022F70700DC22A90094F8070080
:10285800DC22A8001EF70700DC22A90090F8070078
:10286800DC22A8001AF70700DC22A9008CF8070070
:10287800DC22A80016F70700DC22A90088F8070068
:10288800DC22A80012F70700DC22A90084F8070060
:10289800DC22A8000EF70700DC22A90080F8070058
:1028A800DC22A8000AF70700DC22A9007CF8070050
:1028B800DC22A80006F70700DC22A90078F8070048
:1028C800DC22A80002F70700DC22A90074F8070040
:1028D800DC22A800FEF60700DC22A90070F8070039
:1028E800DC22A800FAF60700DC22A9006CF8070031
:1028F800DC22A800F6F60700DC22A90068F8070029
:10290800DC22A800F2F60700DC22A90064F8070020
:10291800DC22A800EEF60700DC22A90060F8070018
:10292800DC22A800EAF60700DC22A9005CF8070010
:10293800DC22A800E6F60700DC22A90058F8070008
:10294800DC22A800E2F60700DC22A90054F8070000
:10295800DC22A800DEF60700DC22A90050F80700F8
:10296800DC22A800DAF60700DC22A9004CF80700F0
:10297800DC22A800D6F60700DC22A90048F80700E8
:10298800DC22A800D2F60700DC22A90044F80700E0
:10299800DC22A800CEF60700DC22A90040F80700D8
:1029A800DC22A800CAF60700DC22A9003CF80700D0
:1029B800DC22A800C6F60700DC22A90038F80700C8
:1029C800DC22A800C2F60700DC22A90034F80700C0
:1029D800DC22A800BEF60700DC22A90030F80700B8
:1029E800DC22A800BAF60700DC22A9002CF80700B0
:1029F800DC22A800B6F60700DC22A90028F80700A8
:102A0800DC22A800B2F60700DC22A90024F807009F
:102A1800DC22A800AEF60700DC22A90020F8070097
:102A2800DC22A800AAF60700DC22A9001CF807008F
:102A3800DC22A800A6F60700DC22A90018F8070087
:102A4800DC22A800A2F60700DC22A90014F807007F
:102A5800DC22A8009EF60700DC22A90010F8070077
:102A6800DC22A8009AF60700DC22A9000CF807006F
:102A7800DC22A80096F60700DC22A90008F8070067
:102A8800DC22A80092F60700DC22A90004F807005F
:102A9800DC22A8008EF60700DC22A90000F8070057
:102AA800DC22A8008AF60700DC22A900FCF7070050
:102AB800DC22A80086F60700DC22A900F8F7070048
:102AC800DC22A80082F60700DC22A900F4F7070040
:102AD800DC22A8007EF60700DC22A900F0F7070038
:102AE800DC22A8007AF60700DC22A900ECF7070030
:102AF800DC22A80076F60700DC22A900E8F7070028
:102B0800DC22A80072F60700DC22A900E4F707001F
:102B1800DC22A8006EF60700DC22A900E0F7070017
:102B2800DC22A8006AF60700DC22A900DCF707000F
:102B3800DC22A80066F60700DC22A900D8F7070007
:102B4800DC22A80062F60700DC22A900D4F70700FF
:102B5800DC22A8005EF60700DC22A900D0F70700F7
:102B6800DC22A8005AF60700DC22A900CCF70700EF
:102B7800DC22A80056F60700DC22A900C8F70700E7
:102B8800DC22A80052F60700DC22A900C4F70700DF
:102B9800DC22A8004EF60700DC22A900C0F70700D7
:102BA800DC22A8004AF60700DC22A900BCF70700CF
:102BB800DC22A80046F60700DC22A900B8F70700C7
:102BC800DC22A80042F60700DC22A900B4F70700BF
:102BD800DC22A8003EF60700DC22A900B0F70700B7
:102BE800DC22A8003AF60700DC22A900ACF70700AF
:102BF800DC22A80036F60700DC22A900A8F70700A7
:102C0800DC22A80032F60700DC22A900A4F707009E
:102C1800DC22A8002EF60700DC22A900A0F7070096
:102C2800DC22A8002AF60700DC22A9009CF707008E
:102C3800DC22A80026F60700DC22A90098F7070086
:102C4800DC22A80022F60700DC22A90094F707007E
:102C5800DC22A8001EF60700DC22A90090F7070076
:102C6800DC22A8001AF60700DC22A9008CF707006E
:102C7800DC22A80016F60700DC22A90088F7070066
:102C8800DC22A80012F60700DC22A90084F707005E
:102C9800DC22A8000EF60700DC22A90080F7070056
:102CA800DC22A8000AF60700DC22A9007CF707004E
:102CB800DC22A80006F60700DC22A90078F7070046
:102CC800DC22A80002F60700DC22A90074F707003E
:102CD800DC22A800FEF50700DC22A90070F7070037
:102CE800DC22A800FAF50700DC22A9006CF707002F
:102CF800DC22A800F6F50700DC22A90068F7070027
:102D0800DC22A800F2F50700DC22A90064F707001E
:102D1800DC22A800EEF50700DC22A90060F7070016
:102D2800DC22A800EAF50700DC22A9005CF707000E
:102D3800DC22A800E6F50700DC22A90058F7070006
:102D4800DC22A800E2F50700DC22A90054F70700FE
:102D5800DC22A800DEF50700DC22A90050F70700F6
:102D6800DC22A800DAF50700DC22A9004CF70700EE
:102D7800DC22A800D6F50700DC22A90048F70700E6
:102D8800DC22A800D2F50700DC22A90044F70700DE
:102D9800DC22A800CEF50700DC22A90040F70700D6
:102DA800DC22A800CAF50700DC22A9003CF70700CE
:102DB800DC22A800C6F50700DC22A90038F70700C6
:102DC800DC22A800C2F50700DC22A90034F70700BE
:102DD800DC22A800BEF50700DC22A90030F70700B6
:102DE800DC22A800BAF50700DC22A9002CF70700AE
:102DF800DC22A800B6F50700DC22A90028F70700A6
:102E0800DC22A800B2F50700DC22A90024F707009D
:102E1800DC22A800AEF50700DC22A90020F7070095
:102E2800DC22A800AAF50700DC22A9001CF707008D
:102E3800DC22A800A6F50700DC22A90018F7070085
:102E4800DC22A800A2F50700DC22A90014F707007D
:102E5800DC22A8009EF50700DC22A90010F7070075
:102E6800DC22A8009AF50700DC22A9000CF707006D
:102E7800DC22A80096F50700DC22A90008F7070065
:102E8800DC22A80092F50700DC22A90004F707005D
:102E9800DC22A8008EF50700DC22A90000F7070055
:102EA800DC22A8008AF50700DC22A900FCF607004E
:102EB800DC22A80086F50700DC22A900F8F6070046
:102EC800DC22A80082F50700DC22A900F4F607003E
:102ED800DC22A8007EF50700DC22A900F0F6070036
:102EE800DC22A8007AF50700DC22A900ECF607002E
:102EF800DC22A80076F50700DC22A900E8F6070026
:102F0800DC22A80072F50700DC22A900E4F607001D
:102F1800DC22A8006EF50700DC22A900E0F6070015
:102F2800DC22A8006AF50700DC22A900DCF607000D
:102F3800DC22A80066F50700DC22A900D8F6070005
:102F4800DC22A80062F50700DC22A900D4F60700FD
:102F5800DC22A8005EF50700DC22A900D0F60700F5
:102F6800DC22A8005AF50700DC22A900CCF60700ED
:102F7800DC22A80056F50700DC22A900C8F60700E5
:102F8800DC22A80052F50700DC22A900C4F60700DD
:102F9800DC22A8004EF50700DC22A900C0F60700D5
:102FA800DC22A8004AF50700DC22A900BCF60700CD
:102FB800DC22A80046F50700DC22A900B8F60700C5
:102FC800DC22A80042F50700DC22A900B4F60700BD
:102FD800DC22A8003EF50700DC22A900B0F60700B5
:102FE800DC22A8003AF50700DC22A900ACF60700AD
:102FF800DC22A80036F50700DC22A900A8F60700A5
:10300800DC22A80032F50700DC22A900A4F607009C
:10301800DC22A8002EF50700DC22A900A0F6070094
:10302800DC22A8002AF50700DC22A9009CF607008C
:10303800DC22A80026F50700DC22A90098F6070084
:10304800DC22A80022F50700DC22A90094F607007C
:10305800DC22A8001EF50700DC22A90090F6070074
:10306800DC22A8001AF50700DC22A9008CF607006C
:10307800DC22A80016F50700DC22A90088F6070064
:10308800DC22A80012F50700DC22A90084F607005C
:10309800DC22A8000EF50700DC22A90080F6070054
:1030A800DC22A8000AF50700DC22A9007CF607004C
:1030B800DC22A80006F50700DC22A90078F6070044
:1030C800DC22A80002F50700DC22A90074F607003C
:1030D800DC22A800FEF40700DC22A90070F6070035
:1030E800DC22A800FAF40700DC22A9006CF607002D
:1030F800DC22A800F6F40700DC22A90068F6070025
:10310800DC22A800F2F40700DC22A90064F607001C
:10311800DC22A800EEF40700DC22A90060F6070014
:10312800DC22A800EAF40700DC22A9005CF607000C
:10313800DC22A800E6F40700DC22A90058F6070004
:10314800DC22A800E2F40700DC22A90054F60700FC
:10315800DC22A800DEF40700DC22A90050F60700F4
:10316800DC22A800DAF40700DC22A9004CF60700EC
:10317800DC22A800D6F40700DC22A90048F60700E4
:10318800DC22A800D2F40700DC22A90044F60700DC
:10319800DC22A800CEF40700DC22A90040F60700D4
:1031A800DC22A800CAF40700DC22A9003CF60700CC
:1031B800DC22A800C6F40700DC22A90038F60700C4
:1031C800DC22A800C2F40700DC22A90034F60700BC
:1031D800DC22A800BEF40700DC22A90030F60700B4
:1031E800DC22A800BAF40700DC22A9002CF60700AC
:1031F800DC22A800B6F40700DC22A90028F60700A4
:10320800DC22A800B2F40700DC22A90024F607009B
:10321800DC22A800AEF40700DC22A90020F6070093
:10322800DC22A800AAF40700DC22A9001CF607008B
:10323800DC22A800A6F40700DC22A90018F6070083
:10324800DC22A800A2F40700DC22A90014F607007B
:10325800DC22A80054F507002DF63700FFFF3700E1
:100A8000F0FF2F00A8A2B700C822EF00CE22EF008F
:100A9000D422EF00DA22EF00D822EF00D222EF00BA
:080AA000C622EF000000060071
:100AA800000000000000000000000000000000003E
:100AB800000000000000000000000000000000002E
:100AC800000000000000000000000000000000001E
:100AD800000000000000000000000000000000000E
:100AE80000000000000000000000000000000600F8
:1002000000000000000000000000000000000000EE
:1002100000000000000000000000000000000000DE
:1002200000000000000000000000000000000000CE
:1002300000000000000000000000000000000000BE
:1004B000000000000000000000000000D622EF0055
:1004C000000000000000000000000000000000002C
:0804D00000000000000006001E
:1004D8000000000000000000000000000000000014
:1004E8000000000000000000000000000000000004
:1004F80000000000000000000000000000000000F4
:10050800000000000000000000000000D622EF00FC
:10051800D622EF00D622EF00D622EF00D622EF0037
:10052800D622EF00D622EF00D622EF00D622EF0027
:10053800D622EF00D622EF00D622EF00D622EF0017
:10054800D622EF00D622EF00D622EF00D622EF0007
:10055800D622EF00D622EF00D622EF0010002000AE
:10056800D6A2B70010002000D6A2B70010002000C5
:10057800D6A2B70010002000D6A2B70010002000B5
:10058800D6A2B70010002000D6A2B70010002000A5
:10059800D6A2B70010002000D6A2B7001000200095
:1005A800D6A2B70010002000D6A2B7002000200075
:1005B800D6A2B70020002000D6A2B7002000200055
:1005C800D6A2B70020002000D6A2B7002000200045
:1005D800D6A2B70020002000D6A2B7002000200035
:1005E800D6A2B70020002000D6A2B7002000200025
:1005F800D6A2B70020002000D6A2B7003000200005
:10060800D6A2B70030002000D6A2B70030002000E4
:10061800D6A2B70030002000D6A2B70030002000D4
:10062800D6A2B70030002000D6A2B70030002000C4
:10063800D6A2B70030002000D6A2B70030002000B4
:10064800D6A2B70030002000D6A2B7004000200094
:10065800D6A2B70040002000D6A2B7004000200074
:10066800D6A2B70040002000D6A2B7004000200064
:10067800D6A2B70040002000D6A2B7004000200054
:10068800D6A2B70040002000D6A2B7004000200044
:10069800D6A2B70040002000D6A2B7005000200024
:1006A800D6A2B70050002000D6A2B7005000200004
:1006B800D6A2B70050002000D6A2B70050002000F4
:1006C800D6A2B70050002000D6A2B70050002000E4
:1006D800D6A2B70050002000D6A2B70050002000D4
:1006E800D6A2B70050002000D6A2B70060002000B4
:1006F800D6A2B70060002000D6A2B7006000200094
:10070800D6A2B70060002000D6A2B7006000200083
:10071800D6A2B70060002000D6A2B7006000200073
:10072800D6A2B70060002000D6A2B7006000200063
:10073800D6A2B70060002000D6A2B7007000200043
:10074800D6A2B70070002000D6A2B7007000200023
:10075800D6A2B70070002000D6A2B7007000200013
:10076800D6A2B70070002000D6A2B7007000200003
:10077800D6A2B70070002000D6A2B70070002000F3
:10078800D6A2B70070002000D6A2B700D622EF008C
:100798000000000000000000000000000000000051
:0807A800000000000000060043
:1007B0000000000000000000000000000000000039
:1007C0000000000000000000000000000000000029
:1007D0000000000000000000000000000000000019
:1007E0000000000000000000000000000000000009
:100A6000000000000000000000000000D622EF009F
:100A70000000000000000000000000000000060070
:0200000401F009
:1C000000058300003F000000B38700000F3100000F3300000700000003C0000097
:00000001FF
