:10000000FA370400000000000000000000000000BB
:1000100000000000000000000000000000000000E0
:1000200000000000000000000000000000000000D0
:1000300000000000000000000000000000000000C0
:1000400000000000000000000000000000000000B0
:1000500000000000000000000000000000000000A0
:100060000000000000000000000000000000000090
:100070000000000000000000000000000000000080
:100080000000000000000000000000000000000070
:100090000000000000000000000000000000000060
:1000A0000000000000000000000000000000000050
:1000B0000000000000000000000000000000000040
:1000C0000000000000000000000000000000000030
:1000D0000000000000000000000000000000000020
:1000E0000000000000000000000000000000000010
:1000F0000000000000000000000000000000000000
:1001000000000000000000000000000000000000EF
:1001100000000000000000000000000000000000DF
:1001200000000000000000000000000000000000CF
:1001300000000000000000000000000000000000BF
:1001400000000000000000000000000000000000AF
:10015000000000000000000000000000000000009F
:10016000000000000000000000000000000000008F
:10017000000000000000000000000000000000007F
:10018000000000000000000000000000000000006F
:10019000000000000000000000000000000000005F
:1001A000000000000000000000000000000000004F
:1001B000000000000000000000000000000000003F
:1001C000000000000000000000000000000000002F
:1001D000000000000000000000000000000000001F
:1001E000000000000000000000000000000000000F
:1001F00000000000000000000000000000000000FF
:106FF400CFCC2000F0FF200020A0B700000020002C
:1070040034A0B700400020004420B70062510200C1
:10701400000000006C5102000000000094F707001B
:1070240063F70700E222A900E202A9009AF7070029
:10703400E202A80044F80700E202A90096F707005C
:10704400E202A800A8F70700E202A90092F70700ED
:10705400E202A8009EF40700E202A9008EF70700EE
:10706400E202A800E5F30700E222A800E202A90078
:1070740089F70700E202A8002DF50700E202A90043
:1070840085F70700E202A80029F50700E202A9003B
:1070940081F70700E202A80025F50700E202A90033
:1070A4007DF70700E202A80021F50700E202A9002B
:1070B40079F70700E202A8001DF50700E202A90023
:1070C40075F70700E202A80019F50700E202A9001B
:1070D40071F70700E202A80015F50700E202A90013
:1070E4006DF70700E202A80011F50700E202A9000B
:1070F40069F70700E202A8000DF50700E202A90003
:1071040065F70700E202A80009F50700E202A900FA
:1071140061F70700E202A80005F50700E202A900F2
:107124005DF70700E202A80001F50700E202A900EA
:1071340059F70700E202A800FDF40700E202A900E3
:1071440055F70700E202A800F9F40700E202A900DB
:1071540051F70700E202A800F5F40700E202A900D3
:107164004DF70700E202A800F1F40700E202A900CB
:1071740049F70700E202A800EDF40700E202A900C3
:1071840045F70700E202A800E9F40700E202A900BB
:1071940041F70700E202A800E5F40700E202A900B3
:1071A4003DF70700E202A800E1F40700E202A900AB
:1071B40039F70700E202A800DDF40700E202A900A3
:1071C40035F70700E202A800D9F40700E202A9009B
:1071D40031F70700E202A800D5F40700E202A90093
:1071E4002DF70700E202A8003CF60700E202A9001E
:1071F40029F70700E202A80038F60700E202A90016
:1072040025F70700E202A80034F60700E202A9000D
:1072140021F70700E202A80030F60700E202A90005
:107224001DF70700E202A8002CF60700E202A900FD
:1072340019F70700E202A80028F60700E202A900F5
:1072440015F70700E202A80024F60700E202A900ED
:1072540011F70700E202A80020F60700E202A900E5
:107264000DF70700E202A8001CF60700E202A900DD
:1072740009F70700E202A80018F60700E202A900D5
:1072840005F70700E202A80014F60700E202A900CD
:1072940001F70700E202A80010F60700E202A900C5
:1072A400FDF60700E202A8000CF60700E202A900BE
:1072B400F9F60700E202A80008F60700E202A900B6
:1072C400F5F60700E202A80004F60700E202A900AE
:1072D400F1F60700E202A80000F60700E202A900A6
:1072E400EDF60700E202A800FCF50700E202A9009F
:1072F400E9F60700E202A800F8F50700E202A90097
:10730400E5F60700E202A800F4F50700E202A9008E
:10731400E1F60700E202A800F0F50700E202A90086
:10732400DDF60700E202A80037F50700E202A90033
:10733400D9F60700E202A80033F50700E202A9002B
:10734400D5F60700E202A8002FF50700E202A90023
:10735400D1F60700E202A8002BF50700E202A9001B
:10736400CDF60700E202A80027F50700E202A90013
:10737400C9F60700E202A80023F50700E202A9000B
:10738400C5F60700E202A8001FF50700E202A90003
:10739400C1F60700E202A8001BF50700E202A900FB
:1073A400BDF60700E202A80017F50700E202A900F3
:1073B400B9F60700E202A80013F50700E202A900EB
:1073C400B5F60700E202A8000FF50700E202A900E3
:1073D400B1F60700E202A8000BF50700E202A900DB
:1073E400ADF60700E202A80007F50700E202A900D3
:1073F400A9F60700E202A80003F50700E202A900CB
:10740400A5F60700E202A800FFF40700E202A900C3
:10741400A1F60700E202A800FBF40700E202A900BB
:107424009DF60700E202A800F7F40700E202A900B3
:1074340099F60700E202A800F3F40700E202A900AB
:1074440095F60700E202A800EFF40700E202A900A3
:1074540091F60700E202A800EBF40700E202A9009B
:107464008DF60700E202A8000DFC0700E202A90065
:1074740089F60700E202A80009FC0700E202A9005D
:1074840085F60700E202A80005FC0700E202A90055
:1074940081F60700E202A80001FC0700E202A9004D
:1074A4007DF60700E202A800FDFB0700E202A90046
:1074B40079F60700E202A800F9FB0700E202A9003E
:1074C40075F60700E202A800F5FB0700E202A90036
:1074D40071F60700E202A800F1FB0700E202A9002E
:1074E4006DF60700E202A800EDFB0700E202A90026
:1074F40069F60700E202A800E9FB0700E202A9001E
:1075040065F60700E202A800E5FB0700E202A90015
:1075140061F60700E202A800E1FB0700E202A9000D
:107524005DF60700E202A800DDFB0700E202A90005
:1075340059F60700E202A800D9FB0700E202A900FD
:1075440055F60700E202A800D5FB0700E202A900F5
:1075540051F60700E202A800D1FB0700E202A900ED
:107564004DF60700E202A800CDFB0700E202A900E5
:1075740049F60700E202A800C9FB0700E202A900DD
:1075840045F60700E202A800C5FB0700E202A900D5
:1075940041F60700E202A800C1FB0700E202A900CD
:1075A4003DF60700E202A80008FB0700E202A9007A
:1075B40039F60700E202A80004FB0700E202A90072
:1075C40035F60700E202A80000FB0700E202A9006A
:1075D40031F60700E202A800FCFA0700E202A90063
:1075E4002DF60700E202A800F8FA0700E202A9005B
:1075F40029F60700E202A800F4FA0700E202A90053
:1076040025F60700E202A800F0FA0700E202A9004A
:1076140021F60700E202A800ECFA0700E202A90042
:107624001DF60700E202A800E8FA0700E202A9003A
:1076340019F60700E202A800E4FA0700E202A90032
:1076440015F60700E202A800E0FA0700E202A9002A
:1076540011F60700E202A800DCFA0700E202A90022
:107664000DF60700E202A800D8FA0700E202A9001A
:1076740009F60700E202A800D4FA0700E202A90012
:1076840005F60700E202A800D0FA0700E202A9000A
:1076940001F60700E202A800CCFA0700E202A90002
:1076A400FDF50700E202A800C8FA0700E202A900FB
:1076B400F9F50700E202A800C4FA0700E202A900F3
:1076C400F5F50700E202A800C0FA0700E202A900EB
:1076D400F1F50700E202A800BCFA0700E202A900E3
:1076E400EDF50700E202A80022FC0700E202A9006F
:1076F400E9F50700E202A8001EFC0700E202A90067
:10770400E5F50700E202A8001AFC0700E202A9005E
:10771400E1F50700E202A80016FC0700E202A90056
:10772400DDF50700E202A80012FC0700E202A9004E
:10773400D9F50700E202A8000EFC0700E202A90046
:10774400D5F50700E202A8000AFC0700E202A9003E
:10775400D1F50700E202A80006FC0700E202A90036
:10776400CDF50700E202A80002FC0700E202A9002E
:10777400C9F50700E202A800FEFB0700E202A90027
:10778400C5F50700E202A800FAFB0700E202A9001F
:10779400C1F50700E202A800F6FB0700E202A90017
:1077A400BDF50700E202A800F2FB0700E202A9000F
:1077B400B9F50700E202A800EEFB0700E202A90007
:1077C400B5F50700E202A800EAFB0700E202A900FF
:1077D400B1F50700E202A800E6FB0700E202A900F7
:1077E400ADF50700E202A800E2FB0700E202A900EF
:1077F400A9F50700E202A800DEFB0700E202A900E7
:10780400A5F50700E202A800DAFB0700E202A900DE
:10781400A1F50700E202A800D6FB0700E202A900D6
:107824009DF50700E202A8003CFD0700E202A90062
:1078340099F50700E202A80038FD0700E202A9005A
:1078440095F50700E202A80034FD0700E202A90052
:1078540091F50700E202A80030FD0700E202A9004A
:107864008DF50700E202A8002CFD0700E202A90042
:1078740089F50700E202A80028FD0700E202A9003A
:1078840085F50700E202A80024FD0700E202A90032
:1078940081F50700E202A80020FD0700E202A9002A
:1078A4007DF50700E202A8001CFD0700E202A90022
:1078B40079F50700E202A80018FD0700E202A9001A
:1078C40075F50700E202A80014FD0700E202A90012
:1078D40071F50700E202A80010FD0700E202A9000A
:1078E4006DF50700E202A8000CFD0700E202A90002
:1078F40069F50700E202A80008FD0700E202A900FA
:1079040065F50700E202A80004FD0700E202A900F1
:1079140061F50700E202A80000FD0700E202A900E9
:107924005DF50700E202A800FCFC0700E202A900E2
:1079340059F50700E202A800F8FC0700E202A900DA
:1079440055F50700E202A800F4FC0700E202A900D2
:1079540051F50700E202A800F0FC0700E202A900CA
:107964004DF50700E202A80037FC0700E202A90077
:1079740049F50700E202A80033FC0700E202A9006F
:1079840045F50700E202A8002FFC0700E202A90067
:1079940041F50700E202A8002BFC0700E202A9005F
:1079A4003DF50700E202A80027FC0700E202A90057
:1079B40039F50700E202A80023FC0700E202A9004F
:1079C40035F50700E202A8001FFC0700E202A90047
:1079D40031F50700E202A8001BFC0700E202A9003F
:1079E4002DF50700E202A80017FC0700E202A90037
:1079F40029F50700E202A80013FC0700E202A9002F
:107A040025F50700E202A8000FFC0700E202A90026
:107A140021F50700E202A8000BFC0700E202A9001E
:107A24001DF50700E202A80007FC0700E202A90016
:107A340019F50700E202A80003FC0700E202A9000E
:107A440015F50700E202A800FFFB0700E202A90007
:107A540011F50700E202A800FBFB0700E202A900FF
:107A64000DF50700E202A800F7FB0700E202A900F7
:107A740009F50700E202A800F3FB0700E202A900EF
:107A840005F50700E202A800EFFB0700E202A900E7
:107A940001F50700E202A800EBFB0700E202A900DF
:107AA400FDF40700E202A800F4F60700E202A900D0
:107AB400F9F40700E202A800F0F60700E202A900C8
:107AC400F5F40700E202A800ECF60700E202A900C0
:107AD400F1F40700E202A800E8F60700E202A900B8
:107AE400EDF40700E202A800E4F60700E202A900B0
:107AF400E9F40700E202A800E0F60700E202A900A8
:107B0400E5F40700E202A800DCF60700E202A9009F
:107B1400E1F40700E202A800D8F60700E202A90097
:107B2400DDF40700E202A800D4F60700E202A9008F
:107B3400D9F40700E202A800D0F60700E202A90087
:107B4400D5F40700E202A800CCF60700E202A9007F
:107B5400D1F40700E202A800C8F60700E202A90077
:107B6400CDF40700E202A800C4F60700E202A9006F
:107B7400C9F40700E202A800C0F60700E202A90067
:107B8400C5F40700E202A800BCF60700E202A9005F
:107B9400C1F40700E202A800B8F60700E202A90057
:107BA400BDF40700E202A800B4F60700E202A9004F
:107BB400B9F40700E202A800B0F60700E202A90047
:107BC400B5F40700E202A800ACF60700E202A9003F
:107BD400B1F40700E202A800A8F60700E202A90037
:107BE400ADF40700E202A800EFF50700E202A900E5
:107BF400A9F40700E202A800EBF50700E202A900DD
:107C0400A5F40700E202A800E7F50700E202A900D4
:107C1400A1F40700E202A800E3F50700E202A900CC
:107C24009DF40700E202A800DFF50700E202A900C4
:107C340099F40700E202A800DBF50700E202A900BC
:107C440095F40700E202A800D7F50700E202A900B4
:107C540091F40700E202A800D3F50700E202A900AC
:107C64008DF40700E202A800CFF50700E202A900A4
:107C740089F40700E202A800CBF50700E202A9009C
:107C840085F40700E202A800C7F50700E202A90094
:107C940081F40700E202A800C3F50700E202A9008C
:107CA4007DF40700E202A800BFF50700E202A90084
:107CB40079F40700E202A800BBF50700E202A9007C
:107CC40075F40700E202A800B7F50700E202A90074
:107CD40071F40700E202A800B3F50700E202A9006C
:107CE4006DF40700E202A800AFF50700E202A90064
:107CF40069F40700E202A800ABF50700E202A9005C
:107D040065F40700E202A800A7F50700E202A90053
:107D140061F40700E202A800A3F50700E202A9004B
:107D24005DF40700E202A80009F70700E202A900D7
:107D340059F40700E202A80005F70700E202A900CF
:107D440055F40700E202A80001F70700E202A900C7
:107D540051F40700E202A800FDF60700E202A900C0
:107D64004DF40700E202A800F9F60700E202A900B8
:107D740049F40700E202A800F5F60700E202A900B0
:107D840045F40700E202A800F1F60700E202A900A8
:107D940041F40700E202A800EDF60700E202A900A0
:107DA4003DF40700E202A800E9F60700E202A90098
:107DB40039F40700E202A800E5F60700E202A90090
:107DC40035F40700E202A800E1F60700E202A90088
:107DD40031F40700E202A800DDF60700E202A90080
:107DE4002DF40700E202A800D9F60700E202A90078
:107DF40029F40700E202A800D5F60700E202A90070
:107E040025F40700E202A800D1F60700E202A90067
:107E140021F40700E202A800CDF60700E202A9005F
:107E24001DF40700E202A800C9F60700E202A90057
:107E340019F40700E202A800C5F60700E202A9004F
:107E440015F40700E202A800C1F60700E202A90047
:107E540011F40700E202A800BDF60700E202A9003F
:107E64000DF40700E202A80023F80700E202A900CB
:107E740009F40700E202A8001FF80700E202A900C3
:107E840005F40700E202A8001BF80700E202A900BB
:107E940001F40700E202A80017F80700E202A900B3
:107EA400FDF30700E202A80013F80700E202A900AC
:107EB400F9F30700E202A8000FF80700E202A900A4
:107EC400F5F30700E202A8000BF80700E202A9009C
:107ED400F1F30700E202A80007F80700E202A90094
:107EE400EDF30700E202A80003F80700E202A9008C
:107EF400E9F30700E202A800FFF70700E202A90085
:107F0400E5F30700E202A800FBF70700E202A9007C
:107F1400E1F30700E202A800F7F70700E202A90074
:107F2400DDF30700E202A800F3F70700E202A9006C
:107F3400D9F30700E202A800EFF70700E202A90064
:107F4400D5F30700E202A800EBF70700E202A9005C
:107F5400D1F30700E202A800E7F70700E202A90054
:107F6400CDF30700E202A800E3F70700E202A9004C
:107F7400C9F30700E202A800DFF70700E202A90044
:107F8400C5F30700E202A800DBF70700E202A9003C
:107F9400C1F30700E202A800D7F70700E202A90034
:107FA400BDF30700E202A8001EF70700E202A900E1
:107FB400B9F30700E202A8001AF70700E202A900D9
:107FC400B5F30700E202A80016F70700E202A900D1
:107FD400B1F30700E202A80012F70700E202A900C9
:107FE400ADF30700E202A8000EF70700E202A900C1
:107FF400A9F30700E202A8000AF70700E202A900B9
:10800400A5F30700E202A80006F70700E202A900B0
:10801400A1F30700E202A80002F70700E202A900A8
:108024009DF30700E202A800FEF60700E202A900A1
:1080340099F30700E202A800FAF60700E202A90099
:1080440095F30700E202A800F6F60700E202A90091
:1080540091F30700E202A800F2F60700E202A90089
:108064008DF30700E202A800EEF60700E202A90081
:1080740089F30700E202A800EAF60700E202A90079
:1080840085F30700E202A800E6F60700E202A90071
:1080940081F30700E202A800E2F60700E202A90069
:1080A4007DF30700E202A800DEF60700E202A90061
:1080B40079F30700E202A800DAF60700E202A90059
:1080C40075F30700E202A800D6F60700E202A90051
:1080D40071F30700E202A800D2F60700E202A90049
:1080E4006DF30700E202A8000FEF0700E202A90007
:1080F40069F30700E202A8000BEF0700E202A900FF
:1081040065F30700E202A80007EF0700E202A900F6
:1081140061F30700E202A80003EF0700E202A900EE
:108124005DF30700E202A800FFEE0700E202A900E7
:1081340059F30700E202A800FBEE0700E202A900DF
:1081440055F30700E202A800F7EE0700E202A900D7
:1081540051F30700E202A800F3EE0700E202A900CF
:108164004DF30700E202A800EFEE0700E202A900C7
:1081740049F30700E202A800EBEE0700E202A900BF
:1081840045F30700E202A800E7EE0700E202A900B7
:1081940041F30700E202A800E3EE0700E202A900AF
:1081A4003DF30700E202A800DFEE0700E202A900A7
:1081B40039F30700E202A800DBEE0700E202A9009F
:1081C40035F30700E202A800D7EE0700E202A90097
:1081D40031F30700E202A800D3EE0700E202A9008F
:1081E4002DF30700E202A800CFEE0700E202A90087
:1081F40029F30700E202A800CBEE0700E202A9007F
:1082040025F30700E202A800C7EE0700E202A90076
:1082140021F30700E202A800C3EE0700E202A9006E
:108224001DF30700E202A80068E40700E202A900C7
:1082340019F30700E202A80064E40700E202A900BF
:1082440015F30700E202A80060E40700E202A900B7
:1082540011F30700E202A8005CE40700E202A900AF
:108264000DF30700E202A80058E40700E202A900A7
:1082740009F30700E202A80054E40700E202A9009F
:1082840005F30700E202A80050E40700E202A90097
:1082940001F30700E202A8004CE40700E202A9008F
:1082A400FDF20700E202A80048E40700E202A90088
:1082B400F9F20700E202A80044E40700E202A90080
:1082C400F5F20700E202A80040E40700E202A90078
:1082D400F1F20700E202A8003CE40700E202A90070
:1082E400EDF20700E202A80038E40700E202A90068
:1082F400E9F20700E202A80034E40700E202A90060
:10830400E5F20700E202A80030E40700E202A90057
:10831400E1F20700E202A8002CE40700E202A9004F
:10832400DDF20700E202A80028E40700E202A90047
:10833400D9F20700E202A80024E40700E202A9003F
:10834400D5F20700E202A80020E40700E202A90037
:10835400D1F20700E202A8001CE40700E202A9002F
:10836400CDF20700E202A80063E30700E202A900DD
:10837400C9F20700E202A8005FE30700E202A900D5
:10838400C5F20700E202A8005BE30700E202A900CD
:10839400C1F20700E202A80057E30700E202A900C5
:1083A400BDF20700E202A80053E30700E202A900BD
:1083B400B9F20700E202A8004FE30700E202A900B5
:1083C400B5F20700E202A8004BE30700E202A900AD
:1083D400B1F20700E202A80047E30700E202A900A5
:1083E400ADF20700E202A80043E30700E202A9009D
:1083F400A9F20700E202A8003FE30700E202A90095
:10840400A5F20700E202A8003BE30700E202A9008C
:10841400A1F20700E202A80037E30700E202A90084
:108424009DF20700E202A80033E30700E202A9007C
:1084340099F20700E202A8002FE30700E202A90074
:1084440095F20700E202A8002BE30700E202A9006C
:1084540091F20700E202A80027E30700E202A90064
:108464008DF20700E202A80023E30700E202A9005C
:1084740089F20700E202A8001FE30700E202A90054
:1084840085F20700E202A8001BE30700E202A9004C
:1084940081F20700E202A80017E30700E202A90044
:1084A4007DF20700E202A80032E50700E202A9001B
:1084B40079F20700E202A8002EE50700E202A90013
:1084C40075F20700E202A8002AE50700E202A9000B
:1084D40071F20700E202A80026E50700E202A90003
:1084E4006DF20700E202A80022E50700E202A900FB
:1084F40069F20700E202A8001EE50700E202A900F3
:1085040065F20700E202A8001AE50700E202A900EA
:1085140061F20700E202A80016E50700E202A900E2
:108524005DF20700E202A80012E50700E202A900DA
:1085340059F20700E202A8000EE50700E202A900D2
:1085440055F20700E202A8000AE50700E202A900CA
:1085540051F20700E202A80006E50700E202A900C2
:108564004DF20700E202A80002E50700E202A900BA
:1085740049F20700E202A800FEE40700E202A900B3
:1085840045F20700E202A800FAE40700E202A900AB
:1085940041F20700E202A800F6E40700E202A900A3
:1085A4003DF20700E202A800F2E40700E202A9009B
:1085B40039F20700E202A800EEE40700E202A90093
:1085C40035F20700E202A800EAE40700E202A9008B
:1085D40031F20700E202A800E6E40700E202A90083
:1085E4002DF20700E202A8002DE40700E202A90030
:1085F40029F20700E202A80029E40700E202A90028
:1086040025F20700E202A80025E40700E202A9001F
:1086140021F20700E202A80021E40700E202A90017
:108624001DF20700E202A8001DE40700E202A9000F
:1086340019F20700E202A80019E40700E202A90007
:1086440015F20700E202A80015E40700E202A900FF
:1086540011F20700E202A80011E40700E202A900F7
:108664000DF20700E202A8000DE40700E202A900EF
:1086740009F20700E202A80009E40700E202A900E7
:1086840005F20700E202A80005E40700E202A900DF
:1086940001F20700E202A80001E40700E202A900D7
:1086A400FDF10700E202A800FDE30700E202A900D1
:1086B400F9F10700E202A800F9E30700E202A900C9
:1086C400F5F10700E202A800F5E30700E202A900C1
:1086D400F1F10700E202A800F1E30700E202A900B9
:1086E400EDF10700E202A800EDE30700E202A900B1
:1086F400E9F10700E202A800E9E30700E202A900A9
:10870400E5F10700E202A800E5E30700E202A900A0
:10871400E1F10700E202A800E1E30700E202A90098
:10872400DDF10700E202A800BEE10700E202A900B1
:10873400D9F10700E202A800BAE10700E202A900A9
:10874400D5F10700E202A800B6E10700E202A900A1
:10875400D1F10700E202A800B2E10700E202A90099
:10876400CDF10700E202A800AEE10700E202A90091
:10877400C9F10700E202A800AAE10700E202A90089
:10878400C5F10700E202A800A6E10700E202A90081
:10879400C1F10700E202A800A2E10700E202A90079
:1087A400BDF10700E202A8009EE10700E202A90071
:1087B400B9F10700E202A8009AE10700E202A90069
:1087C400B5F10700E202A80096E10700E202A90061
:1087D400B1F10700E202A80092E10700E202A90059
:1087E400ADF10700E202A8008EE10700E202A90051
:1087F400A9F10700E202A8008AE10700E202A90049
:10880400A5F10700E202A80086E10700E202A90040
:10881400A1F10700E202A80082E10700E202A90038
:108824009DF10700E202A8007EE10700E202A90030
:1088340099F10700E202A8007AE10700E202A90028
:1088440095F10700E202A80076E10700E202A90020
:1088540091F10700E202A80072E10700E202A90018
:108864008DF10700E202A8004FDF0700E202A90031
:1088740089F10700E202A8004BDF0700E202A90029
:1088840085F10700E202A80047DF0700E202A90021
:1088940081F10700E202A80043DF0700E202A90019
:1088A4007DF10700E202A8003FDF0700E202A90011
:1088B40079F10700E202A8003BDF0700E202A90009
:1088C40075F10700E202A80037DF0700E202A90001
:1088D40071F10700E202A80033DF0700E202A900F9
:1088E4006DF10700E202A8002FDF0700E202A900F1
:1088F40069F10700E202A8002BDF0700E202A900E9
:1089040065F10700E202A80027DF0700E202A900E0
:1089140061F10700E202A80023DF0700E202A900D8
:108924005DF10700E202A8001FDF0700E202A900D0
:1089340059F10700E202A8001BDF0700E202A900C8
:1089440055F10700E202A80017DF0700E202A900C0
:1089540051F10700E202A80013DF0700E202A900B8
:108964004DF10700E202A8000FDF0700E202A900B0
:1089740049F10700E202A8000BDF0700E202A900A8
:1089840045F10700E202A80007DF0700E202A900A0
:1089940041F10700E202A80003DF0700E202A90098
:1089A4003DF10700E202A8004ADE0700E202A90046
:1089B40039F10700E202A80046DE0700E202A9003E
:1089C40035F10700E202A80042DE0700E202A90036
:1089D40031F10700E202A8003EDE0700E202A9002E
:1089E4002DF10700E202A8003ADE0700E202A90026
:1089F40029F10700E202A80036DE0700E202A9001E
:108A040025F10700E202A80032DE0700E202A90015
:108A140021F10700E202A8002EDE0700E202A9000D
:108A24001DF10700E202A8002ADE0700E202A90005
:108A340019F10700E202A80026DE0700E202A900FD
:108A440015F10700E202A80022DE0700E202A900F5
:108A540011F10700E202A8001EDE0700E202A900ED
:108A64000DF10700E202A8001ADE0700E202A900E5
:108A740009F10700E202A80016DE0700E202A900DD
:108A840005F10700E202A80012DE0700E202A900D5
:108A940001F10700E202A8000EDE0700E202A900CD
:108AA400FDF00700E202A8000ADE0700E202A900C6
:108AB400F9F00700E202A80006DE0700E202A900BE
:108AC400F5F00700E202A80002DE0700E202A900B6
:108AD400F1F00700E202A800FEDD0700E202A900AF
:108AE400EDF00700E202A80019E00700E202A90085
:108AF400E9F00700E202A80015E00700E202A9007D
:108B0400E5F00700E202A80011E00700E202A90074
:108B1400E1F00700E202A8000DE00700E202A9006C
:108B2400DDF00700E202A80009E00700E202A90064
:108B3400D9F00700E202A80005E00700E202A9005C
:108B4400D5F00700E202A80001E00700E202A90054
:108B5400D1F00700E202A800FDDF0700E202A9004D
:108B6400CDF00700E202A800F9DF0700E202A90045
:108B7400C9F00700E202A800F5DF0700E202A9003D
:108B8400C5F00700E202A800F1DF0700E202A90035
:108B9400C1F00700E202A800EDDF0700E202A9002D
:108BA400BDF00700E202A800E9DF0700E202A90025
:108BB400B9F00700E202A800E5DF0700E202A9001D
:108BC400B5F00700E202A800E1DF0700E202A90015
:108BD400B1F00700E202A800DDDF0700E202A9000D
:108BE400ADF00700E202A800D9DF0700E202A90005
:108BF400A9F00700E202A800D5DF0700E202A900FD
:108C0400A5F00700E202A800D1DF0700E202A900F4
:108C1400A1F00700E202A800CDDF0700E202A900EC
:108C24009DF00700E202A80014DF0700E202A90099
:108C340099F00700E202A80010DF0700E202A90091
:108C440095F00700E202A8000CDF0700E202A90089
:108C540091F00700E202A80008DF0700E202A90081
:108C64008DF00700E202A80004DF0700E202A90079
:108C740089F00700E202A80000DF0700E202A90071
:108C840085F00700E202A800FCDE0700E202A9006A
:108C940081F00700E202A800F8DE0700E202A90062
:108CA4007DF00700E202A800F4DE0700E202A9005A
:108CB40079F00700E202A800F0DE0700E202A90052
:108CC40075F00700E202A800ECDE0700E202A9004A
:108CD40071F00700E202A800E8DE0700E202A90042
:108CE4006DF00700E202A800E4DE0700E202A9003A
:108CF40069F00700E202A800E0DE0700E202A90032
:108D040065F00700E202A800DCDE0700E202A90029
:108D140061F00700E202A800D8DE0700E202A90021
:108D24005DF00700E202A800D4DE0700E202A90019
:108D340059F00700E202A800D0DE0700E202A90011
:108D440055F00700E202A800CCDE0700E202A90009
:108D540051F00700E202A800C8DE0700E202A90001
:108D64004DF00700E202A800D0E90700E202A900E2
:108D740049F00700E202A800CCE90700E202A900DA
:108D840045F00700E202A800C8E90700E202A900D2
:108D940041F00700E202A800C4E90700E202A900CA
:108DA4003DF00700E202A800C0E90700E202A900C2
:108DB40039F00700E202A800BCE90700E202A900BA
:108DC40035F00700E202A800B8E90700E202A900B2
:108DD40031F00700E202A800B4E90700E202A900AA
:108DE4002DF00700E202A800B0E90700E202A900A2
:108DF40029F00700E202A800ACE90700E202A9009A
:108E040025F00700E202A800A8E90700E202A90091
:108E140021F00700E202A800A4E90700E202A90089
:108E24001DF00700E202A800A0E90700E202A90081
:108E340019F00700E202A8009CE90700E202A90079
:108E440015F00700E202A80098E90700E202A90071
:108E540011F00700E202A80094E90700E202A90069
:108E64000DF00700E202A80090E90700E202A90061
:108E740009F00700E202A8008CE90700E202A90059
:108E840005F00700E202A80088E90700E202A90051
:108E940001F00700E202A80084E90700E202A90049
:108EA400FDEF0700E202A800CBE80700E202A900F8
:108EB400F9EF0700E202A800C7E80700E202A900F0
:108EC400F5EF0700E202A800C3E80700E202A900E8
:108ED400F1EF0700E202A800BFE80700E202A900E0
:108EE400EDEF0700E202A800BBE80700E202A900D8
:108EF400E9EF0700E202A800B7E80700E202A900D0
:108F0400E5EF0700E202A800B3E80700E202A900C7
:108F1400E1EF0700E202A800AFE80700E202A900BF
:108F2400DDEF0700E202A800ABE80700E202A900B7
:108F3400D9EF0700E202A800A7E80700E202A900AF
:108F4400D5EF0700E202A800A3E80700E202A900A7
:108F5400D1EF0700E202A8009FE80700E202A9009F
:108F6400CDEF0700E202A8009BE80700E202A90097
:108F7400C9EF0700E202A80097E80700E202A9008F
:108F8400C5EF0700E202A80093E80700E202A90087
:108F9400C1EF0700E202A8008FE80700E202A9007F
:108FA400BDEF0700E202A8008BE80700E202A90077
:108FB400B9EF0700E202A80087E80700E202A9006F
:108FC400B5EF0700E202A80083E80700E202A90067
:108FD400B1EF0700E202A8007FE80700E202A9005F
:108FE400ADEF0700E202A8009AEA0700E202A90036
:108FF400A9EF0700E202A80096EA0700E202A9002E
:10900400A5EF0700E202A80092EA0700E202A90025
:10901400A1EF0700E202A8008EEA0700E202A9001D
:109024009DEF0700E202A8008AEA0700E202A90015
:1090340099EF0700E202A80086EA0700E202A9000D
:1090440095EF0700E202A80082EA0700E202A90005
:1090540091EF0700E202A8007EEA0700E202A900FD
:109064008DEF0700E202A8007AEA0700E202A900F5
:1090740089EF0700E202A80076EA0700E202A900ED
:1090840085EF0700E202A80072EA0700E202A900E5
:1090940081EF0700E202A8006EEA0700E202A900DD
:1090A4007DEF0700E202A8006AEA0700E202A900D5
:1090B40079EF0700E202A80066EA0700E202A900CD
:1090C40075EF0700E202A80062EA0700E202A900C5
:1090D40071EF0700E202A8005EEA0700E202A900BD
:1090E4006DEF0700E202A8005AEA0700E202A900B5
:1090F40069EF0700E202A80056EA0700E202A900AD
:1091040065EF0700E202A80052EA0700E202A900A4
:1091140061EF0700E202A8004EEA0700E202A9009C
:109124005DEF0700E202A80095E90700E202A9004A
:1091340059EF0700E202A80091E90700E202A90042
:1091440055EF0700E202A8008DE90700E202A9003A
:1091540051EF0700E202A80089E90700E202A90032
:109164004DEF0700E202A80085E90700E202A9002A
:1091740049EF0700E202A80081E90700E202A90022
:1091840045EF0700E202A8007DE90700E202A9001A
:1091940041EF0700E202A80079E90700E202A90012
:1091A4003DEF0700E202A80075E90700E202A9000A
:1091B40039EF0700E202A80071E90700E202A90002
:1091C40035EF0700E202A8006DE90700E202A900FA
:1091D40031EF0700E202A80069E90700E202A900F2
:1091E4002DEF0700E202A80065E90700E202A900EA
:1091F40029EF0700E202A80061E90700E202A900E2
:1092040025EF0700E202A8005DE90700E202A900D9
:1092140021EF0700E202A80059E90700E202A900D1
:109224001DEF0700E202A80055E90700E202A900C9
:1092340019EF0700E202A80051E90700E202A900C1
:1092440015EF0700E202A8004DE90700E202A900B9
:1092540011EF0700E202A80049E90700E202A900B1
:109264000DEF0700E202A80026E70700E202A900CA
:1092740009EF0700E202A80022E70700E202A900C2
:1092840005EF0700E202A8001EE70700E202A900BA
:1092940001EF0700E202A8001AE70700E202A900B2
:1092A400FDEE0700E202A80016E70700E202A900AB
:1092B400F9EE0700E202A80012E70700E202A900A3
:1092C400F5EE0700E202A8000EE70700E202A9009B
:1092D400F1EE0700E202A8000AE70700E202A90093
:1092E400EDEE0700E202A80006E70700E202A9008B
:1092F400E9EE0700E202A80002E70700E202A90083
:10930400E5EE0700E202A800FEE60700E202A9007B
:10931400E1EE0700E202A800FAE60700E202A90073
:10932400DDEE0700E202A800F6E60700E202A9006B
:10933400D9EE0700E202A800F2E60700E202A90063
:10934400D5EE0700E202A800EEE60700E202A9005B
:10935400D1EE0700E202A800EAE60700E202A90053
:10936400CDEE0700E202A800E6E60700E202A9004B
:10937400C9EE0700E202A800E2E60700E202A90043
:10938400C5EE0700E202A800DEE60700E202A9003B
:10939400C1EE0700E202A800DAE60700E202A90033
:1093A400BDEE0700E202A800DCE20700E202A90029
:1093B400B9EE0700E202A800D8E20700E202A90021
:1093C400B5EE0700E202A800D4E20700E202A90019
:1093D400B1EE0700E202A800D0E20700E202A90011
:1093E400ADEE0700E202A800CCE20700E202A90009
:1093F400A9EE0700E202A800C8E20700E202A90001
:10940400A5EE0700E202A800C4E20700E202A900F8
:10941400A1EE0700E202A800C0E20700E202A900F0
:109424009DEE0700E202A800BCE20700E202A900E8
:1094340099EE0700E202A800B8E20700E202A900E0
:1094440095EE0700E202A800B4E20700E202A900D8
:1094540091EE0700E202A800B0E20700E202A900D0
:109464008DEE0700E202A800ACE20700E202A900C8
:1094740089EE0700E202A800A8E20700E202A900C0
:1094840085EE0700E202A800A4E20700E202A900B8
:1094940081EE0700E202A800A0E20700E202A900B0
:1094A4007DEE0700E202A8009CE20700E202A900A8
:1094B40079EE0700E202A80098E20700E202A900A0
:1094C40075EE0700E202A80094E20700E202A90098
:1094D40071EE0700E202A80090E20700E202A90090
:1094E4006DEE0700E202A800D7E10700E202A9003E
:1094F40069EE0700E202A800D3E10700E202A90036
:1095040065EE0700E202A800CFE10700E202A9002D
:1095140061EE0700E202A800CBE10700E202A90025
:109524005DEE0700E202A800C7E10700E202A9001D
:1095340059EE0700E202A800C3E10700E202A90015
:1095440055EE0700E202A800BFE10700E202A9000D
:1095540051EE0700E202A800BBE10700E202A90005
:109564004DEE0700E202A800B7E10700E202A900FD
:1095740049EE0700E202A800B3E10700E202A900F5
:1095840045EE0700E202A800AFE10700E202A900ED
:1095940041EE0700E202A800ABE10700E202A900E5
:1095A4003DEE0700E202A800A7E10700E202A900DD
:1095B40039EE0700E202A800A3E10700E202A900D5
:1095C40035EE0700E202A8009FE10700E202A900CD
:1095D40031EE0700E202A8009BE10700E202A900C5
:1095E4002DEE0700E202A80097E10700E202A900BD
:1095F40029EE0700E202A80093E10700E202A900B5
:1096040025EE0700E202A8008FE10700E202A900AC
:1096140021EE0700E202A8008BE10700E202A900A4
:109624001DEE0700E202A80081E50700E202A9009E
:1096340019EE0700E202A8007DE50700E202A90096
:1096440015EE0700E202A80079E50700E202A9008E
:1096540011EE0700E202A80075E50700E202A90086
:109664000DEE0700E202A80071E50700E202A9007E
:1096740009EE0700E202A8006DE50700E202A90076
:1096840005EE0700E202A80069E50700E202A9006E
:1096940001EE0700E202A80065E50700E202A90066
:1096A400FDED0700E202A80061E50700E202A9005F
:1096B400F9ED0700E202A8005DE50700E202A90057
:1096C400F5ED0700E202A80059E50700E202A9004F
:1096D400F1ED0700E202A80055E50700E202A90047
:1096E400EDED0700E202A80051E50700E202A9003F
:1096F400E9ED0700E202A8004DE50700E202A90037
:10970400E5ED0700E202A80049E50700E202A9002E
:10971400E1ED0700E202A80045E50700E202A90026
:10972400DDED0700E202A80041E50700E202A9001E
:10973400D9ED0700E202A8003DE50700E202A90016
:10974400D5ED0700E202A80039E50700E202A9000E
:10975400D1ED0700E202A80035E50700E202A90006
:10976400CDED0700E202A800A1E207002DF63700C4
:04977400FFFF3700BC
:104E7400F0FF2F00A8A2B700C822EF00D422EF0051
:104E8400E022EF00F0002000C6A2B700D222EF001B
:084E9400DE22EF000000060021
:104DB4008A1F78008B1F78008C1F78000C4B200012
:104DC400CB802000CABB2C001EED0700708E200093
:104DD400406688004166800050C0B3008048780077
:104DE4000020EF0050668800F0B32000E0658800E2
:104DF40070B6200010668800E165800010C9B30019
:104E0400804878001166800010C9B300804878009B
:104E1400E1CB200090C0B30080487800F1CB2000A3
:104E24000020EF008048780001CC2000F0CFB300D0
:104E34008048780041CC200090C0B30080487800BE
:104E440051CC20000020EF008048780061CC200085
:104E5400F0CFB300804878000020EF0010408800B5
:104E64004F067800CF0578004F0578000000060053
:100248000420EF000C10E100050031008280450019
:1002580002004500904878000420EC00F9FF3700C0
:04026800000006008C
:104E9C000000000000000000000000000000000006
:104EAC0000000000000000000000000000000000F6
:104EBC0000000000000000000000000000000000E6
:104ECC0000000000000000000000000000000000D6
:104EDC0000000000000000000000000000000600C0
:10514C000000000000000000000000000000000053
:10515C000000000000000000000000000000000043
:10516C000000000000000000000000000000000033
:10517C0000000000000000000000000050668000ED
:10518C00EF00600000802000014878008180FB0067
:10519C00F00020000101B800C0062D000201400003
:1051AC0092407800E0C0200001487800E100410006
:1051BC0091407800F0C0200001487800E2004100E6
:1051CC009140780000C1200001487800E3004100C4
:1051DC009140780060C3200001487800E400410051
:1051EC009140780070C3200001487800E500410030
:1051FC009140780080C3200001487800E60041000F
:10520C0091407800E0C5200001487800E70041009B
:10521C0091407800F0C5200001487800E80041007A
:10522C009140780000C6200001487800E900410058
:10523C009140780060C8200001487800EA004100E5
:10524C009140780070C8200001487800EB004100C4
:10525C009140780080C8200001487800EC004100A3
:10526C0091407800E0CA200001487800ED00410030
:10527C0091407800F0CA200001487800EE0041000F
:10528C009140780000CB200001487800000000001D
:10529C000000000000000000000000000000000002
:1052AC0000000000000000000000000000000000F2
:1052BC0000000000000000000000000000000000E2
:1052CC0000000000000000000000000000000000D2
:1052DC0000000000000000000000000000000000C2
:1052EC0000000000000000000000000000000000B2
:1052FC0000000000000000000000000000000000A2
:10530C000000000000000000000000000000000091
:10531C000000000000000000000000000000000081
:10532C000000000000000000000000000000000071
:10533C000000000000000000000000000000000061
:10534C000000000000000000000000000000000051
:10535C000000000000000000000000000000000041
:10536C000000000000000000000000000000000031
:10537C000000000000000000000000000000000021
:10538C0000000000D622EF0000000000000000002A
:10539C0000000000000000000000000000000600FB
:104EEC0000000000000000000000000000000000B6
:104EFC0000000000000000000000000000000000A6
:104F0C000000000000000000000000000000000095
:104F1C00000000000000000000000000010F200055
:104F2C00A0CC200010806000C400DE0000802000B7
:104F3C00014878008180FB00F00020000101B800DE
:104F4C00C0062D000201400092407800A0C0200055
:104F5C0001487800E100410091407800B0C0200089
:104F6C0001487800E200410091407800C0C0200068
:104F7C0001487800E30041009140780020C32000F4
:104F8C0001487800E40041009140780030C32000D3
:104F9C0001487800E50041009140780040C32000B2
:104FAC0001487800E600410091407800A0C520003F
:104FBC0001487800E700410091407800B0C520001E
:104FCC0001487800E800410091407800C0C52000FD
:104FDC0001487800E90041009140780020C8200089
:104FEC0001487800EA0041009140780030C8200068
:104FFC0001487800EB0041009140780040C8200047
:10500C0001487800EC00410091407800A0CA2000D3
:10501C0001487800ED00410091407800B0CA2000B2
:10502C0001487800EE00410091407800C0CA200091
:10503C0001487800000000000000000000000000A3
:10504C000000000000000000000000000000000054
:10505C000000000000000000000000000000000044
:10506C000000000000000000000000000000000034
:10507C000000000000000000000000000000000024
:10508C000000000000000000000000000000000014
:10509C000000000000000000000000000000000004
:1050AC0000000000000000000000000000000000F4
:1050BC0000000000000000000000000000000000E4
:1050CC0000000000000000000000000000000000D4
:1050DC0000000000000000000000000000000000C4
:1050EC0000000000000000000000000000000000B4
:1050FC0000000000000000000000000000000000A4
:10510C000000000000000000000000000000000093
:10511C000000000000000000000000000000000083
:10512C0000000000D622EF0000000000000000008C
:10513C00000000000000000000000000000006005D
:1042D40000000000000000000000000000000000DA
:1042E40000000000000000000000000000000000CA
:1042F40000000000000000000000000000000000BA
:104304000000000000000000000000005066800073
:10431400C800DE0000802000014878008180FB0096
:10432400F00020000101B800C0062D000201400089
:104334009240780060C0200001487800E10041000C
:104344009140780070C0200001487800E2004100EC
:104354009140780080C0200001487800E3004100CB
:1043640091407800E0C2200001487800E400410058
:1043740091407800F0C2200001487800E500410037
:104384009140780000C3200001487800E600410015
:104394009140780060C5200001487800E7004100A2
:1043A4009140780070C5200001487800E800410081
:1043B4009140780080C5200001487800E900410060
:1043C40091407800E0C7200001487800EA004100ED
:1043D40091407800F0C7200001487800EB004100CC
:1043E4009140780000C8200001487800EC004100AA
:1043F4009140780060CA200001487800ED00410037
:104404009140780070CA200001487800EE00410015
:104414009140780080CA2000014878000000000024
:104424000000000000000000000000000000000088
:104434000000000000000000000000000000000078
:104444000000000000000000000000000000000068
:104454000000000000000000000000000000000058
:104464000000000000000000000000000000000048
:104474000000000000000000000000000000000038
:104484000000000000000000000000000000000028
:104494000000000000000000000000000000000018
:1044A4000000000000000000000000000000000008
:1044B40000000000000000000000000000000000F8
:1044C40000000000000000000000000000000000E8
:1044D40000000000000000000000000000000000D8
:1044E40000000000000000000000000000000000C8
:1044F40000000000000000000000000000000000B8
:1045040000000000000000000000000000000000A7
:1045140000000000D622EF000000000000000000B0
:104524000000000000000000000000000000060081
:1040000000000000000000000000000000000000B0
:1040100000000000000000000000000000000000A0
:104020000000000000000000000000000000000090
:1040300000000000000000000000000041168000A9
:1040400020802000108870000000000000000000A8
:104050000000000000000000000000000000000060
:104060000000000000000000000000000000000050
:104070000000000000000000000000000000000040
:104080000000000000000000000000000000000030
:1042B0000000000000000000D622EF000000000017
:1042C00000000000000000000000000000000000EE
:0442D00000000600E4
:104534000000000000000000000000000000000077
:104544000000000000000000000000000000000067
:104554000000000000000000000000000000000057
:104564000000000000000000000000000000000047
:1047E400000000000000000000000000D622EF00DE
:1047F40000000000000000000000000000000000B5
:084804000000000000000600A6
:104AE00000000000000000000000000000000000C6
:104AF00000000000000000000000000000000000B6
:104B000000000000000000000000000000000000A5
:104B10000000000060408000D6A2B7000000000046
:104B2000604080004800DE00D6A2B7000000000010
:104B30000000000070408000D6A2B7000000000016
:104B4000704080004800DE00D6A2B70000000000E0
:104B50000000000080408000D6A2B70000000000E6
:104B6000804080004800DE00D6A2B70000000000B0
:104B70000000000090408000D6A2B70000000000B6
:104B8000904080004800DE00D6A2B7000000000080
:104B900000000000A0408000D6A2B7000000000086
:104BA000A04080004800DE00D6A2B7000000000050
:104BB00000000000B0408000D6A2B7000000000056
:104BC000B04080004800DE00D6A2B7000000000020
:104BD00000000000C0408000D6A2B7000000000026
:104BE000C04080004800DE00D6A2B70000000000F0
:104BF00000000000D0408000D6A2B70000000000F6
:104C0000D04080004800DE00D6A2B70000000000BF
:104C100000000000E0408000D6A2B70000000000C5
:104C2000E04080004800DE00D6A2B700000000008F
:104C300000000000F0408000D6A2B7000000000095
:104C4000F04080004800DE00D6A2B700000000005F
:104C50000000000000418000D6A2B7000000000064
:104C6000004180004800DE00D6A2B700000000002E
:104C70000000000010418000D6A2B7000000000034
:104C8000104180004800DE00D6A2B70000000000FE
:104C90000000000020418000D6A2B7000000000004
:104CA000204180004800DE00D6A2B70000000000CE
:104CB0000000000030418000D6A2B70000000000D4
:104CC000304180004800DE00D6A2B700000000009E
:104CD0000000000040418000D6A2B70000000000A4
:104CE000404180004800DE00D6A2B700000000006E
:104CF0000000000050418000D6A2B7000000000074
:104D0000504180004800DE00D6A2B700000000003D
:104D10000000000060418000D6A2B7000000000043
:104D2000604180004800DE00D6A2B700000000000D
:104D30000000000070418000D6A2B7000000000013
:104D4000704180004800DE00D6A2B70000000000DD
:104D50000000000080418000D6A2B70000000000E3
:104D6000804180004800DE00D6A2B70000000000AD
:104D70000000000090418000D6A2B70000000000B3
:104D8000904180004800DE00D6A2B700000000007D
:104D9000000000000000000000000000D622EF002C
:104DA000110020004080200010884000000000001A
:044DB00000000600F9
:10480C00000000000000000000000000000000009C
:10481C00000000000000000000000000000000008C
:10482C00000000000000000000000000000000007C
:10483C0000000000A0418000D6A2B70000000000DC
:10484C00A04180004800DE00D6A2B70000000000A6
:10485C0000000000B0418000D6A2B70000000000AC
:10486C00B04180004800DE00D6A2B7000000000076
:10487C0000000000C0418000D6A2B700000000007C
:10488C00C04180004800DE00D6A2B7000000000046
:10489C0000000000D0418000D6A2B700000000004C
:1048AC00D04180004800DE00D6A2B7000000000016
:1048BC0000000000E0418000D6A2B700000000001C
:1048CC00E04180004800DE00D6A2B70000000000E6
:1048DC0000000000F0418000D6A2B70000000000EC
:1048EC00F04180004800DE00D6A2B70000000000B6
:1048FC000000000000428000D6A2B70000000000BB
:10490C00004280004800DE00D6A2B7000000000084
:10491C000000000010428000D6A2B700000000008A
:10492C00104280004800DE00D6A2B7000000000054
:10493C000000000020428000D6A2B700000000005A
:10494C00204280004800DE00D6A2B7000000000024
:10495C000000000030428000D6A2B700000000002A
:10496C00304280004800DE00D6A2B70000000000F4
:10497C000000000040428000D6A2B70000000000FA
:10498C00404280004800DE00D6A2B70000000000C4
:10499C000000000050428000D6A2B70000000000CA
:1049AC00504280004800DE00D6A2B7000000000094
:1049BC000000000060428000D6A2B700000000009A
:1049CC00604280004800DE00D6A2B7000000000064
:1049DC000000000070428000D6A2B700000000006A
:1049EC00704280004800DE00D6A2B7000000000034
:1049FC000000000080428000D6A2B700000000003A
:104A0C00804280004800DE00D6A2B7000000000003
:104A1C000000000090428000D6A2B7000000000009
:104A2C00904280004800DE00D6A2B70000000000D3
:104A3C0000000000A0428000D6A2B70000000000D9
:104A4C00A04280004800DE00D6A2B70000000000A3
:104A5C0000000000B0428000D6A2B70000000000A9
:104A6C00B04280004800DE00D6A2B7000000000073
:104A7C0000000000C0428000D6A2B7000000000079
:104A8C00C04280004800DE00D6A2B7000000000043
:104A9C0000000000D0428000D6A2B7000000000049
:104AAC00D04280004800DE00D6A2B7000000000013
:104ABC00000000000000000000000000D622EF0003
:104ACC0011002000408020001088400000000000F1
:044ADC0000000600D0
:1064A40000000000000000000000000000000000E8
:1064B40000000000000000000000000000000000D8
:1064C40000000000000000000000000000000000C8
:1064D40000000000E0428000D6A2B70000000000E7
:1064E400E04280004800DE00D6A2B70000000000B1
:1064F40000000000F0428000D6A2B70000000000B7
:10650400F04280004800DE00D6A2B7000000000080
:106514000000000000438000D6A2B7000000000085
:10652400004380004800DE00D6A2B700000000004F
:106534000000000010438000D6A2B7000000000055
:10654400104380004800DE00D6A2B700000000001F
:106554000000000020438000D6A2B7000000000025
:10656400204380004800DE00D6A2B70000000000EF
:106574000000000030438000D6A2B70000000000F5
:10658400304380004800DE00D6A2B70000000000BF
:106594000000000040438000D6A2B70000000000C5
:1065A400404380004800DE00D6A2B700000000008F
:1065B4000000000050438000D6A2B7000000000095
:1065C400504380004800DE00D6A2B700000000005F
:1065D4000000000060438000D6A2B7000000000065
:1065E400604380004800DE00D6A2B700000000002F
:1065F4000000000070438000D6A2B7000000000035
:10660400704380004800DE00D6A2B70000000000FE
:106614000000000080438000D6A2B7000000000004
:10662400804380004800DE00D6A2B70000000000CE
:106634000000000090438000D6A2B70000000000D4
:10664400904380004800DE00D6A2B700000000009E
:1066540000000000A0438000D6A2B70000000000A4
:10666400A04380004800DE00D6A2B700000000006E
:1066740000000000B0438000D6A2B7000000000074
:10668400B04380004800DE00D6A2B700000000003E
:1066940000000000C0438000D6A2B7000000000044
:1066A400C04380004800DE00D6A2B700000000000E
:1066B40000000000D0438000D6A2B7000000000014
:1066C400D04380004800DE00D6A2B70000000000DE
:1066D40000000000E0438000D6A2B70000000000E4
:1066E400E04380004800DE00D6A2B70000000000AE
:1066F40000000000F0438000D6A2B70000000000B4
:10670400F04380004800DE00D6A2B700000000007D
:106714000000000000448000D6A2B7000000000082
:10672400004480004800DE00D6A2B700000000004C
:106734000000000010448000D6A2B7000000000052
:10674400104480004800DE00D6A2B700000000001C
:10675400000000000000000000000000D622EF004E
:10676400110020004080200010884000000000003C
:04677400000006001B
:1061D00000000000000000000000000000000000BF
:1061E00000000000000000000000000000000000AF
:1061F000000000000000000000000000000000009F
:106200000000000020448000D6A2B700000000007B
:10621000204480004800DE00D6A2B7000000000045
:106220000000000030448000D6A2B700000000004B
:10623000304480004800DE00D6A2B7000000000015
:106240000000000040448000D6A2B700000000001B
:10625000404480004800DE00D6A2B70000000000E5
:106260000000000050448000D6A2B70000000000EB
:10627000504480004800DE00D6A2B70000000000B5
:106280000000000060448000D6A2B70000000000BB
:10629000604480004800DE00D6A2B7000000000085
:1062A0000000000070448000D6A2B700000000008B
:1062B000704480004800DE00D6A2B7000000000055
:1062C0000000000080448000D6A2B700000000005B
:1062D000804480004800DE00D6A2B7000000000025
:1062E0000000000090448000D6A2B700000000002B
:1062F000904480004800DE00D6A2B70000000000F5
:1063000000000000A0448000D6A2B70000000000FA
:10631000A04480004800DE00D6A2B70000000000C4
:1063200000000000B0448000D6A2B70000000000CA
:10633000B04480004800DE00D6A2B7000000000094
:1063400000000000C0448000D6A2B700000000009A
:10635000C04480004800DE00D6A2B7000000000064
:1063600000000000D0448000D6A2B700000000006A
:10637000D04480004800DE00D6A2B7000000000034
:1063800000000000E0448000D6A2B700000000003A
:10639000E04480004800DE00D6A2B7000000000004
:1063A00000000000F0448000D6A2B700000000000A
:1063B000F04480004800DE00D6A2B70000000000D4
:1063C0000000000000458000D6A2B70000000000D9
:1063D000004580004800DE00D6A2B70000000000A3
:1063E0000000000010458000D6A2B70000000000A9
:1063F000104580004800DE00D6A2B7000000000073
:106400000000000020458000D6A2B7000000000078
:10641000204580004800DE00D6A2B7000000000042
:106420000000000030458000D6A2B7000000000048
:10643000304580004800DE00D6A2B7000000000012
:106440000000000040458000D6A2B7000000000018
:10645000404580004800DE00D6A2B70000000000E2
:106460000000000050458000D6A2B70000000000E8
:10647000504580004800DE00D6A2B70000000000B2
:10648000000000000000000000000000D622EF0025
:106490001100200040802000108840000000000013
:0464A00000000600F2
:106778000000000000000000000000000000000011
:106788000000000000000000000000000000000001
:1067980000000000000000000000000000000000F1
:1067A8000000000060458000D6A2B700000000008D
:1067B800604580004800DE00D6A2B7000000000057
:1067C8000000000070458000D6A2B700000000005D
:1067D800704580004800DE00D6A2B7000000000027
:1067E8000000000080458000D6A2B700000000002D
:1067F800804580004800DE00D6A2B70000000000F7
:106808000000000090458000D6A2B70000000000FC
:10681800904580004800DE00D6A2B70000000000C6
:1068280000000000A0458000D6A2B70000000000CC
:10683800A04580004800DE00D6A2B7000000000096
:1068480000000000B0458000D6A2B700000000009C
:10685800B04580004800DE00D6A2B7000000000066
:1068680000000000C0458000D6A2B700000000006C
:10687800C04580004800DE00D6A2B7000000000036
:1068880000000000D0458000D6A2B700000000003C
:10689800D04580004800DE00D6A2B7000000000006
:1068A80000000000E0458000D6A2B700000000000C
:1068B800E04580004800DE00D6A2B70000000000D6
:1068C80000000000F0458000D6A2B70000000000DC
:1068D800F04580004800DE00D6A2B70000000000A6
:1068E8000000000000468000D6A2B70000000000AB
:1068F800004680004800DE00D6A2B7000000000075
:106908000000000010468000D6A2B700000000007A
:10691800104680004800DE00D6A2B7000000000044
:106928000000000020468000D6A2B700000000004A
:10693800204680004800DE00D6A2B7000000000014
:106948000000000030468000D6A2B700000000001A
:10695800304680004800DE00D6A2B70000000000E4
:106968000000000040468000D6A2B70000000000EA
:10697800404680004800DE00D6A2B70000000000B4
:106988000000000050468000D6A2B70000000000BA
:10699800504680004800DE00D6A2B7000000000084
:1069A8000000000060468000D6A2B700000000008A
:1069B800604680004800DE00D6A2B7000000000054
:1069C8000000000070468000D6A2B700000000005A
:1069D800704680004800DE00D6A2B7000000000024
:1069E8000000000080468000D6A2B700000000002A
:1069F800804680004800DE00D6A2B70000000000F4
:106A08000000000090468000D6A2B70000000000F9
:106A1800904680004800DE00D6A2B70000000000C3
:106A2800000000000000000000000000D622EF0077
:106A38001100200040802000108840000000000065
:046A48000000060044
:106D20000000000000000000000000000000000063
:106D30000000000000000000000000000000000053
:106D40000000000000000000000000000000000043
:106D500000000000A0468000D6A2B700000000009E
:106D6000A04680004800DE00D6A2B7000000000068
:106D700000000000B0468000D6A2B700000000006E
:106D8000B04680004800DE00D6A2B7000000000038
:106D900000000000C0468000D6A2B700000000003E
:106DA000C04680004800DE00D6A2B7000000000008
:106DB00000000000D0468000D6A2B700000000000E
:106DC000D04680004800DE00D6A2B70000000000D8
:106DD00000000000E0468000D6A2B70000000000DE
:106DE000E04680004800DE00D6A2B70000000000A8
:106DF00000000000F0468000D6A2B70000000000AE
:106E0000F04680004800DE00D6A2B7000000000077
:106E10000000000000478000D6A2B700000000007C
:106E2000004780004800DE00D6A2B7000000000046
:106E30000000000010478000D6A2B700000000004C
:106E4000104780004800DE00D6A2B7000000000016
:106E50000000000020478000D6A2B700000000001C
:106E6000204780004800DE00D6A2B70000000000E6
:106E70000000000030478000D6A2B70000000000EC
:106E8000304780004800DE00D6A2B70000000000B6
:106E90000000000040478000D6A2B70000000000BC
:106EA000404780004800DE00D6A2B7000000000086
:106EB0000000000050478000D6A2B700000000008C
:106EC000504780004800DE00D6A2B7000000000056
:106ED0000000000060478000D6A2B700000000005C
:106EE000604780004800DE00D6A2B7000000000026
:106EF0000000000070478000D6A2B700000000002C
:106F0000704780004800DE00D6A2B70000000000F5
:106F10000000000080478000D6A2B70000000000FB
:106F2000804780004800DE00D6A2B70000000000C5
:106F30000000000090478000D6A2B70000000000CB
:106F4000904780004800DE00D6A2B7000000000095
:106F500000000000A0478000D6A2B700000000009B
:106F6000A04780004800DE00D6A2B7000000000065
:106F700000000000B0478000D6A2B700000000006B
:106F8000B04780004800DE00D6A2B7000000000035
:106F900000000000C0478000D6A2B700000000003B
:106FA000C04780004800DE00D6A2B7000000000005
:106FB00000000000D0478000D6A2B700000000000B
:106FC000D04780004800DE00D6A2B70000000000D5
:106FD000000000000000000000000000D622EF00CA
:106FE00011002000408020001088400000000000B8
:046FF0000000060097
:106A4C00000000000000000000000000000000003A
:106A5C00000000000000000000000000000000002A
:106A6C00000000000000000000000000000000001A
:106A7C0000000000E0478000D6A2B7000000000034
:106A8C00E04780004800DE00D6A2B70000000000FE
:106A9C0000000000F0478000D6A2B7000000000004
:106AAC00F04780004800DE00D6A2B70000000000CE
:106ABC000000000000488000D6A2B70000000000D3
:106ACC00004880004800DE00D6A2B700000000009D
:106ADC000000000010488000D6A2B70000000000A3
:106AEC00104880004800DE00D6A2B700000000006D
:106AFC000000000020488000D6A2B7000000000073
:106B0C00204880004800DE00D6A2B700000000003C
:106B1C000000000030488000D6A2B7000000000042
:106B2C00304880004800DE00D6A2B700000000000C
:106B3C000000000040488000D6A2B7000000000012
:106B4C00404880004800DE00D6A2B70000000000DC
:106B5C000000000050488000D6A2B70000000000E2
:106B6C00504880004800DE00D6A2B70000000000AC
:106B7C000000000060488000D6A2B70000000000B2
:106B8C00604880004800DE00D6A2B700000000007C
:106B9C000000000070488000D6A2B7000000000082
:106BAC00704880004800DE00D6A2B700000000004C
:106BBC000000000080488000D6A2B7000000000052
:106BCC00804880004800DE00D6A2B700000000001C
:106BDC000000000090488000D6A2B7000000000022
:106BEC00904880004800DE00D6A2B70000000000EC
:106BFC0000000000A0488000D6A2B70000000000F2
:106C0C00A04880004800DE00D6A2B70000000000BB
:106C1C0000000000B0488000D6A2B70000000000C1
:106C2C00B04880004800DE00D6A2B700000000008B
:106C3C0000000000C0488000D6A2B7000000000091
:106C4C00C04880004800DE00D6A2B700000000005B
:106C5C0000000000D0488000D6A2B7000000000061
:106C6C00D04880004800DE00D6A2B700000000002B
:106C7C0000000000E0488000D6A2B7000000000031
:106C8C00E04880004800DE00D6A2B70000000000FB
:106C9C0000000000F0488000D6A2B7000000000001
:106CAC00F04880004800DE00D6A2B70000000000CB
:106CBC000000000000498000D6A2B70000000000D0
:106CCC00004980004800DE00D6A2B700000000009A
:106CDC000000000010498000D6A2B70000000000A0
:106CEC00104980004800DE00D6A2B700000000006A
:106CFC00000000000000000000000000D622EF00A1
:106D0C00110020004080200010884000000000008E
:046D1C00000006006D
:10568000000000000000000000000000000000001A
:10569000000000000000000000000000000000000A
:1056A00000000000000000000000000000000000FA
:1056B0000000000020498000D6A2B70000000000D2
:1056C000204980004800DE00D6A2B700000000009C
:1056D0000000000030498000D6A2B70000000000A2
:1056E000304980004800DE00D6A2B700000000006C
:1056F0000000000040498000D6A2B7000000000072
:10570000404980004800DE00D6A2B700000000003B
:105710000000000050498000D6A2B7000000000041
:10572000504980004800DE00D6A2B700000000000B
:105730000000000060498000D6A2B7000000000011
:10574000604980004800DE00D6A2B70000000000DB
:105750000000000070498000D6A2B70000000000E1
:10576000704980004800DE00D6A2B70000000000AB
:105770000000000080498000D6A2B70000000000B1
:10578000804980004800DE00D6A2B700000000007B
:105790000000000090498000D6A2B7000000000081
:1057A000904980004800DE00D6A2B700000000004B
:1057B00000000000A0498000D6A2B7000000000051
:1057C000A04980004800DE00D6A2B700000000001B
:1057D00000000000B0498000D6A2B7000000000021
:1057E000B04980004800DE00D6A2B70000000000EB
:1057F00000000000C0498000D6A2B70000000000F1
:10580000C04980004800DE00D6A2B70000000000BA
:1058100000000000D0498000D6A2B70000000000C0
:10582000D04980004800DE00D6A2B700000000008A
:1058300000000000E0498000D6A2B7000000000090
:10584000E04980004800DE00D6A2B700000000005A
:1058500000000000F0498000D6A2B7000000000060
:10586000F04980004800DE00D6A2B700000000002A
:1058700000000000004A8000D6A2B700000000002F
:10588000004A80004800DE00D6A2B70000000000F9
:1058900000000000104A8000D6A2B70000000000FF
:1058A000104A80004800DE00D6A2B70000000000C9
:1058B00000000000204A8000D6A2B70000000000CF
:1058C000204A80004800DE00D6A2B7000000000099
:1058D00000000000304A8000D6A2B700000000009F
:1058E000304A80004800DE00D6A2B7000000000069
:1058F00000000000404A8000D6A2B700000000006F
:10590000404A80004800DE00D6A2B7000000000038
:1059100000000000504A8000D6A2B700000000003E
:10592000504A80004800DE00D6A2B7000000000008
:10593000000000000000000000000000D622EF0080
:10594000110020004080200010884000000000006E
:04595000000006004D
:1053AC0000000000000000000000000000000000F1
:1053BC0000000000000000000000000000000000E1
:1053CC0000000000000000000000000000000000D1
:1053DC0000000000604A8000D6A2B7000000000068
:1053EC00604A80004800DE00D6A2B7000000000032
:1053FC0000000000704A8000D6A2B7000000000038
:10540C00704A80004800DE00D6A2B7000000000001
:10541C0000000000804A8000D6A2B7000000000007
:10542C00804A80004800DE00D6A2B70000000000D1
:10543C0000000000904A8000D6A2B70000000000D7
:10544C00904A80004800DE00D6A2B70000000000A1
:10545C0000000000A04A8000D6A2B70000000000A7
:10546C00A04A80004800DE00D6A2B7000000000071
:10547C0000000000B04A8000D6A2B7000000000077
:10548C00B04A80004800DE00D6A2B7000000000041
:10549C0000000000C04A8000D6A2B7000000000047
:1054AC00C04A80004800DE00D6A2B7000000000011
:1054BC0000000000D04A8000D6A2B7000000000017
:1054CC00D04A80004800DE00D6A2B70000000000E1
:1054DC0000000000E04A8000D6A2B70000000000E7
:1054EC00E04A80004800DE00D6A2B70000000000B1
:1054FC0000000000F04A8000D6A2B70000000000B7
:10550C00F04A80004800DE00D6A2B7000000000080
:10551C0000000000004B8000D6A2B7000000000085
:10552C00004B80004800DE00D6A2B700000000004F
:10553C0000000000104B8000D6A2B7000000000055
:10554C00104B80004800DE00D6A2B700000000001F
:10555C0000000000204B8000D6A2B7000000000025
:10556C00204B80004800DE00D6A2B70000000000EF
:10557C0000000000304B8000D6A2B70000000000F5
:10558C00304B80004800DE00D6A2B70000000000BF
:10559C0000000000404B8000D6A2B70000000000C5
:1055AC00404B80004800DE00D6A2B700000000008F
:1055BC0000000000504B8000D6A2B7000000000095
:1055CC00504B80004800DE00D6A2B700000000005F
:1055DC0000000000604B8000D6A2B7000000000065
:1055EC00604B80004800DE00D6A2B700000000002F
:1055FC0000000000704B8000D6A2B7000000000035
:10560C00704B80004800DE00D6A2B70000000000FE
:10561C0000000000804B8000D6A2B7000000000004
:10562C00804B80004800DE00D6A2B70000000000CE
:10563C0000000000904B8000D6A2B70000000000D4
:10564C00904B80004800DE00D6A2B700000000009E
:10565C00000000000000000000000000D622EF0057
:10566C001100200040802000108840000000000045
:04567C000000060024
:105954000000000000000000000000000000000043
:105964000000000000000000000000000000000033
:105974000000000000000000000000000000000023
:1059840000000000A04B8000D6A2B7000000000079
:10599400A04B80004800DE00D6A2B7000000000043
:1059A40000000000B04B8000D6A2B7000000000049
:1059B400B04B80004800DE00D6A2B7000000000013
:1059C40000000000C04B8000D6A2B7000000000019
:1059D400C04B80004800DE00D6A2B70000000000E3
:1059E40000000000D04B8000D6A2B70000000000E9
:1059F400D04B80004800DE00D6A2B70000000000B3
:105A040000000000E04B8000D6A2B70000000000B8
:105A1400E04B80004800DE00D6A2B7000000000082
:105A240000000000F04B8000D6A2B7000000000088
:105A3400F04B80004800DE00D6A2B7000000000052
:105A440000000000004C8000D6A2B7000000000057
:105A5400004C80004800DE00D6A2B7000000000021
:105A640000000000104C8000D6A2B7000000000027
:105A7400104C80004800DE00D6A2B70000000000F1
:105A840000000000204C8000D6A2B70000000000F7
:105A9400204C80004800DE00D6A2B70000000000C1
:105AA40000000000304C8000D6A2B70000000000C7
:105AB400304C80004800DE00D6A2B7000000000091
:105AC40000000000404C8000D6A2B7000000000097
:105AD400404C80004800DE00D6A2B7000000000061
:105AE40000000000504C8000D6A2B7000000000067
:105AF400504C80004800DE00D6A2B7000000000031
:105B040000000000604C8000D6A2B7000000000036
:105B1400604C80004800DE00D6A2B7000000000000
:105B240000000000704C8000D6A2B7000000000006
:105B3400704C80004800DE00D6A2B70000000000D0
:105B440000000000804C8000D6A2B70000000000D6
:105B5400804C80004800DE00D6A2B70000000000A0
:105B640000000000904C8000D6A2B70000000000A6
:105B7400904C80004800DE00D6A2B7000000000070
:105B840000000000A04C8000D6A2B7000000000076
:105B9400A04C80004800DE00D6A2B7000000000040
:105BA40000000000B04C8000D6A2B7000000000046
:105BB400B04C80004800DE00D6A2B7000000000010
:105BC40000000000C04C8000D6A2B7000000000016
:105BD400C04C80004800DE00D6A2B70000000000E0
:105BE40000000000D04C8000D6A2B70000000000E6
:105BF400D04C80004800DE00D6A2B70000000000B0
:105C0400000000000000000000000000D622EF00A9
:105C14001100200040802000108840000000000097
:045C24000000060076
:105EFC000000000000000000000000000000000096
:105F0C000000000000000000000000000000000085
:105F1C000000000000000000000000000000000075
:105F2C0000000000E04C8000D6A2B700000000008A
:105F3C00E04C80004800DE00D6A2B7000000000054
:105F4C0000000000F04C8000D6A2B700000000005A
:105F5C00F04C80004800DE00D6A2B7000000000024
:105F6C0000000000004D8000D6A2B7000000000029
:105F7C00004D80004800DE00D6A2B70000000000F3
:105F8C0000000000104D8000D6A2B70000000000F9
:105F9C00104D80004800DE00D6A2B70000000000C3
:105FAC0000000000204D8000D6A2B70000000000C9
:105FBC00204D80004800DE00D6A2B7000000000093
:105FCC0000000000304D8000D6A2B7000000000099
:105FDC00304D80004800DE00D6A2B7000000000063
:105FEC0000000000404D8000D6A2B7000000000069
:105FFC00404D80004800DE00D6A2B7000000000033
:10600C0000000000504D8000D6A2B7000000000038
:10601C00504D80004800DE00D6A2B7000000000002
:10602C0000000000604D8000D6A2B7000000000008
:10603C00604D80004800DE00D6A2B70000000000D2
:10604C0000000000704D8000D6A2B70000000000D8
:10605C00704D80004800DE00D6A2B70000000000A2
:10606C0000000000804D8000D6A2B70000000000A8
:10607C00804D80004800DE00D6A2B7000000000072
:10608C0000000000904D8000D6A2B7000000000078
:10609C00904D80004800DE00D6A2B7000000000042
:1060AC0000000000A04D8000D6A2B7000000000048
:1060BC00A04D80004800DE00D6A2B7000000000012
:1060CC0000000000B04D8000D6A2B7000000000018
:1060DC00B04D80004800DE00D6A2B70000000000E2
:1060EC0000000000C04D8000D6A2B70000000000E8
:1060FC00C04D80004800DE00D6A2B70000000000B2
:10610C0000000000D04D8000D6A2B70000000000B7
:10611C00D04D80004800DE00D6A2B7000000000081
:10612C0000000000E04D8000D6A2B7000000000087
:10613C00E04D80004800DE00D6A2B7000000000051
:10614C0000000000F04D8000D6A2B7000000000057
:10615C00F04D80004800DE00D6A2B7000000000021
:10616C0000000000004E8000D6A2B7000000000026
:10617C00004E80004800DE00D6A2B70000000000F0
:10618C0000000000104E8000D6A2B70000000000F6
:10619C00104E80004800DE00D6A2B70000000000C0
:1061AC00000000000000000000000000D622EF00FC
:1061BC0011002000408020001088400000000000EA
:0461CC0000000600C9
:105C2800000000000000000000000000000000006C
:105C3800000000000000000000000000000000005C
:105C4800000000000000000000000000000000004C
:105C580000000000204E8000D6A2B700000000001F
:105C6800204E80004800DE00D6A2B70000000000E9
:105C780000000000304E8000D6A2B70000000000EF
:105C8800304E80004800DE00D6A2B70000000000B9
:105C980000000000404E8000D6A2B70000000000BF
:105CA800404E80004800DE00D6A2B7000000000089
:105CB80000000000504E8000D6A2B700000000008F
:105CC800504E80004800DE00D6A2B7000000000059
:105CD80000000000604E8000D6A2B700000000005F
:105CE800604E80004800DE00D6A2B7000000000029
:105CF80000000000704E8000D6A2B700000000002F
:105D0800704E80004800DE00D6A2B70000000000F8
:105D180000000000804E8000D6A2B70000000000FE
:105D2800804E80004800DE00D6A2B70000000000C8
:105D380000000000904E8000D6A2B70000000000CE
:105D4800904E80004800DE00D6A2B7000000000098
:105D580000000000A04E8000D6A2B700000000009E
:105D6800A04E80004800DE00D6A2B7000000000068
:105D780000000000B04E8000D6A2B700000000006E
:105D8800B04E80004800DE00D6A2B7000000000038
:105D980000000000C04E8000D6A2B700000000003E
:105DA800C04E80004800DE00D6A2B7000000000008
:105DB80000000000D04E8000D6A2B700000000000E
:105DC800D04E80004800DE00D6A2B70000000000D8
:105DD80000000000E04E8000D6A2B70000000000DE
:105DE800E04E80004800DE00D6A2B70000000000A8
:105DF80000000000F04E8000D6A2B70000000000AE
:105E0800F04E80004800DE00D6A2B7000000000077
:105E180000000000004F8000D6A2B700000000007C
:105E2800004F80004800DE00D6A2B7000000000046
:105E380000000000104F8000D6A2B700000000004C
:105E4800104F80004800DE00D6A2B7000000000016
:105E580000000000204F8000D6A2B700000000001C
:105E6800204F80004800DE00D6A2B70000000000E6
:105E780000000000304F8000D6A2B70000000000EC
:105E8800304F80004800DE00D6A2B70000000000B6
:105E980000000000404F8000D6A2B70000000000BC
:105EA800404F80004800DE00D6A2B7000000000086
:105EB80000000000504F8000D6A2B700000000008C
:105EC800504F80004800DE00D6A2B7000000000056
:105ED800000000000000000000000000D622EF00D3
:105EE80011002000408020001088400000000000C1
:045EF80000000600A0
:103D2C000000000000000000000000000000000087
:103D3C000000000000000000000000000000000077
:103D4C000000000000000000000000000000000067
:103D5C0000000000604F8000D6A2B70000000000F9
:103D6C00604F80004800DE00D6A2B70000000000C3
:103D7C0000000000704F8000D6A2B70000000000C9
:103D8C00704F80004800DE00D6A2B7000000000093
:103D9C0000000000804F8000D6A2B7000000000099
:103DAC00804F80004800DE00D6A2B7000000000063
:103DBC0000000000904F8000D6A2B7000000000069
:103DCC00904F80004800DE00D6A2B7000000000033
:103DDC0000000000A04F8000D6A2B7000000000039
:103DEC00A04F80004800DE00D6A2B7000000000003
:103DFC0000000000B04F8000D6A2B7000000000009
:103E0C00B04F80004800DE00D6A2B70000000000D2
:103E1C0000000000C04F8000D6A2B70000000000D8
:103E2C00C04F80004800DE00D6A2B70000000000A2
:103E3C0000000000D04F8000D6A2B70000000000A8
:103E4C00D04F80004800DE00D6A2B7000000000072
:103E5C0000000000E04F8000D6A2B7000000000078
:103E6C00E04F80004800DE00D6A2B7000000000042
:103E7C0000000000F04F8000D6A2B7000000000048
:103E8C00F04F80004800DE00D6A2B7000000000012
:103E9C000000000000508000D6A2B7000000000017
:103EAC00005080004800DE00D6A2B70000000000E1
:103EBC000000000010508000D6A2B70000000000E7
:103ECC00105080004800DE00D6A2B70000000000B1
:103EDC000000000020508000D6A2B70000000000B7
:103EEC00205080004800DE00D6A2B7000000000081
:103EFC000000000030508000D6A2B7000000000087
:103F0C00305080004800DE00D6A2B7000000000050
:103F1C000000000040508000D6A2B7000000000056
:103F2C00405080004800DE00D6A2B7000000000020
:103F3C000000000050508000D6A2B7000000000026
:103F4C00505080004800DE00D6A2B70000000000F0
:103F5C000000000060508000D6A2B70000000000F6
:103F6C00605080004800DE00D6A2B70000000000C0
:103F7C000000000070508000D6A2B70000000000C6
:103F8C00705080004800DE00D6A2B7000000000090
:103F9C000000000080508000D6A2B7000000000096
:103FAC00805080004800DE00D6A2B7000000000060
:103FBC000000000090508000D6A2B7000000000066
:103FCC00905080004800DE00D6A2B7000000000030
:103FDC00000000000000000000000000D622EF00EE
:103FEC0011002000408020001088400000000000DC
:043FFC0000000600BB
:1013D000000000000000000000000000000000000D
:1013E00000000000000000000000000000000000FD
:1013F00000000000000000000000000000000000ED
:1014000000000000A0508000D6A2B700000000003D
:10141000A05080004800DE00D6A2B7000000000007
:1014200000000000B0508000D6A2B700000000000D
:10143000B05080004800DE00D6A2B70000000000D7
:1014400000000000C0508000D6A2B70000000000DD
:10145000C05080004800DE00D6A2B70000000000A7
:1014600000000000D0508000D6A2B70000000000AD
:10147000D05080004800DE00D6A2B7000000000077
:1014800000000000E0508000D6A2B700000000007D
:10149000E05080004800DE00D6A2B7000000000047
:1014A00000000000F0508000D6A2B700000000004D
:1014B000F05080004800DE00D6A2B7000000000017
:1014C0000000000000518000D6A2B700000000001C
:1014D000005180004800DE00D6A2B70000000000E6
:1014E0000000000010518000D6A2B70000000000EC
:1014F000105180004800DE00D6A2B70000000000B6
:101500000000000020518000D6A2B70000000000BB
:10151000205180004800DE00D6A2B7000000000085
:101520000000000030518000D6A2B700000000008B
:10153000305180004800DE00D6A2B7000000000055
:101540000000000040518000D6A2B700000000005B
:10155000405180004800DE00D6A2B7000000000025
:101560000000000050518000D6A2B700000000002B
:10157000505180004800DE00D6A2B70000000000F5
:101580000000000060518000D6A2B70000000000FB
:10159000605180004800DE00D6A2B70000000000C5
:1015A0000000000070518000D6A2B70000000000CB
:1015B000705180004800DE00D6A2B7000000000095
:1015C0000000000080518000D6A2B700000000009B
:1015D000805180004800DE00D6A2B7000000000065
:1015E0000000000090518000D6A2B700000000006B
:1015F000905180004800DE00D6A2B7000000000035
:1016000000000000A0518000D6A2B700000000003A
:10161000A05180004800DE00D6A2B7000000000004
:1016200000000000B0518000D6A2B700000000000A
:10163000B05180004800DE00D6A2B70000000000D4
:1016400000000000C0518000D6A2B70000000000DA
:10165000C05180004800DE00D6A2B70000000000A4
:1016600000000000D0518000D6A2B70000000000AA
:10167000D05180004800DE00D6A2B7000000000074
:10168000000000000000000000000000D622EF0073
:101690001100200040802000108840000000000061
