:100000007E05040000000000000000000000000069
:1000100000000000000000000000000000000000E0
:1000200000000000000000000000000000000000D0
:1000300000000000000000000000000000000000C0
:1000400000000000000000000000000000000000B0
:1000500000000000000000000000000000000000A0
:100060000000000000000000000000000000000090
:100070000000000000000000000000000000000080
:100080000000000000000000000000000000000070
:100090000000000000000000000000000000000060
:1000A0000000000000000000000000000000000050
:1000B0000000000000000000000000000000000040
:1000C0000000000000000000000000000000000030
:1000D0000000000000000000000000000000000020
:1000E0000000000000000000000000000000000010
:1000F0000000000000000000000000000000000000
:1001000000000000000000000000000000000000EF
:1001100000000000000000000000000000000000DF
:1001200000000000000000000000000000000000CF
:1001300000000000000000000000000000000000BF
:1001400000000000000000000000000000000000AF
:10015000000000000000000000000000000000009F
:10016000000000000000000000000000000000008F
:10017000000000000000000000000000000000007F
:10018000000000000000000000000000000000006F
:10019000000000000000000000000000000000005F
:1001A000000000000000000000000000000000004F
:1001B000000000000000000000000000000000003F
:1001C000000000000000000000000000000000002F
:1001D000000000000000000000000000000000001F
:1001E000000000000000000000000000000000000F
:1001F00000000000000000000000000000000000FF
:100AFC002F802000F0FF200020A0B7000000200075
:100B0C0034A0B700400020004420B7004019020078
:100B1C00000000004A19020000000000D6FF070088
:100B2C00DC42A900DC22A900DDFF0700DC22A800C2
:100B3C00B0FD0700DC22A900D9FF0700DC22A800C9
:100B4C00ACFD0700DC22A900D5FF0700DC22A800C1
:100B5C00A8FD0700DC22A900D1FF0700DC22A800B9
:100B6C00A4FD0700DC42A800DC22A900CCFF070092
:100B7C00DC22A8009FFD0700DC22A900C8FF0700AB
:100B8C00DC22A8009BFD0700DC22A900C4FF0700A3
:100B9C00DC22A80097FD0700DC22A900C0FF07009B
:100BAC00DC22A80093FD0700DC22A900BCFF070093
:100BBC00DC22A8008FFD0700DC22A900B8FF07008B
:100BCC00DC22A8008BFD0700DC22A900B4FF070083
:100BDC00DC22A80087FD0700DC22A900B0FF07007B
:100BEC00DC22A80083FD0700DC22A900ACFF070073
:100BFC00DC22A8007FFD0700DC22A900A8FF07006B
:100C0C00DC22A8007BFD0700DC22A900A4FF070062
:100C1C00DC22A80077FD0700DC22A900A0FF07005A
:100C2C00DC22A80073FD0700DC22A9009CFF070052
:100C3C00DC22A8006FFD0700DC22A90098FF07004A
:100C4C00DC22A8006BFD0700DC22A90094FF070042
:100C5C00DC22A80067FD0700DC22A90090FF07003A
:100C6C00DC22A80063FD0700DC22A9008CFF070032
:100C7C00DC22A8005FFD0700DC22A90088FF07002A
:100C8C00DC22A8005BFD0700DC22A90084FF070022
:100C9C00DC22A80057FD0700DC22A90080FF07001A
:100CAC00DC22A80053FD0700DC22A9007CFF070012
:100CBC00DC22A8004FFD0700DC22A90078FF07000A
:100CCC00DC22A8004BFD0700DC22A90074FF070002
:100CDC00DC22A80047FD0700DC22A90070FF0700FA
:100CEC00DC22A800F9FD0700DC22A9006CFF07003C
:100CFC00DC22A800F5FD0700DC22A90068FF070034
:100D0C00DC22A800F1FD0700DC22A90064FF07002B
:100D1C00DC22A800EDFD0700DC22A90060FF070023
:100D2C00DC22A800E9FD0700DC22A9005CFF07001B
:100D3C00DC22A800E5FD0700DC22A90058FF070013
:100D4C00DC22A800E1FD0700DC22A90054FF07000B
:100D5C00DC22A800DDFD0700DC22A90050FF070003
:100D6C00DC22A800D9FD0700DC22A9004CFF0700FB
:100D7C00DC22A800D5FD0700DC22A90048FF0700F3
:100D8C00DC22A800D1FD0700DC22A90044FF0700EB
:100D9C00DC22A800CDFD0700DC22A90040FF0700E3
:100DAC00DC22A800C9FD0700DC22A9003CFF0700DB
:100DBC00DC22A800C5FD0700DC22A90038FF0700D3
:100DCC00DC22A800C1FD0700DC22A90034FF0700CB
:100DDC00DC22A800BDFD0700DC22A90030FF0700C3
:100DEC00DC22A800B9FD0700DC22A9002CFF0700BB
:100DFC00DC22A800B5FD0700DC22A90028FF0700B3
:100E0C00DC22A800B1FD0700DC22A90024FF0700AA
:100E1C00DC22A800ADFD0700DC22A90020FF0700A2
:100E2C00DC22A800A9FD0700DC22A9001CFF07009A
:100E3C00DC22A800A5FD0700DC22A90018FF070092
:100E4C00DC22A800A1FD0700DC22A90014FF07008A
:100E5C00DC22A8009DFD0700DC22A90010FF070082
:100E6C00DC22A80099FD0700DC22A9000CFF07007A
:100E7C00DC22A80095FD0700DC22A90008FF070072
:100E8C00DC22A80091FD0700DC22A90004FF07006A
:100E9C00DC22A8008DFD0700DC22A90000FF070062
:100EAC00DC22A80089FD0700DC22A900FCFE07005B
:100EBC00DC22A80085FD0700DC22A900F8FE070053
:100ECC00DC22A80081FD0700DC22A900F4FE07004B
:100EDC00DC22A8007DFD0700DC22A900F0FE070043
:100EEC00DC22A80079FD0700DC22A900ECFE07003B
:100EFC00DC22A80075FD0700DC22A900E8FE070033
:100F0C00DC22A80071FD0700DC22A900E4FE07002A
:100F1C00DC22A8006DFD0700DC22A900E0FE070022
:100F2C00DC22A80069FD0700DC22A900DCFE07001A
:100F3C00DC22A80065FD0700DC22A900D8FE070012
:100F4C00DC22A80061FD0700DC22A900D4FE07000A
:100F5C00DC22A8005DFD0700DC22A900D0FE070002
:100F6C00DC22A80059FD0700DC22A900CCFE0700FA
:100F7C00DC22A80055FD0700DC22A900C8FE0700F2
:100F8C00DC22A80051FD0700DC22A900C4FE0700EA
:100F9C00DC22A8004DFD0700DC22A900C0FE0700E2
:100FAC00DC22A80049FD0700DC22A900BCFE0700DA
:100FBC00DC22A80045FD0700DC22A900B8FE0700D2
:100FCC00DC22A80041FD0700DC22A900B4FE0700CA
:100FDC00DC22A8003DFD0700DC22A900B0FE0700C2
:100FEC00DC22A80039FD0700DC22A900ACFE0700BA
:100FFC00DC22A80035FD0700DC22A900A8FE0700B2
:10100C00DC22A80031FD0700DC22A900A4FE0700A9
:10101C00DC22A8002DFD0700DC22A900A0FE0700A1
:10102C00DC22A80029FD0700DC22A9009CFE070099
:10103C00DC22A80025FD0700DC22A90098FE070091
:10104C00DC22A80021FD0700DC22A90094FE070089
:10105C00DC22A8001DFD0700DC22A90090FE070081
:10106C00DC22A80019FD0700DC22A9008CFE070079
:10107C00DC22A80015FD0700DC22A90088FE070071
:10108C00DC22A80011FD0700DC22A90084FE070069
:10109C00DC22A8000DFD0700DC22A90080FE070061
:1010AC00DC22A80009FD0700DC22A9007CFE070059
:1010BC00DC22A80005FD0700DC22A90078FE070051
:1010CC00DC22A80001FD0700DC22A90074FE070049
:1010DC00DC22A800FDFC0700DC22A90070FE070042
:1010EC00DC22A800F9FC0700DC22A9006CFE07003A
:1010FC00DC22A800F5FC0700DC22A90068FE070032
:10110C00DC22A800F1FC0700DC22A90064FE070029
:10111C00DC22A800EDFC0700DC22A90060FE070021
:10112C00DC22A800E9FC0700DC22A9005CFE070019
:10113C00DC22A800E5FC0700DC22A90058FE070011
:10114C00DC22A800E1FC0700DC22A90054FE070009
:10115C00DC22A800DDFC0700DC22A90050FE070001
:10116C00DC22A800D9FC0700DC22A9004CFE0700F9
:10117C00DC22A800D5FC0700DC22A90048FE0700F1
:10118C00DC22A800D1FC0700DC22A90044FE0700E9
:10119C00DC22A800CDFC0700DC22A90040FE0700E1
:1011AC00DC22A800C9FC0700DC22A9003CFE0700D9
:1011BC00DC22A800C5FC0700DC22A90038FE0700D1
:1011CC00DC22A800C1FC0700DC22A90034FE0700C9
:1011DC00DC22A800BDFC0700DC22A90030FE0700C1
:1011EC00DC22A800B9FC0700DC22A9002CFE0700B9
:1011FC00DC22A800B5FC0700DC22A90028FE0700B1
:10120C00DC22A800B1FC0700DC22A90024FE0700A8
:10121C00DC22A800ADFC0700DC22A90020FE0700A0
:10122C00DC22A800A9FC0700DC22A9001CFE070098
:10123C00DC22A800A5FC0700DC22A90018FE070090
:10124C00DC22A800A1FC0700DC22A90014FE070088
:10125C00DC22A8009DFC0700DC22A90010FE070080
:10126C00DC22A80099FC0700DC22A9000CFE070078
:10127C00DC22A80095FC0700DC22A90008FE070070
:10128C00DC22A80091FC0700DC22A90004FE070068
:10129C00DC22A8008DFC0700DC22A90000FE070060
:1012AC00DC22A80089FC0700DC22A900FCFD070059
:1012BC00DC22A80085FC0700DC22A900F8FD070051
:1012CC00DC22A80081FC0700DC22A900F4FD070049
:1012DC00DC22A8007DFC0700DC22A900F0FD070041
:1012EC00DC22A80079FC0700DC22A900ECFD070039
:1012FC00DC22A80075FC0700DC22A900E8FD070031
:10130C00DC22A80071FC0700DC22A900E4FD070028
:10131C00DC22A8006DFC0700DC22A900E0FD070020
:10132C00DC22A80069FC0700DC22A900DCFD070018
:10133C00DC22A80065FC0700DC22A900D8FD070010
:10134C00DC22A80061FC0700DC22A900D4FD070008
:10135C00DC22A8005DFC0700DC22A900D0FD070000
:10136C00DC22A80059FC0700DC22A900CCFD0700F8
:10137C00DC22A80055FC0700DC22A900C8FD0700F0
:10138C00DC22A80051FC0700DC22A900C4FD0700E8
:10139C00DC22A8004DFC0700DC22A900C0FD0700E0
:1013AC00DC22A80049FC0700DC22A900BCFD0700D8
:1013BC00DC22A80045FC0700DC22A900B8FD0700D0
:1013CC00DC22A80041FC0700DC22A900B4FD0700C8
:1013DC00DC22A8003DFC0700DC22A900B0FD0700C0
:1013EC00DC22A80039FC0700DC22A900ACFD0700B8
:1013FC00DC22A80035FC0700DC22A900A8FD0700B0
:10140C00DC22A80031FC0700DC22A900A4FD0700A7
:10141C00DC22A8002DFC0700DC22A900A0FD07009F
:10142C00DC22A80029FC0700DC22A9009CFD070097
:10143C00DC22A80025FC0700DC22A90098FD07008F
:10144C00DC22A80021FC0700DC22A90094FD070087
:10145C00DC22A8001DFC0700DC22A90090FD07007F
:10146C00DC22A80019FC0700DC22A9008CFD070077
:10147C00DC22A80015FC0700DC22A90088FD07006F
:10148C00DC22A80011FC0700DC22A90084FD070067
:10149C00DC22A8000DFC0700DC22A90080FD07005F
:1014AC00DC22A80009FC0700DC22A9007CFD070057
:1014BC00DC22A80005FC0700DC22A90078FD07004F
:1014CC00DC22A80001FC0700DC22A90074FD070047
:1014DC00DC22A800FDFB0700DC22A90070FD070040
:1014EC00DC22A800F9FB0700DC22A9006CFD070038
:1014FC00DC22A800F5FB0700DC22A90068FD070030
:10150C00DC22A800F1FB0700DC22A90064FD070027
:10151C00DC22A800EDFB0700DC22A90060FD07001F
:10152C00DC22A800E9FB0700DC22A9005CFD070017
:10153C00DC22A800E5FB0700DC22A90058FD07000F
:10154C00DC22A800E1FB0700DC22A90054FD070007
:10155C00DC22A800DDFB0700DC22A90050FD0700FF
:10156C00DC22A800D9FB0700DC22A9004CFD0700F7
:10157C00DC22A800D5FB0700DC22A90048FD0700EF
:10158C00DC22A800D1FB0700DC22A90044FD0700E7
:10159C00DC22A800CDFB0700DC22A90040FD0700DF
:1015AC00DC22A800C9FB0700DC22A9003CFD0700D7
:1015BC00DC22A800C5FB0700DC22A90038FD0700CF
:1015CC00DC22A800C1FB0700DC22A90034FD0700C7
:1015DC00DC22A800BDFB0700DC22A90030FD0700BF
:1015EC00DC22A800B9FB0700DC22A9002CFD0700B7
:1015FC00DC22A800B5FB0700DC22A90028FD0700AF
:10160C00DC22A800B1FB0700DC22A90024FD0700A6
:10161C00DC22A800ADFB0700DC22A90020FD07009E
:10162C00DC22A800A9FB0700DC22A9001CFD070096
:10163C00DC22A800A5FB0700DC22A90018FD07008E
:10164C00DC22A800A1FB0700DC22A90014FD070086
:10165C00DC22A8009DFB0700DC22A90010FD07007E
:10166C00DC22A80099FB0700DC22A9000CFD070076
:10167C00DC22A80095FB0700DC22A90008FD07006E
:10168C00DC22A80091FB0700DC22A90004FD070066
:10169C00DC22A8008DFB0700DC22A90000FD07005E
:1016AC00DC22A80089FB0700DC22A900FCFC070057
:1016BC00DC22A80085FB0700DC22A900F8FC07004F
:1016CC00DC22A80081FB0700DC22A900F4FC070047
:1016DC00DC22A8007DFB0700DC22A900F0FC07003F
:1016EC00DC22A80079FB0700DC22A900ECFC070037
:1016FC00DC22A80075FB0700DC22A900E8FC07002F
:10170C00DC22A80071FB0700DC22A900E4FC070026
:10171C00DC22A8006DFB0700DC22A900E0FC07001E
:10172C00DC22A80069FB0700DC22A900DCFC070016
:10173C00DC22A80065FB0700DC22A900D8FC07000E
:10174C00DC22A80061FB0700DC22A900D4FC070006
:10175C00DC22A8005DFB0700DC22A900D0FC0700FE
:10176C00DC22A80059FB0700DC22A900CCFC0700F6
:10177C00DC22A80055FB0700DC22A900C8FC0700EE
:10178C00DC22A80051FB0700DC22A900C4FC0700E6
:10179C00DC22A8004DFB0700DC22A900C0FC0700DE
:1017AC00DC22A80049FB0700DC22A900BCFC0700D6
:1017BC00DC22A80045FB0700DC22A900B8FC0700CE
:1017CC00DC22A80041FB0700DC22A900B4FC0700C6
:1017DC00DC22A8003DFB0700DC22A900B0FC0700BE
:1017EC00DC22A80039FB0700DC22A900ACFC0700B6
:1017FC00DC22A80035FB0700DC22A900A8FC0700AE
:10180C00DC22A80031FB0700DC22A900A4FC0700A5
:10181C00DC22A8002DFB0700DC22A900A0FC07009D
:10182C00DC22A80029FB0700DC22A9009CFC070095
:10183C00DC22A80025FB0700DC22A90098FC07008D
:10184C00DC22A80021FB0700DC22A90094FC070085
:10185C00DC22A8001DFB0700DC22A90090FC07007D
:10186C00DC22A80019FB0700DC22A9008CFC070075
:10187C00DC22A80015FB0700DC22A90088FC07006D
:10188C00DC22A80011FB0700DC22A90084FC070065
:10189C00DC22A8000DFB0700DC22A90080FC07005D
:1018AC00DC22A80009FB0700DC22A9007CFC070055
:1018BC00DC22A80005FB0700DC22A90078FC07004D
:1018CC00DC22A80001FB0700DC22A90074FC070045
:1018DC00DC22A800FDFA0700DC22A90070FC07003E
:1018EC00DC22A800F9FA0700DC22A9006CFC070036
:1018FC00DC22A800F5FA0700DC22A90068FC07002E
:10190C00DC22A800F1FA0700DC22A90064FC070025
:10191C00DC22A800EDFA0700DC22A90060FC07001D
:10192C00DC22A800E9FA0700DC22A9005CFC070015
:10193C00DC22A800E5FA0700DC22A90058FC07000D
:10194C00DC22A800E1FA0700DC22A90054FC070005
:10195C00DC22A800DDFA0700DC22A90050FC0700FD
:10196C00DC22A800D9FA0700DC22A9004CFC0700F5
:10197C00DC22A800D5FA0700DC22A90048FC0700ED
:10198C00DC22A800D1FA0700DC22A90044FC0700E5
:10199C00DC22A800CDFA0700DC22A90040FC0700DD
:1019AC00DC22A800C9FA0700DC22A9003CFC0700D5
:1019BC00DC22A800C5FA0700DC22A90038FC0700CD
:1019CC00DC22A800C1FA0700DC22A90034FC0700C5
:1019DC00DC22A800BDFA0700DC22A90030FC0700BD
:1019EC00DC22A800B9FA0700DC22A9002CFC0700B5
:1019FC00DC22A800B5FA0700DC22A90028FC0700AD
:101A0C00DC22A800B1FA0700DC22A90024FC0700A4
:101A1C00DC22A800ADFA0700DC22A90020FC07009C
:101A2C00DC22A800A9FA0700DC22A9001CFC070094
:101A3C00DC22A800A5FA0700DC22A90018FC07008C
:101A4C00DC22A800A1FA0700DC22A90014FC070084
:101A5C00DC22A8009DFA0700DC22A90010FC07007C
:101A6C00DC22A80099FA0700DC22A9000CFC070074
:101A7C00DC22A80095FA0700DC22A90008FC07006C
:101A8C00DC22A80091FA0700DC22A90004FC070064
:101A9C00DC22A8008DFA0700DC22A90000FC07005C
:101AAC00DC22A80089FA0700DC22A900FCFB070055
:101ABC00DC22A80085FA0700DC22A900F8FB07004D
:101ACC00DC22A80081FA0700DC22A900F4FB070045
:101ADC00DC22A8007DFA0700DC22A900F0FB07003D
:101AEC00DC22A80079FA0700DC22A900ECFB070035
:101AFC00DC22A80075FA0700DC22A900E8FB07002D
:101B0C00DC22A80071FA0700DC22A900E4FB070024
:101B1C00DC22A8006DFA0700DC22A900E0FB07001C
:101B2C00DC22A80069FA0700DC22A900DCFB070014
:101B3C00DC22A80065FA0700DC22A900D8FB07000C
:101B4C00DC22A80061FA0700DC22A900D4FB070004
:101B5C00DC22A8005DFA0700DC22A900D0FB0700FC
:101B6C00DC22A80059FA0700DC22A900CCFB0700F4
:101B7C00DC22A80055FA0700DC22A900C8FB0700EC
:101B8C00DC22A80051FA0700DC22A900C4FB0700E4
:101B9C00DC22A8004DFA0700DC22A900C0FB0700DC
:101BAC00DC22A80049FA0700DC22A900BCFB0700D4
:101BBC00DC22A80045FA0700DC22A900B8FB0700CC
:101BCC00DC22A80041FA0700DC22A900B4FB0700C4
:101BDC00DC22A8003DFA0700DC22A900B0FB0700BC
:101BEC00DC22A80039FA0700DC22A900ACFB0700B4
:101BFC00DC22A80035FA0700DC22A900A8FB0700AC
:101C0C00DC22A80031FA0700DC22A900A4FB0700A3
:101C1C00DC22A8002DFA0700DC22A900A0FB07009B
:101C2C00DC22A80029FA0700DC22A9009CFB070093
:101C3C00DC22A80025FA0700DC22A90098FB07008B
:101C4C00DC22A80021FA0700DC22A90094FB070083
:101C5C00DC22A8001DFA0700DC22A90090FB07007B
:101C6C00DC22A80019FA0700DC22A9008CFB070073
:101C7C00DC22A80015FA0700DC22A90088FB07006B
:101C8C00DC22A80011FA0700DC22A90084FB070063
:101C9C00DC22A8000DFA0700DC22A90080FB07005B
:101CAC00DC22A80009FA0700DC22A9007CFB070053
:101CBC00DC22A80005FA0700DC22A90078FB07004B
:101CCC00DC22A80001FA0700DC22A90074FB070043
:101CDC00DC22A800FDF90700DC22A90070FB07003C
:101CEC00DC22A800F9F90700DC22A9006CFB070034
:101CFC00DC22A800F5F90700DC22A90068FB07002C
:101D0C00DC22A800F1F90700DC22A90064FB070023
:101D1C00DC22A800EDF90700DC22A90060FB07001B
:101D2C00DC22A800E9F90700DC22A9005CFB070013
:101D3C00DC22A800E5F90700DC22A90058FB07000B
:101D4C00DC22A800E1F90700DC22A90054FB070003
:101D5C00DC22A800DDF90700DC22A90050FB0700FB
:101D6C00DC22A800D9F90700DC22A9004CFB0700F3
:101D7C00DC22A800D5F90700DC22A90048FB0700EB
:101D8C00DC22A800D1F90700DC22A90044FB0700E3
:101D9C00DC22A800CDF90700DC22A90040FB0700DB
:101DAC00DC22A800C9F90700DC22A9003CFB0700D3
:101DBC00DC22A800C5F90700DC22A90038FB0700CB
:101DCC00DC22A800C1F90700DC22A90034FB0700C3
:101DDC00DC22A800BDF90700DC22A90030FB0700BB
:101DEC00DC22A800B9F90700DC22A9002CFB0700B3
:101DFC00DC22A800B5F90700DC22A90028FB0700AB
:101E0C00DC22A800B1F90700DC22A90024FB0700A2
:101E1C00DC22A800ADF90700DC22A90020FB07009A
:101E2C00DC22A800A9F90700DC22A9001CFB070092
:101E3C00DC22A800A5F90700DC22A90018FB07008A
:101E4C00DC22A800A1F90700DC22A90014FB070082
:101E5C00DC22A8009DF90700DC22A90010FB07007A
:101E6C00DC22A80099F90700DC22A9000CFB070072
:101E7C00DC22A80095F90700DC22A90008FB07006A
:101E8C00DC22A80091F90700DC22A90004FB070062
:101E9C00DC22A8008DF90700DC22A90000FB07005A
:101EAC00DC22A80089F90700DC22A900FCFA070053
:101EBC00DC22A80085F90700DC22A900F8FA07004B
:101ECC00DC22A80081F90700DC22A900F4FA070043
:101EDC00DC22A8007DF90700DC22A900F0FA07003B
:101EEC00DC22A80079F90700DC22A900ECFA070033
:101EFC00DC22A80075F90700DC22A900E8FA07002B
:101F0C00DC22A80071F90700DC22A900E4FA070022
:101F1C00DC22A8006DF90700DC22A900E0FA07001A
:101F2C00DC22A80069F90700DC22A900DCFA070012
:101F3C00DC22A80065F90700DC22A900D8FA07000A
:101F4C00DC22A80061F90700DC22A900D4FA070002
:101F5C00DC22A8005DF90700DC22A900D0FA0700FA
:101F6C00DC22A80059F90700DC22A900CCFA0700F2
:101F7C00DC22A80055F90700DC22A900C8FA0700EA
:101F8C00DC22A80051F90700DC22A900C4FA0700E2
:101F9C00DC22A8004DF90700DC22A900C0FA0700DA
:101FAC00DC22A80049F90700DC22A900BCFA0700D2
:101FBC00DC22A80045F90700DC22A900B8FA0700CA
:101FCC00DC22A80041F90700DC22A900B4FA0700C2
:101FDC00DC22A8003DF90700DC22A900B0FA0700BA
:101FEC00DC22A80039F90700DC22A900ACFA0700B2
:101FFC00DC22A80035F90700DC22A900A8FA0700AA
:10200C00DC22A80031F90700DC22A900A4FA0700A1
:10201C00DC22A8002DF90700DC22A900A0FA070099
:10202C00DC22A80029F90700DC22A9009CFA070091
:10203C00DC22A80025F90700DC22A90098FA070089
:10204C00DC22A80021F90700DC22A90094FA070081
:10205C00DC22A8001DF90700DC22A90090FA070079
:10206C00DC22A80019F90700DC22A9008CFA070071
:10207C00DC22A80015F90700DC22A90088FA070069
:10208C00DC22A80011F90700DC22A90084FA070061
:10209C00DC22A8000DF90700DC22A90080FA070059
:1020AC00DC22A80009F90700DC22A9007CFA070051
:1020BC00DC22A80005F90700DC22A90078FA070049
:1020CC00DC22A80001F90700DC22A90074FA070041
:1020DC00DC22A800FDF80700DC22A90070FA07003A
:1020EC00DC22A800F9F80700DC22A9006CFA070032
:1020FC00DC22A800F5F80700DC22A90068FA07002A
:10210C00DC22A800F1F80700DC22A90064FA070021
:10211C00DC22A800EDF80700DC22A90060FA070019
:10212C00DC22A800E9F80700DC22A9005CFA070011
:10213C00DC22A800E5F80700DC22A90058FA070009
:10214C00DC22A800E1F80700DC22A90054FA070001
:10215C00DC22A800DDF80700DC22A90050FA0700F9
:10216C00DC22A800D9F80700DC22A9004CFA0700F1
:10217C00DC22A800D5F80700DC22A90048FA0700E9
:10218C00DC22A800D1F80700DC22A90044FA0700E1
:10219C00DC22A800CDF80700DC22A90040FA0700D9
:1021AC00DC22A800C9F80700DC22A9003CFA0700D1
:1021BC00DC22A800C5F80700DC22A90038FA0700C9
:1021CC00DC22A800C1F80700DC22A90034FA0700C1
:1021DC00DC22A800BDF80700DC22A90030FA0700B9
:1021EC00DC22A800B9F80700DC22A9002CFA0700B1
:1021FC00DC22A800B5F80700DC22A90028FA0700A9
:10220C00DC22A800B1F80700DC22A90024FA0700A0
:10221C00DC22A800ADF80700DC22A90020FA070098
:10222C00DC22A800A9F80700DC22A9001CFA070090
:10223C00DC22A800A5F80700DC22A90018FA070088
:10224C00DC22A800A1F80700DC22A90014FA070080
:10225C00DC22A8009DF80700DC22A90010FA070078
:10226C00DC22A80099F80700DC22A9000CFA070070
:10227C00DC22A80095F80700DC22A90008FA070068
:10228C00DC22A80091F80700DC22A90004FA070060
:10229C00DC22A8008DF80700DC22A90000FA070058
:1022AC00DC22A80089F80700DC22A900FCF9070051
:1022BC00DC22A80085F80700DC22A900F8F9070049
:1022CC00DC22A80081F80700DC22A900F4F9070041
:1022DC00DC22A8007DF80700DC22A900F0F9070039
:1022EC00DC22A80079F80700DC22A900ECF9070031
:1022FC00DC22A80075F80700DC22A900E8F9070029
:10230C00DC22A80071F80700DC22A900E4F9070020
:10231C00DC22A8006DF80700DC22A900E0F9070018
:10232C00DC22A80069F80700DC22A900DCF9070010
:10233C00DC22A80065F80700DC22A900D8F9070008
:10234C00DC22A80061F80700DC22A900D4F9070000
:10235C00DC22A8005DF80700DC22A900D0F90700F8
:10236C00DC22A80059F80700DC22A900CCF90700F0
:10237C00DC22A80055F80700DC22A900C8F90700E8
:10238C00DC22A80051F80700DC22A900C4F90700E0
:10239C00DC22A8004DF80700DC22A900C0F90700D8
:1023AC00DC22A80049F80700DC22A900BCF90700D0
:1023BC00DC22A80045F80700DC22A900B8F90700C8
:1023CC00DC22A80041F80700DC22A900B4F90700C0
:1023DC00DC22A8003DF80700DC22A900B0F90700B8
:1023EC00DC22A80039F80700DC22A900ACF90700B0
:1023FC00DC22A80035F80700DC22A900A8F90700A8
:10240C00DC22A80031F80700DC22A900A4F907009F
:10241C00DC22A8002DF80700DC22A900A0F9070097
:10242C00DC22A80029F80700DC22A9009CF907008F
:10243C00DC22A80025F80700DC22A90098F9070087
:10244C00DC22A80021F80700DC22A90094F907007F
:10245C00DC22A8001DF80700DC22A90090F9070077
:10246C00DC22A80019F80700DC22A9008CF907006F
:10247C00DC22A80015F80700DC22A90088F9070067
:10248C00DC22A80011F80700DC22A90084F907005F
:10249C00DC22A8000DF80700DC22A90080F9070057
:1024AC00DC22A80009F80700DC22A9007CF907004F
:1024BC00DC22A80005F80700DC22A90078F9070047
:1024CC00DC22A80001F80700DC22A90074F907003F
:1024DC00DC22A800FDF70700DC22A90070F9070038
:1024EC00DC22A800F9F70700DC22A9006CF9070030
:1024FC00DC22A800F5F70700DC22A90068F9070028
:10250C00DC22A800F1F70700DC22A90064F907001F
:10251C00DC22A800EDF70700DC22A90060F9070017
:10252C00DC22A800E9F70700DC22A9005CF907000F
:10253C00DC22A800E5F70700DC22A90058F9070007
:10254C00DC22A800E1F70700DC22A90054F90700FF
:10255C00DC22A800DDF70700DC22A90050F90700F7
:10256C00DC22A800D9F70700DC22A9004CF90700EF
:10257C00DC22A800D5F70700DC22A90048F90700E7
:10258C00DC22A800D1F70700DC22A90044F90700DF
:10259C00DC22A800CDF70700DC22A90040F90700D7
:1025AC00DC22A800C9F70700DC22A9003CF90700CF
:1025BC00DC22A800C5F70700DC22A90038F90700C7
:1025CC00DC22A800C1F70700DC22A90034F90700BF
:1025DC00DC22A800BDF70700DC22A90030F90700B7
:1025EC00DC22A800B9F70700DC22A9002CF90700AF
:1025FC00DC22A800B5F70700DC22A90028F90700A7
:10260C00DC22A800B1F70700DC22A90024F907009E
:10261C00DC22A800ADF70700DC22A90020F9070096
:10262C00DC22A800A9F70700DC22A9001CF907008E
:10263C00DC22A800A5F70700DC22A90018F9070086
:10264C00DC22A800A1F70700DC22A90014F907007E
:10265C00DC22A8009DF70700DC22A90010F9070076
:10266C00DC22A80099F70700DC22A9000CF907006E
:10267C00DC22A80095F70700DC22A90008F9070066
:10268C00DC22A80091F70700DC22A90004F907005E
:10269C00DC22A8008DF70700DC22A90000F9070056
:1026AC00DC22A80089F70700DC22A900FCF807004F
:1026BC00DC22A80085F70700DC22A900F8F8070047
:1026CC00DC22A80081F70700DC22A900F4F807003F
:1026DC00DC22A8007DF70700DC22A900F0F8070037
:1026EC00DC22A80079F70700DC22A900ECF807002F
:1026FC00DC22A80075F70700DC22A900E8F8070027
:10270C00DC22A80071F70700DC22A900E4F807001E
:10271C00DC22A8006DF70700DC22A900E0F8070016
:10272C00DC22A80069F70700DC22A900DCF807000E
:10273C00DC22A80065F70700DC22A900D8F8070006
:10274C00DC22A80061F70700DC22A900D4F80700FE
:10275C00DC22A8005DF70700DC22A900D0F80700F6
:10276C00DC22A80059F70700DC22A900CCF80700EE
:10277C00DC22A80055F70700DC22A900C8F80700E6
:10278C00DC22A80051F70700DC22A900C4F80700DE
:10279C00DC22A8004DF70700DC22A900C0F80700D6
:1027AC00DC22A80049F70700DC22A900BCF80700CE
:1027BC00DC22A80045F70700DC22A900B8F80700C6
:1027CC00DC22A80041F70700DC22A900B4F80700BE
:1027DC00DC22A8003DF70700DC22A900B0F80700B6
:1027EC00DC22A80039F70700DC22A900ACF80700AE
:1027FC00DC22A80035F70700DC22A900A8F80700A6
:10280C00DC22A80031F70700DC22A900A4F807009D
:10281C00DC22A8002DF70700DC22A900A0F8070095
:10282C00DC22A80029F70700DC22A9009CF807008D
:10283C00DC22A80025F70700DC22A90098F8070085
:10284C00DC22A80021F70700DC22A90094F807007D
:10285C00DC22A8001DF70700DC22A90090F8070075
:10286C00DC22A80019F70700DC22A9008CF807006D
:10287C00DC22A80015F70700DC22A90088F8070065
:10288C00DC22A80011F70700DC22A90084F807005D
:10289C00DC22A8000DF70700DC22A90080F8070055
:1028AC00DC22A80009F70700DC22A9007CF807004D
:1028BC00DC22A80005F70700DC22A90078F8070045
:1028CC00DC22A80001F70700DC22A90074F807003D
:1028DC00DC22A800FDF60700DC22A90070F8070036
:1028EC00DC22A800F9F60700DC22A9006CF807002E
:1028FC00DC22A800F5F60700DC22A90068F8070026
:10290C00DC22A800F1F60700DC22A90064F807001D
:10291C00DC22A800EDF60700DC22A90060F8070015
:10292C00DC22A800E9F60700DC22A9005CF807000D
:10293C00DC22A800E5F60700DC22A90058F8070005
:10294C00DC22A800E1F60700DC22A90054F80700FD
:10295C00DC22A800DDF60700DC22A90050F80700F5
:10296C00DC22A800D9F60700DC22A9004CF80700ED
:10297C00DC22A800D5F60700DC22A90048F80700E5
:10298C00DC22A800D1F60700DC22A90044F80700DD
:10299C00DC22A800CDF60700DC22A90040F80700D5
:1029AC00DC22A800C9F60700DC22A9003CF80700CD
:1029BC00DC22A800C5F60700DC22A90038F80700C5
:1029CC00DC22A800C1F60700DC22A90034F80700BD
:1029DC00DC22A800BDF60700DC22A90030F80700B5
:1029EC00DC22A800B9F60700DC22A9002CF80700AD
:1029FC00DC22A800B5F60700DC22A90028F80700A5
:102A0C00DC22A800B1F60700DC22A90024F807009C
:102A1C00DC22A800ADF60700DC22A90020F8070094
:102A2C00DC22A800A9F60700DC22A9001CF807008C
:102A3C00DC22A800A5F60700DC22A90018F8070084
:102A4C00DC22A800A1F60700DC22A90014F807007C
:102A5C00DC22A8009DF60700DC22A90010F8070074
:102A6C00DC22A80099F60700DC22A9000CF807006C
:102A7C00DC22A80095F60700DC22A90008F8070064
:102A8C00DC22A80091F60700DC22A90004F807005C
:102A9C00DC22A8008DF60700DC22A90000F8070054
:102AAC00DC22A80089F60700DC22A900FCF707004D
:102ABC00DC22A80085F60700DC22A900F8F7070045
:102ACC00DC22A80081F60700DC22A900F4F707003D
:102ADC00DC22A8007DF60700DC22A900F0F7070035
:102AEC00DC22A80079F60700DC22A900ECF707002D
:102AFC00DC22A80075F60700DC22A900E8F7070025
:102B0C00DC22A80071F60700DC22A900E4F707001C
:102B1C00DC22A8006DF60700DC22A900E0F7070014
:102B2C00DC22A80069F60700DC22A900DCF707000C
:102B3C00DC22A80065F60700DC22A900D8F7070004
:102B4C00DC22A80061F60700DC22A900D4F70700FC
:102B5C00DC22A8005DF60700DC22A900D0F70700F4
:102B6C00DC22A80059F60700DC22A900CCF70700EC
:102B7C00DC22A80055F60700DC22A900C8F70700E4
:102B8C00DC22A80051F60700DC22A900C4F70700DC
:102B9C00DC22A8004DF60700DC22A900C0F70700D4
:102BAC00DC22A80049F60700DC22A900BCF70700CC
:102BBC00DC22A80045F60700DC22A900B8F70700C4
:102BCC00DC22A80041F60700DC22A900B4F70700BC
:102BDC00DC22A8003DF60700DC22A900B0F70700B4
:102BEC00DC22A80039F60700DC22A900ACF70700AC
:102BFC00DC22A80035F60700DC22A900A8F70700A4
:102C0C00DC22A80031F60700DC22A900A4F707009B
:102C1C00DC22A8002DF60700DC22A900A0F7070093
:102C2C00DC22A80029F60700DC22A9009CF707008B
:102C3C00DC22A80025F60700DC22A90098F7070083
:102C4C00DC22A80021F60700DC22A90094F707007B
:102C5C00DC22A8001DF60700DC22A90090F7070073
:102C6C00DC22A80019F60700DC22A9008CF707006B
:102C7C00DC22A80015F60700DC22A90088F7070063
:102C8C00DC22A80011F60700DC22A90084F707005B
:102C9C00DC22A8000DF60700DC22A90080F7070053
:102CAC00DC22A80009F60700DC22A9007CF707004B
:102CBC00DC22A80005F60700DC22A90078F7070043
:102CCC00DC22A80001F60700DC22A90074F707003B
:102CDC00DC22A800FDF50700DC22A90070F7070034
:102CEC00DC22A800F9F50700DC22A9006CF707002C
:102CFC00DC22A800F5F50700DC22A90068F7070024
:102D0C00DC22A800F1F50700DC22A90064F707001B
:102D1C00DC22A800EDF50700DC22A90060F7070013
:102D2C00DC22A800E9F50700DC22A9005CF707000B
:102D3C00DC22A800E5F50700DC22A90058F7070003
:102D4C00DC22A800E1F50700DC22A90054F70700FB
:102D5C00DC22A800DDF50700DC22A90050F70700F3
:102D6C00DC22A800D9F50700DC22A9004CF70700EB
:102D7C00DC22A800D5F50700DC22A90048F70700E3
:102D8C00DC22A800D1F50700DC22A90044F70700DB
:102D9C00DC22A800CDF50700DC22A90040F70700D3
:102DAC00DC22A800C9F50700DC22A9003CF70700CB
:102DBC00DC22A800C5F50700DC22A90038F70700C3
:102DCC00DC22A800C1F50700DC22A90034F70700BB
:102DDC00DC22A800BDF50700DC22A90030F70700B3
:102DEC00DC22A800B9F50700DC22A9002CF70700AB
:102DFC00DC22A800B5F50700DC22A90028F70700A3
:102E0C00DC22A800B1F50700DC22A90024F707009A
:102E1C00DC22A800ADF50700DC22A90020F7070092
:102E2C00DC22A800A9F50700DC22A9001CF707008A
:102E3C00DC22A800A5F50700DC22A90018F7070082
:102E4C00DC22A800A1F50700DC22A90014F707007A
:102E5C00DC22A8009DF50700DC22A90010F7070072
:102E6C00DC22A80099F50700DC22A9000CF707006A
:102E7C00DC22A80095F50700DC22A90008F7070062
:102E8C00DC22A80091F50700DC22A90004F707005A
:102E9C00DC22A8008DF50700DC22A90000F7070052
:102EAC00DC22A80089F50700DC22A900FCF607004B
:102EBC00DC22A80085F50700DC22A900F8F6070043
:102ECC00DC22A80081F50700DC22A900F4F607003B
:102EDC00DC22A8007DF50700DC22A900F0F6070033
:102EEC00DC22A80079F50700DC22A900ECF607002B
:102EFC00DC22A80075F50700DC22A900E8F6070023
:102F0C00DC22A80071F50700DC22A900E4F607001A
:102F1C00DC22A8006DF50700DC22A900E0F6070012
:102F2C00DC22A80069F50700DC22A900DCF607000A
:102F3C00DC22A80065F50700DC22A900D8F6070002
:102F4C00DC22A80061F50700DC22A900D4F60700FA
:102F5C00DC22A8005DF50700DC22A900D0F60700F2
:102F6C00DC22A80059F50700DC22A900CCF60700EA
:102F7C00DC22A80055F50700DC22A900C8F60700E2
:102F8C00DC22A80051F50700DC22A900C4F60700DA
:102F9C00DC22A8004DF50700DC22A900C0F60700D2
:102FAC00DC22A80049F50700DC22A900BCF60700CA
:102FBC00DC22A80045F50700DC22A900B8F60700C2
:102FCC00DC22A80041F50700DC22A900B4F60700BA
:102FDC00DC22A8003DF50700DC22A900B0F60700B2
:102FEC00DC22A80039F50700DC22A900ACF60700AA
:102FFC00DC22A80035F50700DC22A900A8F60700A2
:10300C00DC22A80031F50700DC22A900A4F6070099
:10301C00DC22A8002DF50700DC22A900A0F6070091
:10302C00DC22A80029F50700DC22A9009CF6070089
:10303C00DC22A80025F50700DC22A90098F6070081
:10304C00DC22A80021F50700DC22A90094F6070079
:10305C00DC22A8001DF50700DC22A90090F6070071
:10306C00DC22A80019F50700DC22A9008CF6070069
:10307C00DC22A80015F50700DC22A90088F6070061
:10308C00DC22A80011F50700DC22A90084F6070059
:10309C00DC22A8000DF50700DC22A90080F6070051
:1030AC00DC22A80009F50700DC22A9007CF6070049
:1030BC00DC22A80005F50700DC22A90078F6070041
:1030CC00DC22A80001F50700DC22A90074F6070039
:1030DC00DC22A800FDF40700DC22A90070F6070032
:1030EC00DC22A800F9F40700DC22A9006CF607002A
:1030FC00DC22A800F5F40700DC22A90068F6070022
:10310C00DC22A800F1F40700DC22A90064F6070019
:10311C00DC22A800EDF40700DC22A90060F6070011
:10312C00DC22A800E9F40700DC22A9005CF6070009
:10313C00DC22A800E5F40700DC22A90058F6070001
:10314C00DC22A800E1F40700DC22A90054F60700F9
:10315C00DC22A800DDF40700DC22A90050F60700F1
:10316C00DC22A800D9F40700DC22A9004CF60700E9
:10317C00DC22A800D5F40700DC22A90048F60700E1
:10318C00DC22A800D1F40700DC22A90044F60700D9
:10319C00DC22A800CDF40700DC22A90040F60700D1
:1031AC00DC22A800C9F40700DC22A9003CF60700C9
:1031BC00DC22A800C5F40700DC22A90038F60700C1
:1031CC00DC22A800C1F40700DC22A90034F60700B9
:1031DC00DC22A800BDF40700DC22A90030F60700B1
:1031EC00DC22A800B9F40700DC22A9002CF60700A9
:1031FC00DC22A800B5F40700DC22A90028F60700A1
:10320C00DC22A800B1F40700DC22A90024F6070098
:10321C00DC22A800ADF40700DC22A90020F6070090
:10322C00DC22A800A9F40700DC22A9001CF6070088
:10323C00DC22A800A5F40700DC22A90018F6070080
:10324C00DC22A800A1F40700DC22A90014F6070078
:10325C00DC22A8009DF40700DC22A90010F6070070
:10326C00DC22A80050F507002DF63700FFFF3700D1
:100A8400F0FF2F00A8A2B700C822EF00CE22EF008B
:100A9400D422EF00DA22EF00D822EF00D222EF00B6
:080AA400C622EF00000006006D
:100AAC00000000000000000000000000000000003A
:100ABC00000000000000000000000000000000002A
:100ACC00000000000000000000000000000000001A
:100ADC00000000000000000000000000000000000A
:100AEC0000000000000000000000000000000600F4
:1002000000000000000000000000000000000000EE
:1002100000000000000000000000000000000000DE
:1002200000000000000000000000000000000000CE
:1002300000000000000000000000000000000000BE
:1004B000000000000000000000000000D622EF0055
:1004C000000000000000000000000000000000002C
:0804D00000000000000006001E
:1004D80001408000802520000008E10003003A0068
:1004E8000020EF00004088000200370000000000F4
:1004F80000000000000000000000000000000000F4
:1005080000000000000000000000000000000000E3
:100518000000000010002000D6A2B7002000200034
:10052800D6A2B70010002000D6A2B70020002000F5
:10053800D6A2B70010002000D6A2B70020002000E5
:10054800D6A2B70010002000D6A2B70020002000D5
:10055800D6A2B70010002000D6A2B70020002000C5
:10056800D6A2B70010002000D6A2B70010002000C5
:10057800D6A2B70010002000D6A2B70010002000B5
:10058800D6A2B70010002000D6A2B70010002000A5
:10059800D6A2B70010002000D6A2B7001000200095
:1005A800D6A2B70010002000D6A2B7001000200085
:1005B800D6A2B70020002000D6A2B7002000200055
:1005C800D6A2B70020002000D6A2B7002000200045
:1005D800D6A2B70020002000D6A2B7002000200035
:1005E800D6A2B70020002000D6A2B7002000200025
:1005F800D6A2B70020002000D6A2B7002000200015
:10060800D6A2B70030002000D6A2B70030002000E4
:10061800D6A2B70030002000D6A2B70030002000D4
:10062800D6A2B70030002000D6A2B70030002000C4
:10063800D6A2B70030002000D6A2B70030002000B4
:10064800D6A2B70030002000D6A2B70030002000A4
:10065800D6A2B70040002000D6A2B7004000200074
:10066800D6A2B70040002000D6A2B7004000200064
:10067800D6A2B70040002000D6A2B7004000200054
:10068800D6A2B70040002000D6A2B7004000200044
:10069800D6A2B70040002000D6A2B7004000200034
:1006A800D6A2B70050002000D6A2B7005000200004
:1006B800D6A2B70050002000D6A2B70050002000F4
:1006C800D6A2B70050002000D6A2B70050002000E4
:1006D800D6A2B70050002000D6A2B70050002000D4
:1006E800D6A2B70050002000D6A2B70050002000C4
:1006F800D6A2B70060002000D6A2B7006000200094
:10070800D6A2B70060002000D6A2B7006000200083
:10071800D6A2B70060002000D6A2B7006000200073
:10072800D6A2B70060002000D6A2B7006000200063
:10073800D6A2B70060002000D6A2B7006000200053
:10074800D6A2B70070002000D6A2B7007000200023
:10075800D6A2B70070002000D6A2B7007000200013
:10076800D6A2B70070002000D6A2B7007000200003
:10077800D6A2B70070002000D6A2B70070002000F3
:10078800D6A2B70070002000D6A2B70070002000E3
:10079800D6A2B700D622EF0011002000008020006A
:0C07A80010884000000000000000060067
:1007B4000000000000000000000000000000000035
:1007C4000000000000000000000000000000000025
:1007D4000000000000000000000000000000000015
:1007E4000000000000000000000000000000000005
:100A6400000000000000000000000000D622EF009B
:100A7400000000000000000000000000000006006C
:103280000A8020000B002000000009000B1D7800C0
:043290000000060034
:1032940001802000E093290000000900B0187800A4
:0432A4000000060020
:04327C00000000004E
:0200000401F009
:1C000000058300003F000000B38700000F3100000F3300000700000003C0000097
:00000001FF
