:100000002E090400000000000000000000000000B5
:1000100000000000000000000000000000000000E0
:1000200000000000000000000000000000000000D0
:1000300000000000000000000000000000000000C0
:1000400000000000000000000000000000000000B0
:1000500000000000000000000000000000000000A0
:100060000000000000000000000000000000000090
:100070000000000000000000000000000000000080
:100080000000000000000000000000000000000070
:100090000000000000000000000000000000000060
:1000A0000000000000000000000000000000000050
:1000B0000000000000000000000000000000000040
:1000C0000000000000000000000000000000000030
:1000D0000000000000000000000000000000000020
:1000E0000000000000000000000000000000000010
:1000F0000000000000000000000000000000000000
:1001000000000000000000000000000000000000EF
:1001100000000000000000000000000000000000DF
:1001200000000000000000000000000000000000CF
:1001300000000000000000000000000000000000BF
:1001400000000000000000000000000000000000AF
:10015000000000000000000000000000000000009F
:10016000000000000000000000000000000000008F
:10017000000000000000000000000000000000007F
:10018000000000000000000000000000000000006F
:10019000000000000000000000000000000000005F
:1001A000000000000000000000000000000000004F
:1001B000000000000000000000000000000000003F
:1001C000000000000000000000000000000000002F
:1001D000000000000000000000000000000000001F
:1001E000000000000000000000000000000000000F
:1001F00000000000000000000000000000000000FF
:10125C000F802000F0FF200020A0B700000020002D
:10126C0034A0B700400020004420B700EBFE07007C
:10127C00DC22A800DC42A800D602A800F0FE070081
:10128C00EFFE0700EEFE0700EDFE0700ECFE070088
:10129C00EBFE0700EAFE0700E9FE0700E8FE070088
:1012AC00E7FE0700E6FE0700E5FE0700E4FE070088
:1012BC00E3FE0700E2FE0700E1FE0700E0FE070088
:1012CC00DFFE0700DEFE0700DDFE0700DCFE070088
:1012DC00DBFE0700DAFE0700D9FE0700D8FE070088
:1012EC00D7FE0700D6FE0700D5FE0700D4FE070088
:1012FC00D3FE0700D2FE0700D1FE0700D0FE070088
:10130C00CFFE0700CEFE0700CDFE0700CCFE070087
:10131C00CBFE0700CAFE0700C9FE0700C8FE070087
:10132C00C7FE0700C6FE0700C5FE0700C4FE070087
:10133C00C3FE0700C2FE0700C1FE0700C0FE070087
:10134C00BFFE0700BEFE0700BDFE0700BCFE070087
:10135C00BBFE0700BAFE0700B9FE0700B8FE070087
:10136C00B7FE0700B6FE0700B5FE0700B4FE070087
:10137C00B3FE0700B2FE0700B1FE0700B0FE070087
:10138C00AFFE0700AEFE0700ADFE0700ACFE070087
:10139C00ABFE0700AAFE0700A9FE0700A8FE070087
:1013AC00A7FE0700A6FE0700A5FE0700A4FE070087
:1013BC00A3FE0700A2FE0700A1FE0700A0FE070087
:1013CC009FFE07009EFE07009DFE07009CFE070087
:1013DC009BFE07009AFE070099FE070098FE070087
:1013EC0097FE070096FE070095FE070094FE070087
:1013FC0093FE070092FE070091FE070090FE070087
:10140C008FFE07008EFE07008DFE07008CFE070086
:10141C008BFE07008AFE070089FE070088FE070086
:10142C0087FE070086FE070085FE070084FE070086
:10143C0083FE070082FE070081FE070080FE070086
:10144C007FFE07007EFE07007DFE07007CFE070086
:10145C007BFE07007AFE070079FE070078FE070086
:10146C0077FE070076FE070075FE070074FE070086
:10147C0073FE070072FE070071FE070070FE070086
:10148C006FFE07006EFE07006DFE07006CFE070086
:10149C006BFE07006AFE070069FE070068FE070086
:1014AC0067FE070066FE070065FE070064FE070086
:1014BC0063FE070062FE070061FE070060FE070086
:1014CC005FFE07005EFE07005DFE07005CFE070086
:1014DC005BFE07005AFE070059FE070058FE070086
:1014EC0057FE070056FE070055FE070054FE070086
:1014FC0053FE070052FE070051FE070050FE070086
:10150C004FFE07004EFE07004DFE07004CFE070085
:10151C004BFE07004AFE070049FE070048FE070085
:10152C0047FE070046FE070045FE070044FE070085
:10153C0043FE070042FE070041FE070040FE070085
:10154C003FFE07003EFE07003DFE07003CFE070085
:10155C003BFE07003AFE070039FE070038FE070085
:10156C0037FE070036FE070035FE070034FE070085
:10157C0033FE070032FE070031FE070030FE070085
:10158C002FFE07002EFE07002DFE07002CFE070085
:10159C002BFE07002AFE070029FE070028FE070085
:1015AC0027FE070026FE070025FE070024FE070085
:1015BC0023FE070022FE070021FE070020FE070085
:1015CC001FFE07001EFE07001DFE07001CFE070085
:1015DC001BFE07001AFE070019FE070018FE070085
:1015EC0017FE070016FE070015FE070014FE070085
:1015FC0013FE070012FE070011FE070010FE070085
:10160C000FFE07000EFE07000DFE07000CFE070084
:10161C000BFE07000AFE070009FE070008FE070084
:10162C0007FE070006FE070005FE070004FE070084
:10163C0003FE070002FE070001FE070000FE070084
:10164C00FFFD0700FEFD0700FDFD0700FCFD070088
:10165C00FBFD0700FAFD0700F9FD0700F8FD070088
:10166C00F7FD0700F6FD0700F5FD0700F4FD070088
:10167C00F3FD0700F2FD0700F1FD0700F0FD070088
:10168C00EFFD0700EEFD0700EDFD0700ECFD070088
:10169C00EBFD0700EAFD0700E9FD0700E8FD070088
:1016AC00E7FD0700E6FD0700E5FD0700E4FD070088
:1016BC00E3FD0700E2FD0700E1FD0700E0FD070088
:1016CC00DFFD0700DEFD0700DDFD0700DCFD070088
:1016DC00DBFD0700DAFD0700D9FD0700D8FD070088
:1016EC00D7FD0700D6FD0700D5FD0700D4FD070088
:1016FC00D3FD0700D2FD0700D1FD0700D0FD070088
:10170C00CFFD0700CEFD0700CDFD0700CCFD070087
:10171C00CBFD0700CAFD0700C9FD0700C8FD070087
:10172C00C7FD0700C6FD0700C5FD0700C4FD070087
:10173C00C3FD0700C2FD0700C1FD0700C0FD070087
:10174C00BFFD0700BEFD0700BDFD0700BCFD070087
:10175C00BBFD0700BAFD0700B9FD0700B8FD070087
:10176C00B7FD0700B6FD0700B5FD0700B4FD070087
:10177C00B3FD0700B2FD0700B1FD0700B0FD070087
:10178C00AFFD0700AEFD0700ADFD0700ACFD070087
:10179C00ABFD0700AAFD0700A9FD0700A8FD070087
:1017AC00A7FD0700A6FD0700A5FD0700A4FD070087
:1017BC00A3FD0700A2FD0700A1FD0700A0FD070087
:1017CC009FFD07009EFD07009DFD07009CFD070087
:1017DC009BFD07009AFD070099FD070098FD070087
:1017EC0097FD070096FD070095FD070094FD070087
:1017FC0093FD070092FD070091FD070090FD070087
:10180C008FFD07008EFD07008DFD07008CFD070086
:10181C008BFD07008AFD070089FD070088FD070086
:10182C0087FD070086FD070085FD070084FD070086
:10183C0083FD070082FD070081FD070080FD070086
:10184C007FFD07007EFD07007DFD07007CFD070086
:10185C007BFD07007AFD070079FD070078FD070086
:10186C0077FD070076FD070075FD070074FD070086
:10187C0073FD070072FD070071FD070070FD070086
:10188C006FFD07006EFD07006DFD07006CFD070086
:10189C006BFD07006AFD070069FD070068FD070086
:1018AC0067FD070066FD070065FD070064FD070086
:1018BC0063FD070062FD070061FD070060FD070086
:1018CC005FFD07005EFD07005DFD07005CFD070086
:1018DC005BFD07005AFD070059FD070058FD070086
:1018EC0057FD070056FD070055FD070054FD070086
:1018FC0053FD070052FD070051FD070050FD070086
:10190C004FFD07004EFD07004DFD07004CFD070085
:10191C004BFD07004AFD070049FD070048FD070085
:10192C0047FD070046FD070045FD070044FD070085
:10193C0043FD070042FD070041FD070040FD070085
:10194C003FFD07003EFD07003DFD07003CFD070085
:10195C003BFD07003AFD070039FD070038FD070085
:10196C0037FD070036FD070035FD070034FD070085
:10197C0033FD070032FD070031FD070030FD070085
:10198C002FFD07002EFD07002DFD07002CFD070085
:10199C002BFD07002AFD070029FD070028FD070085
:1019AC0027FD070026FD070025FD070024FD070085
:1019BC0023FD070022FD070021FD070020FD070085
:1019CC001FFD07001EFD07001DFD07001CFD070085
:1019DC001BFD07001AFD070019FD070018FD070085
:1019EC0017FD070016FD070015FD070014FD070085
:1019FC0013FD070012FD070011FD070010FD070085
:101A0C000FFD07000EFD07000DFD07000CFD070084
:101A1C000BFD07000AFD070009FD070008FD070084
:101A2C0007FD070006FD070005FD070004FD070084
:101A3C0003FD070002FD070001FD070000FD070084
:101A4C00FFFC0700FEFC0700FDFC0700FCFC070088
:101A5C00FBFC0700FAFC0700F9FC0700F8FC070088
:101A6C00F7FC0700F6FC0700F5FC0700F4FC070088
:101A7C00F3FC0700F2FC0700F1FC0700F0FC070088
:101A8C00EFFC0700EEFC0700EDFC0700ECFC070088
:101A9C00EBFC0700EAFC0700E9FC0700E8FC070088
:101AAC00E7FC0700E6FC0700E5FC0700E4FC070088
:101ABC00E3FC0700E2FC0700E1FC0700E0FC070088
:101ACC00DFFC0700DEFC0700DDFC0700DCFC070088
:101ADC00DBFC0700DAFC0700D9FC0700D8FC070088
:101AEC00D7FC0700D6FC0700D5FC0700D4FC070088
:101AFC00D3FC0700D2FC0700D1FC0700D0FC070088
:101B0C00CFFC0700CEFC0700CDFC0700CCFC070087
:101B1C00CBFC0700CAFC0700C9FC0700C8FC070087
:101B2C00C7FC0700C6FC0700C5FC0700C4FC070087
:101B3C00C3FC0700C2FC0700C1FC0700C0FC070087
:101B4C00BFFC0700BEFC0700BDFC0700BCFC070087
:101B5C00BBFC0700BAFC0700B9FC0700B8FC070087
:101B6C00B7FC0700B6FC0700B5FC0700B4FC070087
:101B7C00B3FC0700B2FC0700B1FC0700B0FC070087
:101B8C00AFFC0700AEFC0700ADFC0700ACFC070087
:101B9C00ABFC0700AAFC0700A9FC0700A8FC070087
:101BAC00A7FC0700A6FC0700A5FC0700A4FC070087
:101BBC00A3FC0700A2FC0700A1FC0700A0FC070087
:101BCC009FFC07009EFC07009DFC07009CFC070087
:101BDC009BFC07009AFC070099FC070085F907009D
:101BEC0097FC070096FC070095FC070085FA070098
:101BFC0093FC070092FC070091FC070090FC070087
:101C0C008FFC07008EFC07008DFC07008CFC070086
:101C1C008BFC07008AFC070089FC070088FC070086
:101C2C0087FC070086FC070085FC070084FC070086
:101C3C0083FC070082FC070081FC070080FC070086
:101C4C007FFC07007EFC070072FB07008BFD370052
:041C5C00FFFF37004F
:100E2800F0FF2F00A8A2B700C822EF00CE22EF00E3
:100E3800D422EF00DA22EF00D822EF00D222EF000E
:040E480000000600A0
:100E4C000000000000000000000000000000000096
:100E5C000000000000000000000000000000000086
:100E6C000000000000000000000000000000000076
:100E7C000000000000000000000000000000000066
:10118C00DC22A900000000000000000000000000AC
:10119C000000000000000000000000000000000043
:1011AC000000000000000000000000000000000033
:1011BC000000000000000000000000000000000023
:1011CC000000000000000000000000000000000013
:1011DC000000000000000000000000000000000003
:1011EC0000000000000000000000000000000000F3
:1011FC00000000000000000000000000DC22A8003D
:10120C0000000000000000000000000000000000D2
:10121C0000000000000000000000000000000000C2
:10122C0000000000000000000000000000000000B2
:10123C0000000000000000000000000000000000A2
:10124C00000000000000000000000000000006008C
:1002000000000000000000000000000000000000EE
:1002100000000000000000000000000000000000DE
:1002200000000000000000000000000000000000CE
:1002300000000000000000000000000000000000BE
:10054000DC22A90000000000000000000000000004
:10055000000000000000000000000000000000009B
:10056000000000000000000000000000000000008B
:10057000000000000000000000000000000000007B
:10058000000000000000000000000000000000006B
:10059000000000000000000000000000000000005B
:1005A000000000000000000000000000000000004B
:1005B000000000000000000000000000DC22A80095
:1005C000000000000000000000000000000000002B
:1005D000000000000000000000000000000000001B
:1005E000000000000000000000000000000000000B
:1005F00000000000000000000000000000000000FB
:100600000000000000000000DC42A900000006001D
:1006100000000000000000000000000000000000DA
:1006200000000000000000000000000000000000CA
:1006300000000000000000000000000000000000BA
:1006400000000000000000000000000000000000AA
:10095000DC22A900000000000000000000000000F0
:100960000000000000000000000000000000000087
:100970000000000000000000000000000000000077
:100980000000000000000000000000000000000067
:100990000000000000000000000000000000000057
:1009A0000000000000000000000000000000000047
:1009B0000000000000000000000000000000000037
:1009C000000000000000000000000000DC22A80081
:1009D0000000000000000000000000000000000017
:1009E0000000000000000000000000000000000007
:1009F00000000000000000000000000000000000F7
:100A000000000000000000000000000000000000E6
:100A10000000000000000000DC42A800000006000A
:100A200000000000000000000000000000000000C6
:100A300000000000000000000000000000000000B6
:100A400000000000000000000000000000000000A6
:100A50000000000000000000000000000000000096
:100D6000DC22A900000000000000000000000000DC
:100D70000000000000000000000000000000000073
:100D80000000000000000000000000000000000063
:100D90000000000000000000000000000000000053
:100DA0000000000000000000000000000000000043
:100DB0000000000000000000000000000000000033
:100DC0000000000000000000000000000000000023
:100DD000000000000000000000000000DC22A8006D
:100DE0000000000000000000000000000000000003
:100DF00000000000000000000000000000000000F3
:100E000000000000000000000000000000000000E2
:100E100000000000000000000000000000000000D2
:080E20000000000000000600C4
:0200000401F009
:1C000000068300003F000000B38700000F3100000F3300000700000003C0000096
:00000001FF
