:100000007C2E040000000000000000000000000042
:1000100000000000000000000000000000000000E0
:1000200000000000000000000000000000000000D0
:1000300000000000000000000000000000000000C0
:1000400000000000000000000000000000000000B0
:1000500000000000000000000000000000000000A0
:100060000000000000000000000000000000000090
:100070000000000000000000000000000000000080
:100080000000000000000000000000000000000070
:100090000000000000000000000000000000000060
:1000A0000000000000000000000000000000000050
:1000B0000000000000000000000000000000000040
:1000C0000000000000000000000000000000000030
:1000D0000000000000000000000000000000000020
:1000E0000000000000000000000000000000000010
:1000F0000000000000000000000000000000000000
:1001000000000000000000000000000000000000EF
:1001100000000000000000000000000000000000DF
:1001200000000000000000000000000000000000CF
:1001300000000000000000000000000000000000BF
:1001400000000000000000000000000000000000AF
:10015000000000000000000000000000000000009F
:10016000000000000000000000000000000000008F
:10017000000000000000000000000000000000007F
:10018000000000000000000000000000000000006F
:10019000000000000000000000000000000000005F
:1001A000000000000000000000000000000000004F
:1001B000000000000000000000000000000000003F
:1001C000000000000000000000000000000000002F
:1001D000000000000000000000000000000000001F
:1001E000000000000000000000000000000000000F
:1001F00000000000000000000000000000000000FF
:105CF8002FCB2000F0FF200020A0B70000002000DC
:105D080034A0B700400020004420B700EE4602004F
:105D180000000000F846020000000000D7F8070065
:105D2800DC42A900DC22A900C0F80700DC22A80098
:105D380091F90700DC22A900BCF80700DC22A800C2
:105D48008DF90700DC22A900B8F80700DC22A800BA
:105D580089F90700DC22A900B4F80700DC22A800B2
:105D680085F90700DC42A800DC22A900AFF807008B
:105D7800DC22A80080F90700DC22A900ABF80700A4
:105D8800DC22A8007CF90700DC22A900A7F807009C
:105D9800DC22A80078F90700DC22A900A3F8070094
:105DA800DC22A80074F90700DC22A9009FF807008C
:105DB800DC22A80070F90700DC22A9009BF8070084
:105DC800DC22A8006CF90700DC22A90097F807007C
:105DD800DC22A80068F90700DC22A90093F8070074
:105DE800DC22A80064F90700DC22A9008FF807006C
:105DF800DC22A80060F90700DC22A9008BF8070064
:105E0800DC22A8005CF90700DC22A90087F807005B
:105E1800DC22A80058F90700DC22A90083F8070053
:105E2800DC22A80054F90700DC22A9007FF807004B
:105E3800DC22A80050F90700DC22A9007BF8070043
:105E4800DC22A8004CF90700DC22A90077F807003B
:105E5800DC22A80048F90700DC22A90073F8070033
:105E6800DC22A80044F90700DC22A9006FF807002B
:105E7800DC22A80040F90700DC22A9006BF8070023
:105E8800DC22A8003CF90700DC22A90067F807001B
:105E9800DC22A80038F90700DC22A90063F8070013
:105EA800DC22A80034F90700DC22A9005FF807000B
:105EB800DC22A80030F90700DC22A9005BF8070003
:105EC800DC22A8002CF90700DC22A90057F80700FB
:105ED800DC22A80028F90700DC22A90053F80700F3
:105EE800DC22A8006FF80700DC22A9004FF80700A1
:105EF800DC22A8006BF80700DC22A9004BF8070099
:105F0800DC22A80067F80700DC22A90047F8070090
:105F1800DC22A80063F80700DC22A90043F8070088
:105F2800DC22A8005FF80700DC22A9003FF8070080
:105F3800DC22A8005BF80700DC22A9003BF8070078
:105F4800DC22A80057F80700DC22A90037F8070070
:105F5800DC22A80053F80700DC22A90033F8070068
:105F6800DC22A8004FF80700DC22A9002FF8070060
:105F7800DC22A8004BF80700DC22A9002BF8070058
:105F8800DC22A80047F80700DC22A90027F8070050
:105F9800DC22A80043F80700DC22A90023F8070048
:105FA800DC22A8003FF80700DC22A9001FF8070040
:105FB800DC22A8003BF80700DC22A9001BF8070038
:105FC800DC22A80037F80700DC22A90017F8070030
:105FD800DC22A80033F80700DC22A90013F8070028
:105FE800DC22A8002FF80700DC22A9000FF8070020
:105FF800DC22A8002BF80700DC22A9000BF8070018
:10600800DC22A80027F80700DC22A90007F807000F
:10601800DC22A80023F80700DC22A90003F8070007
:10602800DC22A800E2F50700DC22A900FFF7070040
:10603800DC22A800DEF50700DC22A900FBF7070038
:10604800DC22A800DAF50700DC22A900F7F7070030
:10605800DC22A800D6F50700DC22A900F3F7070028
:10606800DC22A800D2F50700DC22A900EFF7070020
:10607800DC22A800CEF50700DC22A900EBF7070018
:10608800DC22A800CAF50700DC22A900E7F7070010
:10609800DC22A800C6F50700DC22A900E3F7070008
:1060A800DC22A800C2F50700DC22A900DFF7070000
:1060B800DC22A800BEF50700DC22A900DBF70700F8
:1060C800DC22A800BAF50700DC22A900D7F70700F0
:1060D800DC22A800B6F50700DC22A900D3F70700E8
:1060E800DC22A800B2F50700DC22A900CFF70700E0
:1060F800DC22A800AEF50700DC22A900CBF70700D8
:10610800DC22A800AAF50700DC22A900C7F70700CF
:10611800DC22A800A6F50700DC22A900C3F70700C7
:10612800DC22A800A2F50700DC22A900BFF70700BF
:10613800DC22A8009EF50700DC22A900BBF70700B7
:10614800DC22A8009AF50700DC22A900B7F70700AF
:10615800DC22A80096F50700DC22A900B3F70700A7
:10616800DC22A800DDF40700DC22A900AFF7070055
:10617800DC22A800D9F40700DC22A900ABF707004D
:10618800DC22A800D5F40700DC22A900A7F7070045
:10619800DC22A800D1F40700DC22A900A3F707003D
:1061A800DC22A800CDF40700DC22A9009FF7070035
:1061B800DC22A800C9F40700DC22A9009BF707002D
:1061C800DC22A800C5F40700DC22A90097F7070025
:1061D800DC22A800C1F40700DC22A90093F707001D
:1061E800DC22A800BDF40700DC22A9008FF7070015
:1061F800DC22A800B9F40700DC22A9008BF707000D
:10620800DC22A800B5F40700DC22A90087F7070004
:10621800DC22A800B1F40700DC22A90083F70700FC
:10622800DC22A800ADF40700DC22A9007FF70700F4
:10623800DC22A800A9F40700DC22A9007BF70700EC
:10624800DC22A800A5F40700DC22A90077F70700E4
:10625800DC22A800A1F40700DC22A90073F70700DC
:10626800DC22A8009DF40700DC22A9006FF70700D4
:10627800DC22A80099F40700DC22A9006BF70700CC
:10628800DC22A80095F40700DC22A90067F70700C4
:10629800DC22A80091F40700DC22A90063F70700BC
:1062A800DC22A800ACF60700DC22A9005FF7070093
:1062B800DC22A800A8F60700DC22A9005BF707008B
:1062C800DC22A800A4F60700DC22A90057F7070083
:1062D800DC22A800A0F60700DC22A90053F707007B
:1062E800DC22A8009CF60700DC22A9004FF7070073
:1062F800DC22A80098F60700DC22A9004BF707006B
:10630800DC22A80094F60700DC22A90047F7070062
:10631800DC22A80090F60700DC22A90043F707005A
:10632800DC22A8008CF60700DC22A9003FF7070052
:10633800DC22A80088F60700DC22A9003BF707004A
:10634800DC22A80084F60700DC22A90037F7070042
:10635800DC22A80080F60700DC22A90033F707003A
:10636800DC22A8007CF60700DC22A9002FF7070032
:10637800DC22A80078F60700DC22A9002BF707002A
:10638800DC22A80074F60700DC22A90027F7070022
:10639800DC22A80070F60700DC22A90023F707001A
:1063A800DC22A8006CF60700DC22A9001FF7070012
:1063B800DC22A80068F60700DC22A9001BF707000A
:1063C800DC22A80064F60700DC22A90017F7070002
:1063D800DC22A80060F60700DC22A90013F70700FA
:1063E800DC22A800A7F50700DC22A9000FF70700A8
:1063F800DC22A800A3F50700DC22A9000BF70700A0
:10640800DC22A8009FF50700DC22A90007F7070097
:10641800DC22A8009BF50700DC22A90003F707008F
:10642800DC22A80097F50700DC22A900FFF6070088
:10643800DC22A80093F50700DC22A900FBF6070080
:10644800DC22A8008FF50700DC22A900F7F6070078
:10645800DC22A8008BF50700DC22A900F3F6070070
:10646800DC22A80087F50700DC22A900EFF6070068
:10647800DC22A80083F50700DC22A900EBF6070060
:10648800DC22A8007FF50700DC22A900E7F6070058
:10649800DC22A8007BF50700DC22A900E3F6070050
:1064A800DC22A80077F50700DC22A900DFF6070048
:1064B800DC22A80073F50700DC22A900DBF6070040
:1064C800DC22A8006FF50700DC22A900D7F6070038
:1064D800DC22A8006BF50700DC22A900D3F6070030
:1064E800DC22A80067F50700DC22A900CFF6070028
:1064F800DC22A80063F50700DC22A900CBF6070020
:10650800DC22A8005FF50700DC22A900C7F6070017
:10651800DC22A8005BF50700DC22A900C3F607000F
:10652800DC22A800D3FB0700DC22A900BFF6070085
:10653800DC22A800CFFB0700DC22A900BBF607007D
:10654800DC22A800CBFB0700DC22A900B7F6070075
:10655800DC22A800C7FB0700DC22A900B3F607006D
:10656800DC22A800C3FB0700DC22A900AFF6070065
:10657800DC22A800BFFB0700DC22A900ABF607005D
:10658800DC22A800BBFB0700DC22A900A7F6070055
:10659800DC22A800B7FB0700DC22A900A3F607004D
:1065A800DC22A800B3FB0700DC22A9009FF6070045
:1065B800DC22A800AFFB0700DC22A9009BF607003D
:1065C800DC22A800ABFB0700DC22A90097F6070035
:1065D800DC22A800A7FB0700DC22A90093F607002D
:1065E800DC22A800A3FB0700DC22A9008FF6070025
:1065F800DC22A8009FFB0700DC22A9008BF607001D
:10660800DC22A8009BFB0700DC22A90087F6070014
:10661800DC22A80097FB0700DC22A90083F607000C
:10662800DC22A80093FB0700DC22A9007FF6070004
:10663800DC22A8008FFB0700DC22A9007BF60700FC
:10664800DC22A8008BFB0700DC22A90077F60700F4
:10665800DC22A80087FB0700DC22A90073F60700EC
:10666800DC22A800CEFA0700DC22A9006FF607009A
:10667800DC22A800CAFA0700DC22A9006BF6070092
:10668800DC22A800C6FA0700DC22A90067F607008A
:10669800DC22A800C2FA0700DC22A90063F6070082
:1066A800DC22A800BEFA0700DC22A9005FF607007A
:1066B800DC22A800BAFA0700DC22A9005BF6070072
:1066C800DC22A800B6FA0700DC22A90057F607006A
:1066D800DC22A800B2FA0700DC22A90053F6070062
:1066E800DC22A800AEFA0700DC22A9004FF607005A
:1066F800DC22A800AAFA0700DC22A9004BF6070052
:10670800DC22A800A6FA0700DC22A90047F6070049
:10671800DC22A800A2FA0700DC22A90043F6070041
:10672800DC22A8009EFA0700DC22A9003FF6070039
:10673800DC22A8009AFA0700DC22A9003BF6070031
:10674800DC22A80096FA0700DC22A90037F6070029
:10675800DC22A80092FA0700DC22A90033F6070021
:10676800DC22A8008EFA0700DC22A9002FF6070019
:10677800DC22A8008AFA0700DC22A9002BF6070011
:10678800DC22A80086FA0700DC22A90027F6070009
:10679800DC22A80082FA0700DC22A90023F6070001
:1067A800DC22A8009DFC0700DC22A9001FF60700D8
:1067B800DC22A80099FC0700DC22A9001BF60700D0
:1067C800DC22A80095FC0700DC22A90017F60700C8
:1067D800DC22A80091FC0700DC22A90013F60700C0
:1067E800DC22A8008DFC0700DC22A9000FF60700B8
:1067F800DC22A80089FC0700DC22A9000BF60700B0
:10680800DC22A80085FC0700DC22A90007F60700A7
:10681800DC22A80081FC0700DC22A90003F607009F
:10682800DC22A8007DFC0700DC22A900FFF5070098
:10683800DC22A80079FC0700DC22A900FBF5070090
:10684800DC22A80075FC0700DC22A900F7F5070088
:10685800DC22A80071FC0700DC22A900F3F5070080
:10686800DC22A8006DFC0700DC22A900EFF5070078
:10687800DC22A80069FC0700DC22A900EBF5070070
:10688800DC22A80065FC0700DC22A900E7F5070068
:10689800DC22A80061FC0700DC22A900E3F5070060
:1068A800DC22A8005DFC0700DC22A900DFF5070058
:1068B800DC22A80059FC0700DC22A900DBF5070050
:1068C800DC22A80055FC0700DC22A900D7F5070048
:1068D800DC22A80051FC0700DC22A900D3F5070040
:1068E800DC22A80098FB0700DC22A900CFF50700EE
:1068F800DC22A80094FB0700DC22A900CBF50700E6
:10690800DC22A80090FB0700DC22A900C7F50700DD
:10691800DC22A8008CFB0700DC22A900C3F50700D5
:10692800DC22A80088FB0700DC22A900BFF50700CD
:10693800DC22A80084FB0700DC22A900BBF50700C5
:10694800DC22A80080FB0700DC22A900B7F50700BD
:10695800DC22A8007CFB0700DC22A900B3F50700B5
:10696800DC22A80078FB0700DC22A900AFF50700AD
:10697800DC22A80074FB0700DC22A900ABF50700A5
:10698800DC22A80070FB0700DC22A900A7F507009D
:10699800DC22A8006CFB0700DC22A900A3F5070095
:1069A800DC22A80068FB0700DC22A9009FF507008D
:1069B800DC22A80064FB0700DC22A9009BF5070085
:1069C800DC22A80060FB0700DC22A90097F507007D
:1069D800DC22A8005CFB0700DC22A90093F5070075
:1069E800DC22A80058FB0700DC22A9008FF507006D
:1069F800DC22A80054FB0700DC22A9008BF5070065
:106A0800DC22A80050FB0700DC22A90087F507005C
:106A1800DC22A8004CFB0700DC22A90083F5070054
:106A2800DC22A800BFF70700DC22A9007FF50700D9
:106A3800DC22A800BBF70700DC22A9007BF50700D1
:106A4800DC22A800B7F70700DC22A90077F50700C9
:106A5800DC22A800B3F70700DC22A90073F50700C1
:106A6800DC22A800AFF70700DC22A9006FF50700B9
:106A7800DC22A800ABF70700DC22A9006BF50700B1
:106A8800DC22A800A7F70700DC22A90067F50700A9
:106A9800DC22A800A3F70700DC22A90063F50700A1
:106AA800DC22A8009FF70700DC22A9005FF5070099
:106AB800DC22A8009BF70700DC22A9005BF5070091
:106AC800DC22A80097F70700DC22A90057F5070089
:106AD800DC22A80093F70700DC22A90053F5070081
:106AE800DC22A8008FF70700DC22A9004FF5070079
:106AF800DC22A8008BF70700DC22A9004BF5070071
:106B0800DC22A80087F70700DC22A90047F5070068
:106B1800DC22A80083F70700DC22A90043F5070060
:106B2800DC22A8007FF70700DC22A9003FF5070058
:106B3800DC22A8007BF70700DC22A9003BF5070050
:106B4800DC22A80077F70700DC22A90037F5070048
:106B5800DC22A80073F70700DC22A90033F5070040
:106B6800DC22A800BAF60700DC22A9002FF50700EE
:106B7800DC22A800B6F60700DC22A9002BF50700E6
:106B8800DC22A800B2F60700DC22A90027F50700DE
:106B9800DC22A800AEF60700DC22A90023F50700D6
:106BA800DC22A800AAF60700DC22A9001FF50700CE
:106BB800DC22A800A6F60700DC22A9001BF50700C6
:106BC800DC22A800A2F60700DC22A90017F50700BE
:106BD800DC22A8009EF60700DC22A90013F50700B6
:106BE800DC22A8009AF60700DC22A9000FF50700AE
:106BF800DC22A80096F60700DC22A9000BF50700A6
:106C0800DC22A80092F60700DC22A90007F507009D
:106C1800DC22A8008EF60700DC22A90003F5070095
:106C2800DC22A8008AF60700DC22A900FFF407008E
:106C3800DC22A80086F60700DC22A900FBF4070086
:106C4800DC22A80082F60700DC22A900F7F407007E
:106C5800DC22A8007EF60700DC22A900F3F4070076
:106C6800DC22A8007AF60700DC22A900EFF407006E
:106C7800DC22A80076F60700DC22A900EBF4070066
:106C8800DC22A80072F60700DC22A900E7F407005E
:106C9800DC22A8006EF60700DC22A900E3F4070056
:106CA800DC22A80089F80700DC22A900DFF407002D
:106CB800DC22A80085F80700DC22A900DBF4070025
:106CC800DC22A80081F80700DC22A900D7F407001D
:106CD800DC22A8007DF80700DC22A900D3F4070015
:106CE800DC22A80079F80700DC22A900CFF407000D
:106CF800DC22A80075F80700DC22A900CBF4070005
:106D0800DC22A80071F80700DC22A900C7F40700FC
:106D1800DC22A8006DF80700DC22A900C3F40700F4
:106D2800DC22A80069F80700DC22A900BFF40700EC
:106D3800DC22A80065F80700DC22A900BBF40700E4
:106D4800DC22A80061F80700DC22A900B7F40700DC
:106D5800DC22A8005DF80700DC22A900B3F40700D4
:106D6800DC22A80059F80700DC22A900AFF40700CC
:106D7800DC22A80055F80700DC22A900ABF40700C4
:106D8800DC22A80051F80700DC22A900A7F40700BC
:106D9800DC22A8004DF80700DC22A900A3F40700B4
:106DA800DC22A80049F80700DC22A9009FF40700AC
:106DB800DC22A80045F80700DC22A9009BF40700A4
:106DC800DC22A80041F80700DC22A90097F407009C
:106DD800DC22A8003DF80700DC22A90093F4070094
:106DE800DC22A80084F70700DC22A9008FF4070042
:106DF800DC22A80080F70700DC22A9008BF407003A
:106E0800DC22A8007CF70700DC22A90087F4070031
:106E1800DC22A80078F70700DC22A90083F4070029
:106E2800DC22A80074F70700DC22A9007FF4070021
:106E3800DC22A80070F70700DC22A9007BF4070019
:106E4800DC22A8006CF70700DC22A90077F4070011
:106E5800DC22A80068F70700DC22A90073F4070009
:106E6800DC22A80064F70700DC22A9006FF4070001
:106E7800DC22A80060F70700DC22A9006BF40700F9
:106E8800DC22A8005CF70700DC22A90067F40700F1
:106E9800DC22A80058F70700DC22A90063F40700E9
:106EA800DC22A80054F70700DC22A9005FF40700E1
:106EB800DC22A80050F70700DC22A9005BF40700D9
:106EC800DC22A8004CF70700DC22A90057F40700D1
:106ED800DC22A80048F70700DC22A90053F40700C9
:106EE800DC22A80044F70700DC22A9004FF40700C1
:106EF800DC22A80040F70700DC22A9004BF40700B9
:106F0800DC22A8003CF70700DC22A90047F40700B0
:106F1800DC22A80038F70700DC22A90043F40700A8
:106F2800DC22A800B8F00700DC22A9003FF4070023
:106F3800DC22A800B4F00700DC22A9003BF407001B
:106F4800DC22A800B0F00700DC22A90037F4070013
:106F5800DC22A800ACF00700DC22A90033F407000B
:106F6800DC22A800A8F00700DC22A9002FF4070003
:106F7800DC22A800A4F00700DC22A9002BF40700FB
:106F8800DC22A800A0F00700DC22A90027F40700F3
:106F9800DC22A8009CF00700DC22A90023F40700EB
:106FA800DC22A80098F00700DC22A9001FF40700E3
:106FB800DC22A80094F00700DC22A9001BF40700DB
:106FC800DC22A80090F00700DC22A90017F40700D3
:106FD800DC22A8008CF00700DC22A90013F40700CB
:106FE800DC22A80088F00700DC22A9000FF40700C3
:106FF800DC22A80084F00700DC22A9000BF40700BB
:10700800DC22A80080F00700DC22A90007F40700B2
:10701800DC22A8007CF00700DC22A90003F40700AA
:10702800DC22A80078F00700DC22A900FFF30700A3
:10703800DC22A80074F00700DC22A900FBF307009B
:10704800DC22A80070F00700DC22A900F7F3070093
:10705800DC22A8006CF00700DC22A900F3F307008B
:10706800DC22A800EDE70700DC22A900EFF3070007
:10707800DC22A800E9E70700DC22A900EBF30700FF
:10708800DC22A800E5E70700DC22A900E7F30700F7
:10709800DC22A800E1E70700DC22A900E3F30700EF
:1070A800DC22A800DDE70700DC22A900DFF30700E7
:1070B800DC22A800D9E70700DC22A900DBF30700DF
:1070C800DC22A800D5E70700DC22A900D7F30700D7
:1070D800DC22A800D1E70700DC22A900D3F30700CF
:1070E800DC22A800CDE70700DC22A900CFF30700C7
:1070F800DC22A800C9E70700DC22A900CBF30700BF
:10710800DC22A800C5E70700DC22A900C7F30700B6
:10711800DC22A800C1E70700DC22A900C3F30700AE
:10712800DC22A800BDE70700DC22A900BFF30700A6
:10713800DC22A800B9E70700DC22A900BBF307009E
:10714800DC22A800B5E70700DC22A900B7F3070096
:10715800DC22A800B1E70700DC22A900B3F307008E
:10716800DC22A800ADE70700DC22A900AFF3070086
:10717800DC22A800A9E70700DC22A900ABF307007E
:10718800DC22A800A5E70700DC22A900A7F3070076
:10719800DC22A800A1E70700DC22A900A3F307006E
:1071A800DC22A800E8E60700DC22A9009FF307001C
:1071B800DC22A800E4E60700DC22A9009BF3070014
:1071C800DC22A800E0E60700DC22A90097F307000C
:1071D800DC22A800DCE60700DC22A90093F3070004
:1071E800DC22A800D8E60700DC22A9008FF30700FC
:1071F800DC22A800D4E60700DC22A9008BF30700F4
:10720800DC22A800D0E60700DC22A90087F30700EB
:10721800DC22A800CCE60700DC22A90083F30700E3
:10722800DC22A800C8E60700DC22A9007FF30700DB
:10723800DC22A800C4E60700DC22A9007BF30700D3
:10724800DC22A800C0E60700DC22A90077F30700CB
:10725800DC22A800BCE60700DC22A90073F30700C3
:10726800DC22A800B8E60700DC22A9006FF30700BB
:10727800DC22A800B4E60700DC22A9006BF30700B3
:10728800DC22A800B0E60700DC22A90067F30700AB
:10729800DC22A800ACE60700DC22A90063F30700A3
:1072A800DC22A800A8E60700DC22A9005FF307009B
:1072B800DC22A800A4E60700DC22A9005BF3070093
:1072C800DC22A800A0E60700DC22A90057F307008B
:1072D800DC22A8009CE60700DC22A90053F3070083
:1072E800DC22A800B7E80700DC22A9004FF307005A
:1072F800DC22A800B3E80700DC22A9004BF3070052
:10730800DC22A800AFE80700DC22A90047F3070049
:10731800DC22A800ABE80700DC22A90043F3070041
:10732800DC22A800A7E80700DC22A9003FF3070039
:10733800DC22A800A3E80700DC22A9003BF3070031
:10734800DC22A8009FE80700DC22A90037F3070029
:10735800DC22A8009BE80700DC22A90033F3070021
:10736800DC22A80097E80700DC22A9002FF3070019
:10737800DC22A80093E80700DC22A9002BF3070011
:10738800DC22A8008FE80700DC22A90027F3070009
:10739800DC22A8008BE80700DC22A90023F3070001
:1073A800DC22A80087E80700DC22A9001FF30700F9
:1073B800DC22A80083E80700DC22A9001BF30700F1
:1073C800DC22A8007FE80700DC22A90017F30700E9
:1073D800DC22A8007BE80700DC22A90013F30700E1
:1073E800DC22A80077E80700DC22A9000FF30700D9
:1073F800DC22A80073E80700DC22A9000BF30700D1
:10740800DC22A8006FE80700DC22A90007F30700C8
:10741800DC22A8006BE80700DC22A90003F30700C0
:10742800DC22A800B2E70700DC22A900FFF207006F
:10743800DC22A800AEE70700DC22A900FBF2070067
:10744800DC22A800AAE70700DC22A900F7F207005F
:10745800DC22A800A6E70700DC22A900F3F2070057
:10746800DC22A800A2E70700DC22A900EFF207004F
:10747800DC22A8009EE70700DC22A900EBF2070047
:10748800DC22A8009AE70700DC22A900E7F207003F
:10749800DC22A80096E70700DC22A900E3F2070037
:1074A800DC22A80092E70700DC22A900DFF207002F
:1074B800DC22A8008EE70700DC22A900DBF2070027
:1074C800DC22A8008AE70700DC22A900D7F207001F
:1074D800DC22A80086E70700DC22A900D3F2070017
:1074E800DC22A80082E70700DC22A900CFF207000F
:1074F800DC22A8007EE70700DC22A900CBF2070007
:10750800DC22A8007AE70700DC22A900C7F20700FE
:10751800DC22A80076E70700DC22A900C3F20700F6
:10752800DC22A80072E70700DC22A900BFF20700EE
:10753800DC22A8006EE70700DC22A900BBF20700E6
:10754800DC22A8006AE70700DC22A900B7F20700DE
:10755800DC22A80066E70700DC22A900B3F20700D6
:10756800DC22A800D9E30700DC22A900AFF207005B
:10757800DC22A800D5E30700DC22A900ABF2070053
:10758800DC22A800D1E30700DC22A900A7F207004B
:10759800DC22A800CDE30700DC22A900A3F2070043
:1075A800DC22A800C9E30700DC22A9009FF207003B
:1075B800DC22A800C5E30700DC22A9009BF2070033
:1075C800DC22A800C1E30700DC22A90097F207002B
:1075D800DC22A800BDE30700DC22A90093F2070023
:1075E800DC22A800B9E30700DC22A9008FF207001B
:1075F800DC22A800B5E30700DC22A9008BF2070013
:10760800DC22A800B1E30700DC22A90087F207000A
:10761800DC22A800ADE30700DC22A90083F2070002
:10762800DC22A800A9E30700DC22A9007FF20700FA
:10763800DC22A800A5E30700DC22A9007BF20700F2
:10764800DC22A800A1E30700DC22A90077F20700EA
:10765800DC22A8009DE30700DC22A90073F20700E2
:10766800DC22A80099E30700DC22A9006FF20700DA
:10767800DC22A80095E30700DC22A9006BF20700D2
:10768800DC22A80091E30700DC22A90067F20700CA
:10769800DC22A8008DE30700DC22A90063F20700C2
:1076A800DC22A800D4E20700DC22A9005FF2070070
:1076B800DC22A800D0E20700DC22A9005BF2070068
:1076C800DC22A800CCE20700DC22A90057F2070060
:1076D800DC22A800C8E20700DC22A90053F2070058
:1076E800DC22A800C4E20700DC22A9004FF2070050
:1076F800DC22A800C0E20700DC22A9004BF2070048
:10770800DC22A800BCE20700DC22A90047F207003F
:10771800DC22A800B8E20700DC22A90043F2070037
:10772800DC22A800B4E20700DC22A9003FF207002F
:10773800DC22A800B0E20700DC22A9003BF2070027
:10774800DC22A800ACE20700DC22A90037F207001F
:10775800DC22A800A8E20700DC22A90033F2070017
:10776800DC22A800A4E20700DC22A9002FF207000F
:10777800DC22A800A0E20700DC22A9002BF2070007
:10778800DC22A8009CE20700DC22A90027F20700FF
:10779800DC22A80098E20700DC22A90023F20700F7
:1077A800DC22A80094E20700DC22A9001FF20700EF
:1077B800DC22A80090E20700DC22A9001BF20700E7
:1077C800DC22A8008CE20700DC22A90017F20700DF
:1077D800DC22A80088E20700DC22A90013F20700D7
:1077E800DC22A800A3E40700DC22A9000FF20700AE
:1077F800DC22A8009FE40700DC22A9000BF20700A6
:10780800DC22A8009BE40700DC22A90007F207009D
:10781800DC22A80097E40700DC22A90003F2070095
:10782800DC22A80093E40700DC22A900FFF107008E
:10783800DC22A8008FE40700DC22A900FBF1070086
:10784800DC22A8008BE40700DC22A900F7F107007E
:10785800DC22A80087E40700DC22A900F3F1070076
:10786800DC22A80083E40700DC22A900EFF107006E
:10787800DC22A8007FE40700DC22A900EBF1070066
:10788800DC22A8007BE40700DC22A900E7F107005E
:10789800DC22A80077E40700DC22A900E3F1070056
:1078A800DC22A80073E40700DC22A900DFF107004E
:1078B800DC22A8006FE40700DC22A900DBF1070046
:1078C800DC22A8006BE40700DC22A900D7F107003E
:1078D800DC22A80067E40700DC22A900D3F1070036
:1078E800DC22A80063E40700DC22A900CFF107002E
:1078F800DC22A8005FE40700DC22A900CBF1070026
:10790800DC22A8005BE40700DC22A900C7F107001D
:10791800DC22A80057E40700DC22A900C3F1070015
:10792800DC22A8009EE30700DC22A900BFF10700C3
:10793800DC22A8009AE30700DC22A900BBF10700BB
:10794800DC22A80096E30700DC22A900B7F10700B3
:10795800DC22A80092E30700DC22A900B3F10700AB
:10796800DC22A8008EE30700DC22A900AFF10700A3
:10797800DC22A8008AE30700DC22A900ABF107009B
:10798800DC22A80086E30700DC22A900A7F1070093
:10799800DC22A80082E30700DC22A900A3F107008B
:1079A800DC22A8007EE30700DC22A9009FF1070083
:1079B800DC22A8007AE30700DC22A9009BF107007B
:1079C800DC22A80076E30700DC22A90097F1070073
:1079D800DC22A80072E30700DC22A90093F107006B
:1079E800DC22A8006EE30700DC22A9008FF1070063
:1079F800DC22A8006AE30700DC22A9008BF107005B
:107A0800DC22A80066E30700DC22A90087F1070052
:107A1800DC22A80062E30700DC22A90083F107004A
:107A2800DC22A8005EE30700DC22A9007FF1070042
:107A3800DC22A8005AE30700DC22A9007BF107003A
:107A4800DC22A80056E30700DC22A90077F1070032
:107A5800DC22A80052E30700DC22A90073F107002A
:107A6800DC22A8008CE70700DC22A9006FF10700E0
:107A7800DC22A80088E70700DC22A9006BF10700D8
:107A8800DC22A80084E70700DC22A90067F10700D0
:107A9800DC22A80080E70700DC22A90063F10700C8
:107AA800DC22A8007CE70700DC22A9005FF10700C0
:107AB800DC22A80078E70700DC22A9005BF10700B8
:107AC800DC22A80074E70700DC22A90057F10700B0
:107AD800DC22A80070E70700DC22A90053F10700A8
:107AE800DC22A8006CE70700DC22A9004FF10700A0
:107AF800DC22A80068E70700DC22A9004BF1070098
:107B0800DC22A80064E70700DC22A90047F107008F
:107B1800DC22A80060E70700DC22A90043F1070087
:107B2800DC22A8005CE70700DC22A9003FF107007F
:107B3800DC22A80058E70700DC22A9003BF1070077
:107B4800DC22A80054E70700DC22A90037F107006F
:107B5800DC22A80050E70700DC22A90033F1070067
:107B6800DC22A8004CE70700DC22A9002FF107005F
:107B7800DC22A80048E70700DC22A9002BF1070057
:107B8800DC22A80044E70700DC22A90027F107004F
:107B9800DC22A80040E70700DC22A90023F1070047
:107BA800DC22A80079EB0700DC22A9001FF10700FE
:107BB800DC22A80075EB0700DC22A9001BF10700F6
:107BC800DC22A80071EB0700DC22A90017F10700EE
:107BD800DC22A8006DEB0700DC22A90013F10700E6
:107BE800DC22A80069EB0700DC22A9000FF10700DE
:107BF800DC22A80065EB0700DC22A9000BF10700D6
:107C0800DC22A80061EB0700DC22A90007F10700CD
:107C1800DC22A8005DEB0700DC22A90003F10700C5
:107C2800DC22A80059EB0700DC22A900FFF00700BE
:107C3800DC22A80055EB0700DC22A900FBF00700B6
:107C4800DC22A80051EB0700DC22A900F7F00700AE
:107C5800DC22A8004DEB0700DC22A900F3F00700A6
:107C6800DC22A80049EB0700DC22A900EFF007009E
:107C7800DC22A80045EB0700DC22A900EBF0070096
:107C8800DC22A80041EB0700DC22A900E7F007008E
:107C9800DC22A8003DEB0700DC22A900E3F0070086
:107CA800DC22A80039EB0700DC22A900DFF007007E
:107CB800DC22A80035EB0700DC22A900DBF0070076
:107CC800DC22A80031EB0700DC22A900D7F007006E
:107CD800DC22A8002DEB0700DC22A900D3F0070066
:107CE800DC22A80074EA0700DC22A900CFF0070014
:107CF800DC22A80070EA0700DC22A900CBF007000C
:107D0800DC22A8006CEA0700DC22A900C7F0070003
:107D1800DC22A80068EA0700DC22A900C3F00700FB
:107D2800DC22A80064EA0700DC22A900BFF00700F3
:107D3800DC22A80060EA0700DC22A900BBF00700EB
:107D4800DC22A8005CEA0700DC22A900B7F00700E3
:107D5800DC22A80058EA0700DC22A900B3F00700DB
:107D6800DC22A80054EA0700DC22A900AFF00700D3
:107D7800DC22A80050EA0700DC22A900ABF00700CB
:107D8800DC22A8004CEA0700DC22A900A7F00700C3
:107D9800DC22A80048EA0700DC22A900A3F00700BB
:107DA800DC22A80044EA0700DC22A9009FF00700B3
:107DB800DC22A80040EA0700DC22A9009BF00700AB
:107DC800DC22A8003CEA0700DC22A90097F00700A3
:107DD800DC22A80038EA0700DC22A90093F007009B
:107DE800DC22A80034EA0700DC22A9008FF0070093
:107DF800DC22A80030EA0700DC22A9008BF007008B
:107E0800DC22A8002CEA0700DC22A90087F0070082
:107E1800DC22A80028EA0700DC22A90083F007007A
:107E2800DC22A80043EC0700DC22A9007FF0070051
:107E3800DC22A8003FEC0700DC22A9007BF0070049
:107E4800DC22A8003BEC0700DC22A90077F0070041
:107E5800DC22A80037EC0700DC22A90073F0070039
:107E6800DC22A80033EC0700DC22A9006FF0070031
:107E7800DC22A8002FEC0700DC22A9006BF0070029
:107E8800DC22A8002BEC0700DC22A90067F0070021
:107E9800DC22A80027EC0700DC22A90063F0070019
:107EA800DC22A80023EC0700DC22A9005FF0070011
:107EB800DC22A8001FEC0700DC22A9005BF0070009
:107EC800DC22A8001BEC0700DC22A90057F0070001
:107ED800DC22A80017EC0700DC22A90053F00700F9
:107EE800DC22A80013EC0700DC22A9004FF00700F1
:107EF800DC22A8000FEC0700DC22A9004BF00700E9
:107F0800DC22A8000BEC0700DC22A90047F00700E0
:107F1800DC22A80007EC0700DC22A90043F00700D8
:107F2800DC22A80003EC0700DC22A9003FF00700D0
:107F3800DC22A800FFEB0700DC22A9003BF00700C9
:107F4800DC22A800FBEB0700DC22A90037F00700C1
:107F5800DC22A800F7EB0700DC22A90033F00700B9
:107F6800DC22A8003EEB0700DC22A9002FF0070066
:107F7800DC22A8003AEB0700DC22A9002BF007005E
:107F8800DC22A80036EB0700DC22A90027F0070056
:107F9800DC22A80032EB0700DC22A90023F007004E
:107FA800DC22A8002EEB0700DC22A9001FF0070046
:107FB800DC22A8002AEB0700DC22A9001BF007003E
:107FC800DC22A80026EB0700DC22A90017F0070036
:107FD800DC22A80022EB0700DC22A90013F007002E
:107FE800DC22A8001EEB0700DC22A9000FF0070026
:107FF800DC22A8001AEB0700DC22A9000BF007001E
:10800800DC22A80016EB0700DC22A90007F0070015
:10801800DC22A80012EB0700DC22A90003F007000D
:10802800DC22A8000EEB0700DC22A900FFEF070006
:10803800DC22A8000AEB0700DC22A900FBEF0700FE
:10804800DC22A80006EB0700DC22A900F7EF0700F6
:10805800DC22A80002EB0700DC22A900F3EF0700EE
:10806800DC22A800FEEA0700DC22A900EFEF0700E7
:10807800DC22A800FAEA0700DC22A900EBEF0700DF
:10808800DC22A800F6EA0700DC22A900E7EF0700D7
:10809800DC22A800F2EA0700DC22A900E3EF0700CF
:1080A800DC22A80066E70700DC22A900DFEF070052
:1080B800DC22A80062E70700DC22A900DBEF07004A
:1080C800DC22A8005EE70700DC22A900D7EF070042
:1080D800DC22A8005AE70700DC22A900D3EF07003A
:1080E800DC22A80056E70700DC22A900CFEF070032
:1080F800DC22A80052E70700DC22A900CBEF07002A
:10810800DC22A8004EE70700DC22A900C7EF070021
:10811800DC22A8004AE70700DC22A900C3EF070019
:10812800DC22A80046E70700DC22A900BFEF070011
:10813800DC22A80042E70700DC22A900BBEF070009
:10814800DC22A8003EE70700DC22A900B7EF070001
:10815800DC22A8003AE70700DC22A900B3EF0700F9
:10816800DC22A80036E70700DC22A900AFEF0700F1
:10817800DC22A80032E70700DC22A900ABEF0700E9
:10818800DC22A8002EE70700DC22A900A7EF0700E1
:10819800DC22A8002AE70700DC22A900A3EF0700D9
:1081A800DC22A80026E70700DC22A9009FEF0700D1
:1081B800DC22A80022E70700DC22A9009BEF0700C9
:1081C800DC22A8001EE70700DC22A90097EF0700C1
:1081D800DC22A8001AE70700DC22A90093EF0700B9
:1081E800DC22A80061E60700DC22A9008FEF070067
:1081F800DC22A8005DE60700DC22A9008BEF07005F
:10820800DC22A80059E60700DC22A90087EF070056
:10821800DC22A80055E60700DC22A90083EF07004E
:10822800DC22A80051E60700DC22A9007FEF070046
:10823800DC22A8004DE60700DC22A9007BEF07003E
:10824800DC22A80049E60700DC22A90077EF070036
:10825800DC22A80045E60700DC22A90073EF07002E
:10826800DC22A80041E60700DC22A9006FEF070026
:10827800DC22A8003DE60700DC22A9006BEF07001E
:10828800DC22A80039E60700DC22A90067EF070016
:10829800DC22A80035E60700DC22A90063EF07000E
:1082A800DC22A80031E60700DC22A9005FEF070006
:1082B800DC22A8002DE60700DC22A9005BEF0700FE
:1082C800DC22A80029E60700DC22A90057EF0700F6
:1082D800DC22A80025E60700DC22A90053EF0700EE
:1082E800DC22A80021E60700DC22A9004FEF0700E6
:1082F800DC22A8001DE60700DC22A9004BEF0700DE
:10830800DC22A80019E60700DC22A90047EF0700D5
:10831800DC22A80015E60700DC22A90043EF0700CD
:10832800DC22A8002FE80700DC22A9003FEF0700A5
:10833800DC22A8002BE80700DC22A9003BEF07009D
:10834800DC22A80027E80700DC22A90037EF070095
:10835800DC22A80023E80700DC22A90033EF07008D
:10836800DC22A8001FE80700DC22A9002FEF070085
:10837800DC22A8001BE80700DC22A9002BEF07007D
:10838800DC22A80017E80700DC22A90027EF070075
:10839800DC22A80013E80700DC22A90023EF07006D
:1083A800DC22A8000FE80700DC22A9001FEF070065
:1083B800DC22A8000BE80700DC22A9001BEF07005D
:1083C800DC22A80007E80700DC22A90017EF070055
:1083D800DC22A80003E80700DC22A90013EF07004D
:1083E800DC22A800FFE70700DC22A9000FEF070046
:1083F800DC22A800FBE70700DC22A9000BEF07003E
:10840800DC22A800F7E70700DC22A90007EF070035
:10841800DC22A800F3E70700DC22A90003EF07002D
:10842800DC22A800EFE70700DC22A900FFEE070026
:10843800DC22A800EBE70700DC22A900FBEE07001E
:10844800DC22A800E7E70700DC22A900F7EE070016
:10845800DC22A800E3E70700DC22A900F3EE07000E
:10846800DC22A8002BE707002DF63700FFFF3700B6
:10408400F0FF2F00A8A2B700C822EF00CE22EF0055
:10409400D422EF00DA22EF00D822EF00D222EF0080
:0840A400C622EF000000060037
:10403400000000000000000000000000000000007C
:10404400000000000000000000000000000000006C
:10405400000000000000000000000000000000005C
:10406400000000000000000000000000000000004C
:104074000000000000000000000000000000060036
:10438000000000000000000000000000000000002D
:10439000000000000000000000000000000000001D
:1043A000000000000000000000000000000000000D
:1043B00000000000000000000000000000000000FD
:10463000000000000000000000000000D622EF0093
:10464000000000000000000000000000000000006A
:0846500000000000000006005C
:1040AC000000000000000000000000000000000004
:1040BC0000000000000000000000000000000000F4
:1040CC0000000000000000000000000000000000E4
:1040DC000000000000408000D6A2B70000000000E5
:1040EC00004080004800DE00D6A2B70000000000AF
:1040FC000000000010408000D6A2B70000000000B5
:10410C00104080004800DE00D6A2B700000000007E
:10411C000000000020408000D6A2B7000000000084
:10412C00204080004800DE00D6A2B700000000004E
:10413C000000000030408000D6A2B7000000000054
:10414C00304080004800DE00D6A2B700000000001E
:10415C000000000040408000D6A2B7000000000024
:10416C00404080004800DE00D6A2B70000000000EE
:10417C000000000050408000D6A2B70000000000F4
:10418C00504080004800DE00D6A2B70000000000BE
:10419C000000000060408000D6A2B70000000000C4
:1041AC00604080004800DE00D6A2B700000000008E
:1041BC000000000070408000D6A2B7000000000094
:1041CC00704080004800DE00D6A2B700000000005E
:1041DC000000000080408000D6A2B7000000000064
:1041EC00804080004800DE00D6A2B700000000002E
:1041FC000000000090408000D6A2B7000000000034
:10420C00904080004800DE00D6A2B70000000000FD
:10421C0000000000A0408000D6A2B7000000000003
:10422C00A04080004800DE00D6A2B70000000000CD
:10423C0000000000B0408000D6A2B70000000000D3
:10424C00B04080004800DE00D6A2B700000000009D
:10425C0000000000C0408000D6A2B70000000000A3
:10426C00C04080004800DE00D6A2B700000000006D
:10427C0000000000D0408000D6A2B7000000000073
:10428C00D04080004800DE00D6A2B700000000003D
:10429C0000000000E0408000D6A2B7000000000043
:1042AC00E04080004800DE00D6A2B700000000000D
:1042BC0000000000F0408000D6A2B7000000000013
:1042CC00F04080004800DE00D6A2B70000000000DD
:1042DC000000000000418000D6A2B70000000000E2
:1042EC00004180004800DE00D6A2B70000000000AC
:1042FC000000000010418000D6A2B70000000000B2
:10430C00104180004800DE00D6A2B700000000007B
:10431C000000000020418000D6A2B7000000000081
:10432C00204180004800DE00D6A2B700000000004B
:10433C000000000030418000D6A2B7000000000051
:10434C00304180004800DE00D6A2B700000000001B
:10435C00000000000000000000000000D622EF006A
:10436C001100200000CB200010884000000000004D
:04437C000000060037
:1037B8000000000000000000000000000000000001
:1037C80000000000000000000000000000000000F1
:1037D80000000000000000000000000000000000E1
:1037E8000000000040418000D6A2B70000000000A1
:1037F800404180004800DE00D6A2B700000000006B
:103808000000000050418000D6A2B7000000000070
:10381800504180004800DE00D6A2B700000000003A
:103828000000000060418000D6A2B7000000000040
:10383800604180004800DE00D6A2B700000000000A
:103848000000000070418000D6A2B7000000000010
:10385800704180004800DE00D6A2B70000000000DA
:103868000000000080418000D6A2B70000000000E0
:10387800804180004800DE00D6A2B70000000000AA
:103888000000000090418000D6A2B70000000000B0
:10389800904180004800DE00D6A2B700000000007A
:1038A80000000000A0418000D6A2B7000000000080
:1038B800A04180004800DE00D6A2B700000000004A
:1038C80000000000B0418000D6A2B7000000000050
:1038D800B04180004800DE00D6A2B700000000001A
:1038E80000000000C0418000D6A2B7000000000020
:1038F800C04180004800DE00D6A2B70000000000EA
:1039080000000000D0418000D6A2B70000000000EF
:10391800D04180004800DE00D6A2B70000000000B9
:1039280000000000E0418000D6A2B70000000000BF
:10393800E04180004800DE00D6A2B7000000000089
:1039480000000000F0418000D6A2B700000000008F
:10395800F04180004800DE00D6A2B7000000000059
:103968000000000000428000D6A2B700000000005E
:10397800004280004800DE00D6A2B7000000000028
:103988000000000010428000D6A2B700000000002E
:10399800104280004800DE00D6A2B70000000000F8
:1039A8000000000020428000D6A2B70000000000FE
:1039B800204280004800DE00D6A2B70000000000C8
:1039C8000000000030428000D6A2B70000000000CE
:1039D800304280004800DE00D6A2B7000000000098
:1039E8000000000040428000D6A2B700000000009E
:1039F800404280004800DE00D6A2B7000000000068
:103A08000000000050428000D6A2B700000000006D
:103A1800504280004800DE00D6A2B7000000000037
:103A28000000000060428000D6A2B700000000003D
:103A3800604280004800DE00D6A2B7000000000007
:103A48000000000070428000D6A2B700000000000D
:103A5800704280004800DE00D6A2B70000000000D7
:103A6800000000000000000000000000D622EF0067
:103A78001100200000CB200010884000000000004A
:043A88000000060034
:1034E40000000000000000000000000000000000D8
:1034F40000000000000000000000000000000000C8
:1035040000000000000000000000000000000000B7
:103514000000000080428000D6A2B7000000000036
:10352400804280004800DE00D6A2B7000000000000
:103534000000000090428000D6A2B7000000000006
:10354400904280004800DE00D6A2B70000000000D0
:1035540000000000A0428000D6A2B70000000000D6
:10356400A04280004800DE00D6A2B70000000000A0
:1035740000000000B0428000D6A2B70000000000A6
:10358400B04280004800DE00D6A2B7000000000070
:1035940000000000C0428000D6A2B7000000000076
:1035A400C04280004800DE00D6A2B7000000000040
:1035B40000000000D0428000D6A2B7000000000046
:1035C400D04280004800DE00D6A2B7000000000010
:1035D40000000000E0428000D6A2B7000000000016
:1035E400E04280004800DE00D6A2B70000000000E0
:1035F40000000000F0428000D6A2B70000000000E6
:10360400F04280004800DE00D6A2B70000000000AF
:103614000000000000438000D6A2B70000000000B4
:10362400004380004800DE00D6A2B700000000007E
:103634000000000010438000D6A2B7000000000084
:10364400104380004800DE00D6A2B700000000004E
:103654000000000020438000D6A2B7000000000054
:10366400204380004800DE00D6A2B700000000001E
:103674000000000030438000D6A2B7000000000024
:10368400304380004800DE00D6A2B70000000000EE
:103694000000000040438000D6A2B70000000000F4
:1036A400404380004800DE00D6A2B70000000000BE
:1036B4000000000050438000D6A2B70000000000C4
:1036C400504380004800DE00D6A2B700000000008E
:1036D4000000000060438000D6A2B7000000000094
:1036E400604380004800DE00D6A2B700000000005E
:1036F4000000000070438000D6A2B7000000000064
:10370400704380004800DE00D6A2B700000000002D
:103714000000000080438000D6A2B7000000000033
:10372400804380004800DE00D6A2B70000000000FD
:103734000000000090438000D6A2B7000000000003
:10374400904380004800DE00D6A2B70000000000CD
:1037540000000000A0438000D6A2B70000000000D3
:10376400A04380004800DE00D6A2B700000000009D
:1037740000000000B0438000D6A2B70000000000A3
:10378400B04380004800DE00D6A2B700000000006D
:10379400000000000000000000000000D622EF003E
:1037A4001100200000CB2000108840000000000021
:0437B400000006000B
:103D60000000000000000000000000000000000053
:103D70000000000000000000000000000000000043
:103D80000000000000000000000000000000000033
:103D900000000000C0438000D6A2B7000000000071
:103DA000C04380004800DE00D6A2B700000000003B
:103DB00000000000D0438000D6A2B7000000000041
:103DC000D04380004800DE00D6A2B700000000000B
:103DD00000000000E0438000D6A2B7000000000011
:103DE000E04380004800DE00D6A2B70000000000DB
:103DF00000000000F0438000D6A2B70000000000E1
:103E0000F04380004800DE00D6A2B70000000000AA
:103E10000000000000448000D6A2B70000000000AF
:103E2000004480004800DE00D6A2B7000000000079
:103E30000000000010448000D6A2B700000000007F
:103E4000104480004800DE00D6A2B7000000000049
:103E50000000000020448000D6A2B700000000004F
:103E6000204480004800DE00D6A2B7000000000019
:103E70000000000030448000D6A2B700000000001F
:103E8000304480004800DE00D6A2B70000000000E9
:103E90000000000040448000D6A2B70000000000EF
:103EA000404480004800DE00D6A2B70000000000B9
:103EB0000000000050448000D6A2B70000000000BF
:103EC000504480004800DE00D6A2B7000000000089
:103ED0000000000060448000D6A2B700000000008F
:103EE000604480004800DE00D6A2B7000000000059
:103EF0000000000070448000D6A2B700000000005F
:103F0000704480004800DE00D6A2B7000000000028
:103F10000000000080448000D6A2B700000000002E
:103F2000804480004800DE00D6A2B70000000000F8
:103F30000000000090448000D6A2B70000000000FE
:103F4000904480004800DE00D6A2B70000000000C8
:103F500000000000A0448000D6A2B70000000000CE
:103F6000A04480004800DE00D6A2B7000000000098
:103F700000000000B0448000D6A2B700000000009E
:103F8000B04480004800DE00D6A2B7000000000068
:103F900000000000C0448000D6A2B700000000006E
:103FA000C04480004800DE00D6A2B7000000000038
:103FB00000000000D0448000D6A2B700000000003E
:103FC000D04480004800DE00D6A2B7000000000008
:103FD00000000000E0448000D6A2B700000000000E
:103FE000E04480004800DE00D6A2B70000000000D8
:103FF00000000000F0448000D6A2B70000000000DE
:10400000F04480004800DE00D6A2B70000000000A7
:10401000000000000000000000000000D622EF00B9
:104020001100200000CB200010884000000000009C
:044030000000060086
:103A8C00000000000000000000000000000000002A
:103A9C00000000000000000000000000000000001A
:103AAC00000000000000000000000000000000000A
:103ABC000000000000458000D6A2B7000000000006
:103ACC00004580004800DE00D6A2B70000000000D0
:103ADC000000000010458000D6A2B70000000000D6
:103AEC00104580004800DE00D6A2B70000000000A0
:103AFC000000000020458000D6A2B70000000000A6
:103B0C00204580004800DE00D6A2B700000000006F
:103B1C000000000030458000D6A2B7000000000075
:103B2C00304580004800DE00D6A2B700000000003F
:103B3C000000000040458000D6A2B7000000000045
:103B4C00404580004800DE00D6A2B700000000000F
:103B5C000000000050458000D6A2B7000000000015
:103B6C00504580004800DE00D6A2B70000000000DF
:103B7C000000000060458000D6A2B70000000000E5
:103B8C00604580004800DE00D6A2B70000000000AF
:103B9C000000000070458000D6A2B70000000000B5
:103BAC00704580004800DE00D6A2B700000000007F
:103BBC000000000080458000D6A2B7000000000085
:103BCC00804580004800DE00D6A2B700000000004F
:103BDC000000000090458000D6A2B7000000000055
:103BEC00904580004800DE00D6A2B700000000001F
:103BFC0000000000A0458000D6A2B7000000000025
:103C0C00A04580004800DE00D6A2B70000000000EE
:103C1C0000000000B0458000D6A2B70000000000F4
:103C2C00B04580004800DE00D6A2B70000000000BE
:103C3C0000000000C0458000D6A2B70000000000C4
:103C4C00C04580004800DE00D6A2B700000000008E
:103C5C0000000000D0458000D6A2B7000000000094
:103C6C00D04580004800DE00D6A2B700000000005E
:103C7C0000000000E0458000D6A2B7000000000064
:103C8C00E04580004800DE00D6A2B700000000002E
:103C9C0000000000F0458000D6A2B7000000000034
:103CAC00F04580004800DE00D6A2B70000000000FE
:103CBC000000000000468000D6A2B7000000000003
:103CCC00004680004800DE00D6A2B70000000000CD
:103CDC000000000010468000D6A2B70000000000D3
:103CEC00104680004800DE00D6A2B700000000009D
:103CFC000000000020468000D6A2B70000000000A3
:103D0C00204680004800DE00D6A2B700000000006C
:103D1C000000000030468000D6A2B7000000000072
:103D2C00304680004800DE00D6A2B700000000003C
:103D3C00000000000000000000000000D622EF0090
:103D4C001100200000CB2000108840000000000073
:043D5C00000006005D
:10547C000000000000000000000000000000000020
:10548C000000000000000000000000000000000010
:10549C000000000000000000000000000000000000
:1054AC000000000040468000D6A2B70000000000BB
:1054BC00404680004800DE00D6A2B7000000000085
:1054CC000000000050468000D6A2B700000000008B
:1054DC00504680004800DE00D6A2B7000000000055
:1054EC000000000060468000D6A2B700000000005B
:1054FC00604680004800DE00D6A2B7000000000025
:10550C000000000070468000D6A2B700000000002A
:10551C00704680004800DE00D6A2B70000000000F4
:10552C000000000080468000D6A2B70000000000FA
:10553C00804680004800DE00D6A2B70000000000C4
:10554C000000000090468000D6A2B70000000000CA
:10555C00904680004800DE00D6A2B7000000000094
:10556C0000000000A0468000D6A2B700000000009A
:10557C00A04680004800DE00D6A2B7000000000064
:10558C0000000000B0468000D6A2B700000000006A
:10559C00B04680004800DE00D6A2B7000000000034
:1055AC0000000000C0468000D6A2B700000000003A
:1055BC00C04680004800DE00D6A2B7000000000004
:1055CC0000000000D0468000D6A2B700000000000A
:1055DC00D04680004800DE00D6A2B70000000000D4
:1055EC0000000000E0468000D6A2B70000000000DA
:1055FC00E04680004800DE00D6A2B70000000000A4
:10560C0000000000F0468000D6A2B70000000000A9
:10561C00F04680004800DE00D6A2B7000000000073
:10562C000000000000478000D6A2B7000000000078
:10563C00004780004800DE00D6A2B7000000000042
:10564C000000000010478000D6A2B7000000000048
:10565C00104780004800DE00D6A2B7000000000012
:10566C000000000020478000D6A2B7000000000018
:10567C00204780004800DE00D6A2B70000000000E2
:10568C000000000030478000D6A2B70000000000E8
:10569C00304780004800DE00D6A2B70000000000B2
:1056AC000000000040478000D6A2B70000000000B8
:1056BC00404780004800DE00D6A2B7000000000082
:1056CC000000000050478000D6A2B7000000000088
:1056DC00504780004800DE00D6A2B7000000000052
:1056EC000000000060478000D6A2B7000000000058
:1056FC00604780004800DE00D6A2B7000000000022
:10570C000000000070478000D6A2B7000000000027
:10571C00704780004800DE00D6A2B70000000000F1
:10572C00000000000000000000000000D622EF0086
:10573C001100200000CB2000108840000000000069
:04574C000000060053
:1051A80000000000000000000000000000000000F7
:1051B80000000000000000000000000000000000E7
:1051C80000000000000000000000000000000000D7
:1051D8000000000080478000D6A2B7000000000051
:1051E800804780004800DE00D6A2B700000000001B
:1051F8000000000090478000D6A2B7000000000021
:10520800904780004800DE00D6A2B70000000000EA
:1052180000000000A0478000D6A2B70000000000F0
:10522800A04780004800DE00D6A2B70000000000BA
:1052380000000000B0478000D6A2B70000000000C0
:10524800B04780004800DE00D6A2B700000000008A
:1052580000000000C0478000D6A2B7000000000090
:10526800C04780004800DE00D6A2B700000000005A
:1052780000000000D0478000D6A2B7000000000060
:10528800D04780004800DE00D6A2B700000000002A
:1052980000000000E0478000D6A2B7000000000030
:1052A800E04780004800DE00D6A2B70000000000FA
:1052B80000000000F0478000D6A2B7000000000000
:1052C800F04780004800DE00D6A2B70000000000CA
:1052D8000000000000488000D6A2B70000000000CF
:1052E800004880004800DE00D6A2B7000000000099
:1052F8000000000010488000D6A2B700000000009F
:10530800104880004800DE00D6A2B7000000000068
:105318000000000020488000D6A2B700000000006E
:10532800204880004800DE00D6A2B7000000000038
:105338000000000030488000D6A2B700000000003E
:10534800304880004800DE00D6A2B7000000000008
:105358000000000040488000D6A2B700000000000E
:10536800404880004800DE00D6A2B70000000000D8
:105378000000000050488000D6A2B70000000000DE
:10538800504880004800DE00D6A2B70000000000A8
:105398000000000060488000D6A2B70000000000AE
:1053A800604880004800DE00D6A2B7000000000078
:1053B8000000000070488000D6A2B700000000007E
:1053C800704880004800DE00D6A2B7000000000048
:1053D8000000000080488000D6A2B700000000004E
:1053E800804880004800DE00D6A2B7000000000018
:1053F8000000000090488000D6A2B700000000001E
:10540800904880004800DE00D6A2B70000000000E7
:1054180000000000A0488000D6A2B70000000000ED
:10542800A04880004800DE00D6A2B70000000000B7
:1054380000000000B0488000D6A2B70000000000BD
:10544800B04880004800DE00D6A2B7000000000087
:10545800000000000000000000000000D622EF005D
:105468001100200000CB2000108840000000000040
:04547800000006002A
:105A24000000000000000000000000000000000072
:105A34000000000000000000000000000000000062
:105A44000000000000000000000000000000000052
:105A540000000000C0488000D6A2B700000000008B
:105A6400C04880004800DE00D6A2B7000000000055
:105A740000000000D0488000D6A2B700000000005B
:105A8400D04880004800DE00D6A2B7000000000025
:105A940000000000E0488000D6A2B700000000002B
:105AA400E04880004800DE00D6A2B70000000000F5
:105AB40000000000F0488000D6A2B70000000000FB
:105AC400F04880004800DE00D6A2B70000000000C5
:105AD4000000000000498000D6A2B70000000000CA
:105AE400004980004800DE00D6A2B7000000000094
:105AF4000000000010498000D6A2B700000000009A
:105B0400104980004800DE00D6A2B7000000000063
:105B14000000000020498000D6A2B7000000000069
:105B2400204980004800DE00D6A2B7000000000033
:105B34000000000030498000D6A2B7000000000039
:105B4400304980004800DE00D6A2B7000000000003
:105B54000000000040498000D6A2B7000000000009
:105B6400404980004800DE00D6A2B70000000000D3
:105B74000000000050498000D6A2B70000000000D9
:105B8400504980004800DE00D6A2B70000000000A3
:105B94000000000060498000D6A2B70000000000A9
:105BA400604980004800DE00D6A2B7000000000073
:105BB4000000000070498000D6A2B7000000000079
:105BC400704980004800DE00D6A2B7000000000043
:105BD4000000000080498000D6A2B7000000000049
:105BE400804980004800DE00D6A2B7000000000013
:105BF4000000000090498000D6A2B7000000000019
:105C0400904980004800DE00D6A2B70000000000E2
:105C140000000000A0498000D6A2B70000000000E8
:105C2400A04980004800DE00D6A2B70000000000B2
:105C340000000000B0498000D6A2B70000000000B8
:105C4400B04980004800DE00D6A2B7000000000082
:105C540000000000C0498000D6A2B7000000000088
:105C6400C04980004800DE00D6A2B7000000000052
:105C740000000000D0498000D6A2B7000000000058
:105C8400D04980004800DE00D6A2B7000000000022
:105C940000000000E0498000D6A2B7000000000028
:105CA400E04980004800DE00D6A2B70000000000F2
:105CB40000000000F0498000D6A2B70000000000F8
:105CC400F04980004800DE00D6A2B70000000000C2
:105CD400000000000000000000000000D622EF00D9
:105CE4001100200000CB20001088400000000000BC
:045CF40000000600A6
:105750000000000000000000000000000000000049
:105760000000000000000000000000000000000039
:105770000000000000000000000000000000000029
:1057800000000000004A8000D6A2B7000000000020
:10579000004A80004800DE00D6A2B70000000000EA
:1057A00000000000104A8000D6A2B70000000000F0
:1057B000104A80004800DE00D6A2B70000000000BA
:1057C00000000000204A8000D6A2B70000000000C0
:1057D000204A80004800DE00D6A2B700000000008A
:1057E00000000000304A8000D6A2B7000000000090
:1057F000304A80004800DE00D6A2B700000000005A
:1058000000000000404A8000D6A2B700000000005F
:10581000404A80004800DE00D6A2B7000000000029
:1058200000000000504A8000D6A2B700000000002F
:10583000504A80004800DE00D6A2B70000000000F9
:1058400000000000604A8000D6A2B70000000000FF
:10585000604A80004800DE00D6A2B70000000000C9
:1058600000000000704A8000D6A2B70000000000CF
:10587000704A80004800DE00D6A2B7000000000099
:1058800000000000804A8000D6A2B700000000009F
:10589000804A80004800DE00D6A2B7000000000069
:1058A00000000000904A8000D6A2B700000000006F
:1058B000904A80004800DE00D6A2B7000000000039
:1058C00000000000A04A8000D6A2B700000000003F
:1058D000A04A80004800DE00D6A2B7000000000009
:1058E00000000000B04A8000D6A2B700000000000F
:1058F000B04A80004800DE00D6A2B70000000000D9
:1059000000000000C04A8000D6A2B70000000000DE
:10591000C04A80004800DE00D6A2B70000000000A8
:1059200000000000D04A8000D6A2B70000000000AE
:10593000D04A80004800DE00D6A2B7000000000078
:1059400000000000E04A8000D6A2B700000000007E
:10595000E04A80004800DE00D6A2B7000000000048
:1059600000000000F04A8000D6A2B700000000004E
:10597000F04A80004800DE00D6A2B7000000000018
:1059800000000000004B8000D6A2B700000000001D
:10599000004B80004800DE00D6A2B70000000000E7
:1059A00000000000104B8000D6A2B70000000000ED
:1059B000104B80004800DE00D6A2B70000000000B7
:1059C00000000000204B8000D6A2B70000000000BD
:1059D000204B80004800DE00D6A2B7000000000087
:1059E00000000000304B8000D6A2B700000000008D
:1059F000304B80004800DE00D6A2B7000000000057
:105A0000000000000000000000000000D622EF00AF
:105A10001100200000CB2000108840000000000092
:045A2000000006007C
:10492C00000000000000000000000000000000007B
:10493C00000000000000000000000000000000006B
:10494C00000000000000000000000000000000005B
:10495C0000000000404B8000D6A2B7000000000011
:10496C00404B80004800DE00D6A2B70000000000DB
:10497C0000000000504B8000D6A2B70000000000E1
:10498C00504B80004800DE00D6A2B70000000000AB
:10499C0000000000604B8000D6A2B70000000000B1
:1049AC00604B80004800DE00D6A2B700000000007B
:1049BC0000000000704B8000D6A2B7000000000081
:1049CC00704B80004800DE00D6A2B700000000004B
:1049DC0000000000804B8000D6A2B7000000000051
:1049EC00804B80004800DE00D6A2B700000000001B
:1049FC0000000000904B8000D6A2B7000000000021
:104A0C00904B80004800DE00D6A2B70000000000EA
:104A1C0000000000A04B8000D6A2B70000000000F0
:104A2C00A04B80004800DE00D6A2B70000000000BA
:104A3C0000000000B04B8000D6A2B70000000000C0
:104A4C00B04B80004800DE00D6A2B700000000008A
:104A5C0000000000C04B8000D6A2B7000000000090
:104A6C00C04B80004800DE00D6A2B700000000005A
:104A7C0000000000D04B8000D6A2B7000000000060
:104A8C00D04B80004800DE00D6A2B700000000002A
:104A9C0000000000E04B8000D6A2B7000000000030
:104AAC00E04B80004800DE00D6A2B70000000000FA
:104ABC0000000000F04B8000D6A2B7000000000000
:104ACC00F04B80004800DE00D6A2B70000000000CA
:104ADC0000000000004C8000D6A2B70000000000CF
:104AEC00004C80004800DE00D6A2B7000000000099
:104AFC0000000000104C8000D6A2B700000000009F
:104B0C00104C80004800DE00D6A2B7000000000068
:104B1C0000000000204C8000D6A2B700000000006E
:104B2C00204C80004800DE00D6A2B7000000000038
:104B3C0000000000304C8000D6A2B700000000003E
:104B4C00304C80004800DE00D6A2B7000000000008
:104B5C0000000000404C8000D6A2B700000000000E
:104B6C00404C80004800DE00D6A2B70000000000D8
:104B7C0000000000504C8000D6A2B70000000000DE
:104B8C00504C80004800DE00D6A2B70000000000A8
:104B9C0000000000604C8000D6A2B70000000000AE
:104BAC00604C80004800DE00D6A2B7000000000078
:104BBC0000000000704C8000D6A2B700000000007E
:104BCC00704C80004800DE00D6A2B7000000000048
:104BDC00000000000000000000000000D622EF00E2
:104BEC001100200000CB20001088400000000000C5
:044BFC0000000600AF
:104658000000000000000000000000000000000052
:104668000000000000000000000000000000000042
:104678000000000000000000000000000000000032
:1046880000000000804C8000D6A2B70000000000A7
:10469800804C80004800DE00D6A2B7000000000071
:1046A80000000000904C8000D6A2B7000000000077
:1046B800904C80004800DE00D6A2B7000000000041
:1046C80000000000A04C8000D6A2B7000000000047
:1046D800A04C80004800DE00D6A2B7000000000011
:1046E80000000000B04C8000D6A2B7000000000017
:1046F800B04C80004800DE00D6A2B70000000000E1
:1047080000000000C04C8000D6A2B70000000000E6
:10471800C04C80004800DE00D6A2B70000000000B0
:1047280000000000D04C8000D6A2B70000000000B6
:10473800D04C80004800DE00D6A2B7000000000080
:1047480000000000E04C8000D6A2B7000000000086
:10475800E04C80004800DE00D6A2B7000000000050
:1047680000000000F04C8000D6A2B7000000000056
:10477800F04C80004800DE00D6A2B7000000000020
:1047880000000000004D8000D6A2B7000000000025
:10479800004D80004800DE00D6A2B70000000000EF
:1047A80000000000104D8000D6A2B70000000000F5
:1047B800104D80004800DE00D6A2B70000000000BF
:1047C80000000000204D8000D6A2B70000000000C5
:1047D800204D80004800DE00D6A2B700000000008F
:1047E80000000000304D8000D6A2B7000000000095
:1047F800304D80004800DE00D6A2B700000000005F
:1048080000000000404D8000D6A2B7000000000064
:10481800404D80004800DE00D6A2B700000000002E
:1048280000000000504D8000D6A2B7000000000034
:10483800504D80004800DE00D6A2B70000000000FE
:1048480000000000604D8000D6A2B7000000000004
:10485800604D80004800DE00D6A2B70000000000CE
:1048680000000000704D8000D6A2B70000000000D4
:10487800704D80004800DE00D6A2B700000000009E
:1048880000000000804D8000D6A2B70000000000A4
:10489800804D80004800DE00D6A2B700000000006E
:1048A80000000000904D8000D6A2B7000000000074
:1048B800904D80004800DE00D6A2B700000000003E
:1048C80000000000A04D8000D6A2B7000000000044
:1048D800A04D80004800DE00D6A2B700000000000E
:1048E80000000000B04D8000D6A2B7000000000014
:1048F800B04D80004800DE00D6A2B70000000000DE
:10490800000000000000000000000000D622EF00B8
:104918001100200000CB200010884000000000009B
:044928000000060085
:104ED40000000000000000000000000000000000CE
:104EE40000000000000000000000000000000000BE
:104EF40000000000000000000000000000000000AE
:104F040000000000C04D8000D6A2B70000000000E1
:104F1400C04D80004800DE00D6A2B70000000000AB
:104F240000000000D04D8000D6A2B70000000000B1
:104F3400D04D80004800DE00D6A2B700000000007B
:104F440000000000E04D8000D6A2B7000000000081
:104F5400E04D80004800DE00D6A2B700000000004B
:104F640000000000F04D8000D6A2B7000000000051
:104F7400F04D80004800DE00D6A2B700000000001B
:104F840000000000004E8000D6A2B7000000000020
:104F9400004E80004800DE00D6A2B70000000000EA
:104FA40000000000104E8000D6A2B70000000000F0
:104FB400104E80004800DE00D6A2B70000000000BA
:104FC40000000000204E8000D6A2B70000000000C0
:104FD400204E80004800DE00D6A2B700000000008A
:104FE40000000000304E8000D6A2B7000000000090
:104FF400304E80004800DE00D6A2B700000000005A
:1050040000000000404E8000D6A2B700000000005F
:10501400404E80004800DE00D6A2B7000000000029
:1050240000000000504E8000D6A2B700000000002F
:10503400504E80004800DE00D6A2B70000000000F9
:1050440000000000604E8000D6A2B70000000000FF
:10505400604E80004800DE00D6A2B70000000000C9
:1050640000000000704E8000D6A2B70000000000CF
:10507400704E80004800DE00D6A2B7000000000099
:1050840000000000804E8000D6A2B700000000009F
:10509400804E80004800DE00D6A2B7000000000069
:1050A40000000000904E8000D6A2B700000000006F
:1050B400904E80004800DE00D6A2B7000000000039
:1050C40000000000A04E8000D6A2B700000000003F
:1050D400A04E80004800DE00D6A2B7000000000009
:1050E40000000000B04E8000D6A2B700000000000F
:1050F400B04E80004800DE00D6A2B70000000000D9
:1051040000000000C04E8000D6A2B70000000000DE
:10511400C04E80004800DE00D6A2B70000000000A8
:1051240000000000D04E8000D6A2B70000000000AE
:10513400D04E80004800DE00D6A2B7000000000078
:1051440000000000E04E8000D6A2B700000000007E
:10515400E04E80004800DE00D6A2B7000000000048
:1051640000000000F04E8000D6A2B700000000004E
:10517400F04E80004800DE00D6A2B7000000000018
:10518400000000000000000000000000D622EF0034
:105194001100200000CB2000108840000000000017
:0451A4000000060001
:104C000000000000000000000000000000000000A4
:104C10000000000000000000000000000000000094
:104C20000000000000000000000000000000000084
:104C300000000000004F8000D6A2B7000000000076
:104C4000004F80004800DE00D6A2B7000000000040
:104C500000000000104F8000D6A2B7000000000046
:104C6000104F80004800DE00D6A2B7000000000010
:104C700000000000204F8000D6A2B7000000000016
:104C8000204F80004800DE00D6A2B70000000000E0
:104C900000000000304F8000D6A2B70000000000E6
:104CA000304F80004800DE00D6A2B70000000000B0
:104CB00000000000404F8000D6A2B70000000000B6
:104CC000404F80004800DE00D6A2B7000000000080
:104CD00000000000504F8000D6A2B7000000000086
:104CE000504F80004800DE00D6A2B7000000000050
:104CF00000000000604F8000D6A2B7000000000056
:104D0000604F80004800DE00D6A2B700000000001F
:104D100000000000704F8000D6A2B7000000000025
:104D2000704F80004800DE00D6A2B70000000000EF
:104D300000000000804F8000D6A2B70000000000F5
:104D4000804F80004800DE00D6A2B70000000000BF
:104D500000000000904F8000D6A2B70000000000C5
:104D6000904F80004800DE00D6A2B700000000008F
:104D700000000000A04F8000D6A2B7000000000095
:104D8000A04F80004800DE00D6A2B700000000005F
:104D900000000000B04F8000D6A2B7000000000065
:104DA000B04F80004800DE00D6A2B700000000002F
:104DB00000000000C04F8000D6A2B7000000000035
:104DC000C04F80004800DE00D6A2B70000000000FF
:104DD00000000000D04F8000D6A2B7000000000005
:104DE000D04F80004800DE00D6A2B70000000000CF
:104DF00000000000E04F8000D6A2B70000000000D5
:104E0000E04F80004800DE00D6A2B700000000009E
:104E100000000000F04F8000D6A2B70000000000A4
:104E2000F04F80004800DE00D6A2B700000000006E
:104E30000000000000508000D6A2B7000000000073
:104E4000005080004800DE00D6A2B700000000003D
:104E50000000000010508000D6A2B7000000000043
:104E6000105080004800DE00D6A2B700000000000D
:104E70000000000020508000D6A2B7000000000013
:104E8000205080004800DE00D6A2B70000000000DD
:104E90000000000030508000D6A2B70000000000E3
:104EA000305080004800DE00D6A2B70000000000AD
:104EB000000000000000000000000000D622EF000B
:104EC0001100200000CB20001088400000000000EE
:044ED00000000600D8
:1032100000000000000000000000000000000000AE
:10322000000000000000000000000000000000009E
:10323000000000000000000000000000000000008E
:103240000000000040508000D6A2B700000000003F
:10325000405080004800DE00D6A2B7000000000009
:103260000000000050508000D6A2B700000000000F
:10327000505080004800DE00D6A2B70000000000D9
:103280000000000060508000D6A2B70000000000DF
:10329000605080004800DE00D6A2B70000000000A9
:1032A0000000000070508000D6A2B70000000000AF
:1032B000705080004800DE00D6A2B7000000000079
:1032C0000000000080508000D6A2B700000000007F
:1032D000805080004800DE00D6A2B7000000000049
:1032E0000000000090508000D6A2B700000000004F
:1032F000905080004800DE00D6A2B7000000000019
:1033000000000000A0508000D6A2B700000000001E
:10331000A05080004800DE00D6A2B70000000000E8
:1033200000000000B0508000D6A2B70000000000EE
:10333000B05080004800DE00D6A2B70000000000B8
:1033400000000000C0508000D6A2B70000000000BE
:10335000C05080004800DE00D6A2B7000000000088
:1033600000000000D0508000D6A2B700000000008E
:10337000D05080004800DE00D6A2B7000000000058
:1033800000000000E0508000D6A2B700000000005E
:10339000E05080004800DE00D6A2B7000000000028
:1033A00000000000F0508000D6A2B700000000002E
:1033B000F05080004800DE00D6A2B70000000000F8
:1033C0000000000000518000D6A2B70000000000FD
:1033D000005180004800DE00D6A2B70000000000C7
:1033E0000000000010518000D6A2B70000000000CD
:1033F000105180004800DE00D6A2B7000000000097
:103400000000000020518000D6A2B700000000009C
:10341000205180004800DE00D6A2B7000000000066
:103420000000000030518000D6A2B700000000006C
:10343000305180004800DE00D6A2B7000000000036
:103440000000000040518000D6A2B700000000003C
:10345000405180004800DE00D6A2B7000000000006
:103460000000000050518000D6A2B700000000000C
:10347000505180004800DE00D6A2B70000000000D6
:103480000000000060518000D6A2B70000000000DC
:10349000605180004800DE00D6A2B70000000000A6
:1034A0000000000070518000D6A2B70000000000AC
:1034B000705180004800DE00D6A2B7000000000076
:1034C000000000000000000000000000D622EF0015
:1034D0001100200000CB20001088400000000000F8
:0434E00000000600E2
:1010240000000000000000000000000000000000BC
:1010340000000000000000000000000000000000AC
:10104400000000000000000000000000000000009C
:101054000000000080518000D6A2B700000000000C
:10106400805180004800DE00D6A2B70000000000D6
:101074000000000090518000D6A2B70000000000DC
:10108400905180004800DE00D6A2B70000000000A6
:1010940000000000A0518000D6A2B70000000000AC
:1010A400A05180004800DE00D6A2B7000000000076
:1010B40000000000B0518000D6A2B700000000007C
:1010C400B05180004800DE00D6A2B7000000000046
:1010D40000000000C0518000D6A2B700000000004C
:1010E400C05180004800DE00D6A2B7000000000016
:1010F40000000000D0518000D6A2B700000000001C
:10110400D05180004800DE00D6A2B70000000000E5
:1011140000000000E0518000D6A2B70000000000EB
:10112400E05180004800DE00D6A2B70000000000B5
:1011340000000000F0518000D6A2B70000000000BB
:10114400F05180004800DE00D6A2B7000000000085
:101154000000000000528000D6A2B700000000008A
:10116400005280004800DE00D6A2B7000000000054
:101174000000000010528000D6A2B700000000005A
:10118400105280004800DE00D6A2B7000000000024
:101194000000000020528000D6A2B700000000002A
:1011A400205280004800DE00D6A2B70000000000F4
:1011B4000000000030528000D6A2B70000000000FA
:1011C400305280004800DE00D6A2B70000000000C4
:1011D4000000000040528000D6A2B70000000000CA
:1011E400405280004800DE00D6A2B7000000000094
:1011F4000000000050528000D6A2B700000000009A
:10120400505280004800DE00D6A2B7000000000063
:101214000000000060528000D6A2B7000000000069
:10122400605280004800DE00D6A2B7000000000033
:101234000000000070528000D6A2B7000000000039
:10124400705280004800DE00D6A2B7000000000003
:101254000000000080528000D6A2B7000000000009
:10126400805280004800DE00D6A2B70000000000D3
:101274000000000090528000D6A2B70000000000D9
:10128400905280004800DE00D6A2B70000000000A3
:1012940000000000A0528000D6A2B70000000000A9
:1012A400A05280004800DE00D6A2B7000000000073
:1012B40000000000B0528000D6A2B7000000000079
:1012C400B05280004800DE00D6A2B7000000000043
:1012D400000000000000000000000000D622EF0023
:1012E4001100200000CB2000108840000000000006
:0412F40000000600F0
:100D50000000000000000000000000000000000093
:100D60000000000000000000000000000000000083
:100D70000000000000000000000000000000000073
:100D800000000000C0528000D6A2B70000000000A2
:100D9000C05280004800DE00D6A2B700000000006C
:100DA00000000000D0528000D6A2B7000000000072
:100DB000D05280004800DE00D6A2B700000000003C
:100DC00000000000E0528000D6A2B7000000000042
:100DD000E05280004800DE00D6A2B700000000000C
:100DE00000000000F0528000D6A2B7000000000012
:100DF000F05280004800DE00D6A2B70000000000DC
:100E00000000000000538000D6A2B70000000000E0
:100E1000005380004800DE00D6A2B70000000000AA
:100E20000000000010538000D6A2B70000000000B0
:100E3000105380004800DE00D6A2B700000000007A
:100E40000000000020538000D6A2B7000000000080
:100E5000205380004800DE00D6A2B700000000004A
:100E60000000000030538000D6A2B7000000000050
:100E7000305380004800DE00D6A2B700000000001A
:100E80000000000040538000D6A2B7000000000020
:100E9000405380004800DE00D6A2B70000000000EA
:100EA0000000000050538000D6A2B70000000000F0
:100EB000505380004800DE00D6A2B70000000000BA
:100EC0000000000060538000D6A2B70000000000C0
:100ED000605380004800DE00D6A2B700000000008A
:100EE0000000000070538000D6A2B7000000000090
:100EF000705380004800DE00D6A2B700000000005A
:100F00000000000080538000D6A2B700000000005F
:100F1000805380004800DE00D6A2B7000000000029
:100F20000000000090538000D6A2B700000000002F
:100F3000905380004800DE00D6A2B70000000000F9
:100F400000000000A0538000D6A2B70000000000FF
:100F5000A05380004800DE00D6A2B70000000000C9
:100F600000000000B0538000D6A2B70000000000CF
:100F7000B05380004800DE00D6A2B7000000000099
:100F800000000000C0538000D6A2B700000000009F
:100F9000C05380004800DE00D6A2B7000000000069
:100FA00000000000D0538000D6A2B700000000006F
:100FB000D05380004800DE00D6A2B7000000000039
:100FC00000000000E0538000D6A2B700000000003F
:100FD000E05380004800DE00D6A2B7000000000009
:100FE00000000000F0538000D6A2B700000000000F
:100FF000F05380004800DE00D6A2B70000000000D9
:10100000000000000000000000000000D622EF00F9
:101010001100200000CB20001088400000000000DC
:0410200000000600C6
:1015CC00000000000000000000000000000000000F
:1015DC0000000000000000000000000000000000FF
:1015EC0000000000000000000000000000000000EF
:1015FC000000000000548000D6A2B70000000000DC
:10160C00005480004800DE00D6A2B70000000000A5
:10161C000000000010548000D6A2B70000000000AB
:10162C00105480004800DE00D6A2B7000000000075
:10163C000000000020548000D6A2B700000000007B
:10164C00205480004800DE00D6A2B7000000000045
:10165C000000000030548000D6A2B700000000004B
:10166C00305480004800DE00D6A2B7000000000015
:10167C000000000040548000D6A2B700000000001B
:10168C00405480004800DE00D6A2B70000000000E5
:10169C000000000050548000D6A2B70000000000EB
:1016AC00505480004800DE00D6A2B70000000000B5
:1016BC000000000060548000D6A2B70000000000BB
:1016CC00605480004800DE00D6A2B7000000000085
:1016DC000000000070548000D6A2B700000000008B
:1016EC00705480004800DE00D6A2B7000000000055
:1016FC000000000080548000D6A2B700000000005B
:10170C00805480004800DE00D6A2B7000000000024
:10171C000000000090548000D6A2B700000000002A
:10172C00905480004800DE00D6A2B70000000000F4
:10173C0000000000A0548000D6A2B70000000000FA
:10174C00A05480004800DE00D6A2B70000000000C4
:10175C0000000000B0548000D6A2B70000000000CA
:10176C00B05480004800DE00D6A2B7000000000094
:10177C0000000000C0548000D6A2B700000000009A
:10178C00C05480004800DE00D6A2B7000000000064
:10179C0000000000D0548000D6A2B700000000006A
:1017AC00D05480004800DE00D6A2B7000000000034
:1017BC0000000000E0548000D6A2B700000000003A
:1017CC00E05480004800DE00D6A2B7000000000004
:1017DC0000000000F0548000D6A2B700000000000A
:1017EC00F05480004800DE00D6A2B70000000000D4
:1017FC000000000000558000D6A2B70000000000D9
:10180C00005580004800DE00D6A2B70000000000A2
:10181C000000000010558000D6A2B70000000000A8
:10182C00105580004800DE00D6A2B7000000000072
:10183C000000000020558000D6A2B7000000000078
:10184C00205580004800DE00D6A2B7000000000042
:10185C000000000030558000D6A2B7000000000048
:10186C00305580004800DE00D6A2B7000000000012
:10187C00000000000000000000000000D622EF0075
:10188C001100200000CB2000108840000000000058
:04189C000000060042
:1012F80000000000000000000000000000000000E6
:1013080000000000000000000000000000000000D5
:1013180000000000000000000000000000000000C5
