:10000000C6310400000000000000000000000000F5
:1000100000000000000000000000000000000000E0
:1000200000000000000000000000000000000000D0
:1000300000000000000000000000000000000000C0
:1000400000000000000000000000000000000000B0
:1000500000000000000000000000000000000000A0
:100060000000000000000000000000000000000090
:100070000000000000000000000000000000000080
:100080000000000000000000000000000000000070
:100090000000000000000000000000000000000060
:1000A0000000000000000000000000000000000050
:1000B0000000000000000000000000000000000040
:1000C0000000000000000000000000000000000030
:1000D0000000000000000000000000000000000020
:1000E0000000000000000000000000000000000010
:1000F0000000000000000000000000000000000000
:1001000000000000000000000000000000000000EF
:1001100000000000000000000000000000000000DF
:1001200000000000000000000000000000000000CF
:1001300000000000000000000000000000000000BF
:1001400000000000000000000000000000000000AF
:10015000000000000000000000000000000000009F
:10016000000000000000000000000000000000008F
:10017000000000000000000000000000000000007F
:10018000000000000000000000000000000000006F
:10019000000000000000000000000000000000005F
:1001A000000000000000000000000000000000004F
:1001B000000000000000000000000000000000003F
:1001C000000000000000000000000000000000002F
:1001D000000000000000000000000000000000001F
:1001E000000000000000000000000000000000000F
:1001F00000000000000000000000000000000000FF
:10638C006FCC2000F0FF200020A0B7000000200000
:10639C0034A0B700400020004420B7003A4A020065
:1063AC0000000000444A020000000000C2F8070090
:1063BC0095F80700DC42A900DC22A9007FF9070050
:1063CC00DC22A800C7F80700DC22A9007BF9070033
:1063DC00DC22A800C3F80700DC22A90077F907002B
:1063EC00DC22A800BFF80700DC22A90073F9070023
:1063FC00DC22A800BBF80700DC42A800DC22A900C4
:10640C006EF90700DC22A800B6F80700DC22A90010
:10641C006AF90700DC22A800B2F80700DC22A90008
:10642C0066F90700DC22A800AEF80700DC22A90000
:10643C0062F90700DC22A800AAF80700DC22A900F8
:10644C005EF90700DC22A800A6F80700DC22A900F0
:10645C005AF90700DC22A800A2F80700DC22A900E8
:10646C0056F90700DC22A8009EF80700DC22A900E0
:10647C0052F90700DC22A8009AF80700DC22A900D8
:10648C004EF90700DC22A80096F80700DC22A900D0
:10649C004AF90700DC22A80092F80700DC22A900C8
:1064AC0046F90700DC22A8008EF80700DC22A900C0
:1064BC0042F90700DC22A8008AF80700DC22A900B8
:1064CC003EF90700DC22A80086F80700DC22A900B0
:1064DC003AF90700DC22A80082F80700DC22A900A8
:1064EC0036F90700DC22A8007EF80700DC22A900A0
:1064FC0032F90700DC22A8007AF80700DC22A90098
:10650C002EF90700DC22A80076F80700DC22A9008F
:10651C002AF90700DC22A80072F80700DC22A90087
:10652C0026F90700DC22A8006EF80700DC22A9007F
:10653C0022F90700DC22A8006AF80700DC22A90077
:10654C001EF90700DC22A80066F80700DC22A9006F
:10655C001AF90700DC22A80062F80700DC22A90067
:10656C0016F90700DC22A8005EF80700DC22A9005F
:10657C0012F90700DC22A8006EF70700DC22A90044
:10658C000EF90700DC22A8006AF70700DC22A9003C
:10659C000AF90700DC22A80066F70700DC22A90034
:1065AC0006F90700DC22A80062F70700DC22A9002C
:1065BC0002F90700DC22A8005EF70700DC22A90024
:1065CC00FEF80700DC22A8005AF70700DC22A9001D
:1065DC00FAF80700DC22A80056F70700DC22A90015
:1065EC00F6F80700DC22A80052F70700DC22A9000D
:1065FC00F2F80700DC22A8004EF70700DC22A90005
:10660C00EEF80700DC22A8004AF70700DC22A900FC
:10661C00EAF80700DC22A80046F70700DC22A900F4
:10662C00E6F80700DC22A80042F70700DC22A900EC
:10663C00E2F80700DC22A8003EF70700DC22A900E4
:10664C00DEF80700DC22A8003AF70700DC22A900DC
:10665C00DAF80700DC22A80036F70700DC22A900D4
:10666C00D6F80700DC22A80032F70700DC22A900CC
:10667C00D2F80700DC22A8002EF70700DC22A900C4
:10668C00CEF80700DC22A8002AF70700DC22A900BC
:10669C00CAF80700DC22A80026F70700DC22A900B4
:1066AC00C6F80700DC22A80022F70700DC22A900AC
:1066BC00C2F80700DC22A800FFF40700DC22A900C6
:1066CC00BEF80700DC22A800FBF40700DC22A900BE
:1066DC00BAF80700DC22A800F7F40700DC22A900B6
:1066EC00B6F80700DC22A800F3F40700DC22A900AE
:1066FC00B2F80700DC22A800EFF40700DC22A900A6
:10670C00AEF80700DC22A800EBF40700DC22A9009D
:10671C00AAF80700DC22A800E7F40700DC22A90095
:10672C00A6F80700DC22A800E3F40700DC22A9008D
:10673C00A2F80700DC22A800DFF40700DC22A90085
:10674C009EF80700DC22A800DBF40700DC22A9007D
:10675C009AF80700DC22A800D7F40700DC22A90075
:10676C0096F80700DC22A800D3F40700DC22A9006D
:10677C0092F80700DC22A800CFF40700DC22A90065
:10678C008EF80700DC22A800CBF40700DC22A9005D
:10679C008AF80700DC22A800C7F40700DC22A90055
:1067AC0086F80700DC22A800C3F40700DC22A9004D
:1067BC0082F80700DC22A800BFF40700DC22A90045
:1067CC007EF80700DC22A800BBF40700DC22A9003D
:1067DC007AF80700DC22A800B7F40700DC22A90035
:1067EC0076F80700DC22A800B3F40700DC22A9002D
:1067FC0072F80700DC22A800FAF30700DC22A900DB
:10680C006EF80700DC22A800F6F30700DC22A900D2
:10681C006AF80700DC22A800F2F30700DC22A900CA
:10682C0066F80700DC22A800EEF30700DC22A900C2
:10683C0062F80700DC22A800EAF30700DC22A900BA
:10684C005EF80700DC22A800E6F30700DC22A900B2
:10685C005AF80700DC22A800E2F30700DC22A900AA
:10686C0056F80700DC22A800DEF30700DC22A900A2
:10687C0052F80700DC22A800DAF30700DC22A9009A
:10688C004EF80700DC22A800D6F30700DC22A90092
:10689C004AF80700DC22A800D2F30700DC22A9008A
:1068AC0046F80700DC22A800CEF30700DC22A90082
:1068BC0042F80700DC22A800CAF30700DC22A9007A
:1068CC003EF80700DC22A800C6F30700DC22A90072
:1068DC003AF80700DC22A800C2F30700DC22A9006A
:1068EC0036F80700DC22A800BEF30700DC22A90062
:1068FC0032F80700DC22A800BAF30700DC22A9005A
:10690C002EF80700DC22A800B6F30700DC22A90051
:10691C002AF80700DC22A800B2F30700DC22A90049
:10692C0026F80700DC22A800AEF30700DC22A90041
:10693C0022F80700DC22A800C9F50700DC22A90018
:10694C001EF80700DC22A800C5F50700DC22A90010
:10695C001AF80700DC22A800C1F50700DC22A90008
:10696C0016F80700DC22A800BDF50700DC22A90000
:10697C0012F80700DC22A800B9F50700DC22A900F8
:10698C000EF80700DC22A800B5F50700DC22A900F0
:10699C000AF80700DC22A800B1F50700DC22A900E8
:1069AC0006F80700DC22A800ADF50700DC22A900E0
:1069BC0002F80700DC22A800A9F50700DC22A900D8
:1069CC00FEF70700DC22A800A5F50700DC22A900D1
:1069DC00FAF70700DC22A800A1F50700DC22A900C9
:1069EC00F6F70700DC22A8009DF50700DC22A900C1
:1069FC00F2F70700DC22A80099F50700DC22A900B9
:106A0C00EEF70700DC22A80095F50700DC22A900B0
:106A1C00EAF70700DC22A80091F50700DC22A900A8
:106A2C00E6F70700DC22A8008DF50700DC22A900A0
:106A3C00E2F70700DC22A80089F50700DC22A90098
:106A4C00DEF70700DC22A80085F50700DC22A90090
:106A5C00DAF70700DC22A80081F50700DC22A90088
:106A6C00D6F70700DC22A8007DF50700DC22A90080
:106A7C00D2F70700DC22A800C4F40700DC22A9002E
:106A8C00CEF70700DC22A800C0F40700DC22A90026
:106A9C00CAF70700DC22A800BCF40700DC22A9001E
:106AAC00C6F70700DC22A800B8F40700DC22A90016
:106ABC00C2F70700DC22A800B4F40700DC22A9000E
:106ACC00BEF70700DC22A800B0F40700DC22A90006
:106ADC00BAF70700DC22A800ACF40700DC22A900FE
:106AEC00B6F70700DC22A800A8F40700DC22A900F6
:106AFC00B2F70700DC22A800A4F40700DC22A900EE
:106B0C00AEF70700DC22A800A0F40700DC22A900E5
:106B1C00AAF70700DC22A8009CF40700DC22A900DD
:106B2C00A6F70700DC22A80098F40700DC22A900D5
:106B3C00A2F70700DC22A80094F40700DC22A900CD
:106B4C009EF70700DC22A80090F40700DC22A900C5
:106B5C009AF70700DC22A8008CF40700DC22A900BD
:106B6C0096F70700DC22A80088F40700DC22A900B5
:106B7C0092F70700DC22A80084F40700DC22A900AD
:106B8C008EF70700DC22A80080F40700DC22A900A5
:106B9C008AF70700DC22A8007CF40700DC22A9009D
:106BAC0086F70700DC22A80078F40700DC22A90095
:106BBC0082F70700DC22A800D2FB0700DC22A90028
:106BCC007EF70700DC22A800CEFB0700DC22A90020
:106BDC007AF70700DC22A800CAFB0700DC22A90018
:106BEC0076F70700DC22A800C6FB0700DC22A90010
:106BFC0072F70700DC22A800C2FB0700DC22A90008
:106C0C006EF70700DC22A800BEFB0700DC22A900FF
:106C1C006AF70700DC22A800BAFB0700DC22A900F7
:106C2C0066F70700DC22A800B6FB0700DC22A900EF
:106C3C0062F70700DC22A800B2FB0700DC22A900E7
:106C4C005EF70700DC22A800AEFB0700DC22A900DF
:106C5C005AF70700DC22A800AAFB0700DC22A900D7
:106C6C0056F70700DC22A800A6FB0700DC22A900CF
:106C7C0052F70700DC22A800A2FB0700DC22A900C7
:106C8C004EF70700DC22A8009EFB0700DC22A900BF
:106C9C004AF70700DC22A8009AFB0700DC22A900B7
:106CAC0046F70700DC22A80096FB0700DC22A900AF
:106CBC0042F70700DC22A80092FB0700DC22A900A7
:106CCC003EF70700DC22A8008EFB0700DC22A9009F
:106CDC003AF70700DC22A8008AFB0700DC22A90097
:106CEC0036F70700DC22A80086FB0700DC22A9008F
:106CFC0032F70700DC22A800CDFA0700DC22A9003D
:106D0C002EF70700DC22A800C9FA0700DC22A90034
:106D1C002AF70700DC22A800C5FA0700DC22A9002C
:106D2C0026F70700DC22A800C1FA0700DC22A90024
:106D3C0022F70700DC22A800BDFA0700DC22A9001C
:106D4C001EF70700DC22A800B9FA0700DC22A90014
:106D5C001AF70700DC22A800B5FA0700DC22A9000C
:106D6C0016F70700DC22A800B1FA0700DC22A90004
:106D7C0012F70700DC22A800ADFA0700DC22A900FC
:106D8C000EF70700DC22A800A9FA0700DC22A900F4
:106D9C000AF70700DC22A800A5FA0700DC22A900EC
:106DAC0006F70700DC22A800A1FA0700DC22A900E4
:106DBC0002F70700DC22A8009DFA0700DC22A900DC
:106DCC00FEF60700DC22A80099FA0700DC22A900D5
:106DDC00FAF60700DC22A80095FA0700DC22A900CD
:106DEC00F6F60700DC22A80091FA0700DC22A900C5
:106DFC00F2F60700DC22A8008DFA0700DC22A900BD
:106E0C00EEF60700DC22A80089FA0700DC22A900B4
:106E1C00EAF60700DC22A80085FA0700DC22A900AC
:106E2C00E6F60700DC22A80081FA0700DC22A900A4
:106E3C00E2F60700DC22A8009CFC0700DC22A9007B
:106E4C00DEF60700DC22A80098FC0700DC22A90073
:106E5C00DAF60700DC22A80094FC0700DC22A9006B
:106E6C00D6F60700DC22A80090FC0700DC22A90063
:106E7C00D2F60700DC22A8008CFC0700DC22A9005B
:106E8C00CEF60700DC22A80088FC0700DC22A90053
:106E9C00CAF60700DC22A80084FC0700DC22A9004B
:106EAC00C6F60700DC22A80080FC0700DC22A90043
:106EBC00C2F60700DC22A8007CFC0700DC22A9003B
:106ECC00BEF60700DC22A80078FC0700DC22A90033
:106EDC00BAF60700DC22A80074FC0700DC22A9002B
:106EEC00B6F60700DC22A80070FC0700DC22A90023
:106EFC00B2F60700DC22A8006CFC0700DC22A9001B
:106F0C00AEF60700DC22A80068FC0700DC22A90012
:106F1C00AAF60700DC22A80064FC0700DC22A9000A
:106F2C00A6F60700DC22A80060FC0700DC22A90002
:106F3C00A2F60700DC22A8005CFC0700DC22A900FA
:106F4C009EF60700DC22A80058FC0700DC22A900F2
:106F5C009AF60700DC22A80054FC0700DC22A900EA
:106F6C0096F60700DC22A80050FC0700DC22A900E2
:106F7C0092F60700DC22A80097FB0700DC22A90090
:106F8C008EF60700DC22A80093FB0700DC22A90088
:106F9C008AF60700DC22A8008FFB0700DC22A90080
:106FAC0086F60700DC22A8008BFB0700DC22A90078
:106FBC0082F60700DC22A80087FB0700DC22A90070
:106FCC007EF60700DC22A80083FB0700DC22A90068
:106FDC007AF60700DC22A8007FFB0700DC22A90060
:106FEC0076F60700DC22A8007BFB0700DC22A90058
:106FFC0072F60700DC22A80077FB0700DC22A90050
:10700C006EF60700DC22A80073FB0700DC22A90047
:10701C006AF60700DC22A8006FFB0700DC22A9003F
:10702C0066F60700DC22A8006BFB0700DC22A90037
:10703C0062F60700DC22A80067FB0700DC22A9002F
:10704C005EF60700DC22A80063FB0700DC22A90027
:10705C005AF60700DC22A8005FFB0700DC22A9001F
:10706C0056F60700DC22A8005BFB0700DC22A90017
:10707C0052F60700DC22A80057FB0700DC22A9000F
:10708C004EF60700DC22A80053FB0700DC22A90007
:10709C004AF60700DC22A8004FFB0700DC22A900FF
:1070AC0046F60700DC22A8004BFB0700DC22A900F7
:1070BC0042F60700DC22A80028F90700DC22A90010
:1070CC003EF60700DC22A80024F90700DC22A90008
:1070DC003AF60700DC22A80020F90700DC22A90000
:1070EC0036F60700DC22A8001CF90700DC22A900F8
:1070FC0032F60700DC22A80018F90700DC22A900F0
:10710C002EF60700DC22A80014F90700DC22A900E7
:10711C002AF60700DC22A80010F90700DC22A900DF
:10712C0026F60700DC22A8000CF90700DC22A900D7
:10713C0022F60700DC22A80008F90700DC22A900CF
:10714C001EF60700DC22A80004F90700DC22A900C7
:10715C001AF60700DC22A80000F90700DC22A900BF
:10716C0016F60700DC22A800FCF80700DC22A900B8
:10717C0012F60700DC22A800F8F80700DC22A900B0
:10718C000EF60700DC22A800F4F80700DC22A900A8
:10719C000AF60700DC22A800F0F80700DC22A900A0
:1071AC0006F60700DC22A800ECF80700DC22A90098
:1071BC0002F60700DC22A800E8F80700DC22A90090
:1071CC00FEF50700DC22A800E4F80700DC22A90089
:1071DC00FAF50700DC22A800E0F80700DC22A90081
:1071EC00F6F50700DC22A800DCF80700DC22A90079
:1071FC00F2F50700DC22A800B9F60700DC22A90092
:10720C00EEF50700DC22A800B5F60700DC22A90089
:10721C00EAF50700DC22A800B1F60700DC22A90081
:10722C00E6F50700DC22A800ADF60700DC22A90079
:10723C00E2F50700DC22A800A9F60700DC22A90071
:10724C00DEF50700DC22A800A5F60700DC22A90069
:10725C00DAF50700DC22A800A1F60700DC22A90061
:10726C00D6F50700DC22A8009DF60700DC22A90059
:10727C00D2F50700DC22A80099F60700DC22A90051
:10728C00CEF50700DC22A80095F60700DC22A90049
:10729C00CAF50700DC22A80091F60700DC22A90041
:1072AC00C6F50700DC22A8008DF60700DC22A90039
:1072BC00C2F50700DC22A80089F60700DC22A90031
:1072CC00BEF50700DC22A80085F60700DC22A90029
:1072DC00BAF50700DC22A80081F60700DC22A90021
:1072EC00B6F50700DC22A8007DF60700DC22A90019
:1072FC00B2F50700DC22A80079F60700DC22A90011
:10730C00AEF50700DC22A80075F60700DC22A90008
:10731C00AAF50700DC22A80071F60700DC22A90000
:10732C00A6F50700DC22A8006DF60700DC22A900F8
:10733C00A2F50700DC22A800B4F50700DC22A900A6
:10734C009EF50700DC22A800B0F50700DC22A9009E
:10735C009AF50700DC22A800ACF50700DC22A90096
:10736C0096F50700DC22A800A8F50700DC22A9008E
:10737C0092F50700DC22A800A4F50700DC22A90086
:10738C008EF50700DC22A800A0F50700DC22A9007E
:10739C008AF50700DC22A8009CF50700DC22A90076
:1073AC0086F50700DC22A80098F50700DC22A9006E
:1073BC0082F50700DC22A80094F50700DC22A90066
:1073CC007EF50700DC22A80090F50700DC22A9005E
:1073DC007AF50700DC22A8008CF50700DC22A90056
:1073EC0076F50700DC22A80088F50700DC22A9004E
:1073FC0072F50700DC22A80084F50700DC22A90046
:10740C006EF50700DC22A80080F50700DC22A9003D
:10741C006AF50700DC22A8007CF50700DC22A90035
:10742C0066F50700DC22A80078F50700DC22A9002D
:10743C0062F50700DC22A80074F50700DC22A90025
:10744C005EF50700DC22A80070F50700DC22A9001D
:10745C005AF50700DC22A8006CF50700DC22A90015
:10746C0056F50700DC22A80068F50700DC22A9000D
:10747C0052F50700DC22A80083F70700DC22A900E4
:10748C004EF50700DC22A8007FF70700DC22A900DC
:10749C004AF50700DC22A8007BF70700DC22A900D4
:1074AC0046F50700DC22A80077F70700DC22A900CC
:1074BC0042F50700DC22A80073F70700DC22A900C4
:1074CC003EF50700DC22A8006FF70700DC22A900BC
:1074DC003AF50700DC22A8006BF70700DC22A900B4
:1074EC0036F50700DC22A80067F70700DC22A900AC
:1074FC0032F50700DC22A80063F70700DC22A900A4
:10750C002EF50700DC22A8005FF70700DC22A9009B
:10751C002AF50700DC22A8005BF70700DC22A90093
:10752C0026F50700DC22A80057F70700DC22A9008B
:10753C0022F50700DC22A80053F70700DC22A90083
:10754C001EF50700DC22A8004FF70700DC22A9007B
:10755C001AF50700DC22A8004BF70700DC22A90073
:10756C0016F50700DC22A80047F70700DC22A9006B
:10757C0012F50700DC22A80043F70700DC22A90063
:10758C000EF50700DC22A8003FF70700DC22A9005B
:10759C000AF50700DC22A8003BF70700DC22A90053
:1075AC0006F50700DC22A80037F70700DC22A9004B
:1075BC0002F50700DC22A8007EF60700DC22A900F9
:1075CC00FEF40700DC22A8007AF60700DC22A900F2
:1075DC00FAF40700DC22A80076F60700DC22A900EA
:1075EC00F6F40700DC22A80072F60700DC22A900E2
:1075FC00F2F40700DC22A8006EF60700DC22A900DA
:10760C00EEF40700DC22A8006AF60700DC22A900D1
:10761C00EAF40700DC22A80066F60700DC22A900C9
:10762C00E6F40700DC22A80062F60700DC22A900C1
:10763C00E2F40700DC22A8005EF60700DC22A900B9
:10764C00DEF40700DC22A8005AF60700DC22A900B1
:10765C00DAF40700DC22A80056F60700DC22A900A9
:10766C00D6F40700DC22A80052F60700DC22A900A1
:10767C00D2F40700DC22A8004EF60700DC22A90099
:10768C00CEF40700DC22A8004AF60700DC22A90091
:10769C00CAF40700DC22A80046F60700DC22A90089
:1076AC00C6F40700DC22A80042F60700DC22A90081
:1076BC00C2F40700DC22A8003EF60700DC22A90079
:1076CC00BEF40700DC22A8003AF60700DC22A90071
:1076DC00BAF40700DC22A80036F60700DC22A90069
:1076EC00B6F40700DC22A80032F60700DC22A90061
:1076FC00B2F40700DC22A80085EF0700DC22A90009
:10770C00AEF40700DC22A80081EF0700DC22A90000
:10771C00AAF40700DC22A8007DEF0700DC22A900F8
:10772C00A6F40700DC22A80079EF0700DC22A900F0
:10773C00A2F40700DC22A80075EF0700DC22A900E8
:10774C009EF40700DC22A80071EF0700DC22A900E0
:10775C009AF40700DC22A8006DEF0700DC22A900D8
:10776C0096F40700DC22A80069EF0700DC22A900D0
:10777C0092F40700DC22A80065EF0700DC22A900C8
:10778C008EF40700DC22A80061EF0700DC22A900C0
:10779C008AF40700DC22A8005DEF0700DC22A900B8
:1077AC0086F40700DC22A80059EF0700DC22A900B0
:1077BC0082F40700DC22A80055EF0700DC22A900A8
:1077CC007EF40700DC22A80051EF0700DC22A900A0
:1077DC007AF40700DC22A8004DEF0700DC22A90098
:1077EC0076F40700DC22A80049EF0700DC22A90090
:1077FC0072F40700DC22A80045EF0700DC22A90088
:10780C006EF40700DC22A80041EF0700DC22A9007F
:10781C006AF40700DC22A8003DEF0700DC22A90077
:10782C0066F40700DC22A80039EF0700DC22A9006F
:10783C0062F40700DC22A8002DE60700DC22A90078
:10784C005EF40700DC22A80029E60700DC22A90070
:10785C005AF40700DC22A80025E60700DC22A90068
:10786C0056F40700DC22A80021E60700DC22A90060
:10787C0052F40700DC22A8001DE60700DC22A90058
:10788C004EF40700DC22A80019E60700DC22A90050
:10789C004AF40700DC22A80015E60700DC22A90048
:1078AC0046F40700DC22A80011E60700DC22A90040
:1078BC0042F40700DC22A8000DE60700DC22A90038
:1078CC003EF40700DC22A80009E60700DC22A90030
:1078DC003AF40700DC22A80005E60700DC22A90028
:1078EC0036F40700DC22A80001E60700DC22A90020
:1078FC0032F40700DC22A800FDE50700DC22A90019
:10790C002EF40700DC22A800F9E50700DC22A90010
:10791C002AF40700DC22A800F5E50700DC22A90008
:10792C0026F40700DC22A800F1E50700DC22A90000
:10793C0022F40700DC22A800EDE50700DC22A900F8
:10794C001EF40700DC22A800E9E50700DC22A900F0
:10795C001AF40700DC22A800E5E50700DC22A900E8
:10796C0016F40700DC22A800E1E50700DC22A900E0
:10797C0012F40700DC22A80028E50700DC22A9008D
:10798C000EF40700DC22A80024E50700DC22A90085
:10799C000AF40700DC22A80020E50700DC22A9007D
:1079AC0006F40700DC22A8001CE50700DC22A90075
:1079BC0002F40700DC22A80018E50700DC22A9006D
:1079CC00FEF30700DC22A80014E50700DC22A90066
:1079DC00FAF30700DC22A80010E50700DC22A9005E
:1079EC00F6F30700DC22A8000CE50700DC22A90056
:1079FC00F2F30700DC22A80008E50700DC22A9004E
:107A0C00EEF30700DC22A80004E50700DC22A90045
:107A1C00EAF30700DC22A80000E50700DC22A9003D
:107A2C00E6F30700DC22A800FCE40700DC22A90036
:107A3C00E2F30700DC22A800F8E40700DC22A9002E
:107A4C00DEF30700DC22A800F4E40700DC22A90026
:107A5C00DAF30700DC22A800F0E40700DC22A9001E
:107A6C00D6F30700DC22A800ECE40700DC22A90016
:107A7C00D2F30700DC22A800E8E40700DC22A9000E
:107A8C00CEF30700DC22A800E4E40700DC22A90006
:107A9C00CAF30700DC22A800E0E40700DC22A900FE
:107AAC00C6F30700DC22A800DCE40700DC22A900F6
:107ABC00C2F30700DC22A800F7E60700DC22A900CD
:107ACC00BEF30700DC22A800F3E60700DC22A900C5
:107ADC00BAF30700DC22A800EFE60700DC22A900BD
:107AEC00B6F30700DC22A800EBE60700DC22A900B5
:107AFC00B2F30700DC22A800E7E60700DC22A900AD
:107B0C00AEF30700DC22A800E3E60700DC22A900A4
:107B1C00AAF30700DC22A800DFE60700DC22A9009C
:107B2C00A6F30700DC22A800DBE60700DC22A90094
:107B3C00A2F30700DC22A800D7E60700DC22A9008C
:107B4C009EF30700DC22A800D3E60700DC22A90084
:107B5C009AF30700DC22A800CFE60700DC22A9007C
:107B6C0096F30700DC22A800CBE60700DC22A90074
:107B7C0092F30700DC22A800C7E60700DC22A9006C
:107B8C008EF30700DC22A800C3E60700DC22A90064
:107B9C008AF30700DC22A800BFE60700DC22A9005C
:107BAC0086F30700DC22A800BBE60700DC22A90054
:107BBC0082F30700DC22A800B7E60700DC22A9004C
:107BCC007EF30700DC22A800B3E60700DC22A90044
:107BDC007AF30700DC22A800AFE60700DC22A9003C
:107BEC0076F30700DC22A800ABE60700DC22A90034
:107BFC0072F30700DC22A800F2E50700DC22A900E2
:107C0C006EF30700DC22A800EEE50700DC22A900D9
:107C1C006AF30700DC22A800EAE50700DC22A900D1
:107C2C0066F30700DC22A800E6E50700DC22A900C9
:107C3C0062F30700DC22A800E2E50700DC22A900C1
:107C4C005EF30700DC22A800DEE50700DC22A900B9
:107C5C005AF30700DC22A800DAE50700DC22A900B1
:107C6C0056F30700DC22A800D6E50700DC22A900A9
:107C7C0052F30700DC22A800D2E50700DC22A900A1
:107C8C004EF30700DC22A800CEE50700DC22A90099
:107C9C004AF30700DC22A800CAE50700DC22A90091
:107CAC0046F30700DC22A800C6E50700DC22A90089
:107CBC0042F30700DC22A800C2E50700DC22A90081
:107CCC003EF30700DC22A800BEE50700DC22A90079
:107CDC003AF30700DC22A800BAE50700DC22A90071
:107CEC0036F30700DC22A800B6E50700DC22A90069
:107CFC0032F30700DC22A800B2E50700DC22A90061
:107D0C002EF30700DC22A800AEE50700DC22A90058
:107D1C002AF30700DC22A800AAE50700DC22A90050
:107D2C0026F30700DC22A800A6E50700DC22A90048
:107D3C0022F30700DC22A80019E20700DC22A900CC
:107D4C001EF30700DC22A80015E20700DC22A900C4
:107D5C001AF30700DC22A80011E20700DC22A900BC
:107D6C0016F30700DC22A8000DE20700DC22A900B4
:107D7C0012F30700DC22A80009E20700DC22A900AC
:107D8C000EF30700DC22A80005E20700DC22A900A4
:107D9C000AF30700DC22A80001E20700DC22A9009C
:107DAC0006F30700DC22A800FDE10700DC22A90095
:107DBC0002F30700DC22A800F9E10700DC22A9008D
:107DCC00FEF20700DC22A800F5E10700DC22A90086
:107DDC00FAF20700DC22A800F1E10700DC22A9007E
:107DEC00F6F20700DC22A800EDE10700DC22A90076
:107DFC00F2F20700DC22A800E9E10700DC22A9006E
:107E0C00EEF20700DC22A800E5E10700DC22A90065
:107E1C00EAF20700DC22A800E1E10700DC22A9005D
:107E2C00E6F20700DC22A800DDE10700DC22A90055
:107E3C00E2F20700DC22A800D9E10700DC22A9004D
:107E4C00DEF20700DC22A800D5E10700DC22A90045
:107E5C00DAF20700DC22A800D1E10700DC22A9003D
:107E6C00D6F20700DC22A800CDE10700DC22A90035
:107E7C00D2F20700DC22A80014E10700DC22A900E2
:107E8C00CEF20700DC22A80010E10700DC22A900DA
:107E9C00CAF20700DC22A8000CE10700DC22A900D2
:107EAC00C6F20700DC22A80008E10700DC22A900CA
:107EBC00C2F20700DC22A80004E10700DC22A900C2
:107ECC00BEF20700DC22A80000E10700DC22A900BA
:107EDC00BAF20700DC22A800FCE00700DC22A900B3
:107EEC00B6F20700DC22A800F8E00700DC22A900AB
:107EFC00B2F20700DC22A800F4E00700DC22A900A3
:107F0C00AEF20700DC22A800F0E00700DC22A9009A
:107F1C00AAF20700DC22A800ECE00700DC22A90092
:107F2C00A6F20700DC22A800E8E00700DC22A9008A
:107F3C00A2F20700DC22A800E4E00700DC22A90082
:107F4C009EF20700DC22A800E0E00700DC22A9007A
:107F5C009AF20700DC22A800DCE00700DC22A90072
:107F6C0096F20700DC22A800D8E00700DC22A9006A
:107F7C0092F20700DC22A800D4E00700DC22A90062
:107F8C008EF20700DC22A800D0E00700DC22A9005A
:107F9C008AF20700DC22A800CCE00700DC22A90052
:107FAC0086F20700DC22A800C8E00700DC22A9004A
:107FBC0082F20700DC22A800E3E20700DC22A90021
:107FCC007EF20700DC22A800DFE20700DC22A90019
:107FDC007AF20700DC22A800DBE20700DC22A90011
:107FEC0076F20700DC22A800D7E20700DC22A90009
:107FFC0072F20700DC22A800D3E20700DC22A90001
:10800C006EF20700DC22A800CFE20700DC22A900F8
:10801C006AF20700DC22A800CBE20700DC22A900F0
:10802C0066F20700DC22A800C7E20700DC22A900E8
:10803C0062F20700DC22A800C3E20700DC22A900E0
:10804C005EF20700DC22A800BFE20700DC22A900D8
:10805C005AF20700DC22A800BBE20700DC22A900D0
:10806C0056F20700DC22A800B7E20700DC22A900C8
:10807C0052F20700DC22A800B3E20700DC22A900C0
:10808C004EF20700DC22A800AFE20700DC22A900B8
:10809C004AF20700DC22A800ABE20700DC22A900B0
:1080AC0046F20700DC22A800A7E20700DC22A900A8
:1080BC0042F20700DC22A800A3E20700DC22A900A0
:1080CC003EF20700DC22A8009FE20700DC22A90098
:1080DC003AF20700DC22A8009BE20700DC22A90090
:1080EC0036F20700DC22A80097E20700DC22A90088
:1080FC0032F20700DC22A800DEE10700DC22A90036
:10810C002EF20700DC22A800DAE10700DC22A9002D
:10811C002AF20700DC22A800D6E10700DC22A90025
:10812C0026F20700DC22A800D2E10700DC22A9001D
:10813C0022F20700DC22A800CEE10700DC22A90015
:10814C001EF20700DC22A800CAE10700DC22A9000D
:10815C001AF20700DC22A800C6E10700DC22A90005
:10816C0016F20700DC22A800C2E10700DC22A900FD
:10817C0012F20700DC22A800BEE10700DC22A900F5
:10818C000EF20700DC22A800BAE10700DC22A900ED
:10819C000AF20700DC22A800B6E10700DC22A900E5
:1081AC0006F20700DC22A800B2E10700DC22A900DD
:1081BC0002F20700DC22A800AEE10700DC22A900D5
:1081CC00FEF10700DC22A800AAE10700DC22A900CE
:1081DC00FAF10700DC22A800A6E10700DC22A900C6
:1081EC00F6F10700DC22A800A2E10700DC22A900BE
:1081FC00F2F10700DC22A8009EE10700DC22A900B6
:10820C00EEF10700DC22A8009AE10700DC22A900AD
:10821C00EAF10700DC22A80096E10700DC22A900A5
:10822C00E6F10700DC22A80092E10700DC22A9009D
:10823C00E2F10700DC22A80096EA0700DC22A90084
:10824C00DEF10700DC22A80092EA0700DC22A9007C
:10825C00DAF10700DC22A8008EEA0700DC22A90074
:10826C00D6F10700DC22A8008AEA0700DC22A9006C
:10827C00D2F10700DC22A80086EA0700DC22A90064
:10828C00CEF10700DC22A80082EA0700DC22A9005C
:10829C00CAF10700DC22A8007EEA0700DC22A90054
:1082AC00C6F10700DC22A8007AEA0700DC22A9004C
:1082BC00C2F10700DC22A80076EA0700DC22A90044
:1082CC00BEF10700DC22A80072EA0700DC22A9003C
:1082DC00BAF10700DC22A8006EEA0700DC22A90034
:1082EC00B6F10700DC22A8006AEA0700DC22A9002C
:1082FC00B2F10700DC22A80066EA0700DC22A90024
:10830C00AEF10700DC22A80062EA0700DC22A9001B
:10831C00AAF10700DC22A8005EEA0700DC22A90013
:10832C00A6F10700DC22A8005AEA0700DC22A9000B
:10833C00A2F10700DC22A80056EA0700DC22A90003
:10834C009EF10700DC22A80052EA0700DC22A900FB
:10835C009AF10700DC22A8004EEA0700DC22A900F3
:10836C0096F10700DC22A8004AEA0700DC22A900EB
:10837C0092F10700DC22A80091E90700DC22A90099
:10838C008EF10700DC22A8008DE90700DC22A90091
:10839C008AF10700DC22A80089E90700DC22A90089
:1083AC0086F10700DC22A80085E90700DC22A90081
:1083BC0082F10700DC22A80081E90700DC22A90079
:1083CC007EF10700DC22A8007DE90700DC22A90071
:1083DC007AF10700DC22A80079E90700DC22A90069
:1083EC0076F10700DC22A80075E90700DC22A90061
:1083FC0072F10700DC22A80071E90700DC22A90059
:10840C006EF10700DC22A8006DE90700DC22A90050
:10841C006AF10700DC22A80069E90700DC22A90048
:10842C0066F10700DC22A80065E90700DC22A90040
:10843C0062F10700DC22A80061E90700DC22A90038
:10844C005EF10700DC22A8005DE90700DC22A90030
:10845C005AF10700DC22A80059E90700DC22A90028
:10846C0056F10700DC22A80055E90700DC22A90020
:10847C0052F10700DC22A80051E90700DC22A90018
:10848C004EF10700DC22A8004DE90700DC22A90010
:10849C004AF10700DC22A80049E90700DC22A90008
:1084AC0046F10700DC22A80045E90700DC22A90000
:1084BC0042F10700DC22A80060EB0700DC22A900D7
:1084CC003EF10700DC22A8005CEB0700DC22A900CF
:1084DC003AF10700DC22A80058EB0700DC22A900C7
:1084EC0036F10700DC22A80054EB0700DC22A900BF
:1084FC0032F10700DC22A80050EB0700DC22A900B7
:10850C002EF10700DC22A8004CEB0700DC22A900AE
:10851C002AF10700DC22A80048EB0700DC22A900A6
:10852C0026F10700DC22A80044EB0700DC22A9009E
:10853C0022F10700DC22A80040EB0700DC22A90096
:10854C001EF10700DC22A8003CEB0700DC22A9008E
:10855C001AF10700DC22A80038EB0700DC22A90086
:10856C0016F10700DC22A80034EB0700DC22A9007E
:10857C0012F10700DC22A80030EB0700DC22A90076
:10858C000EF10700DC22A8002CEB0700DC22A9006E
:10859C000AF10700DC22A80028EB0700DC22A90066
:1085AC0006F10700DC22A80024EB0700DC22A9005E
:1085BC0002F10700DC22A80020EB0700DC22A90056
:1085CC00FEF00700DC22A8001CEB0700DC22A9004F
:1085DC00FAF00700DC22A80018EB0700DC22A90047
:1085EC00F6F00700DC22A80014EB0700DC22A9003F
:1085FC00F2F00700DC22A8005BEA0700DC22A900ED
:10860C00EEF00700DC22A80057EA0700DC22A900E4
:10861C00EAF00700DC22A80053EA0700DC22A900DC
:10862C00E6F00700DC22A8004FEA0700DC22A900D4
:10863C00E2F00700DC22A8004BEA0700DC22A900CC
:10864C00DEF00700DC22A80047EA0700DC22A900C4
:10865C00DAF00700DC22A80043EA0700DC22A900BC
:10866C00D6F00700DC22A8003FEA0700DC22A900B4
:10867C00D2F00700DC22A8003BEA0700DC22A900AC
:10868C00CEF00700DC22A80037EA0700DC22A900A4
:10869C00CAF00700DC22A80033EA0700DC22A9009C
:1086AC00C6F00700DC22A8002FEA0700DC22A90094
:1086BC00C2F00700DC22A8002BEA0700DC22A9008C
:1086CC00BEF00700DC22A80027EA0700DC22A90084
:1086DC00BAF00700DC22A80023EA0700DC22A9007C
:1086EC00B6F00700DC22A8001FEA0700DC22A90074
:1086FC00B2F00700DC22A8001BEA0700DC22A9006C
:10870C00AEF00700DC22A80017EA0700DC22A90063
:10871C00AAF00700DC22A80013EA0700DC22A9005B
:10872C00A6F00700DC22A8000FEA0700DC22A90053
:10873C00A2F00700DC22A80041E50700DC22A9001A
:10874C009EF00700DC22A8003DE50700DC22A90012
:10875C009AF00700DC22A80039E50700DC22A9000A
:10876C0096F00700DC22A80035E50700DC22A90002
:10877C0092F00700DC22A80031E50700DC22A900FA
:10878C008EF00700DC22A8002DE50700DC22A900F2
:10879C008AF00700DC22A80029E50700DC22A900EA
:1087AC0086F00700DC22A80025E50700DC22A900E2
:1087BC0082F00700DC22A80021E50700DC22A900DA
:1087CC007EF00700DC22A8001DE50700DC22A900D2
:1087DC007AF00700DC22A80019E50700DC22A900CA
:1087EC0076F00700DC22A80015E50700DC22A900C2
:1087FC0072F00700DC22A80011E50700DC22A900BA
:10880C006EF00700DC22A8000DE50700DC22A900B1
:10881C006AF00700DC22A80009E50700DC22A900A9
:10882C0066F00700DC22A80005E50700DC22A900A1
:10883C0062F00700DC22A80001E50700DC22A90099
:10884C005EF00700DC22A800FDE40700DC22A90092
:10885C005AF00700DC22A800F9E40700DC22A9008A
:10886C0056F00700DC22A800F5E40700DC22A90082
:10887C0052F00700DC22A8003CE40700DC22A9002F
:10888C004EF00700DC22A80038E40700DC22A90027
:10889C004AF00700DC22A80034E40700DC22A9001F
:1088AC0046F00700DC22A80030E40700DC22A90017
:1088BC0042F00700DC22A8002CE40700DC22A9000F
:1088CC003EF00700DC22A80028E40700DC22A90007
:1088DC003AF00700DC22A80024E40700DC22A900FF
:1088EC0036F00700DC22A80020E40700DC22A900F7
:1088FC0032F00700DC22A8001CE40700DC22A900EF
:10890C002EF00700DC22A80018E40700DC22A900E6
:10891C002AF00700DC22A80014E40700DC22A900DE
:10892C0026F00700DC22A80010E40700DC22A900D6
:10893C0022F00700DC22A8000CE40700DC22A900CE
:10894C001EF00700DC22A80008E40700DC22A900C6
:10895C001AF00700DC22A80004E40700DC22A900BE
:10896C0016F00700DC22A80000E40700DC22A900B6
:10897C0012F00700DC22A800FCE30700DC22A900AF
:10898C000EF00700DC22A800F8E30700DC22A900A7
:10899C000AF00700DC22A800F4E30700DC22A9009F
:1089AC0006F00700DC22A800F0E30700DC22A90097
:1089BC0002F00700DC22A8004CE70700DC22A9002B
:1089CC00FEEF0700DC22A80048E70700DC22A90024
:1089DC00FAEF0700DC22A80044E70700DC22A9001C
:1089EC00F6EF0700DC22A80040E70700DC22A90014
:1089FC00F2EF0700DC22A8003CE70700DC22A9000C
:108A0C00EEEF0700DC22A80038E70700DC22A90003
:108A1C00EAEF0700DC22A80034E70700DC22A900FB
:108A2C00E6EF0700DC22A80030E70700DC22A900F3
:108A3C00E2EF0700DC22A8002CE70700DC22A900EB
:108A4C00DEEF0700DC22A80028E70700DC22A900E3
:108A5C00DAEF0700DC22A80024E70700DC22A900DB
:108A6C00D6EF0700DC22A80020E70700DC22A900D3
:108A7C00D2EF0700DC22A8001CE70700DC22A900CB
:108A8C00CEEF0700DC22A80018E70700DC22A900C3
:108A9C00CAEF0700DC22A80014E70700DC22A900BB
:108AAC00C6EF0700DC22A80010E70700DC22A900B3
:108ABC00C2EF0700DC22A8000CE70700DC22A900AB
:108ACC00BEEF0700DC22A80008E70700DC22A900A3
:108ADC00BAEF0700DC22A80004E70700DC22A9009B
:108AEC00B6EF0700DC22A80000E70700DC22A90093
:108AFC00B2EF0700DC22A80006E507002DF63700D0
:048B0C00FFFF370030
:1046C400F0FF2F00A8A2B700C822EF00CE22EF000F
:1046D400D422EF00DA22EF00D822EF00D222EF003A
:0C46E400F0002000C6A2B7000000060095
:104614008A1F78008B1F78008C1F78000C4B2000B9
:104624008B8020008A582C0006EF0700308E200073
:10463400206688002166800050C0B300804878005E
:10464400B0B32000C065880030B62000F065880053
:10465400C165800010C9B30080487800F16580000E
:1046640010C9B30080487800A1CB200090C0B300EB
:1046740080487800B1CB20000020EF00804878000B
:10468400C1CB2000F0CFB3008048780001CC2000DB
:1046940090C0B3008048780011CC20000020EF00C7
:1046A4008048780021CC2000F0CFB3008048780007
:1046B4004F067800CF0578004F057800000006000B
:100248000420EF000C10E100050031008280450019
:1002580002004500904878000420EC00F9FF3700C0
:04026800000006008C
:1049C80000000000000000000000000000000000DF
:1049D80000000000000000000000000000000000CF
:1049E80000000000000000000000000000000000BF
:1049F80000000000000000000000000000000000AF
:104A08000000000000000000000000000000060098
:1046F00000000000000000000000000000000000BA
:1047000000000000000000000000000000000000A9
:104710000000000000000000000000000000000099
:104720000000000000000000000000000000000089
:1049A000000000000000000000000000D622EF0020
:1049B00000000000000000000000000000000000F7
:0849C0000000000000000600E9
:10434000000000000000000000000000000000006D
:10435000000000000000000000000000000000005D
:10436000000000000000000000000000000000004D
:104370000000000040408000D6A2B700000000000E
:10438000404080004800DE00D6A2B70000000000D8
:104390000000000050408000D6A2B70000000000DE
:1043A000504080004800DE00D6A2B70000000000A8
:1043B0000000000060408000D6A2B70000000000AE
:1043C000604080004800DE00D6A2B7000000000078
:1043D0000000000070408000D6A2B700000000007E
:1043E000704080004800DE00D6A2B7000000000048
:1043F0000000000080408000D6A2B700000000004E
:10440000804080004800DE00D6A2B7000000000017
:104410000000000090408000D6A2B700000000001D
:10442000904080004800DE00D6A2B70000000000E7
:1044300000000000A0408000D6A2B70000000000ED
:10444000A04080004800DE00D6A2B70000000000B7
:1044500000000000B0408000D6A2B70000000000BD
:10446000B04080004800DE00D6A2B7000000000087
:1044700000000000C0408000D6A2B700000000008D
:10448000C04080004800DE00D6A2B7000000000057
:1044900000000000D0408000D6A2B700000000005D
:1044A000D04080004800DE00D6A2B7000000000027
:1044B00000000000E0408000D6A2B700000000002D
:1044C000E04080004800DE00D6A2B70000000000F7
:1044D00000000000F0408000D6A2B70000000000FD
:1044E000F04080004800DE00D6A2B70000000000C7
:1044F0000000000000418000D6A2B70000000000CC
:10450000004180004800DE00D6A2B7000000000095
:104510000000000010418000D6A2B700000000009B
:10452000104180004800DE00D6A2B7000000000065
:104530000000000020418000D6A2B700000000006B
:10454000204180004800DE00D6A2B7000000000035
:104550000000000030418000D6A2B700000000003B
:10456000304180004800DE00D6A2B7000000000005
:104570000000000040418000D6A2B700000000000B
:10458000404180004800DE00D6A2B70000000000D5
:104590000000000050418000D6A2B70000000000DB
:1045A000504180004800DE00D6A2B70000000000A5
:1045B0000000000060418000D6A2B70000000000AB
:1045C000604180004800DE00D6A2B7000000000075
:1045D0000000000070418000D6A2B700000000007B
:1045E000704180004800DE00D6A2B7000000000045
:1045F000000000000000000000000000D622EF00D4
:104600001100200000802000108840000000000001
:0446100000000600A0
:103AC40000000000000000000000000000000000F2
:103AD40000000000000000000000000000000000E2
:103AE40000000000000000000000000000000000D2
:103AF4000000000080418000D6A2B7000000000052
:103B0400804180004800DE00D6A2B700000000001B
:103B14000000000090418000D6A2B7000000000021
:103B2400904180004800DE00D6A2B70000000000EB
:103B340000000000A0418000D6A2B70000000000F1
:103B4400A04180004800DE00D6A2B70000000000BB
:103B540000000000B0418000D6A2B70000000000C1
:103B6400B04180004800DE00D6A2B700000000008B
:103B740000000000C0418000D6A2B7000000000091
:103B8400C04180004800DE00D6A2B700000000005B
:103B940000000000D0418000D6A2B7000000000061
:103BA400D04180004800DE00D6A2B700000000002B
:103BB40000000000E0418000D6A2B7000000000031
:103BC400E04180004800DE00D6A2B70000000000FB
:103BD40000000000F0418000D6A2B7000000000001
:103BE400F04180004800DE00D6A2B70000000000CB
:103BF4000000000000428000D6A2B70000000000D0
:103C0400004280004800DE00D6A2B7000000000099
:103C14000000000010428000D6A2B700000000009F
:103C2400104280004800DE00D6A2B7000000000069
:103C34000000000020428000D6A2B700000000006F
:103C4400204280004800DE00D6A2B7000000000039
:103C54000000000030428000D6A2B700000000003F
:103C6400304280004800DE00D6A2B7000000000009
:103C74000000000040428000D6A2B700000000000F
:103C8400404280004800DE00D6A2B70000000000D9
:103C94000000000050428000D6A2B70000000000DF
:103CA400504280004800DE00D6A2B70000000000A9
:103CB4000000000060428000D6A2B70000000000AF
:103CC400604280004800DE00D6A2B7000000000079
:103CD4000000000070428000D6A2B700000000007F
:103CE400704280004800DE00D6A2B7000000000049
:103CF4000000000080428000D6A2B700000000004F
:103D0400804280004800DE00D6A2B7000000000018
:103D14000000000090428000D6A2B700000000001E
:103D2400904280004800DE00D6A2B70000000000E8
:103D340000000000A0428000D6A2B70000000000EE
:103D4400A04280004800DE00D6A2B70000000000B8
:103D540000000000B0428000D6A2B70000000000BE
:103D6400B04280004800DE00D6A2B7000000000088
:103D7400000000000000000000000000D622EF0058
:103D84001100200000802000108840000000000086
:043D94000000060025
:1037F00000000000000000000000000000000000C9
:1038000000000000000000000000000000000000B8
:1038100000000000000000000000000000000000A8
:1038200000000000C0428000D6A2B70000000000E7
:10383000C04280004800DE00D6A2B70000000000B1
:1038400000000000D0428000D6A2B70000000000B7
:10385000D04280004800DE00D6A2B7000000000081
:1038600000000000E0428000D6A2B7000000000087
:10387000E04280004800DE00D6A2B7000000000051
:1038800000000000F0428000D6A2B7000000000057
:10389000F04280004800DE00D6A2B7000000000021
:1038A0000000000000438000D6A2B7000000000026
:1038B000004380004800DE00D6A2B70000000000F0
:1038C0000000000010438000D6A2B70000000000F6
:1038D000104380004800DE00D6A2B70000000000C0
:1038E0000000000020438000D6A2B70000000000C6
:1038F000204380004800DE00D6A2B7000000000090
:103900000000000030438000D6A2B7000000000095
:10391000304380004800DE00D6A2B700000000005F
:103920000000000040438000D6A2B7000000000065
:10393000404380004800DE00D6A2B700000000002F
:103940000000000050438000D6A2B7000000000035
:10395000504380004800DE00D6A2B70000000000FF
:103960000000000060438000D6A2B7000000000005
:10397000604380004800DE00D6A2B70000000000CF
:103980000000000070438000D6A2B70000000000D5
:10399000704380004800DE00D6A2B700000000009F
:1039A0000000000080438000D6A2B70000000000A5
:1039B000804380004800DE00D6A2B700000000006F
:1039C0000000000090438000D6A2B7000000000075
:1039D000904380004800DE00D6A2B700000000003F
:1039E00000000000A0438000D6A2B7000000000045
:1039F000A04380004800DE00D6A2B700000000000F
:103A000000000000B0438000D6A2B7000000000014
:103A1000B04380004800DE00D6A2B70000000000DE
:103A200000000000C0438000D6A2B70000000000E4
:103A3000C04380004800DE00D6A2B70000000000AE
:103A400000000000D0438000D6A2B70000000000B4
:103A5000D04380004800DE00D6A2B700000000007E
:103A600000000000E0438000D6A2B7000000000084
:103A7000E04380004800DE00D6A2B700000000004E
:103A800000000000F0438000D6A2B7000000000054
:103A9000F04380004800DE00D6A2B700000000001E
:103AA000000000000000000000000000D622EF002F
:103AB000110020000080200010884000000000005D
:043AC00000000600FC
:10406C000000000000000000000000000000000044
:10407C000000000000000000000000000000000034
:10408C000000000000000000000000000000000024
:10409C000000000000448000D6A2B7000000000021
:1040AC00004480004800DE00D6A2B70000000000EB
:1040BC000000000010448000D6A2B70000000000F1
:1040CC00104480004800DE00D6A2B70000000000BB
:1040DC000000000020448000D6A2B70000000000C1
:1040EC00204480004800DE00D6A2B700000000008B
:1040FC000000000030448000D6A2B7000000000091
:10410C00304480004800DE00D6A2B700000000005A
:10411C000000000040448000D6A2B7000000000060
:10412C00404480004800DE00D6A2B700000000002A
:10413C000000000050448000D6A2B7000000000030
:10414C00504480004800DE00D6A2B70000000000FA
:10415C000000000060448000D6A2B7000000000000
:10416C00604480004800DE00D6A2B70000000000CA
:10417C000000000070448000D6A2B70000000000D0
:10418C00704480004800DE00D6A2B700000000009A
:10419C000000000080448000D6A2B70000000000A0
:1041AC00804480004800DE00D6A2B700000000006A
:1041BC000000000090448000D6A2B7000000000070
:1041CC00904480004800DE00D6A2B700000000003A
:1041DC0000000000A0448000D6A2B7000000000040
:1041EC00A04480004800DE00D6A2B700000000000A
:1041FC0000000000B0448000D6A2B7000000000010
:10420C00B04480004800DE00D6A2B70000000000D9
:10421C0000000000C0448000D6A2B70000000000DF
:10422C00C04480004800DE00D6A2B70000000000A9
:10423C0000000000D0448000D6A2B70000000000AF
:10424C00D04480004800DE00D6A2B7000000000079
:10425C0000000000E0448000D6A2B700000000007F
:10426C00E04480004800DE00D6A2B7000000000049
:10427C0000000000F0448000D6A2B700000000004F
:10428C00F04480004800DE00D6A2B7000000000019
:10429C000000000000458000D6A2B700000000001E
:1042AC00004580004800DE00D6A2B70000000000E8
:1042BC000000000010458000D6A2B70000000000EE
:1042CC00104580004800DE00D6A2B70000000000B8
:1042DC000000000020458000D6A2B70000000000BE
:1042EC00204580004800DE00D6A2B7000000000088
:1042FC000000000030458000D6A2B700000000008E
:10430C00304580004800DE00D6A2B7000000000057
:10431C00000000000000000000000000D622EF00AA
:10432C0011002000008020001088400000000000D8
:04433C000000060077
:103D9800000000000000000000000000000000001B
:103DA800000000000000000000000000000000000B
:103DB80000000000000000000000000000000000FB
:103DC8000000000040458000D6A2B70000000000B7
:103DD800404580004800DE00D6A2B7000000000081
:103DE8000000000050458000D6A2B7000000000087
:103DF800504580004800DE00D6A2B7000000000051
:103E08000000000060458000D6A2B7000000000056
:103E1800604580004800DE00D6A2B7000000000020
:103E28000000000070458000D6A2B7000000000026
:103E3800704580004800DE00D6A2B70000000000F0
:103E48000000000080458000D6A2B70000000000F6
:103E5800804580004800DE00D6A2B70000000000C0
:103E68000000000090458000D6A2B70000000000C6
:103E7800904580004800DE00D6A2B7000000000090
:103E880000000000A0458000D6A2B7000000000096
:103E9800A04580004800DE00D6A2B7000000000060
:103EA80000000000B0458000D6A2B7000000000066
:103EB800B04580004800DE00D6A2B7000000000030
:103EC80000000000C0458000D6A2B7000000000036
:103ED800C04580004800DE00D6A2B7000000000000
:103EE80000000000D0458000D6A2B7000000000006
:103EF800D04580004800DE00D6A2B70000000000D0
:103F080000000000E0458000D6A2B70000000000D5
:103F1800E04580004800DE00D6A2B700000000009F
:103F280000000000F0458000D6A2B70000000000A5
:103F3800F04580004800DE00D6A2B700000000006F
:103F48000000000000468000D6A2B7000000000074
:103F5800004680004800DE00D6A2B700000000003E
:103F68000000000010468000D6A2B7000000000044
:103F7800104680004800DE00D6A2B700000000000E
:103F88000000000020468000D6A2B7000000000014
:103F9800204680004800DE00D6A2B70000000000DE
:103FA8000000000030468000D6A2B70000000000E4
:103FB800304680004800DE00D6A2B70000000000AE
:103FC8000000000040468000D6A2B70000000000B4
:103FD800404680004800DE00D6A2B700000000007E
:103FE8000000000050468000D6A2B7000000000084
:103FF800504680004800DE00D6A2B700000000004E
:104008000000000060468000D6A2B7000000000053
:10401800604680004800DE00D6A2B700000000001D
:104028000000000070468000D6A2B7000000000023
:10403800704680004800DE00D6A2B70000000000ED
:10404800000000000000000000000000D622EF0081
:1040580011002000008020001088400000000000AF
:04406800000006004E
:105B10000000000000000000000000000000000085
:105B20000000000000000000000000000000000075
:105B30000000000000000000000000000000000065
:105B40000000000080468000D6A2B70000000000E0
:105B5000804680004800DE00D6A2B70000000000AA
:105B60000000000090468000D6A2B70000000000B0
:105B7000904680004800DE00D6A2B700000000007A
:105B800000000000A0468000D6A2B7000000000080
:105B9000A04680004800DE00D6A2B700000000004A
:105BA00000000000B0468000D6A2B7000000000050
:105BB000B04680004800DE00D6A2B700000000001A
:105BC00000000000C0468000D6A2B7000000000020
:105BD000C04680004800DE00D6A2B70000000000EA
:105BE00000000000D0468000D6A2B70000000000F0
:105BF000D04680004800DE00D6A2B70000000000BA
:105C000000000000E0468000D6A2B70000000000BF
:105C1000E04680004800DE00D6A2B7000000000089
:105C200000000000F0468000D6A2B700000000008F
:105C3000F04680004800DE00D6A2B7000000000059
:105C40000000000000478000D6A2B700000000005E
:105C5000004780004800DE00D6A2B7000000000028
:105C60000000000010478000D6A2B700000000002E
:105C7000104780004800DE00D6A2B70000000000F8
:105C80000000000020478000D6A2B70000000000FE
:105C9000204780004800DE00D6A2B70000000000C8
:105CA0000000000030478000D6A2B70000000000CE
:105CB000304780004800DE00D6A2B7000000000098
:105CC0000000000040478000D6A2B700000000009E
:105CD000404780004800DE00D6A2B7000000000068
:105CE0000000000050478000D6A2B700000000006E
:105CF000504780004800DE00D6A2B7000000000038
:105D00000000000060478000D6A2B700000000003D
:105D1000604780004800DE00D6A2B7000000000007
:105D20000000000070478000D6A2B700000000000D
:105D3000704780004800DE00D6A2B70000000000D7
:105D40000000000080478000D6A2B70000000000DD
:105D5000804780004800DE00D6A2B70000000000A7
:105D60000000000090478000D6A2B70000000000AD
:105D7000904780004800DE00D6A2B7000000000077
:105D800000000000A0478000D6A2B700000000007D
:105D9000A04780004800DE00D6A2B7000000000047
:105DA00000000000B0478000D6A2B700000000004D
:105DB000B04780004800DE00D6A2B7000000000017
:105DC000000000000000000000000000D622EF00EC
:105DD000110020000080200010884000000000001A
:045DE00000000600B9
:10583C00000000000000000000000000000000005C
:10584C00000000000000000000000000000000004C
:10585C00000000000000000000000000000000003C
:10586C0000000000C0478000D6A2B7000000000076
:10587C00C04780004800DE00D6A2B7000000000040
:10588C0000000000D0478000D6A2B7000000000046
:10589C00D04780004800DE00D6A2B7000000000010
:1058AC0000000000E0478000D6A2B7000000000016
:1058BC00E04780004800DE00D6A2B70000000000E0
:1058CC0000000000F0478000D6A2B70000000000E6
:1058DC00F04780004800DE00D6A2B70000000000B0
:1058EC000000000000488000D6A2B70000000000B5
:1058FC00004880004800DE00D6A2B700000000007F
:10590C000000000010488000D6A2B7000000000084
:10591C00104880004800DE00D6A2B700000000004E
:10592C000000000020488000D6A2B7000000000054
:10593C00204880004800DE00D6A2B700000000001E
:10594C000000000030488000D6A2B7000000000024
:10595C00304880004800DE00D6A2B70000000000EE
:10596C000000000040488000D6A2B70000000000F4
:10597C00404880004800DE00D6A2B70000000000BE
:10598C000000000050488000D6A2B70000000000C4
:10599C00504880004800DE00D6A2B700000000008E
:1059AC000000000060488000D6A2B7000000000094
:1059BC00604880004800DE00D6A2B700000000005E
:1059CC000000000070488000D6A2B7000000000064
:1059DC00704880004800DE00D6A2B700000000002E
:1059EC000000000080488000D6A2B7000000000034
:1059FC00804880004800DE00D6A2B70000000000FE
:105A0C000000000090488000D6A2B7000000000003
:105A1C00904880004800DE00D6A2B70000000000CD
:105A2C0000000000A0488000D6A2B70000000000D3
:105A3C00A04880004800DE00D6A2B700000000009D
:105A4C0000000000B0488000D6A2B70000000000A3
:105A5C00B04880004800DE00D6A2B700000000006D
:105A6C0000000000C0488000D6A2B7000000000073
:105A7C00C04880004800DE00D6A2B700000000003D
:105A8C0000000000D0488000D6A2B7000000000043
:105A9C00D04880004800DE00D6A2B700000000000D
:105AAC0000000000E0488000D6A2B7000000000013
:105ABC00E04880004800DE00D6A2B70000000000DD
:105ACC0000000000F0488000D6A2B70000000000E3
:105ADC00F04880004800DE00D6A2B70000000000AD
:105AEC00000000000000000000000000D622EF00C3
:105AFC0011002000008020001088400000000000F1
:045B0C00000006008F
:1060B80000000000000000000000000000000000D8
:1060C80000000000000000000000000000000000C8
:1060D80000000000000000000000000000000000B8
:1060E8000000000000498000D6A2B70000000000B0
:1060F800004980004800DE00D6A2B700000000007A
:106108000000000010498000D6A2B700000000007F
:10611800104980004800DE00D6A2B7000000000049
:106128000000000020498000D6A2B700000000004F
:10613800204980004800DE00D6A2B7000000000019
:106148000000000030498000D6A2B700000000001F
:10615800304980004800DE00D6A2B70000000000E9
:106168000000000040498000D6A2B70000000000EF
:10617800404980004800DE00D6A2B70000000000B9
:106188000000000050498000D6A2B70000000000BF
:10619800504980004800DE00D6A2B7000000000089
:1061A8000000000060498000D6A2B700000000008F
:1061B800604980004800DE00D6A2B7000000000059
:1061C8000000000070498000D6A2B700000000005F
:1061D800704980004800DE00D6A2B7000000000029
:1061E8000000000080498000D6A2B700000000002F
:1061F800804980004800DE00D6A2B70000000000F9
:106208000000000090498000D6A2B70000000000FE
:10621800904980004800DE00D6A2B70000000000C8
:1062280000000000A0498000D6A2B70000000000CE
:10623800A04980004800DE00D6A2B7000000000098
:1062480000000000B0498000D6A2B700000000009E
:10625800B04980004800DE00D6A2B7000000000068
:1062680000000000C0498000D6A2B700000000006E
:10627800C04980004800DE00D6A2B7000000000038
:1062880000000000D0498000D6A2B700000000003E
:10629800D04980004800DE00D6A2B7000000000008
:1062A80000000000E0498000D6A2B700000000000E
:1062B800E04980004800DE00D6A2B70000000000D8
:1062C80000000000F0498000D6A2B70000000000DE
:1062D800F04980004800DE00D6A2B70000000000A8
:1062E80000000000004A8000D6A2B70000000000AD
:1062F800004A80004800DE00D6A2B7000000000077
:1063080000000000104A8000D6A2B700000000007C
:10631800104A80004800DE00D6A2B7000000000046
:1063280000000000204A8000D6A2B700000000004C
:10633800204A80004800DE00D6A2B7000000000016
:1063480000000000304A8000D6A2B700000000001C
:10635800304A80004800DE00D6A2B70000000000E6
:10636800000000000000000000000000D622EF003E
:10637800110020000080200010884000000000006C
:04638800000006000B
:105DE40000000000000000000000000000000000AF
:105DF400000000000000000000000000000000009F
:105E0400000000000000000000000000000000008E
:105E140000000000404A8000D6A2B7000000000045
:105E2400404A80004800DE00D6A2B700000000000F
:105E340000000000504A8000D6A2B7000000000015
:105E4400504A80004800DE00D6A2B70000000000DF
:105E540000000000604A8000D6A2B70000000000E5
:105E6400604A80004800DE00D6A2B70000000000AF
:105E740000000000704A8000D6A2B70000000000B5
:105E8400704A80004800DE00D6A2B700000000007F
:105E940000000000804A8000D6A2B7000000000085
:105EA400804A80004800DE00D6A2B700000000004F
:105EB40000000000904A8000D6A2B7000000000055
:105EC400904A80004800DE00D6A2B700000000001F
:105ED40000000000A04A8000D6A2B7000000000025
:105EE400A04A80004800DE00D6A2B70000000000EF
:105EF40000000000B04A8000D6A2B70000000000F5
:105F0400B04A80004800DE00D6A2B70000000000BE
:105F140000000000C04A8000D6A2B70000000000C4
:105F2400C04A80004800DE00D6A2B700000000008E
:105F340000000000D04A8000D6A2B7000000000094
:105F4400D04A80004800DE00D6A2B700000000005E
:105F540000000000E04A8000D6A2B7000000000064
:105F6400E04A80004800DE00D6A2B700000000002E
:105F740000000000F04A8000D6A2B7000000000034
:105F8400F04A80004800DE00D6A2B70000000000FE
:105F940000000000004B8000D6A2B7000000000003
:105FA400004B80004800DE00D6A2B70000000000CD
:105FB40000000000104B8000D6A2B70000000000D3
:105FC400104B80004800DE00D6A2B700000000009D
:105FD40000000000204B8000D6A2B70000000000A3
:105FE400204B80004800DE00D6A2B700000000006D
:105FF40000000000304B8000D6A2B7000000000073
:10600400304B80004800DE00D6A2B700000000003C
:1060140000000000404B8000D6A2B7000000000042
:10602400404B80004800DE00D6A2B700000000000C
:1060340000000000504B8000D6A2B7000000000012
:10604400504B80004800DE00D6A2B70000000000DC
:1060540000000000604B8000D6A2B70000000000E2
:10606400604B80004800DE00D6A2B70000000000AC
:1060740000000000704B8000D6A2B70000000000B2
:10608400704B80004800DE00D6A2B700000000007C
:10609400000000000000000000000000D622EF0015
:1060A4001100200000802000108840000000000043
:0460B40000000600E2
:105568000000000000000000000000000000000033
:105578000000000000000000000000000000000023
:105588000000000000000000000000000000000013
:1055980000000000804B8000D6A2B7000000000089
:1055A800804B80004800DE00D6A2B7000000000053
:1055B80000000000904B8000D6A2B7000000000059
:1055C800904B80004800DE00D6A2B7000000000023
:1055D80000000000A04B8000D6A2B7000000000029
:1055E800A04B80004800DE00D6A2B70000000000F3
:1055F80000000000B04B8000D6A2B70000000000F9
:10560800B04B80004800DE00D6A2B70000000000C2
:1056180000000000C04B8000D6A2B70000000000C8
:10562800C04B80004800DE00D6A2B7000000000092
:1056380000000000D04B8000D6A2B7000000000098
:10564800D04B80004800DE00D6A2B7000000000062
:1056580000000000E04B8000D6A2B7000000000068
:10566800E04B80004800DE00D6A2B7000000000032
:1056780000000000F04B8000D6A2B7000000000038
:10568800F04B80004800DE00D6A2B7000000000002
:1056980000000000004C8000D6A2B7000000000007
:1056A800004C80004800DE00D6A2B70000000000D1
:1056B80000000000104C8000D6A2B70000000000D7
:1056C800104C80004800DE00D6A2B70000000000A1
:1056D80000000000204C8000D6A2B70000000000A7
:1056E800204C80004800DE00D6A2B7000000000071
:1056F80000000000304C8000D6A2B7000000000077
:10570800304C80004800DE00D6A2B7000000000040
:1057180000000000404C8000D6A2B7000000000046
:10572800404C80004800DE00D6A2B7000000000010
:1057380000000000504C8000D6A2B7000000000016
:10574800504C80004800DE00D6A2B70000000000E0
:1057580000000000604C8000D6A2B70000000000E6
:10576800604C80004800DE00D6A2B70000000000B0
:1057780000000000704C8000D6A2B70000000000B6
:10578800704C80004800DE00D6A2B7000000000080
:1057980000000000804C8000D6A2B7000000000086
:1057A800804C80004800DE00D6A2B7000000000050
:1057B80000000000904C8000D6A2B7000000000056
:1057C800904C80004800DE00D6A2B7000000000020
:1057D80000000000A04C8000D6A2B7000000000026
:1057E800A04C80004800DE00D6A2B70000000000F0
:1057F80000000000B04C8000D6A2B70000000000F6
:10580800B04C80004800DE00D6A2B70000000000BF
:10581800000000000000000000000000D622EF0099
:1058280011002000008020001088400000000000C7
:045838000000060066
:104CEC0000000000000000000000000000000000B8
:104CFC0000000000000000000000000000000000A8
:104D0C000000000000000000000000000000000097
:104D1C0000000000C04C8000D6A2B70000000000CC
:104D2C00C04C80004800DE00D6A2B7000000000096
:104D3C0000000000D04C8000D6A2B700000000009C
:104D4C00D04C80004800DE00D6A2B7000000000066
:104D5C0000000000E04C8000D6A2B700000000006C
:104D6C00E04C80004800DE00D6A2B7000000000036
:104D7C0000000000F04C8000D6A2B700000000003C
:104D8C00F04C80004800DE00D6A2B7000000000006
:104D9C0000000000004D8000D6A2B700000000000B
:104DAC00004D80004800DE00D6A2B70000000000D5
:104DBC0000000000104D8000D6A2B70000000000DB
:104DCC00104D80004800DE00D6A2B70000000000A5
:104DDC0000000000204D8000D6A2B70000000000AB
:104DEC00204D80004800DE00D6A2B7000000000075
:104DFC0000000000304D8000D6A2B700000000007B
:104E0C00304D80004800DE00D6A2B7000000000044
:104E1C0000000000404D8000D6A2B700000000004A
:104E2C00404D80004800DE00D6A2B7000000000014
:104E3C0000000000504D8000D6A2B700000000001A
:104E4C00504D80004800DE00D6A2B70000000000E4
:104E5C0000000000604D8000D6A2B70000000000EA
:104E6C00604D80004800DE00D6A2B70000000000B4
:104E7C0000000000704D8000D6A2B70000000000BA
:104E8C00704D80004800DE00D6A2B7000000000084
:104E9C0000000000804D8000D6A2B700000000008A
:104EAC00804D80004800DE00D6A2B7000000000054
:104EBC0000000000904D8000D6A2B700000000005A
:104ECC00904D80004800DE00D6A2B7000000000024
:104EDC0000000000A04D8000D6A2B700000000002A
:104EEC00A04D80004800DE00D6A2B70000000000F4
:104EFC0000000000B04D8000D6A2B70000000000FA
:104F0C00B04D80004800DE00D6A2B70000000000C3
:104F1C0000000000C04D8000D6A2B70000000000C9
:104F2C00C04D80004800DE00D6A2B7000000000093
:104F3C0000000000D04D8000D6A2B7000000000099
:104F4C00D04D80004800DE00D6A2B7000000000063
:104F5C0000000000E04D8000D6A2B7000000000069
:104F6C00E04D80004800DE00D6A2B7000000000033
:104F7C0000000000F04D8000D6A2B7000000000039
:104F8C00F04D80004800DE00D6A2B7000000000003
:104F9C00000000000000000000000000D622EF001E
:104FAC00110020000080200010884000000000004C
:044FBC0000000600EB
:104A1800000000000000000000000000000000008E
:104A2800000000000000000000000000000000007E
:104A3800000000000000000000000000000000006E
:104A480000000000004E8000D6A2B7000000000061
:104A5800004E80004800DE00D6A2B700000000002B
:104A680000000000104E8000D6A2B7000000000031
:104A7800104E80004800DE00D6A2B70000000000FB
:104A880000000000204E8000D6A2B7000000000001
:104A9800204E80004800DE00D6A2B70000000000CB
:104AA80000000000304E8000D6A2B70000000000D1
:104AB800304E80004800DE00D6A2B700000000009B
:104AC80000000000404E8000D6A2B70000000000A1
:104AD800404E80004800DE00D6A2B700000000006B
:104AE80000000000504E8000D6A2B7000000000071
:104AF800504E80004800DE00D6A2B700000000003B
:104B080000000000604E8000D6A2B7000000000040
:104B1800604E80004800DE00D6A2B700000000000A
:104B280000000000704E8000D6A2B7000000000010
:104B3800704E80004800DE00D6A2B70000000000DA
:104B480000000000804E8000D6A2B70000000000E0
:104B5800804E80004800DE00D6A2B70000000000AA
:104B680000000000904E8000D6A2B70000000000B0
:104B7800904E80004800DE00D6A2B700000000007A
:104B880000000000A04E8000D6A2B7000000000080
:104B9800A04E80004800DE00D6A2B700000000004A
:104BA80000000000B04E8000D6A2B7000000000050
:104BB800B04E80004800DE00D6A2B700000000001A
:104BC80000000000C04E8000D6A2B7000000000020
:104BD800C04E80004800DE00D6A2B70000000000EA
:104BE80000000000D04E8000D6A2B70000000000F0
:104BF800D04E80004800DE00D6A2B70000000000BA
:104C080000000000E04E8000D6A2B70000000000BF
:104C1800E04E80004800DE00D6A2B7000000000089
:104C280000000000F04E8000D6A2B700000000008F
:104C3800F04E80004800DE00D6A2B7000000000059
:104C480000000000004F8000D6A2B700000000005E
:104C5800004F80004800DE00D6A2B7000000000028
:104C680000000000104F8000D6A2B700000000002E
:104C7800104F80004800DE00D6A2B70000000000F8
:104C880000000000204F8000D6A2B70000000000FE
:104C9800204F80004800DE00D6A2B70000000000C8
:104CA80000000000304F8000D6A2B70000000000CE
:104CB800304F80004800DE00D6A2B7000000000098
:104CC800000000000000000000000000D622EF00F5
:104CD8001100200000802000108840000000000023
:044CE80000000600C2
:10529400000000000000000000000000000000000A
:1052A40000000000000000000000000000000000FA
:1052B40000000000000000000000000000000000EA
:1052C40000000000404F8000D6A2B700000000009C
:1052D400404F80004800DE00D6A2B7000000000066
:1052E40000000000504F8000D6A2B700000000006C
:1052F400504F80004800DE00D6A2B7000000000036
:1053040000000000604F8000D6A2B700000000003B
:10531400604F80004800DE00D6A2B7000000000005
:1053240000000000704F8000D6A2B700000000000B
:10533400704F80004800DE00D6A2B70000000000D5
:1053440000000000804F8000D6A2B70000000000DB
:10535400804F80004800DE00D6A2B70000000000A5
:1053640000000000904F8000D6A2B70000000000AB
:10537400904F80004800DE00D6A2B7000000000075
:1053840000000000A04F8000D6A2B700000000007B
:10539400A04F80004800DE00D6A2B7000000000045
:1053A40000000000B04F8000D6A2B700000000004B
:1053B400B04F80004800DE00D6A2B7000000000015
:1053C40000000000C04F8000D6A2B700000000001B
:1053D400C04F80004800DE00D6A2B70000000000E5
:1053E40000000000D04F8000D6A2B70000000000EB
:1053F400D04F80004800DE00D6A2B70000000000B5
:1054040000000000E04F8000D6A2B70000000000BA
:10541400E04F80004800DE00D6A2B7000000000084
:1054240000000000F04F8000D6A2B700000000008A
:10543400F04F80004800DE00D6A2B7000000000054
:105444000000000000508000D6A2B7000000000059
:10545400005080004800DE00D6A2B7000000000023
:105464000000000010508000D6A2B7000000000029
:10547400105080004800DE00D6A2B70000000000F3
:105484000000000020508000D6A2B70000000000F9
:10549400205080004800DE00D6A2B70000000000C3
:1054A4000000000030508000D6A2B70000000000C9
:1054B400305080004800DE00D6A2B7000000000093
:1054C4000000000040508000D6A2B7000000000099
:1054D400405080004800DE00D6A2B7000000000063
:1054E4000000000050508000D6A2B7000000000069
:1054F400505080004800DE00D6A2B7000000000033
:105504000000000060508000D6A2B7000000000038
:10551400605080004800DE00D6A2B7000000000002
:105524000000000070508000D6A2B7000000000008
:10553400705080004800DE00D6A2B70000000000D2
:10554400000000000000000000000000D622EF0070
:10555400110020000080200010884000000000009E
:04556400000006003D
:104FC00000000000000000000000000000000000E1
:104FD00000000000000000000000000000000000D1
:104FE00000000000000000000000000000000000C1
:104FF0000000000080508000D6A2B7000000000032
:10500000805080004800DE00D6A2B70000000000FB
:105010000000000090508000D6A2B7000000000001
:10502000905080004800DE00D6A2B70000000000CB
:1050300000000000A0508000D6A2B70000000000D1
:10504000A05080004800DE00D6A2B700000000009B
:1050500000000000B0508000D6A2B70000000000A1
:10506000B05080004800DE00D6A2B700000000006B
:1050700000000000C0508000D6A2B7000000000071
:10508000C05080004800DE00D6A2B700000000003B
:1050900000000000D0508000D6A2B7000000000041
:1050A000D05080004800DE00D6A2B700000000000B
:1050B00000000000E0508000D6A2B7000000000011
:1050C000E05080004800DE00D6A2B70000000000DB
:1050D00000000000F0508000D6A2B70000000000E1
:1050E000F05080004800DE00D6A2B70000000000AB
:1050F0000000000000518000D6A2B70000000000B0
:10510000005180004800DE00D6A2B7000000000079
:105110000000000010518000D6A2B700000000007F
:10512000105180004800DE00D6A2B7000000000049
:105130000000000020518000D6A2B700000000004F
:10514000205180004800DE00D6A2B7000000000019
:105150000000000030518000D6A2B700000000001F
:10516000305180004800DE00D6A2B70000000000E9
:105170000000000040518000D6A2B70000000000EF
:10518000405180004800DE00D6A2B70000000000B9
:105190000000000050518000D6A2B70000000000BF
:1051A000505180004800DE00D6A2B7000000000089
:1051B0000000000060518000D6A2B700000000008F
:1051C000605180004800DE00D6A2B7000000000059
:1051D0000000000070518000D6A2B700000000005F
:1051E000705180004800DE00D6A2B7000000000029
:1051F0000000000080518000D6A2B700000000002F
:10520000805180004800DE00D6A2B70000000000F8
:105210000000000090518000D6A2B70000000000FE
:10522000905180004800DE00D6A2B70000000000C8
:1052300000000000A0518000D6A2B70000000000CE
:10524000A05180004800DE00D6A2B7000000000098
:1052500000000000B0518000D6A2B700000000009E
:10526000B05180004800DE00D6A2B7000000000068
:10527000000000000000000000000000D622EF0047
:105280001100200000802000108840000000000075
:045290000000060014
:10351C00000000000000000000000000000000009F
:10352C00000000000000000000000000000000008F
:10353C00000000000000000000000000000000007F
:10354C0000000000C0518000D6A2B70000000000AF
:10355C00C05180004800DE00D6A2B7000000000079
:10356C0000000000D0518000D6A2B700000000007F
:10357C00D05180004800DE00D6A2B7000000000049
:10358C0000000000E0518000D6A2B700000000004F
:10359C00E05180004800DE00D6A2B7000000000019
:1035AC0000000000F0518000D6A2B700000000001F
:1035BC00F05180004800DE00D6A2B70000000000E9
:1035CC000000000000528000D6A2B70000000000EE
:1035DC00005280004800DE00D6A2B70000000000B8
:1035EC000000000010528000D6A2B70000000000BE
:1035FC00105280004800DE00D6A2B7000000000088
:10360C000000000020528000D6A2B700000000008D
:10361C00205280004800DE00D6A2B7000000000057
:10362C000000000030528000D6A2B700000000005D
:10363C00305280004800DE00D6A2B7000000000027
:10364C000000000040528000D6A2B700000000002D
:10365C00405280004800DE00D6A2B70000000000F7
:10366C000000000050528000D6A2B70000000000FD
:10367C00505280004800DE00D6A2B70000000000C7
:10368C000000000060528000D6A2B70000000000CD
:10369C00605280004800DE00D6A2B7000000000097
:1036AC000000000070528000D6A2B700000000009D
:1036BC00705280004800DE00D6A2B7000000000067
:1036CC000000000080528000D6A2B700000000006D
:1036DC00805280004800DE00D6A2B7000000000037
:1036EC000000000090528000D6A2B700000000003D
:1036FC00905280004800DE00D6A2B7000000000007
:10370C0000000000A0528000D6A2B700000000000C
:10371C00A05280004800DE00D6A2B70000000000D6
:10372C0000000000B0528000D6A2B70000000000DC
:10373C00B05280004800DE00D6A2B70000000000A6
:10374C0000000000C0528000D6A2B70000000000AC
:10375C00C05280004800DE00D6A2B7000000000076
:10376C0000000000D0528000D6A2B700000000007C
:10377C00D05280004800DE00D6A2B7000000000046
:10378C0000000000E0528000D6A2B700000000004C
:10379C00E05280004800DE00D6A2B7000000000016
:1037AC0000000000F0528000D6A2B700000000001C
:1037BC00F05280004800DE00D6A2B70000000000E6
:1037CC00000000000000000000000000D622EF0006
:1037DC001100200000802000108840000000000034
:0437EC0000000600D3
:1010FC0000000000000000000000000000000000E4
:10110C0000000000000000000000000000000000D3
:10111C0000000000000000000000000000000000C3
:10112C000000000000538000D6A2B70000000000B1
:10113C00005380004800DE00D6A2B700000000007B
:10114C000000000010538000D6A2B7000000000081
:10115C00105380004800DE00D6A2B700000000004B
:10116C000000000020538000D6A2B7000000000051
:10117C00205380004800DE00D6A2B700000000001B
:10118C000000000030538000D6A2B7000000000021
:10119C00305380004800DE00D6A2B70000000000EB
:1011AC000000000040538000D6A2B70000000000F1
:1011BC00405380004800DE00D6A2B70000000000BB
:1011CC000000000050538000D6A2B70000000000C1
:1011DC00505380004800DE00D6A2B700000000008B
:1011EC000000000060538000D6A2B7000000000091
:1011FC00605380004800DE00D6A2B700000000005B
:10120C000000000070538000D6A2B7000000000060
:10121C00705380004800DE00D6A2B700000000002A
:10122C000000000080538000D6A2B7000000000030
:10123C00805380004800DE00D6A2B70000000000FA
:10124C000000000090538000D6A2B7000000000000
:10125C00905380004800DE00D6A2B70000000000CA
:10126C0000000000A0538000D6A2B70000000000D0
:10127C00A05380004800DE00D6A2B700000000009A
:10128C0000000000B0538000D6A2B70000000000A0
:10129C00B05380004800DE00D6A2B700000000006A
:1012AC0000000000C0538000D6A2B7000000000070
:1012BC00C05380004800DE00D6A2B700000000003A
:1012CC0000000000D0538000D6A2B7000000000040
:1012DC00D05380004800DE00D6A2B700000000000A
:1012EC0000000000E0538000D6A2B7000000000010
:1012FC00E05380004800DE00D6A2B70000000000DA
:10130C0000000000F0538000D6A2B70000000000DF
:10131C00F05380004800DE00D6A2B70000000000A9
:10132C000000000000548000D6A2B70000000000AE
:10133C00005480004800DE00D6A2B7000000000078
:10134C000000000010548000D6A2B700000000007E
:10135C00105480004800DE00D6A2B7000000000048
:10136C000000000020548000D6A2B700000000004E
:10137C00205480004800DE00D6A2B7000000000018
:10138C000000000030548000D6A2B700000000001E
:10139C00305480004800DE00D6A2B70000000000E8
:1013AC00000000000000000000000000D622EF004A
:1013BC001100200000802000108840000000000078
:0413CC000000060017
:100E280000000000000000000000000000000000BA
:100E380000000000000000000000000000000000AA
:100E4800000000000000000000000000000000009A
:100E58000000000040548000D6A2B7000000000047
:100E6800405480004800DE00D6A2B7000000000011
:100E78000000000050548000D6A2B7000000000017
:100E8800505480004800DE00D6A2B70000000000E1
:100E98000000000060548000D6A2B70000000000E7
:100EA800605480004800DE00D6A2B70000000000B1
:100EB8000000000070548000D6A2B70000000000B7
:100EC800705480004800DE00D6A2B7000000000081
:100ED8000000000080548000D6A2B7000000000087
:100EE800805480004800DE00D6A2B7000000000051
:100EF8000000000090548000D6A2B7000000000057
:100F0800905480004800DE00D6A2B7000000000020
:100F180000000000A0548000D6A2B7000000000026
:100F2800A05480004800DE00D6A2B70000000000F0
:100F380000000000B0548000D6A2B70000000000F6
:100F4800B05480004800DE00D6A2B70000000000C0
:100F580000000000C0548000D6A2B70000000000C6
:100F6800C05480004800DE00D6A2B7000000000090
:100F780000000000D0548000D6A2B7000000000096
:100F8800D05480004800DE00D6A2B7000000000060
:100F980000000000E0548000D6A2B7000000000066
:100FA800E05480004800DE00D6A2B7000000000030
:100FB80000000000F0548000D6A2B7000000000036
:100FC800F05480004800DE00D6A2B7000000000000
:100FD8000000000000558000D6A2B7000000000005
:100FE800005580004800DE00D6A2B70000000000CF
:100FF8000000000010558000D6A2B70000000000D5
:10100800105580004800DE00D6A2B700000000009E
:101018000000000020558000D6A2B70000000000A4
:10102800205580004800DE00D6A2B700000000006E
:101038000000000030558000D6A2B7000000000074
